:020000022000DC
:1060000000FD0320B1650200D9650200DB650200D6
:10601000DD650200DF650200E165020000000000AE
:10602000000000000000000000000000E365020026
:10603000E565020000000000E7650200E965020076
:10604000EB650200EB650200EB650200EB65020008
:10605000EB650200EB650200EB650200EB650200F8
:10606000EB650200EB650200EB650200EB650200E8
:10607000EB650200EB650200EB650200EB650200D8
:10608000EB650200EB650200EB650200EB650200C8
:10609000EB650200EB650200EB650200EB650200B8
:1060A000EB650200EB650200EB650200EB650200A8
:1060B000EB650200EB65020000000000000000003C
:1060C000EB650200EB650200EB650200EB65020088
:1060D000EB650200EB650200EB650200EB65020078
:1060E000EB650200EB650200EB65020000000000BA
:1060F00000000000EB65020000000000EB650200FC
:10610000000000000000000000000000000000008F
:10611000000000000000000000000000000000007F
:10612000000000000000000000000000000000006F
:10613000000000000000000000000000000000005F
:10614000000000000000000000000000000000004F
:10615000000000000000000000000000000000003F
:10616000000000000000000000000000000000002F
:10617000000000000000000000000000000000001F
:10618000000000000000000000000000000000000F
:1061900000000000000000000000000000000000FF
:1061A00000000000000000000000000000000000EF
:1061B00000000000000000000000000000000000DF
:1061C00000000000000000000000000000000000CF
:1061D00000000000000000000000000000000000BF
:1061E00000000000000000000000000000000000AF
:1061F000000000000000000000000000000000009F
:1062000010B5054C237833B9044B13B10448AFF3F0
:1062100000800123237010BD3433002000000000F3
:106220009C66020008B5034B1BB103490348AFF35A
:10623000008008BD00000000383300209C6602008A
:10624000154B002B08BF134B9D46A3F5803A002148
:106250008B460F461348144A121A00F0FFF90F4BF1
:10626000002B00D098470E4B002B00D09847002001
:10627000002104000D000D48002802D00C48AFF3A7
:10628000008000F0C7F92000290000F013F800F0AA
:10629000ADF900BF0000080000FD03200000000071
:1062A00000000000343300205033002000000000C4
:1062B0000000000010B500231F2B29D94FF0A04388
:1062C0004FF4F032C3F808250022C3F80C254FF034
:1062D00080434FF00F12C3F800240122C3F81C259D
:1062E0004FF0A042D2F80435D94301F48041C2F8FE
:1062F000081503F48043C2F80C354FF4FA744FF4D8
:106300007A400A4B43F001039847013CF7D1E7E795
:1063100001229A4012F4F03F06D003F5E0724FF0EC
:10632000A041032041F822000133C5E79066020036
:106330000120704701207047064B1B68082B01D0D5
:1063400000207047044B1B680BB1002070470120F0
:10635000704700BF3001001034010010064B1B686D
:10636000082B01D000207047044B1B680BB10020A4
:1063700070470120704700BF300100103401001049
:10638000064B1B68082B01D000207047044B1B688C
:106390000BB1002070470120704700BF3001001092
:1063A00034010010064B1B68082B01D000207047F9
:1063B000044B1B680BB1002070470120704700BFE1
:1063C000300100103401001001207047014B024AD7
:1063D0001A607047C83200200090D00308B5FFF75C
:1063E000A7FF40B14FF080430022C3F80C21C3F84F
:1063F0001021C3F83825FFF79DFF002846D04FF045
:106400008052D2F80414604BC3F82015D2F8081457
:10641000C3F82415D2F80C14C3F82815D2F81014B8
:10642000C3F82C15D2F81414C3F83015D2F8181488
:10643000C3F83415D2F81C14C3F84015D2F8201450
:10644000C3F84415D2F82414C3F84815D2F8281418
:10645000C3F84C15D2F82C14C3F85015D2F83014E8
:10646000C3F85415D2F83414C3F86015D2F83814B0
:10647000C3F86415D2F83C14C3F86815D2F8401478
:10648000C3F86C15D2F84424C3F87025FFF754FF05
:1064900010B13E4B3E4A1A60FFF760FF18B13D4B0A
:1064A000FB22C3F81825FFF76BFF48B13A490B6888
:1064B00023F00F03394A126802F00F0213430B60F6
:1064C000FFF770FF18B1364B4FF400721A60FFF7F8
:1064D0007BFF60B14FF08043D3F8003413F0010F1D
:1064E00005D04FF080436FF00102C3F800242D4A1D
:1064F000D2F8883043F47003C2F88830BFF34F8F6E
:10650000BFF36F8F4FF01023D3F80032002B08DB5E
:106510004FF01023D3F80432002B02DBFFF756FFB5
:1065200008BD214B0122C3F804251F4BD3F80034CA
:10653000002BFAD04FF010231222C3F800221A4B7E
:10654000D3F80034002BFAD04FF010231222C3F8F6
:106550000422154BD3F80034002BFAD0124B002242
:10656000C3F80425104BD3F80034002BFAD0BFF346
:106570004F8F0C49CA6802F4E0620C4B1343CB60A6
:10658000BFF34F8F00BFFDE700C000408C560040B6
:106590004881030000F00040E40E00405802001063
:1065A0004096024000ED00E000E001400400FA05E2
:1065B0000649074A074B9B1A03DD043BC858D050D5
:1065C000FBDCFFF70BFFFFF73BFE0000A8660200B5
:1065D000C832002034330020FEE7FEE7FEE7FEE786
:1065E000FEE7FEE7FEE7FEE7FEE7FEE708B5074B3E
:1065F000044613B10021AFF30080054B1868836A8D
:1066000003B19847204600F031F800BF00000000B9
:106610009866020070B50D4E0D4CA41BA410002509
:10662000A54209D10B4E0C4C00F022F8A41BA4107B
:106630000025A54205D170BD56F825309847013593
:10664000EEE756F8253098470135F2E72C33002065
:106650002C3300202C33002030330020024403462A
:10666000934200D1704703F8011BF9E7FEE700BF32
:10667000F8B500BFF8BC08BC9E467047F8B500BF2F
:10668000F8BC08BC9E4670470000000000000000F7
:106690000338FDD870470000CC3200200000000015
:0866A000A0FBFF7F01000000D8
:1066A8000090D0030000000000000000000000007F
:1066B80000000000000000000000000000000000D2
:1066C80000000000000000000000000000000000C2
:1066D80000000000000000000000000000000000B2
:1066E80000000000000000000000000000000000A2
:1066F8000000000000000000000000000000000092
:0C67080000000000256202000162020097
:04000003200065B1C3
:00000001FF
