:020000022000DC
:1060000000000420756302005D6302005F6302000C
:106010006163020063630200656302000000000028
:1060200000000000000000000000000067630200A4
:1060300069630200000000006B6302006D630200F0
:106040006F6302006F6302006F6302006F63020000
:106050006F6302006F6302006F6302006F630200F0
:106060006F6302006F6302006F6302006F630200E0
:106070006F6302006F6302006F6302006F630200D0
:106080006F6302006F6302006F6302006F630200C0
:106090006F6302006F6302006F6302006F630200B0
:1060A0006F6302006F6302006F6302006F630200A0
:1060B0006F6302006F630200000000000000000038
:1060C0006F6302006F6302006F6302006F63020080
:1060D0006F6302006F6302006F6302006F63020070
:1060E0006F6302006F6302006F6302000000000034
:1060F000000000006F630200000000006F630200F8
:10610000000000000000000000000000000000008F
:10611000000000000000000000000000000000007F
:10612000000000000000000000000000000000006F
:10613000000000000000000000000000000000005F
:10614000000000000000000000000000000000004F
:10615000000000000000000000000000000000003F
:10616000000000000000000000000000000000002F
:10617000000000000000000000000000000000001F
:10618000000000000000000000000000000000000F
:1061900000000000000000000000000000000000FF
:1061A00000000000000000000000000000000000EF
:1061B00000000000000000000000000000000000DF
:1061C00000000000000000000000000000000000CF
:1061D00000000000000000000000000000000000BF
:1061E00000000000000000000000000000000000AF
:1061F000000000000000000000000000000000009F
:10620000354936480A1A02D0072291438D4634494F
:1062100034480A1A06D00722914381F309880222E2
:1062200082F3148830483149314A00F044F831484B
:106230003149324A00F03FF831483249324A00F0E1
:106240003AF832483249334A00F035F83248334997
:10625000334A00F030F833483349344A00F02BF821
:1062600033483449344A00F026F83448344900228F
:1062700000F02CF833483449002200F027F8334866
:106280003349091A082902DB002202604160314AC1
:1062900090471F481F49884205D00268043003B464
:1062A000904703BCF7E700208646EC46002000211B
:1062B000294A9047FEE7884207D0521A05D0037852
:1062C00001300B700131013AF9D17047884202D098
:1062D00002700130FAE770470000042000E003205C
:1062E0000000042000000420B8660200E022002024
:1062F000E4220020D4630200D4630200A4660200FA
:10630000B8660200E0220020E0220020A46602001D
:10631000A4660200A4660200A4660200A46602004D
:10632000A4660200A4660200A4660200B66602002B
:10633000BC660200E4220020E4220020E4220020C7
:10634000E4220020E4220020E4220020E4220020B5
:10635000E44200209D63020091640200FEE7FEE734
:10636000FEE7FEE7FEE7FEE7FEE7FEE7FEE7FEE705
:10637000704700BF1048804710484FF0070188431E
:1063800085460F4880470F48016841F4700101605D
:10639000BFF34F8FBFF36F8FFFF732BF0A480B4930
:1063A0000B4A884207D0521A05D0037801300B708F
:1063B0000131013AF9D170477163020000000420F5
:1063C000ED64020088ED00E0A4660200E0220020F7
:0463D000E0220020A7
:1063D400074B1B5C1F2B86BF03F01F0305494FF0BF
:1063E400A041012202FA03F3C1F80835704700BF47
:1063F400A46602000003005008B50020FFF7E8FF80
:106404000120FFF7E5FF0220FFF7E2FF0320BDE8CC
:106414000840FFF7DDBF00000A4B185C1F288ABF45
:10642400094B4FF0A04300F01F00D3F804250121CD
:10643400814021EA02000A40C3F80805C3F80C258C
:10644400704700BFA466020000030050C20710B5E5
:1064540004460CD54FF0A0430322C3F83427C3F8F5
:106464003827C3F83C27C3F84027FFF7C5FFA30725
:106474000AD54FF0A0430C22C3F82C27C3F83027C9
:10648400C3F86027C3F8642710BD000038B50120A5
:106494000C4CFFF7DBFF44F001040020FFF7BCFFC6
:1064A4000120FFF7B9FF0220FFF7B6FF0320FFF733
:1064B400B3FF4FF4FA754FF47A40A047013DFAD187
:1064C400EBE700BFB0660200054B1B68082B01BF59
:1064D400044B1868B0FA80F0400918BF00207047D8
:1064E400300100103401001008B54FF08043002241
:1064F400C3F80C21C3F81021C3F838254FF080529B
:1065040003F54043D2F80414C3F82015D2F8081454
:10651400C3F82415D2F80C14C3F82815D2F81014B3
:10652400C3F82C15D2F81414C3F83015D2F8181483
:10653400C3F83415D2F81C14C3F84015D2F820144B
:10654400C3F84415D2F82414C3F84815D2F8281413
:10655400C3F84C15D2F82C14C3F85015D2F83014E3
:10656400C3F85415D2F83414C3F86015D2F83814AB
:10657400C3F86415D2F83C14C3F86815D2F8401473
:10658400C3F86C15D2F84424C3F87025FFF79CFFB8
:1065940010B1384B384A1A60FFF796FF18B1374BE1
:1065A400FB22C3F81825FFF78FFF48B13449354B58
:1065B4000A681B6822F00F0203F00F0313430B60F9
:1065C400FFF782FF18B1304B4FF400721A604FF09E
:1065D4008043D3F80024D20744BF6FF00102C3F80C
:1065E40000242A4AD2F8883043F47003C2F8883071
:1065F400BFF34F8FBFF36F8F4FF01023D3F80022F8
:10660400002A03DBD3F80432002B2FDA204B0122BB
:10661400C3F80425D3F80024002AFBD04FF010223D
:106624001221C2F80012D3F80024002AFBD04FF044
:1066340010231222C3F80422154B1A46D3F800146F
:106644000029FBD00021C3F80415D2F80034002B34
:10665400FBD0BFF34F8F0D490E4BCA6802F4E062C2
:106664001343CB60BFF34F8F00BFFDE70A4B0B4AC8
:106674001A6008BD8C5600404881030000F00040B9
:10668400E40E0040580200104096024000ED00E085
:1066940000E001400400FA05E02200200090D0034D
:1066A4000D0E0F1000000000000000000338FDD89C
:0266B40070472D
:0466B8000090D0037B
:040000032000637501
:00000001FF
