:020000022000DC
:1060000000FD00201966020041660200436602009E
:106010004566020047660200496602000000000073
:106020000000000000000000000000004B660200BD
:106030004D660200000000004F660200516602003B
:106040005366020053660200536602005366020064
:106050005366020053660200536602005366020054
:106060005366020053660200536602005366020044
:106070005366020053660200536602005366020034
:106080005366020053660200536602005366020024
:106090005366020053660200536602005366020014
:1060A0005366020053660200536602005366020004
:1060B000536602005366020000000000000000006A
:1060C00053660200536602005366020053660200E4
:1060D000536602005366020053660200000000008F
:1060E00000000000000000000000000000000000B0
:1060F00000000000000000000000000000000000A0
:10610000000000000000000000000000000000008F
:10611000000000000000000000000000000000007F
:10612000000000000000000000000000000000006F
:10613000000000000000000000000000000000005F
:10614000000000000000000000000000000000004F
:10615000000000000000000000000000000000003F
:10616000000000000000000000000000000000002F
:10617000000000000000000000000000000000001F
:10618000000000000000000000000000000000000F
:1061900000000000000000000000000000000000FF
:1061A00000000000000000000000000000000000EF
:1061B00000000000000000000000000000000000DF
:1061C00000000000000000000000000000000000CF
:1061D00000000000000000000000000000000000BF
:1061E00000000000000000000000000000000000AF
:1061F000000000000000000000000000000000009F
:1062000010B5054C237833B9044B13B10448AFF3F0
:1062100000800123237010BD3833002000000000EF
:10622000FC6602000C4B43B10C480D4910B5AFF3AE
:1062300000800C48036823B910BD0A48036833B9CD
:106240007047094B002BF7D0BDE810401847064BAC
:10625000002BF5D0184700BF00000000FC660200CC
:106260003C3300203433002000000000154B002B8D
:1062700008BF134B9D46A3F5803A00218B460F467D
:106280001348144A121A00F01DFA0F4B002B00D0CD
:1062900098470E4B002B00D09847002000210400A7
:1062A0000D000D48002802D00C48AFF3008000F02C
:1062B000E5F92000290000F013F800F0CBF900BF49
:1062C0000000080000FD00200000000000000000A9
:1062D000383300205433002000000000000000008C
:1062E00070B5002301224FF0A041032002FA03F40D
:1062F00014F4F01F18BF03F5E07403F1010318BF95
:1063000041F82400202BF1D14FF0A0434FF4F012BC
:106310000A4DC3F808250022C3F80C251C4645F099
:106320000105D4F8043583F40033C4F80435642639
:106330004FF47A40A847013EFAD1F2E7F066020036
:10634000094B1B78062B0CD1084B1B681A0708D188
:10635000074B186800F0F000A0F130035842584194
:1063600070470020704700BFE00F00F0E40F00F01E
:10637000E80F00F00C4B1B78062B10D10B4B1B6861
:106380001A070CD10A4B186800F0F003302B08D024
:1063900000F0E000A0F1400358425841704700204F
:1063A00070470120704700BFE00F00F0E40F00F0DD
:1063B000E80F00F008B5FFF7DDFF28B17F4B804AFA
:1063C0001B68C3F304231360FFF7BAFF10B17D4BC2
:1063D0007D4A1A60FFF7CEFF28B17C4B7C4A1B68D0
:1063E000C3F342331360FFF7ABFF20B1794AD368A0
:1063F00023F08073D360FFF7BDFF40B14FF08043BF
:106400000022C3F80C21C3F81021C3F83825FFF788
:1064100097FF10B1704B03221A60FFF791FF40B154
:106420006E4B05221A6001229A6700229A603F2271
:106430005A606B4B1B78062B09D16A4B1B681907F6
:1064400005D1694B1B6803F0F003502B67D0FFF7B1
:1064500091FF28B1654B664A1B6803F04F03136038
:10646000FFF788FF48B14FF08043D3F80024D207EC
:1064700044BF6FF00102C3F800245E4B1B68062B7B
:1064800004D15D4B1B68062B00F091805B4AD2F86B
:10649000883043F47003C2F88830BFF34F8FBFF3E6
:1064A0006F8F4FF01023D3F80022002A03DBD3F8BC
:1064B0000432002B2FDA524B0122C3F80425D3F803
:1064C0000024002AFBD04FF010221521C2F8001240
:1064D000D3F80024002AFBD04FF010231522C3F874
:1064E0000422474B1A46D3F800140029FBD00021A0
:1064F000C3F80415D2F80034002BFBD0BFF34F8F44
:106500003E49404BCA6802F4E0621343CB60BFF3DC
:106510004F8F00BFFDE73C4B3C4A1A6008BD4FF06F
:1065200080523B4BD2F80414C3F82015D2F808145B
:10653000C3F82415D2F80C14C3F82815D2F8101497
:10654000C3F82C15D2F81414C3F83015D2F8181467
:10655000C3F83415D2F81C14C3F84015D2F820142F
:10656000C3F84415D2F82414C3F84815D2F82814F7
:10657000C3F84C15D2F82C14C3F85015D2F83014C7
:10658000C3F85415D2F83414C3F86015D2F838148F
:10659000C3F86415D2F83C14C3F86815D2F8401457
:1065A000C3F86C15D2F84424C3F870254FE7194A94
:1065B000136843F48063136068E700BF240300108E
:1065C0004035014074C007400DF0ADBA44020010E0
:1065D0003C050040F0ED00E0A005004010560040F2
:1065E000E00F00F0E40F00F0E80F00F05802001098
:1065F000E40E0040300100103401001000ED00E016
:1066000000E001400400FA05C83200200090D003E9
:1066100000C000403C1700400649074A074B9B1A40
:1066200003DD043BC858D050FBDCFFF7C3FEFFF787
:106630001DFE000008670200C83200203833002029
:10664000FEE7FEE7FEE7FEE7FEE7FEE7FEE7FEE722
:10665000FEE7FEE708B5074B044613B10021AFF390
:106660000080054B1868836A03B19847204600F004
:1066700031F800BF00000000F866020070B50D4E52
:106680000D4CA41BA4100025A54209D10B4E0C4CA7
:1066900000F022F8A41BA4100025A54205D170BD6E
:1066A00056F8253098470135EEE756F825309847DB
:1066B0000135F2E72C3300202C3300202C3300204E
:1066C0003033002002440346934200D1704703F860
:1066D000011BF9E7FEE700BFF8B500BFF8BC08BC36
:1066E0009E467047F8B500BFF8BC08BC9E46704790
:1066F0000338FDD870470000CC32002000000000B5
:086700006CFBFF7F01000000AB
:106708000090D0030000000000000000000000001E
:106718000000000000000000000000000000000071
:106728000000000000000000000000000000000061
:106738000000000000000000000000000000000051
:106748000000000000000000000000000000000041
:106758000000000000000000000000000000000031
:106768000000000025620200016202000000000033
:04000003200066195A
:00000001FF
