:020000022000DC
:1070000000000420B5720200DD720200DF7202008F
:10701000E1720200E3720200E5720200000000006B
:10702000000000000000000000000000E772020005
:10703000E972020000000000EB720200ED72020033
:10704000EF720200EF720200EF720200EF720200B4
:10705000EF720200EF720200EF720200EF720200A4
:10706000EF720200EF720200EF720200EF72020094
:10707000EF720200EF720200EF720200EF72020084
:10708000EF720200EF720200EF720200EF72020074
:10709000EF720200EF720200E1770200EF7202006D
:1070A000EF720200EF720200EF720200EF72020054
:1070B000EF720200EF72020000000000000000000A
:1070C000EF720200EF720200EF720200EF72020034
:1070D000EF720200EF720200EF7202000000000087
:1070E00000000000000000000000000000000000A0
:1070F0000000000000000000000000000000000090
:10710000000000000000000000000000000000007F
:10711000000000000000000000000000000000006F
:10712000000000000000000000000000000000005F
:10713000000000000000000000000000000000004F
:10714000000000000000000000000000000000003F
:10715000000000000000000000000000000000002F
:10716000000000000000000000000000000000001F
:10717000000000000000000000000000000000000F
:1071800000000000000000000000000000000000FF
:1071900000000000000000000000000000000000EF
:1071A00000000000000000000000000000000000DF
:1071B00000000000000000000000000000000000CF
:1071C00000000000000000000000000000000000BF
:1071D00000000000000000000000000000000000AF
:1071E000000000000000000000000000000000009F
:1071F000000000000000000000000000000000008F
:1072000010B5054C237833B9044B13B10448AFF3E0
:1072100000800123237010BDD4590020000000001D
:107220002479020008B5034B1BB103490348AFF3AF
:10723000008008BD00000000D85900202479020019
:10724000154B002B08BF134B9D46A3F5803A002138
:107250008B460F461348144A121A00F037FB0F4BA7
:10726000002B00D098470E4B002B00D098470020F1
:10727000002104000D000D48002802D00C48AFF397
:10728000008000F0FFFA2000290000F0B1F800F0C3
:10729000E5FA00BF00000800000004200000000024
:1072A00000000000D4590020F05900200000000028
:1072B000000000000649074A074B9B1A03DD043B08
:1072C000C858D050FBDC00F0ABF8FFF7B9FF000066
:1072D0003879020068590020D4590020FEE7FEE703
:1072E000FEE7FEE7FEE7FEE7FEE7FEE7FEE7FEE776
:1072F000074B4FF0A041185CD1F8043501228240C1
:1073000022EA03001340C1F80805C1F80C357047A4
:10731000F8780200C20730B41AD54FF0A043032218
:10732000C3F834274FF40055C3F838274FF480448E
:10733000C3F83C274FF40041C3F840274FF4803294
:10734000C3F80855C3F80845C3F80815C3F808255D
:1073500083070AD54FF0A0430C22C3F82C27C3F8AB
:107360003027C3F86027C3F8642730BC704700BFDC
:1073700000B585B000230390194601AA44F201002C
:10738000CDE9013300F004F805B05DF804FB00BF5F
:1073900072B6094B1B68DB0700D500BEBFF34F8FE9
:1073A0000649074BCA6802F4E0621343CB60BFF39F
:1073B0004F8F00BFFDE700BFF0ED00E000ED00E003
:1073C0000400FA0501600B6843604A68934204BFF9
:1073D00000234360704700BF436843B1026891686F
:1073E0000B4443605268934204BF002343607047DC
:1073F00070B50120094DFFF78DFF45F0010500260E
:107400003046FFF775FF4FF4FA744FF47A40A847FF
:10741000013CFAD10136042EF2D1F0E700790200E6
:1074200030B4904B1B78062B20D08F4B1B68062B5B
:1074300000F085808D4AD2F8883043F47003C2F89A
:107440008830BFF34F8FBFF36F8F4FF01023D3F807
:107450000022002AC0F28681D3F80432002BC0F249
:107460008181834B834A1A6030BC7047824B1B6812
:107470001D07DAD1814B1B6803F0F002302A00F0BF
:107480009E8003F0E003402B00F099807B4B1B684B
:1074900003F0F003302B00F0B980784B1B6803F049
:1074A000F002302A56D003F0E003402B52D0734B49
:1074B0001B6803F0F003302B00F0B6806F4B1B68A5
:1074C00003F0F002302A66D003F0E003402B62D0D4
:1074D0006A4B1B6803F0F003302B00F0B580674B5C
:1074E0001B6803F0F003302B79D0644B1B6803F06A
:1074F000F003502B00F0E480604B1B6803F0F002B7
:10750000302A37D003F0E003402B33D05B4B1B68AD
:1075100003F0F002302A03D003F0E003402B84D1C3
:107520004FF08043D3F80024D20744BF6FF001022C
:10753000C3F800244C4B1B68062B7FF47BAF504BE9
:107540001B68062B7FF476AF4E4A136843F48063C2
:1075500013606FE74C4B434A1B6812784B49C3F3E7
:107560004233062A0B6048D1434B1B6819077FF44E
:107570005CAF9CE7464A3B4B12681B78454902F0DA
:107580004F02062B0A607FF450AF3B4B1B68190774
:107590007FF44BAFBAE74FF080430022C3F80C21D1
:1075A000C3F81021C3F838252E4B1B78062B7FF427
:1075B0003CAF314B1B681B077FF437AF88E7364B76
:1075C000284A1B6812783549C3F30423062A0B6046
:1075D000EAD1294B1B681C077FF427AF56E7304CD4
:1075E000204A304912783048304B05252560012566
:1075F0000D6000243F2104601960062A7FF415AF56
:107600001D4B1B681C077FF410AF6EE7154B284A13
:107610001B7828491160062B7FF407AF164B1B68B7
:1076200018077FF402AF38E723490E4BCA681B786E
:1076300022F08072062BCA607FF4F7AE0E4B1B68F7
:107640001A077FF4F2AE39E7064B1C4A1B78032178
:10765000062B11607FF4E9AE074B1B681D077FF412
:10766000E4AE3CE7E00F00F03001001000ED00E078
:10767000685900200090D003E40F00F0E80F00F0FC
:10768000340100103C170040440200103C0500404B
:1076900058020010E40E0040240300104035014061
:1076A00010560040885600401856004014560040BE
:1076B00074C007400DF0ADBAF0ED00E0A005004049
:1076C0004FF08053404AD3F80414C2F82015D3F881
:1076D0000814C2F82415D3F80C14C2F82815D3F8EE
:1076E0001014C2F82C15D3F81414C2F83015D3F8BE
:1076F0001814C2F83415D3F81C14C2F84015D3F886
:107700002014C2F84415D3F82414C2F84815D3F84D
:107710002814C2F84C15D3F82C14C2F85015D3F81D
:107720003014C2F85415D3F83414C2F86015D3F8E5
:107730003814C2F86415D3F83C14C2F86815D3F8AD
:1077400040142248C2F86C15D3F844140378C2F8E8
:107750007015062B7FF469AE1D4B1B6818077FF46C
:1077600064AEC9E61B4B0122C3F80425D3F80024FC
:10777000002AFBD04FF0102315221649C3F800222F
:10778000D1F80034002BFBD04FF010221521114B03
:10779000C2F80412D3F80024002AFBD000220D49BD
:1077A000C3F80425D1F80034002BFBD0BFF34F8F72
:1077B00009490A4BCA6802F4E0621343CB60BFF385
:1077C0004F8F00BFFDE700BF00C00040E00F00F09A
:1077D000E40F00F000E0014000ED00E00400FA05D5
:1077E00000B583B068460849FFF7ECFD019B43B143
:1077F000D3E9002090476846FFF7EEFD019B002B80
:10780000F6D103B05DF804FB087902004BDF704746
:1078100010B5114C84B001A8FFF7F8FFA8B92146B4
:1078200002A8FFF7CFFD039B002BF4D0D3E9002182
:107830000198904702A8FFF7CFFD039B002BF5D1DD
:1078400001A8FFF7E3FF0028E9D0052801D0FFF7E2
:107850008FFD04B010BD00BF1479020008B5074BBE
:10786000044613B10021AFF30080054B1868836A0A
:1078700003B19847204600F031F800BF0000000037
:107880002079020070B50D4E0D4CA41BA4100025EC
:10789000A54209D10B4E0C4C00F022F8A41BA410F9
:1078A0000025A54205D170BD56F825309847013511
:1078B000EEE756F8253098470135F2E7CC5900201D
:1078C000CC590020CC590020D05900200244034656
:1078D000934200D1704703F8011BF9E7FEE700BFB0
:1078E000F8B500BFF8BC08BC9E467047F8B500BFAD
:1078F000F8BC08BC9E4670470D0E0F10000000003B
:107900000338FDD870470000287902003079020062
:107910000800000028790200287902000800000011
:087920006C590020000000007A
:087928001178020000000000CC
:0879300010F9FF7F01000000C7
:107938000090D003000000000000000000000000DC
:10794800000000000000000000000000000000002F
:10795800000000000000000000000000000000001F
:10796800000000000000000000000000000000000F
:1079780000000000000000000000000000000000FF
:1079880000000000000000000000000000000000EF
:0C799800000000002572020001720200D5
:04000003200072B5B2
:00000001FF
