:020000022000DC
:1060000000FD03201965020041650200436502009E
:106010004565020047650200496502000000000076
:106020000000000000000000000000004B650200BE
:106030004D650200000000004F650200516502003E
:106040005365020053650200536502005365020068
:106050005365020053650200536502005365020058
:106060005365020053650200536502005365020048
:106070005365020053650200536502005365020038
:106080005365020053650200536502005365020028
:106090005365020053650200536502005365020018
:1060A0005365020053650200536502005365020008
:1060B000536502005365020000000000000000006C
:1060C00053650200536502005365020053650200E8
:1060D00053650200536502005365020053650200D8
:1060E0005365020053650200536502000000000082
:1060F000000000005365020000000000536502002C
:10610000000000000000000000000000000000008F
:10611000000000000000000000000000000000007F
:10612000000000000000000000000000000000006F
:10613000000000000000000000000000000000005F
:10614000000000000000000000000000000000004F
:10615000000000000000000000000000000000003F
:10616000000000000000000000000000000000002F
:10617000000000000000000000000000000000001F
:10618000000000000000000000000000000000000F
:1061900000000000000000000000000000000000FF
:1061A00000000000000000000000000000000000EF
:1061B00000000000000000000000000000000000DF
:1061C00000000000000000000000000000000000CF
:1061D00000000000000000000000000000000000BF
:1061E00000000000000000000000000000000000AF
:1061F000000000000000000000000000000000009F
:1062000010B5054C237833B9044B13B10448AFF3F0
:1062100000800123237010BD3833002000000000EF
:10622000FC6502000C4B43B10C480D4910B5AFF3AF
:1062300000800C48036823B910BD0A48036833B9CD
:106240007047094B002BF7D0BDE810401847064BAC
:10625000002BF5D0184700BF00000000FC650200CD
:106260003C3300203433002000000000154B002B8D
:1062700008BF134B9D46A3F5803A00218B460F467D
:106280001348144A121A00F09DF90F4B002B00D04E
:1062900098470E4B002B00D09847002000210400A7
:1062A0000D000D48002802D00C48AFF3008000F02C
:1062B00065F92000290000F0FFF800F04BF900BF5D
:1062C0000000080000FD03200000000000000000A6
:1062D000383300205433002000000000000000008C
:1062E000054B1B68082B01BF044B1868B0FA80F0FF
:1062F000400918BF00207047300100103401001021
:1063000008B54FF080430022C3F80C21C3F81021D8
:10631000C3F838254FF0805203F54043D2F80414F7
:10632000C3F82015D2F80814C3F82415D2F80C14B9
:10633000C3F82815D2F81014C3F82C15D2F8141489
:10634000C3F83015D2F81814C3F83415D2F81C1459
:10635000C3F84015D2F82014C3F84415D2F8241419
:10636000C3F84815D2F82814C3F84C15D2F82C14E9
:10637000C3F85015D2F83014C3F85415D2F83414B9
:10638000C3F86015D2F83814C3F86415D2F83C1479
:10639000C3F86815D2F84014C3F86C15D2F8442439
:1063A000C3F87025FFF79CFF10B1384B384A1A60CC
:1063B000FFF796FF18B1374BFB22C3F81825FFF7FC
:1063C0008FFF48B13449354B0A681B6822F00F0231
:1063D00003F00F0313430B60FFF782FF18B1304B3C
:1063E0004FF400721A604FF08043D3F80024D207B4
:1063F00044BF6FF00102C3F800242A4AD2F8883063
:1064000043F47003C2F88830BFF34F8FBFF36F8F30
:106410004FF01023D3F80022002A03DBD3F8043214
:10642000002B2FDA204B0122C3F80425D3F80024D7
:10643000002AFBD04FF010221221C2F80012D3F82C
:106440000024002AFBD04FF010231222C3F80422AC
:10645000154B1A46D3F800140029FBD00021C3F8CD
:106460000415D2F80034002BFBD0BFF34F8F0D4939
:106470000E4BCA6802F4E0621343CB60BFF34F8F48
:1064800000BFFDE70A4B0B4A1A6008BD8C5600405E
:106490004881030000F00040E40E00405802001064
:1064A0004096024000ED00E000E001400400FA05E3
:1064B000C83200200090D00308B5012200234FF01D
:1064C000A041032002FA03F414F4F03F18BF03F5CF
:1064D000E07403F1010318BF41F82400202BF1D12F
:1064E0004FF0A0434FF4F0320A4DC3F808250022C4
:1064F000C3F80C251C4645F00105D4F8043583F497
:106500000053C4F8043564264FF47A40A847013E8E
:10651000FAD1F2E7F06502000649074A074B9B1AD9
:1065200003DD043BC858D050FBDCFFF7E9FEFFF762
:106530009DFE000008660200C832002038330020AB
:10654000FEE7FEE7FEE7FEE7FEE7FEE7FEE7FEE723
:10655000FEE7FEE708B5074B044613B10021AFF391
:106560000080054B1868836A03B19847204600F005
:1065700031F800BF00000000F865020070B50D4E54
:106580000D4CA41BA4100025A54209D10B4E0C4CA8
:1065900000F022F8A41BA4100025A54205D170BD6F
:1065A00056F8253098470135EEE756F825309847DC
:1065B0000135F2E72C3300202C3300202C3300204F
:1065C0003033002002440346934200D1704703F861
:1065D000011BF9E7FEE700BFF8B500BFF8BC08BC37
:1065E0009E467047F8B500BFF8BC08BC9E46704791
:1065F0000338FDD870470000CC32002000000000B6
:086600006CFCFF7F01000000AB
:106608000090D0030000000000000000000000001F
:106618000000000000000000000000000000000072
:106628000000000000000000000000000000000062
:106638000000000000000000000000000000000052
:106648000000000000000000000000000000000042
:106658000000000000000000000000000000000032
:106668000000000025620200016202000000000034
:04000003200065195B
:00000001FF
