:020000022000DC
:1060000000000120756302005D6302005F6302000F
:106010006163020063630200656302000000000028
:1060200000000000000000000000000067630200A4
:1060300069630200000000006B6302006D630200F0
:106040006F6302006F6302006F6302006F63020000
:106050006F6302006F6302006F6302006F630200F0
:106060006F6302006F6302006F6302006F630200E0
:106070006F6302006F6302006F6302006F630200D0
:106080006F6302006F6302006F6302006F630200C0
:106090006F6302006F6302006F6302006F630200B0
:1060A0006F6302006F6302006F6302006F630200A0
:1060B0006F6302006F630200000000000000000038
:1060C0006F6302006F6302006F6302006F63020080
:1060D0006F6302006F6302006F6302000000000044
:1060E00000000000000000000000000000000000B0
:1060F00000000000000000000000000000000000A0
:10610000000000000000000000000000000000008F
:10611000000000000000000000000000000000007F
:10612000000000000000000000000000000000006F
:10613000000000000000000000000000000000005F
:10614000000000000000000000000000000000004F
:10615000000000000000000000000000000000003F
:10616000000000000000000000000000000000002F
:10617000000000000000000000000000000000001F
:10618000000000000000000000000000000000000F
:1061900000000000000000000000000000000000FF
:1061A00000000000000000000000000000000000EF
:1061B00000000000000000000000000000000000DF
:1061C00000000000000000000000000000000000CF
:1061D00000000000000000000000000000000000BF
:1061E00000000000000000000000000000000000AF
:1061F000000000000000000000000000000000009F
:10620000354936480A1A02D0072291438D4634494F
:1062100034480A1A06D00722914381F309880222E2
:1062200082F3148830483149314A00F044F831484B
:106230003149324A00F03FF831483249324A00F0E1
:106240003AF832483249334A00F035F83248334997
:10625000334A00F030F833483349344A00F02BF821
:1062600033483449344A00F026F83448344900228F
:1062700000F02CF833483449002200F027F8334866
:106280003349091A082902DB002202604160314AC1
:1062900090471F481F49884205D00268043003B464
:1062A000904703BCF7E700208646EC46002000211B
:1062B000294A9047FEE7884207D0521A05D0037852
:1062C00001300B700131013AF9D17047884202D098
:1062D00002700130FAE770470000012000E0002062
:1062E000000001200000012088670200B822002081
:1062F000BC220020D4630200D46302007C67020049
:1063000088670200B8220020B82200207C670200C3
:106310007C6702007C6702007C6702007C670200E9
:106320007C6702007C6702007C67020086670200CF
:106330008C670200BC220020BC220020BC2200206E
:10634000BC220020BC220020BC220020BC22002055
:10635000BC4200209D63020071640200FEE7FEE77C
:10636000FEE7FEE7FEE7FEE7FEE7FEE7FEE7FEE705
:10637000704700BF1048804710484FF0070188431E
:1063800085460F4880470F48016841F4700101605D
:10639000BFF34F8FBFF36F8FFFF732BF0A480B4930
:1063A0000B4A884207D0521A05D0037801300B708F
:1063B0000131013AF9D170477163020000000120F8
:1063C0002165020088ED00E07C670200B822002011
:0463D000B8220020CF
:1063D400044B1A5C012393404FF0A042C2F80835E5
:1063E400704700BF7C67020008B50020FFF7F0FF8C
:1063F4000120FFF7EDFF0220FFF7EAFF0320BDE8CD
:106404000840FFF7E5BF0000074A4FF0A041105CC9
:10641400D1F804350122824022EA03001340C1F876
:106424000805C1F80C3570477C670200C20708B53F
:1064340001460CD54FF0A0430322C3F84427C3F808
:106444004827C3F84C27C3F85027FFF7CDFF8B0725
:106454000AD54FF0A0430C22C3F83427C3F83827D9
:10646400C3F83C27C3F8402708BD000038B5012015
:106474000C4CFFF7DBFF44F001040020FFF7C4FFDE
:106484000120FFF7C1FF0220FFF7BEFF0320FFF743
:10649400BBFF4FF4FA754FF47A40A047013DFAD19F
:1064A400EBE700BF806702000C4B1B78062B10D172
:1064B4000B4B1B681A070CD10A4B186800F0F00349
:1064C400302B08D000F0E000A0F1400358425841BE
:1064D4007047002070470120704700BFE00F00F0B4
:1064E400E40F00F0E80F00F0094B1B78062B0CD1E9
:1064F400084B1B681A0708D1074B186800F0F00016
:10650400A0F130035842584170470020704700BF43
:10651400E00F00F0E40F00F0E80F00F008B5FFF71B
:10652400C3FF28B17D4B7E4A1B68C3F30423136069
:10653400FFF7DAFF10B17B4B7B4A1A60FFF7B4FF19
:1065440028B17A4B7A4A1B68C3F342331360FFF7CE
:10655400CBFF20B1774AD36823F08073D360FFF771
:10656400A3FF40B14FF080430022C3F80C21C3F8CD
:106574001021C3F83825FFF7B7FF10B16E4B032283
:106584001A60FFF7B1FF40B16C4B05221A6001227B
:106594009A6700229A603F225A60694B1B78062B47
:1065A40050D1684B1B6819074CD1674B1B6803F02B
:1065B400F003502B46D14FF08052644BD2F80414B0
:1065C400C3F82015D2F80814C3F82415D2F80C1413
:1065D400C3F82815D2F81014C3F82C15D2F81414E3
:1065E400C3F83015D2F81814C3F83415D2F81C14B3
:1065F400C3F84015D2F82014C3F84415D2F8241473
:10660400C3F84815D2F82814C3F84C15D2F82C1442
:10661400C3F85015D2F83014C3F85415D2F8341412
:10662400C3F86015D2F83814C3F86415D2F83C14D2
:10663400C3F86815D2F84014C3F86C15D2F8442492
:10664400C3F87025FFF730FF28B1414B414A1B685E
:1066540003F04F031360FFF727FF48B14FF0804367
:10666400D3F80024D20744BF6FF00102C3F800241A
:10667400394B1B68062B08D1384B1B68062B01BF0E
:10668400374A136843F480631360364AD2F888307B
:1066940043F47003C2F88830BFF34F8FBFF36F8F9A
:1066A4004FF01023D3F80022002A03DBD3F804327E
:1066B400002B2FDA2C4B0122C3F80425D3F8002435
:1066C400002AFBD04FF010221521C2F80012D3F893
:1066D4000024002AFBD04FF010231522C3F8042213
:1066E400214B1A46D3F800140029FBD00021C3F82B
:1066F4000415D2F80034002BFBD0BFF34F8F194997
:106704001A4BCA6802F4E0621343CB60BFF34F8FA5
:1067140000BFFDE7164B174A1A6008BD240300109A
:106724004035014074C007400DF0ADBA440200107A
:106734003C050040F0ED00E0A0050040105600408C
:10674400E00F00F0E40F00F0E80F00F000C000409C
:1067540058020010E40E0040300100103401001013
:106764003C17004000ED00E000E001400400FA05A1
:08677400B82200200090D003C0
:0A677C00111213140338FDD8704702
:046788000090D003AA
:040000032000637501
:00000001FF
