:020000022000DC
:1040000000FD032079450200A1450200A3450200FE
:10401000A5450200A7450200A945020000000000D6
:10402000000000000000000000000000AB4502009E
:10403000AD45020000000000AF450200B14502009E
:10404000B3450200B3450200B3450200B345020088
:10405000B3450200B3450200B3450200B345020078
:10406000B3450200B3450200B3450200B345020068
:10407000B3450200B3450200B3450200B345020058
:10408000B3450200B3450200B3450200B345020048
:10409000B3450200B3450200B3450200B345020038
:1040A000B3450200B3450200B3450200B345020028
:1040B000B3450200B345020000000000000000000C
:1040C000B3450200B3450200B3450200B345020008
:1040D000B3450200B3450200B3450200B3450200F8
:1040E000B3450200B3450200B345020000000000E2
:1040F00000000000B345020000000000B3450200CC
:1041000000000000000000000000000000000000AF
:10411000000000000000000000000000000000009F
:10412000000000000000000000000000000000008F
:10413000000000000000000000000000000000007F
:10414000000000000000000000000000000000006F
:10415000000000000000000000000000000000005F
:10416000000000000000000000000000000000004F
:10417000000000000000000000000000000000003F
:10418000000000000000000000000000000000002F
:10419000000000000000000000000000000000001F
:1041A000000000000000000000000000000000000F
:1041B00000000000000000000000000000000000FF
:1041C00000000000000000000000000000000000EF
:1041D00000000000000000000000000000000000DF
:1041E00000000000000000000000000000000000CF
:1041F00000000000000000000000000000000000BF
:1042000010B5054C237833B9044B13B10448AFF310
:1042100000800123237010BD283200200000000020
:10422000544602000C4B43B10C480D4910B5AFF396
:1042300000800C48036823B910BD0A48036833B9ED
:104240007047094B002BF7D0BDE810401847064BCC
:10425000002BF5D0184700BF0000000054460200B4
:104260002C3200202432002000000000154B002BCF
:1042700008BF134B9D46A3F5803A00218B460F469D
:104280001348144A121A00F0CDF90F4B002B00D03E
:1042900098470E4B002B00D09847002000210400C7
:1042A0000D000D48002802D00C48AFF3008000F04C
:1042B00095F92000290000F013F800F07BF900BF09
:1042C0000000080000FD03200000000000000000C6
:1042D00028320020443200200000000000000000CE
:1042E0004FF0A0434FF40052C3F81825234A244846
:1042F0001168244CD3F8042582F40052C3F8042535
:10430000224600BF00BF00BF00BF00BF00BF00BF0C
:1043100000BF81422FD000BF00BF00BF00BF00BF61
:1043200000BF00BF00BF00BF00BF00BF00BF00BF95
:1043300000BF00BF00BF00BF00BF00BF00BF00BF85
:1043400000BF00BF00BF00BF00BF00BF00BF00BF75
:1043500000BF00BF00BF00BF00BF00BF00BF00BF65
:1043600000BF00BF00BF00BF00BF00BF00BF00BF55
:1043700000BF00BF00BF013AC3D1BBE7B831002086
:104380000024F40020A10700054B1B68082B01BF87
:10439000044B1868B0FA80F0400918BF002070473D
:1043A000300100103401001008B5FFF7EDFF40B1F7
:1043B0004FF080430022C3F80C21C3F81021C3F84A
:1043C0003825FFF7E1FF002846D04FF080525E4BC2
:1043D000D2F80414C3F82015D2F80814C3F8241531
:1043E000D2F80C14C3F82815D2F81014C3F82C1501
:1043F000D2F81414C3F83015D2F81814C3F83415D1
:10440000D2F81C14C3F84015D2F82014C3F8441590
:10441000D2F82414C3F84815D2F82814C3F84C1560
:10442000D2F82C14C3F85015D2F83014C3F8541530
:10443000D2F83414C3F86015D2F83814C3F86415F0
:10444000D2F83C14C3F86815D2F84014C3F86C15C0
:10445000D2F84424C3F87025FFF796FF10B13B4B08
:104460003B4A1A60FFF790FF18B13A4BFB22C3F8A2
:104470001825FFF789FF48B13749384B0A681B6890
:1044800022F00F0203F00F0313430B60FFF77CFFD2
:1044900018B1334B4FF400721A60FFF775FF48B143
:1044A0004FF08043D3F80024D20744BF6FF00102DD
:1044B000C3F800242B4AD2F8883043F47003C2F8C2
:1044C0008830BFF34F8FBFF36F8F4FF01023D3F8B7
:1044D0000022002A03DBD3F80432002B2FDA224B10
:1044E0000122C3F80425D3F80024002AFBD04FF0A2
:1044F00010221221C2F80012D3F80024002AFBD0A7
:104500004FF010231222C3F80422174B1A46D3F897
:1045100000140029FBD00021C3F80415D2F80034A0
:10452000002BFBD0BFF34F8F0E49104BCA6802F42B
:10453000E0621343CB60BFF34F8F00BFFDE70C4B2E
:104540000C4A1A6008BD00BF00C000408C560040F5
:104550004881030000F00040E40E004058020010C3
:104560004096024000ED00E000E001400400FA0542
:10457000B83100200090D0030649074A074B9B1A28
:1045800003DD043BC858D050FBDCFFF70DFFFFF7FD
:104590006DFE000060460200B83100202832002085
:1045A000FEE7FEE7FEE7FEE7FEE7FEE7FEE7FEE7E3
:1045B000FEE7FEE708B5074B044613B10021AFF351
:1045C0000080054B1868836A03B19847204600F0C5
:1045D00031F800BF000000005046020070B50D4EDB
:1045E0000D4CA41BA4100025A54209D10B4E0C4C68
:1045F00000F022F8A41BA4100025A54205D170BD2F
:1046000056F8253098470135EEE756F8253098479B
:104610000135F2E71C3200201C3200201C32002041
:104620002032002002440346934200D1704703F831
:10463000011BF9E7FEE700BFF8B500BFF8BC08BCF6
:104640009E467047F8B500BFF8BC08BC9E46704750
:08465000BC3100200000000055
:0846580014FCFF7F01000000CB
:104660000090D003000000000000000000000000E7
:10467000000000000000000000000000000000003A
:10468000000000000000000000000000000000002A
:10469000000000000000000000000000000000001A
:1046A000000000000000000000000000000000000A
:1046B00000000000000000000000000000000000FA
:1046C000000000002542020001420200000000003C
:04000003200045791B
:00000001FF
