:020000022000DC
:1070000000000120757302005D7302005F730200CF
:1070100061730200637302006573020000000000E8
:107020000000000000000000000000006773020084
:1070300069730200000000006B7302006D730200B0
:107040006F7302006F7302006F7302006F730200B0
:107050006F7302006F7302006F7302006F730200A0
:107060006F7302006F7302006F7302006F73020090
:107070006F7302006F7302006F7302006F73020080
:107080006F7302006F7302006F7302006F73020070
:107090006F7302006F7302000D7802006F730200BD
:1070A0006F7302006F7302006F7302006F73020050
:1070B0006F7302006F730200000000000000000008
:1070C0006F7302006F7302006F7302006F73020030
:1070D0006F7302006F7302006F7302000000000004
:1070E00000000000000000000000000000000000A0
:1070F0000000000000000000000000000000000090
:10710000000000000000000000000000000000007F
:10711000000000000000000000000000000000006F
:10712000000000000000000000000000000000005F
:10713000000000000000000000000000000000004F
:10714000000000000000000000000000000000003F
:10715000000000000000000000000000000000002F
:10716000000000000000000000000000000000001F
:10717000000000000000000000000000000000000F
:1071800000000000000000000000000000000000FF
:1071900000000000000000000000000000000000EF
:1071A00000000000000000000000000000000000DF
:1071B00000000000000000000000000000000000CF
:1071C00000000000000000000000000000000000BF
:1071D00000000000000000000000000000000000AF
:1071E000000000000000000000000000000000009F
:1071F000000000000000000000000000000000008F
:10720000354936480A1A02D0072291438D4634493F
:1072100034480A1A06D00722914381F309880222D2
:1072200082F3148830483149314A00F044F831483B
:107230003149324A00F03FF831483249324A00F0D1
:107240003AF832483249334A00F035F83248334987
:10725000334A00F030F833483349344A00F02BF811
:1072600033483449344A00F026F83448344900227F
:1072700000F02CF833483449002200F027F8334856
:107280003349091A082902DB002202604160314AB1
:1072900090471F481F49884205D00268043003B454
:1072A000904703BCF7E700208646EC46002000210B
:1072B000294A9047FEE7884207D0521A05D0037842
:1072C00001300B700131013AF9D17047884202D088
:1072D00002700130FAE770470000012000E0002052
:1072E0000000012000000120807802006859002081
:1072F0006C590020D0730200D07302005078020055
:1073000080780200685900206859002058780200EF
:107310005878020058780200587802005878020025
:1073200058780200587802005878020080780200ED
:10733000847802006C5900206C5900206C590020A0
:107340006C5900206C5900206C5900206C590020A9
:107350006C7900209D730200E5740200FEE7FEE7F1
:10736000FEE7FEE7FEE7FEE7FEE7FEE7FEE7FEE7F5
:1073700000F002B8FFF7FCBF0F484FF00701884349
:1073800085460E4880470E48016841F4700101604F
:10739000BFF34F8FBFF36F8FFFF732BF09480A4922
:1073A0000A4A884207D0521A05D0037801300B7080
:1073B0000131013AF9D170470000012089750200BE
:1073C00088ED00E0587802006859002068590020D4
:1073D000044B1A5C012393404FF0A042C2F80835D9
:1073E000704700BF5878020008B50020FFF7F0FF93
:1073F0000120FFF7EDFF0220FFF7EAFF0320BDE8C1
:107400000840FFF7E5BF0000074A4FF0A041105CBD
:10741000D1F804350122824022EA03001340C1F86A
:107420000805C1F80C35704758780200C20708B546
:1074300001460CD54FF0A0430322C3F83427C3F80C
:107440003827C3F83C27C3F84027FFF7CDFF8B0749
:107450000AD54FF0A0430C22C3F82C27C3F83027DD
:10746000C3F86027C3F8642708BD1FB50021039047
:1074700001AA44F20100CDE9011100F003F805B0C2
:107480005DF804FB72B6094B1B68DB0700D500BE34
:10749000BFF34F8F0649074BCA6802F4E0621343FB
:1074A000CB60BFF34F8F00BFFDE700BFF0ED00E002
:1074B00000ED00E00400FA050B684A68436093425F
:1074C00008BF0023016008BF43607047436843B1B1
:1074D0000268916852680B449342436004BF0023E2
:1074E0004360704770B50120094DFFF79FFF45F0DD
:1074F000010500242046FFF787FF4FF4FA764FF48A
:107500007A40A847013EFAD10134042CF2D1F0E7C9
:10751000607802000C4B1B78062B10D10B4B1B68BC
:107520001A070CD10A4B186800F0F003302B08D072
:1075300000F0E000A0F1400358425841704700209D
:1075400070470120704700BFE00F00F0E40F00F02B
:10755000E80F00F0094B1B78062B0CD1084B1B6879
:107560001A0708D1074B186800F0F000A0F13003AB
:107570005842584170470020704700BFE00F00F0AC
:10758000E40F00F0E80F00F008B5FFF7C3FF28B1E3
:107590007D4B7E4A1B68C3F304231360FFF7DAFFB9
:1075A00010B17B4B7B4A1A60FFF7B4FF28B17A4BCE
:1075B0007A4A1B68C3F342331360FFF7CBFF20B155
:1075C000774AD36823F08073D360FFF7A3FF40B1FD
:1075D0004FF080430022C3F80C21C3F81021C3F8F8
:1075E0003825FFF7B7FF10B16E4B03221A60FFF783
:1075F000B1FF40B16C4B05221A6001229A6700224C
:107600009A603F225A60694B1B78062B50D1684B19
:107610001B6819074CD1674B1B6803F0F003502B14
:1076200046D14FF08052644BD2F80414C3F82015B1
:10763000D2F80814C3F82415D2F80C14C3F828158E
:10764000D2F81014C3F82C15D2F81414C3F830155E
:10765000D2F81814C3F83415D2F81C14C3F8401526
:10766000D2F82014C3F84415D2F82414C3F84815EE
:10767000D2F82814C3F84C15D2F82C14C3F85015BE
:10768000D2F83014C3F85415D2F83414C3F8601586
:10769000D2F83814C3F86415D2F83C14C3F868154E
:1076A000D2F84014C3F86C15D2F84424C3F87025FE
:1076B000FFF730FF28B1414B414A1B6803F04F03ED
:1076C0001360FFF727FF48B14FF08043D3F8002441
:1076D000D20744BF6FF00102C3F80024394B1B6886
:1076E000062B08D1384B1B68062B01BF374A13689D
:1076F00043F480631360364AD2F8883043F4700351
:10770000C2F88830BFF34F8FBFF36F8F4FF0102355
:10771000D3F80022002A03DBD3F80432002B2FDA3F
:107720002C4B0122C3F80425D3F80024002AFBD0F7
:107730004FF010221521C2F80012D3F80024002ABD
:10774000FBD04FF010231522C3F80422214B1A4618
:10775000D3F800140029FBD00021C3F80415D2F897
:107760000034002BFBD0BFF34F8F19491A4BCA6866
:1077700002F4E0621343CB60BFF34F8F00BFFDE71D
:10778000164B174A1A6008BD24030010403501400B
:1077900074C007400DF0ADBA440200103C05004033
:1077A000F0ED00E0A005004010560040E00F00F0B2
:1077B000E40F00F0E80F00F000C000405802001095
:1077C000E40E004030010010340100103C1700406E
:1077D00000ED00E000E001400400FA0568590020D7
:1077E0000090D00307B508496846FFF765FE019B86
:1077F00013B903B05DF804FBD3E900209047684655
:10780000FFF764FEF3E700BF68780200FFF7EABF06
:107810004BDF70471FB50D4C01A8FFF7F9FF70B99A
:10782000214602A8FFF748FE039B002BF4D00198E5
:10783000D3E90021904702A8FFF748FEF4E70528A6
:1078400001D0FFF712FE04B010BD00BF7478020033
:087850001578020000000000A1
:107858000D0E0F10000000000338FDD8704700001F
:1078680050780200587802000800000050780200A2
:08787800507802000800000036
:047880000090D003A1
:0400000320007375F1
:00000001FF
