:020000021000EC
:10800000007D0020C5820100058301000783010077
:108010000000000000000000000000000000000060
:1080200000000000000000000000000009830100C3
:1080300000000000000000000B8301000D83010020
:108040000F8301000F8301000F8301000F830100E4
:108050000F830100000000000F8301000F83010067
:108060000F8301000F8301000F8301000F830100C4
:108070000F8301000F8301000F8301000F830100B4
:108080000F8301000F8301000F8301000F830100A4
:108090000F8301000F8301000F8301000F83010094
:1080A0000F8301000F8301000000000000000000AA
:1080B00000000000000000000000000000000000C0
:1080C00010B5064C2378002B07D1054B002B02D0AE
:1080D000044800E000BF0123237010BD7020002081
:1080E00000000000B4830100084B10B5002B03D042
:1080F0000749084800E000BF07480368002B00D18B
:1081000010BD064B002BFBD09847F9E7000000009C
:1081100074200020B48301006C20002000000000C7
:10812000164B002B00D1144B9D46402292029A1A06
:10813000924600218B460F461348144A121A00F04B
:1081400021F90F4B002B00D098470E4B002B00D08D
:1081500098470020002104000D000D48002802D09F
:108160000C4800E000BF00F0E9F82000290000F012
:1081700013F800F0CDF8C04600000800007D002094
:108180000000000000000000702000208C20002073
:108190000000000000000000A0238022A32130B5D1
:1081A000C900DB0592035A500A490B480C680B4D75
:1081B0001958514019500A49C046C046C046C046E9
:1081C000C046C046C046C046AC4200D0C046013999
:1081D000F2D1EDE700200020040500000024F400A7
:1081E00020A1070010B52D4B1A78012A0FD12C4A77
:1081F000126812070BD12B4AE0241168F022080004
:108200001040214227D128490968114226D01A7806
:10821000012A0DD122490968090709D1F020214915
:1082200009680140402903D11F49096801422ED045
:108230001B68DBB2012B0DD1194B1B681B0709D141
:10824000184B1A68F0231A40A02A0FD1164A126858
:108250001A420ED010BD3028D5D0D8E71349144AA1
:1082600011608021134A09021160D0E7D02AF1D1B0
:10827000ECE7114B1A68012A03D1C0220F4B1A6098
:10828000E8E70F4A1A601A68012AFCD1F5E7C12114
:108290008020C900C0054250CAE7C046E00F00F088
:1082A000E40F00F0E80F00F0EC0F00F0DFFF07C074
:1082B00004050040186C004000EC064014EC064039
:1082C0007593000003210A4802680A4302600948C6
:1082D00002680A4302600849084A094B9B1A03DDF9
:1082E000043BC858D050FBDCFFF77CFFFFF718FFBA
:1082F0002405004054050040C083010000200020F8
:1083000070200020FEE7FEE7FEE7FEE7FEE7FEE75F
:10831000084B10B50400002B02D0002100E000BF84
:10832000054B1868836A002B00D09847200000F0A6
:1083300031F8C04600000000B083010070B500268F
:108340000C4D0D4C641BA410A64209D1002600F070
:1083500023F80A4D0A4C641BA410A64205D170BD37
:10836000B300EB5898470136EEE7B300EB58984757
:108370000136F2E764200020642000206420002001
:108380006820002003008218934200D170471970C2
:108390000133F9E7FEE7C046F8B5C046F8BC08BCB3
:1083A0009E467047F8B5C046F8BC08BC9E4670476C
:0883B000042000200000000081
:0883B80068FDFF7F01000000D9
:1083C0000024F40000000000000000000000000095
:1083D000000000000000000000000000000000009D
:1083E000000000000000000000000000000000008D
:1083F000000000000000000000000000000000007D
:10840000000000000000000000000000000000006C
:10841000000000000000000000000000000000005C
:1084200000000000E9800100C180010000000000A0
:04000003100082C5A2
:00000001FF
