:020000022000DC
:1060000000FD0020456802006D6802006F68020014
:1060100071680200736802007568020000000000E9
:10602000000000000000000000000000776802008F
:1060300079680200000000007B6802007D680200B1
:106040007F6802007F6802007F6802007F680200AC
:106050007F6802007F6802007F6802007F6802009C
:106060007F6802007F6802007F6802007F6802008C
:106070007F6802007F6802007F6802007F6802007C
:106080007F6802007F6802007F6802007F6802006C
:106090007F6802007F6802007F6802007F6802005C
:1060A0007F6802007F6802007F6802007F6802004C
:1060B0007F6802007F68020000000000000000000E
:1060C0007F6802007F6802007F6802007F6802002C
:1060D0007F6802007F6802007F6802000000000005
:1060E00000000000000000000000000000000000B0
:1060F00000000000000000000000000000000000A0
:10610000000000000000000000000000000000008F
:10611000000000000000000000000000000000007F
:10612000000000000000000000000000000000006F
:10613000000000000000000000000000000000005F
:10614000000000000000000000000000000000004F
:10615000000000000000000000000000000000003F
:10616000000000000000000000000000000000002F
:10617000000000000000000000000000000000001F
:10618000000000000000000000000000000000000F
:1061900000000000000000000000000000000000FF
:1061A00000000000000000000000000000000000EF
:1061B00000000000000000000000000000000000DF
:1061C00000000000000000000000000000000000CF
:1061D00000000000000000000000000000000000BF
:1061E00000000000000000000000000000000000AF
:1061F000000000000000000000000000000000009F
:1062000010B5054C237833B9044B13B10448AFF3F0
:1062100000800123237010BD3433002000000000F3
:106220002C69020008B5034B1BB103490348AFF3C7
:10623000008008BD00000000383300202C690200F7
:10624000154B002B08BF134B9D46A3F5803A002148
:106250008B460F461348144A121A00F049FB0F4BA5
:10626000002B00D098470E4B002B00D09847002001
:10627000002104000D000D48002802D00C48AFF3A7
:10628000008000F011FB2000290000F013F800F05E
:10629000F7FA00BF0000080000FD00200000000029
:1062A00000000000343300205033002000000000C4
:1062B0000000000010B500231F2B29D94FF0A04388
:1062C0004FF4F012C3F808250022C3F80C254FF054
:1062D00080434FF00F12C3F800240122C3F81C259D
:1062E0004FF0A042D2F80435D94301F48021C2F81E
:1062F000081503F48023C2F80C354FF4FA744FF4F8
:106300007A400A4B43F001039847013CF7D1E7E795
:1063100001229A4012F4F01F06D003F5E0724FF00C
:10632000A041032041F822000133C5E720690200A3
:106330000F4B1B78062B01D0002070470D4B1B68BC
:1063400013F00F0F0BD10C4B1B6803F0F003302B35
:1063500007D0402B07D0502B07D0002070470020DB
:10636000704701207047012070470120704700BF2F
:10637000E00F00F0E40F00F0E80F00F00B4B1B788B
:10638000062B01D000207047094B1B6813F00F0F3C
:1063900007D1084B1B6803F0F003302B03D000201B
:1063A0007047002070470120704700BFE00F00F0E9
:1063B000E40F00F0E80F00F00F4B1B78062B01D024
:1063C000002070470D4B1B6813F00F0F0BD10C4BC7
:1063D0001B6803F0F003302B07D0402B07D0502B65
:1063E00007D000207047002070470120704701202F
:1063F00070470120704700BFE00F00F0E40F00F08D
:10640000E80F00F00B4B1B78062B01D000207047E3
:10641000094B1B6813F00F0F07D1084B1B6803F0E3
:10642000F003302B03D0002070470020704701207C
:10643000704700BFE00F00F0E40F00F0E80F00F03D
:106440000F4B1B78062B01D0002070470D4B1B68AB
:1064500013F00F0F0BD10C4B1B6803F0F003302B24
:1064600007D0402B07D0502B07D0002070470020CA
:10647000704701207047012070470120704700BF1E
:10648000E00F00F0E40F00F0E80F00F00B4B1B787A
:10649000062B01D000207047094B1B6813F00F0F2B
:1064A00007D1084B1B6803F0F003302B03D000200A
:1064B0007047002070470120704700BFE00F00F0D8
:1064C000E40F00F0E80F00F00B4B1B78062B01D017
:1064D00000207047094B1B6813F00F0F07D1084BC2
:1064E0001B6803F0F003302B03D00020704700201E
:1064F00070470120704700BFE00F00F0E40F00F08C
:10650000E80F00F00B4B1B78062B01D000207047E2
:10651000094B1B6813F00F0F07D1084B1B6803F0E2
:10652000F003502B03D0002070470020704701205B
:10653000704700BFE00F00F0E40F00F0E80F00F03C
:106540000F4B1B78062B01D0002070470D4B1B68AA
:1065500013F00F0F0BD10C4B1B6803F0F003302B23
:1065600007D0402B07D0502B07D0002070470020C9
:10657000704701207047012070470120704700BF1D
:10658000E00F00F0E40F00F0E80F00F00F4B1B7875
:10659000062B01D0002070470D4B1B6813F00F0F26
:1065A0000BD10C4B1B6803F0F003302B07D0402BB2
:1065B00007D0502B07D000207047002070470120E3
:1065C0007047012070470120704700BFE00F00F0C6
:1065D000E40F00F0E80F00F0064B1B68062B01D01B
:1065E00000207047044B1B68062B01D00020704729
:1065F000012070473001001034010010014B024AA5
:106600001A607047C83200200090D00308B5FFF729
:106610008FFE28B17B4B1B68C3F304237A4A1360B7
:10662000FFF7ACFE10B1794B794A1A60FFF7C4FE50
:1066300028B1784B1B68C3F34233774A1360FFF7E6
:10664000E1FE20B1754AD36823F08073D360FFF771
:10665000F7FE40B14FF080430022C3F80C21C3F88D
:106660001021C3F83825FFF711FF10B16C4B03223E
:106670001A60FFF729FF58B16A4B05221A60783378
:1066800001221A60703B00221A60043B3F221A600C
:10669000FFF738FF002846D04FF08052D2F804149C
:1066A000614BC3F82015D2F80814C3F82415D2F8AA
:1066B0000C14C3F82815D2F81014C3F82C15D2F80E
:1066C0001414C3F83015D2F81814C3F83415D2F8DE
:1066D0001C14C3F84015D2F82014C3F84415D2F89E
:1066E0002414C3F84815D2F82814C3F84C15D2F86E
:1066F0002C14C3F85015D2F83014C3F85415D2F83E
:106700003414C3F86015D2F83814C3F86415D2F8FD
:106710003C14C3F86815D2F84014C3F86C15D2F8CD
:106720004424C3F87025FFF70BFF28B13F4B1B68CB
:1067300003F04F033E4A1360FFF728FF60B14FF0AC
:106740008043D3F8003413F0010F05D04FF080439D
:106750006FF00102C3F80024FFF73EFF20B1354A75
:10676000136843F480631360334AD2F8883043F4EB
:106770007003C2F88830BFF34F8FBFF36F8F4FF0B5
:106780001023D3F80032002B08DB4FF01023D3F88E
:106790000432002B02DBFFF731FF08BD274B01223B
:1067A000C3F80425254BD3F80034002BFAD04FF062
:1067B00010231522C3F80022204BD3F80034002BFD
:1067C000FAD04FF010231522C3F804221B4BD3F844
:1067D0000034002BFAD0194B0022C3F80425174BC4
:1067E000D3F80034002BFAD0BFF34F8F1249CA6898
:1067F00002F4E062124B1343CB60BFF34F8F00BF34
:10680000FDE700BF240300104035014074C007407D
:106810000DF0ADBA440200103C050040F0ED00E080
:10682000A00500401056004000C000405802001073
:10683000E40E00403C17004000ED00E000E00140A5
:106840000400FA050649074A074B9B1A03DD043B7F
:10685000C858D050FBDCFFF7D9FEFFF7F1FC000071
:1068600038690200C832002034330020FEE7FEE71A
:10687000FEE7FEE7FEE7FEE7FEE7FEE7FEE7FEE7F0
:1068800008B5074B044613B10021AFF30080054B58
:106890001868836A03B19847204600F031F800BFBA
:1068A000000000002869020070B50D4E0D4CA41BBD
:1068B000A4100025A54209D10B4E0C4C00F022F883
:1068C000A41BA4100025A54205D170BD56F82530A3
:1068D00098470135EEE756F8253098470135F2E73D
:1068E0002C3300202C3300202C33002030330020A8
:1068F00002440346934200D1704703F8011BF9E7B5
:10690000FEE700BFF8B500BFF8BC08BC9E46704764
:10691000F8B500BFF8BC08BC9E46704700000000F8
:106920000338FDD870470000CC3200200000000082
:0869300010F9FF7F01000000D7
:106938000090D003000000000000000000000000EC
:10694800000000000000000000000000000000003F
:10695800000000000000000000000000000000002F
:10696800000000000000000000000000000000001F
:10697800000000000000000000000000000000000F
:1069880000000000000000000000000000000000FF
:0C69980000000000256202000162020005
:04000003200068452C
:00000001FF
