Component: ARM Compiler 5.06 update 6 (build 750) Tool: armlink [4d35ed]

==============================================================================

Section Cross References

    bootloader.o(.text) refers to aeabi_memset.o(.text) for __aeabi_memset
    bootloader.o(.text) refers to main.o(.text) for app_error_handler_bare
    bootloader.o(.text) refers to nrf_flash.o(.text) for nrf_flash_store
    bootloader.o(.text) refers to bootloader_app_bridge.o(.text) for bl_cmd_handler
    bootloader.o(.text) refers to fifo.o(.text) for fifo_pop
    bootloader.o(.text) refers to bootloader_info.o(.text) for bootloader_info_entry_get
    bootloader.o(.text) refers to bootloader_util.o(.text) for bootloader_util_app_start
    bootloader.o(.text) refers to mesh_packet.o(.text) for mesh_packet_adv_data_get
    bootloader.o(.text) refers to dfu_mesh.o(.text) for dfu_mesh_app_is_valid
    bootloader.o(.text) refers to dfu_util.o(.text) for interrupts_disable
    bootloader.o(.text) refers to radio_control.o(.text) for radio_disable
    bootloader.o(.text) refers to rt_memcpy_v6.o(.text) for __aeabi_memcpy
    bootloader.o(.text) refers to transport.o(.text) for transport_tx
    bootloader.o(.text) refers to lludivv7m.o(.text) for __aeabi_uldivmod
    bootloader.o(.text) refers to dfu_bank.o(.text) for dfu_bank_flash
    bootloader.o(.text) refers to bootloader_rtc.o(.text) for rtc_init
    bootloader.o(.text) refers to rt_memclr_w.o(.text) for __aeabi_memclr4
    bootloader.o(.text) refers to bootloader.o(.bss) for .bss
==============================================================================

Removing Unused input sections from the image.

    Removing bootloader.o(.rev16_text), (4 bytes).
    Removing bootloader.o(.revsh_text), (4 bytes).
    Removing bootloader.o(.rrx_text), (6 bytes).
    Removing bootloader_app_bridge.o(.rev16_text), (4 bytes).
    Removing bootloader_app_bridge.o(.revsh_text), (4 bytes).
    Removing bootloader_app_bridge.o(.rrx_text), (6 bytes).
    Removing bootloader_app_bridge.o(.text), (26 bytes).
    Removing bootloader_app_bridge.o(.text), (24 bytes).
    Removing bootloader_app_bridge.o(.text), (24 bytes).
    Removing bootloader_info.o(.rev16_text), (4 bytes).
    Removing bootloader_info.o(.revsh_text), (4 bytes).
    Removing bootloader_info.o(.rrx_text), (6 bytes).
    Removing bootloader_info.o(.text), (12 bytes).
    Removing bootloader_info.o(.text), (16 bytes).
    Removing bootloader_rtc.o(.rev16_text), (4 bytes).
    Removing bootloader_rtc.o(.revsh_text), (4 bytes).
    Removing bootloader_rtc.o(.rrx_text), (6 bytes).
    Removing dfu_bank.o(.rev16_text), (4 bytes).
==============================================================================

Image Stack Usage Information.

Maximum stack usage for Image.

Maximum Stack Usage for __rt_entry_main 0x42c bytes.
Call chain for maximum stack usage:
__rt_entry_main => main => bootloader_enable => bl_cmd_handler => dfu_mesh_timeout => signature_check => uECC_verify => vli_modMult_n => vli_mult => muladd

Maximum stack usage per global function.

Maximum Stack Usage for SWI3_EGU3_IRQHandler 0x424 bytes.
Call chain for maximum stack usage:
SWI3_EGU3_IRQHandler => bl_cmd_handler => dfu_mesh_timeout => signature_check => uECC_verify => vli_modMult_n => vli_mult => muladd

Maximum Stack Usage for bootloader_abort 0x40 bytes.
Call chain for maximum stack usage:
bootloader_abort => dfu_mesh_app_is_valid => fw_is_verified => bootloader_info_entry_get => info_entry_get

Maximum Stack Usage for bootloader_init 0x41c bytes.
Call chain for maximum stack usage:
bootloader_init => bl_cmd_handler => dfu_mesh_timeout => signature_check => uECC_verify => vli_modMult_n => vli_mult => muladd

Maximum Stack Usage for bootloader_enable 0x42c bytes.
Call chain for maximum stack usage:
bootloader_enable => bl_cmd_handler => dfu_mesh_timeout => signature_check => uECC_verify => vli_modMult_n => vli_mult => muladd

Maximum Stack Usage for bootloader_timeout 0x414 bytes.
Call chain for maximum stack usage:
bootloader_timeout => bl_cmd_handler => dfu_mesh_timeout => signature_check => uECC_verify => vli_modMult_n => vli_mult => muladd

Maximum Stack Usage for bl_cmd_handler 0x3ec bytes.
Call chain for maximum stack usage:
bl_cmd_handler => dfu_mesh_timeout => signature_check => uECC_verify => vli_modMult_n => vli_mult => muladd

Maximum Stack Usage for send_end_evt 0x28 bytes.
Call chain for maximum stack usage:
send_end_evt

Maximum Stack Usage for flash_write 0x40 bytes.
Call chain for maximum stack usage:
flash_write => __aeabi_memcpy4

Maximum Stack Usage for flash_erase 0x38 bytes.
Call chain for maximum stack usage:
flash_erase => __aeabi_memcpy4

Maximum Stack Usage for tx_abort 0x28 bytes.
Call chain for maximum stack usage:
tx_abort

Maximum Stack Usage for entry_invalidate 0x58 bytes.
Call chain for maximum stack usage:
entry_invalidate => entry_header_invalidate => flash_write => __aeabi_memcpy4

Maximum Stack Usage for entry_write 0x60 bytes.
Call chain for maximum stack usage:
entry_write => flash_write => __aeabi_memcpy4

Maximum Stack Usage for bootloader_info_init 0x50 bytes.
Call chain for maximum stack usage:
bootloader_info_init => flash_write => __aeabi_memcpy4

Maximum Stack Usage for bootloader_info_entry_get 0x10 bytes.
Call chain for maximum stack usage:
bootloader_info_entry_get => info_entry_get

Maximum Stack Usage for bootloader_info_reset 0x50 bytes.
Call chain for maximum stack usage:
bootloader_info_reset => copy_page => flash_erase => __aeabi_memcpy4

Maximum Stack Usage for bootloader_info_entry_put 0x80 bytes.
Call chain for maximum stack usage:
bootloader_info_entry_put => entry_write => flash_write => __aeabi_memcpy4

Maximum Stack Usage for bootloader_info_entry_overwrite 0x70 bytes.
Call chain for maximum stack usage:
bootloader_info_entry_overwrite => entry_write => flash_write => __aeabi_memcpy4

Maximum Stack Usage for bootloader_info_entry_invalidate 0x58 bytes.
Call chain for maximum stack usage:
bootloader_info_entry_invalidate => entry_invalidate => entry_header_invalidate => flash_write => __aeabi_memcpy4

Maximum Stack Usage for bootloader_info_on_flash_op_end 0x68 bytes.
Call chain for maximum stack usage:
bootloader_info_on_flash_op_end => copy_page_on_flash_op_end => copy_page_write_next_data => flash_write => __aeabi_memcpy4

Maximum Stack Usage for bootloader_info_on_flash_idle 0x48 bytes.
Call chain for maximum stack usage:
bootloader_info_on_flash_idle => copy_page_write_meta => flash_write => __aeabi_memcpy4

Maximum Stack Usage for RTC0_IRQHandler 0x424 bytes.
Call chain for maximum stack usage:
RTC0_IRQHandler => bootloader_timeout => bl_cmd_handler => dfu_mesh_timeout => signature_check => uECC_verify => vli_modMult_n => vli_mult => muladd

Maximum Stack Usage for dfu_bank_scan 0x1d8 bytes.
Call chain for maximum stack usage:
dfu_bank_scan => flash_bank_entry => flash_bank_entry_fw => bootloader_info_entry_overwrite => entry_write => flash_write => __aeabi_memcpy4

Maximum Stack Usage for dfu_bank_flash 0x1d8 bytes.
Call chain for maximum stack usage:
dfu_bank_flash => flash_bank_entry => flash_bank_entry_fw => bootloader_info_entry_overwrite => entry_write => flash_write => __aeabi_memcpy4

Maximum Stack Usage for dfu_bank_on_flash_idle 0x1c8 bytes.
Call chain for maximum stack usage:
dfu_bank_on_flash_idle => flash_bank_entry => flash_bank_entry_fw => bootloader_info_entry_overwrite => entry_write => flash_write => __aeabi_memcpy4

Maximum Stack Usage for dfu_mesh_init 0x40 bytes.
Call chain for maximum stack usage:
dfu_mesh_init => get_info_pointers => send_end_evt

Maximum Stack Usage for dfu_mesh_start 0x68 bytes.
Call chain for maximum stack usage:
dfu_mesh_start => send_bank_notifications => bootloader_info_entry_get => info_entry_get

Maximum Stack Usage for dfu_mesh_req 0x6c bytes.
Call chain for maximum stack usage:
dfu_mesh_req => start_req => beacon_set => __aeabi_memclr4

Maximum Stack Usage for dfu_mesh_relay 0x64 bytes.
Call chain for maximum stack usage:
dfu_mesh_relay => beacon_set => __aeabi_memclr4

Maximum Stack Usage for dfu_mesh_rx 0x1b0 bytes.
Call chain for maximum stack usage:
dfu_mesh_rx => handle_data_packet => target_rx_start => start_target => bootloader_info_entry_put => entry_write => flash_write => __aeabi_memcpy4

Maximum Stack Usage for dfu_mesh_finalize 0x140 bytes.
Call chain for maximum stack usage:
dfu_mesh_finalize => bootloader_info_entry_put => entry_write => flash_write => __aeabi_memcpy4

Maximum Stack Usage for dfu_mesh_timeout 0x3bc bytes.
Call chain for maximum stack usage:
dfu_mesh_timeout => signature_check => uECC_verify => vli_modMult_n => vli_mult => muladd

Maximum Stack Usage for dfu_mesh_missing_type_get 0x20 bytes.
Call chain for maximum stack usage:
dfu_mesh_missing_type_get => bootloader_info_entry_get => info_entry_get

Maximum Stack Usage for dfu_mesh_app_is_valid 0x20 bytes.
Call chain for maximum stack usage:
dfu_mesh_app_is_valid => fw_is_verified => bootloader_info_entry_get => info_entry_get

Maximum Stack Usage for dfu_mesh_restart 0x5c bytes.
Call chain for maximum stack usage:
dfu_mesh_restart => start_find_fwid => beacon_set => __aeabi_memclr4

Maximum Stack Usage for dfu_mesh_on_flash_idle 0x90 bytes.
Call chain for maximum stack usage:
dfu_mesh_on_flash_idle => dfu_mesh_start => send_bank_notifications => bootloader_info_entry_get => info_entry_get

Maximum Stack Usage for dfu_transfer_init 0xc bytes.
Call chain for maximum stack usage:
dfu_transfer_init => __aeabi_memclr4

Maximum Stack Usage for dfu_transfer_start 0x58 bytes.
Call chain for maximum stack usage:
dfu_transfer_start => flash_erase => __aeabi_memcpy4

Maximum Stack Usage for dfu_transfer_data 0x70 bytes.
Call chain for maximum stack usage:
dfu_transfer_data => flash_write => __aeabi_memcpy4

Maximum Stack Usage for dfu_transfer_has_entry 0x20 bytes.
Call chain for maximum stack usage:
dfu_transfer_has_entry => segment_is_missing

Maximum Stack Usage for dfu_transfer_get_oldest_missing_entry 0x30 bytes.
Call chain for maximum stack usage:
dfu_transfer_get_oldest_missing_entry

Maximum Stack Usage for dfu_transfer_sha256 0x15c bytes.
Call chain for maximum stack usage:
dfu_transfer_sha256 => sha256_update => sha256_transform

Maximum Stack Usage for dfu_transfer_end 0xc bytes.
Call chain for maximum stack usage:
dfu_transfer_end => dfu_transfer_init => __aeabi_memclr4

Maximum Stack Usage for fwid_union_cmp 0x10 bytes.
Call chain for maximum stack usage:
fwid_union_cmp => memcmp

Maximum Stack Usage for ready_packet_matches_our_req 0x10 bytes.
Call chain for maximum stack usage:
ready_packet_matches_our_req

Maximum Stack Usage for is_upgrade 0x20 bytes.
Call chain for maximum stack usage:
is_upgrade => bootloader_info_entry_get => info_entry_get

Maximum Stack Usage for app_is_newer 0x18 bytes.
Call chain for maximum stack usage:
app_is_newer => bootloader_info_entry_get => info_entry_get

Maximum Stack Usage for bootloader_is_newer 0x18 bytes.
Call chain for maximum stack usage:
bootloader_is_newer => bootloader_info_entry_get => info_entry_get

Maximum Stack Usage for fw_is_verified 0x18 bytes.
Call chain for maximum stack usage:
fw_is_verified => bootloader_info_entry_get => info_entry_get

Maximum Stack Usage for tid_cache_entry_put 0x8 bytes.
Call chain for maximum stack usage:
tid_cache_entry_put

Maximum Stack Usage for packet_in_cache 0xc bytes.
Call chain for maximum stack usage:
packet_in_cache

Maximum Stack Usage for packet_cache_put 0xc bytes.
Call chain for maximum stack usage:
packet_cache_put

Maximum Stack Usage for packet_cache_flush 0x8 bytes.
Call chain for maximum stack usage:
packet_cache_flush

Maximum Stack Usage for interrupts_disable 0xc bytes.
Call chain for maximum stack usage:
interrupts_disable

Maximum Stack Usage for fifo_push 0x10 bytes.
Call chain for maximum stack usage:
fifo_push

Maximum Stack Usage for fifo_pop 0x10 bytes.
Call chain for maximum stack usage:
fifo_pop

Maximum Stack Usage for fifo_peek_at 0x10 bytes.
Call chain for maximum stack usage:
fifo_peek_at

Maximum Stack Usage for fifo_peek 0x10 bytes.
Call chain for maximum stack usage:
fifo_peek => fifo_peek_at

Maximum Stack Usage for main 0x42c bytes.
Call chain for maximum stack usage:
main => bootloader_enable => bl_cmd_handler => dfu_mesh_timeout => signature_check => uECC_verify => vli_modMult_n => vli_mult => muladd

Maximum Stack Usage for mesh_packet_acquire 0x8 bytes.
Call chain for maximum stack usage:
mesh_packet_acquire

Maximum Stack Usage for mesh_packet_ref_count_inc 0x10 bytes.
Call chain for maximum stack usage:
mesh_packet_ref_count_inc

Maximum Stack Usage for mesh_packet_ref_count_dec 0x8 bytes.
Call chain for maximum stack usage:
mesh_packet_ref_count_dec

Maximum Stack Usage for mesh_packet_adv_data_get 0xc bytes.
Call chain for maximum stack usage:
mesh_packet_adv_data_get

Maximum Stack Usage for nrf_flash_erase 0x14 bytes.
Call chain for maximum stack usage:
nrf_flash_erase

Maximum Stack Usage for nrf_flash_store 0x1c bytes.
Call chain for maximum stack usage:
nrf_flash_store

Maximum Stack Usage for radio_init 0x20 bytes.
Call chain for maximum stack usage:
radio_init

Maximum Stack Usage for radio_order 0x18 bytes.
Call chain for maximum stack usage:
radio_order => fifo_push

Maximum Stack Usage for radio_event_handler 0x48 bytes.
Call chain for maximum stack usage:
radio_event_handler => setup_event

Maximum Stack Usage for rand_prng_get 0x8 bytes.
Call chain for maximum stack usage:
rand_prng_get

Maximum Stack Usage for rand_hw_rng_get 0x10 bytes.
Call chain for maximum stack usage:
rand_hw_rng_get

Maximum Stack Usage for rand_prng_seed 0x20 bytes.
Call chain for maximum stack usage:
rand_prng_seed => rand_hw_rng_get

Maximum Stack Usage for transport_start 0x28 bytes.
Call chain for maximum stack usage:
transport_start => order_scan => radio_order => fifo_push

Maximum Stack Usage for SWI0_EGU0_IRQHandler 0x38 bytes.
Call chain for maximum stack usage:
SWI0_EGU0_IRQHandler => transport_start => order_scan => radio_order => fifo_push

Maximum Stack Usage for RADIO_IRQHandler 0x48 bytes.
Call chain for maximum stack usage:
RADIO_IRQHandler => radio_event_handler => setup_event

Maximum Stack Usage for transport_init 0x28 bytes.
Call chain for maximum stack usage:
transport_init => rand_prng_seed => rand_hw_rng_get

Maximum Stack Usage for transport_tx 0x30 bytes.
Call chain for maximum stack usage:
transport_tx => set_next_tx => rand_prng_get

Maximum Stack Usage for transport_tx_abort 0x1c bytes.
Call chain for maximum stack usage:
transport_tx_abort => order_next_rtc

Maximum Stack Usage for transport_rtc_irq_handler 0x38 bytes.
Call chain for maximum stack usage:
transport_rtc_irq_handler => set_next_tx => rand_prng_get

Maximum Stack Usage for uECC_verify 0x314 bytes.
Call chain for maximum stack usage:
uECC_verify => vli_modMult_n => vli_mult => muladd

Maximum Stack Usage for sha256_transform 0x144 bytes.
Call chain for maximum stack usage:
sha256_transform

Maximum Stack Usage for sha256_update 0x15c bytes.
Call chain for maximum stack usage:
sha256_update => sha256_transform

Maximum Stack Usage for sha256_final 0x154 bytes.
Call chain for maximum stack usage:
sha256_final => sha256_transform

Maximum Stack Usage for SystemInit 0xc bytes.
Call chain for maximum stack usage:
SystemInit

Stack Usage for functions.

Stack Usage for __main 0x0 bytes.
Stack Usage for __scatterload unknown bytes.
Stack Usage for __scatterload_rt2 unknown bytes.
Stack Usage for __scatterload_rt2_thumb_only unknown bytes.
Stack Usage for __scatterload_null unknown bytes.
Stack Usage for __scatterload_copy unknown bytes.
Stack Usage for __scatterload_zeroinit unknown bytes.
Stack Usage for __rt_lib_init unknown bytes.
Stack Usage for __rt_lib_init_fp_1 unknown bytes.
Stack Usage for __rt_lib_init_alloca_1 unknown bytes.
Stack Usage for __rt_lib_init_argv_1 unknown bytes.
Stack Usage for __rt_lib_init_atexit_1 unknown bytes.
Stack Usage for __rt_lib_init_clock_1 unknown bytes.
Stack Usage for __rt_lib_init_cpp_1 unknown bytes.
Stack Usage for __rt_lib_init_exceptions_1 unknown bytes.
Stack Usage for __rt_lib_init_fp_trap_1 unknown bytes.
Stack Usage for __rt_lib_init_getenv_1 unknown bytes.
Stack Usage for __rt_lib_init_heap_1 unknown bytes.
Stack Usage for __rt_lib_init_lc_collate_1 unknown bytes.
Stack Usage for __rt_lib_init_lc_ctype_1 unknown bytes.
Stack Usage for __rt_lib_init_lc_monetary_1 unknown bytes.
Stack Usage for __rt_lib_init_lc_numeric_1 unknown bytes.
Stack Usage for __rt_lib_init_lc_time_1 unknown bytes.
Stack Usage for __rt_lib_init_preinit_1 unknown bytes.
Stack Usage for __rt_lib_init_rand_1 unknown bytes.
Stack Usage for __rt_lib_init_return unknown bytes.
Stack Usage for __rt_lib_init_signal_1 unknown bytes.
Stack Usage for __rt_lib_init_stdio_1 unknown bytes.
Stack Usage for __rt_lib_init_user_alloc_1 unknown bytes.
Stack Usage for __rt_lib_shutdown unknown bytes.
Stack Usage for __rt_lib_shutdown_cpp_1 unknown bytes.
Stack Usage for __rt_lib_shutdown_fp_trap_1 unknown bytes.
Stack Usage for __rt_lib_shutdown_heap_1 unknown bytes.
Stack Usage for __rt_lib_shutdown_return unknown bytes.
Stack Usage for __rt_lib_shutdown_signal_1 unknown bytes.
Stack Usage for __rt_lib_shutdown_stdio_1 unknown bytes.
Stack Usage for __rt_lib_shutdown_user_alloc_1 unknown bytes.
Stack Usage for __rt_entry unknown bytes.
Stack Usage for __rt_entry_presh_1 unknown bytes.
Stack Usage for __rt_entry_sh unknown bytes.
Stack Usage for __rt_entry_li unknown bytes.
Stack Usage for __rt_entry_postsh_1 unknown bytes.
Stack Usage for __rt_entry_main unknown bytes.
Stack Usage for __rt_entry_postli_1 unknown bytes.
Stack Usage for __rt_exit unknown bytes.
Stack Usage for __rt_exit_ls unknown bytes.
Stack Usage for __rt_exit_prels_1 unknown bytes.
Stack Usage for __rt_exit_exit unknown bytes.
Stack Usage for __asm___17_bootloader_util_c_c13d365c__bootloader_util_reset 0x0 bytes.
Stack Usage for SWI3_EGU3_IRQHandler 0x38 bytes.
Stack Usage for bootloader_abort 0x20 bytes.
Stack Usage for bootloader_cmd_send 0x0 bytes.
Stack Usage for bootloader_init 0x30 bytes.
Stack Usage for bootloader_enable 0x40 bytes.
Stack Usage for bootloader_timeout 0x28 bytes.
Stack Usage for bl_cmd_handler 0x30 bytes.
Stack Usage for bootloader_app_bridge_init 0x0 bytes.
Stack Usage for bootloader_evt_send 0x0 bytes.
Stack Usage for send_end_evt 0x28 bytes.
Stack Usage for flash_write 0x38 bytes.
Stack Usage for flash_erase 0x30 bytes.
Stack Usage for tx_abort 0x28 bytes.
Stack Usage for bootloader_is_in_application 0x0 bytes.
Stack Usage for entry_invalidate 0x10 bytes.
Stack Usage for entry_write 0x20 bytes.
Stack Usage for bootloader_info_init 0x10 bytes.
Stack Usage for bootloader_info_entry_get 0x0 bytes.
Stack Usage for bootloader_info_reset 0x8 bytes.
Stack Usage for bootloader_info_entry_put 0x20 bytes.
Stack Usage for bootloader_info_entry_overwrite 0x10 bytes.
Stack Usage for bootloader_info_entry_invalidate 0x0 bytes.
Stack Usage for bootloader_info_stable 0x0 bytes.
Stack Usage for bootloader_info_on_flash_op_end 0x10 bytes.
Stack Usage for bootloader_info_on_flash_idle 0x0 bytes.
Stack Usage for RTC0_IRQHandler 0x10 bytes.
Stack Usage for rtc_init 0x0 bytes.
Stack Usage for bootloader_util_app_start 0x0 bytes.
Stack Usage for dfu_bank_scan 0x10 bytes.
Stack Usage for dfu_bank_flash 0x10 bytes.
Stack Usage for dfu_bank_on_flash_idle 0x0 bytes.
Stack Usage for dfu_bank_transfer_in_progress 0x0 bytes.
Stack Usage for dfu_mesh_init 0x10 bytes.
Stack Usage for dfu_mesh_start 0x8 bytes.
Stack Usage for dfu_mesh_req 0x8 bytes.
Stack Usage for dfu_mesh_relay 0x10 bytes.
Stack Usage for dfu_mesh_rx 0x10 bytes.
Stack Usage for dfu_mesh_finalize 0xc0 bytes.
Stack Usage for dfu_mesh_timeout 0x8 bytes.
Stack Usage for dfu_mesh_missing_type_get 0x10 bytes.
Stack Usage for dfu_mesh_app_is_valid 0x8 bytes.
Stack Usage for dfu_mesh_restart 0x0 bytes.
Stack Usage for dfu_mesh_on_flash_idle 0x28 bytes.
Stack Usage for dfu_transfer_init 0x8 bytes.
Stack Usage for dfu_transfer_start 0x20 bytes.
Stack Usage for dfu_transfer_data 0x30 bytes.
Stack Usage for dfu_transfer_has_entry 0x18 bytes.
Stack Usage for dfu_transfer_get_oldest_missing_entry 0x30 bytes.
Stack Usage for dfu_transfer_sha256 0x0 bytes.
Stack Usage for dfu_transfer_end 0x0 bytes.
Stack Usage for dfu_transfer_flash_write_complete 0x0 bytes.
Stack Usage for fwid_union_cpy 0x0 bytes.
Stack Usage for fwid_union_cmp 0x8 bytes.
Stack Usage for fwid_union_id_cmp 0x0 bytes.
Stack Usage for fwid_union_version_cmp 0x0 bytes.
Stack Usage for tid_cache_has_entry 0x0 bytes.
Stack Usage for ready_packet_matches_our_req 0x10 bytes.
Stack Usage for addr_from_seg 0x0 bytes.
Stack Usage for is_upgrade 0x10 bytes.
Stack Usage for app_is_newer 0x8 bytes.
Stack Usage for bootloader_is_newer 0x8 bytes.
Stack Usage for fw_is_verified 0x8 bytes.
Stack Usage for tid_cache_entry_put 0x8 bytes.
Stack Usage for packet_in_cache 0xc bytes.
Stack Usage for packet_cache_put 0xc bytes.
Stack Usage for packet_cache_flush 0x8 bytes.
Stack Usage for section_overlap 0x0 bytes.
Stack Usage for interrupts_disable 0xc bytes.
Stack Usage for fifo_init 0x0 bytes.
Stack Usage for fifo_push 0x10 bytes.
Stack Usage for fifo_pop 0x10 bytes.
Stack Usage for fifo_get_len 0x0 bytes.
Stack Usage for fifo_peek_at 0x10 bytes.
Stack Usage for fifo_peek 0x0 bytes.
Stack Usage for fifo_is_empty 0x0 bytes.
Stack Usage for app_error_handler_bare 0x0 bytes.
Stack Usage for HardFault_Handler 0x0 bytes.
Stack Usage for main 0x0 bytes.
Stack Usage for mesh_packet_init 0x0 bytes.
Stack Usage for mesh_packet_acquire 0x8 bytes.
Stack Usage for mesh_packet_ref_count_inc 0x10 bytes.
Stack Usage for mesh_packet_ref_count_dec 0x8 bytes.
Stack Usage for mesh_packet_ref_count_get 0x0 bytes.
Stack Usage for mesh_packet_set_local_addr 0x0 bytes.
Stack Usage for mesh_packet_adv_data_get 0xc bytes.
Stack Usage for nrf_flash_erase 0x14 bytes.
Stack Usage for nrf_flash_store 0x1c bytes.
Stack Usage for radio_disable 0x0 bytes.
Stack Usage for radio_init 0x20 bytes.
Stack Usage for radio_order 0x8 bytes.
Stack Usage for radio_event_handler 0x28 bytes.
Stack Usage for rand_prng_get 0x8 bytes.
Stack Usage for rand_hw_rng_get 0x10 bytes.
Stack Usage for rand_prng_seed 0x10 bytes.
Stack Usage for transport_start 0x0 bytes.
Stack Usage for SWI0_EGU0_IRQHandler 0x10 bytes.
Stack Usage for RADIO_IRQHandler 0x0 bytes.
Stack Usage for timeslot_is_in_ts 0x0 bytes.
Stack Usage for transport_init 0x8 bytes.
Stack Usage for transport_tx 0x18 bytes.
Stack Usage for transport_tx_abort 0x8 bytes.
Stack Usage for transport_rtc_irq_handler 0x20 bytes.
Stack Usage for transport_tx_evt_set 0x0 bytes.
Stack Usage for transport_tx_evt_get 0x0 bytes.
Stack Usage for uECC_verify 0x1e8 bytes.
Stack Usage for sha256_transform 0x144 bytes.
Stack Usage for sha256_init 0x0 bytes.
Stack Usage for sha256_update 0x18 bytes.
Stack Usage for sha256_final 0x10 bytes.
Stack Usage for SystemCoreClockUpdate 0x0 bytes.
Stack Usage for SystemInit 0xc bytes.
Stack Usage for Reset_Handler 0x0 bytes.
Stack Usage for NMI_Handler 0x0 bytes.
Stack Usage for MemoryManagement_Handler 0x0 bytes.
Stack Usage for BusFault_Handler 0x0 bytes.
Stack Usage for UsageFault_Handler 0x0 bytes.
Stack Usage for SVC_Handler 0x0 bytes.
Stack Usage for DebugMon_Handler 0x0 bytes.
Stack Usage for PendSV_Handler 0x0 bytes.
Stack Usage for SysTick_Handler 0x0 bytes.
Stack Usage for CCM_AAR_IRQHandler 0x0 bytes.
Stack Usage for COMP_LPCOMP_IRQHandler 0x0 bytes.
Stack Usage for CRYPTOCELL_IRQHandler 0x0 bytes.
Stack Usage for ECB_IRQHandler 0x0 bytes.
Stack Usage for FPU_IRQHandler 0x0 bytes.
Stack Usage for GPIOTE_IRQHandler 0x0 bytes.
Stack Usage for I2S_IRQHandler 0x0 bytes.
Stack Usage for MWU_IRQHandler 0x0 bytes.
Stack Usage for NFCT_IRQHandler 0x0 bytes.
Stack Usage for PDM_IRQHandler 0x0 bytes.
Stack Usage for POWER_CLOCK_IRQHandler 0x0 bytes.
Stack Usage for PWM0_IRQHandler 0x0 bytes.
Stack Usage for PWM1_IRQHandler 0x0 bytes.
Stack Usage for PWM2_IRQHandler 0x0 bytes.
Stack Usage for PWM3_IRQHandler 0x0 bytes.
Stack Usage for QDEC_IRQHandler 0x0 bytes.
Stack Usage for QSPI_IRQHandler 0x0 bytes.
Stack Usage for RNG_IRQHandler 0x0 bytes.
Stack Usage for RTC1_IRQHandler 0x0 bytes.
Stack Usage for RTC2_IRQHandler 0x0 bytes.
Stack Usage for SAADC_IRQHandler 0x0 bytes.
Stack Usage for SPIM0_SPIS0_TWIM0_TWIS0_SPI0_TWI0_IRQHandler 0x0 bytes.
Stack Usage for SPIM1_SPIS1_TWIM1_TWIS1_SPI1_TWI1_IRQHandler 0x0 bytes.
Stack Usage for SPIM2_SPIS2_SPI2_IRQHandler 0x0 bytes.
Stack Usage for SPIM3_IRQHandler 0x0 bytes.
Stack Usage for SWI1_EGU1_IRQHandler 0x0 bytes.
Stack Usage for SWI2_EGU2_IRQHandler 0x0 bytes.
Stack Usage for SWI4_EGU4_IRQHandler 0x0 bytes.
Stack Usage for SWI5_EGU5_IRQHandler 0x0 bytes.
Stack Usage for TEMP_IRQHandler 0x0 bytes.
Stack Usage for TIMER0_IRQHandler 0x0 bytes.
Stack Usage for TIMER1_IRQHandler 0x0 bytes.
Stack Usage for TIMER2_IRQHandler 0x0 bytes.
Stack Usage for TIMER3_IRQHandler 0x0 bytes.
Stack Usage for TIMER4_IRQHandler 0x0 bytes.
Stack Usage for UARTE0_UART0_IRQHandler 0x0 bytes.
Stack Usage for UARTE1_IRQHandler 0x0 bytes.
Stack Usage for USBD_IRQHandler 0x0 bytes.
Stack Usage for WDT_IRQHandler 0x0 bytes.
Stack Usage for __user_initial_stackheap 0x0 bytes.
Stack Usage for __aeabi_uldivmod 0x30 bytes.
Stack Usage for _ll_udiv 0x30 bytes.
Stack Usage for __aeabi_llsl 0x0 bytes.
Stack Usage for _ll_shift_l 0x0 bytes.
Stack Usage for memcmp 0x8 bytes.
Stack Usage for __aeabi_memcpy 0x0 bytes.
Stack Usage for __rt_memcpy 0x0 bytes.
Stack Usage for _memcpy_lastbytes unknown bytes.
Stack Usage for __aeabi_memcpy4 0x8 bytes.
Stack Usage for __aeabi_memcpy8 0x8 bytes.
Stack Usage for __rt_memcpy_w 0x8 bytes.
Stack Usage for _memcpy_lastbytes_aligned unknown bytes.
Stack Usage for __aeabi_memset 0x0 bytes.
Stack Usage for __aeabi_memclr 0x0 bytes.
Stack Usage for __rt_memclr 0x0 bytes.
Stack Usage for _memset unknown bytes.
Stack Usage for __aeabi_memclr4 0x4 bytes.
Stack Usage for __aeabi_memclr8 0x4 bytes.
Stack Usage for __rt_memclr_w 0x4 bytes.
Stack Usage for _memset_w unknown bytes.
Stack Usage for __use_two_region_memory 0x0 bytes.
Stack Usage for __rt_heap_escrow$2region 0x0 bytes.
Stack Usage for __rt_heap_expand$2region 0x0 bytes.
Stack Usage for __user_setup_stackheap 0x8 bytes.
Stack Usage for exit 0x8 bytes.
Stack Usage for __user_libspace 0x0 bytes.
Stack Usage for __user_perproc_libspace 0x0 bytes.
Stack Usage for __user_perthread_libspace 0x0 bytes.
Stack Usage for _sys_exit 0x0 bytes.
Stack Usage for __I$use$semihosting 0x0 bytes.
Stack Usage for __use_no_semihosting_swi 0x0 bytes.
Stack Usage for __semihosting_library_function 0x0 bytes.
Stack Usage for _fp_init 0x0 bytes.
Stack Usage for __fplib_config_fpu_vfp unknown bytes.
Stack Usage for __fplib_config_pureend_doubles unknown bytes.
Stack Usage for rx_cb 0x20 bytes.
Stack Usage for bl_evt_handler 0x28 bytes.
Stack Usage for NVIC_SetPendingIRQ 0x0 bytes.
Stack Usage for set_timeout 0x0 bytes.
Stack Usage for stop_timeout 0x0 bytes.
Stack Usage for info_entry_get 0x10 bytes.
Stack Usage for free_write_buffer 0x18 bytes.
Stack Usage for place_head_after_entry 0x0 bytes.
Stack Usage for get_write_buffer 0x18 bytes.
Stack Usage for copy_page_write_meta 0x8 bytes.
Stack Usage for copy_page_write_next_data 0x10 bytes.
Stack Usage for copy_page 0x10 bytes.
Stack Usage for entry_header_invalidate 0x8 bytes.
Stack Usage for bootloader_info_header_get 0x0 bytes.
Stack Usage for bootloader_info_first_unused_get 0x8 bytes.
Stack Usage for copy_page_on_flash_op_end 0x8 bytes.
Stack Usage for flash_bank_entry_fw 0x40 bytes.
Stack Usage for flash_bank_entry 0x118 bytes.
Stack Usage for get_info_pointers 0x8 bytes.
Stack Usage for segment_count_from_start_packet 0x0 bytes.
Stack Usage for packet_tx_dynamic 0x38 bytes.
Stack Usage for signature_check 0xa0 bytes.
Stack Usage for beacon_set 0x50 bytes.
Stack Usage for relay_packet 0x10 bytes.
Stack Usage for start_req 0x10 bytes.
Stack Usage for start_target 0xb8 bytes.
Stack Usage for notify_state_packet 0x28 bytes.
Stack Usage for target_rx_start 0x20 bytes.
Stack Usage for target_rx_data 0x48 bytes.
Stack Usage for handle_data_packet 0x48 bytes.
Stack Usage for handle_state_packet 0x18 bytes.
Stack Usage for handle_data_req_packet 0x30 bytes.
Stack Usage for state_beacon_type 0x0 bytes.
Stack Usage for send_progress_event 0x28 bytes.
Stack Usage for send_bank_notifications 0x50 bytes.
Stack Usage for start_find_fwid 0x8 bytes.
Stack Usage for start_ready 0x10 bytes.
Stack Usage for request_missing_data 0x58 bytes.
Stack Usage for handle_fwid_packet 0x38 bytes.
Stack Usage for segment_is_missing 0x8 bytes.
Stack Usage for transfer_abort 0x0 bytes.
Stack Usage for setup_event 0x20 bytes.
Stack Usage for NVIC_SetPendingIRQ 0x0 bytes.
Stack Usage for set_next_tx 0x10 bytes.
Stack Usage for order_scan 0x10 bytes.
Stack Usage for radio_tx_cb 0x0 bytes.
Stack Usage for radio_rx_cb 0x18 bytes.
Stack Usage for radio_idle_cb 0x0 bytes.
Stack Usage for order_next_rtc 0x14 bytes.
Stack Usage for NVIC_EnableIRQ 0x0 bytes.
Stack Usage for NVIC_DisableIRQ 0x0 bytes.
Stack Usage for NVIC_SetPriority 0x0 bytes.
Stack Usage for vli_numBits 0x0 bytes.
Stack Usage for vli_add 0x10 bytes.
Stack Usage for vli_sub 0x10 bytes.
Stack Usage for muladd 0x14 bytes.
Stack Usage for vli_mult 0x30 bytes.
Stack Usage for vli_mmod_fast 0x38 bytes.
Stack Usage for vli_modInv 0x90 bytes.
Stack Usage for EccPoint_double_jacobian 0x58 bytes.
Stack Usage for apply_z 0x30 bytes.
Stack Usage for XYcZ_add 0x38 bytes.
Stack Usage for vli_modMult_n 0xe8 bytes.
Stack Usage for vli_clear 0x0 bytes.
Stack Usage for vli_isZero 0x0 bytes.
Stack Usage for vli_testBit 0x0 bytes.
Stack Usage for vli_set 0x0 bytes.
Stack Usage for vli_cmp 0x8 bytes.
Stack Usage for vli_rshift1 0x0 bytes.
Stack Usage for vli_modAdd 0x10 bytes.
Stack Usage for vli_modSub 0x10 bytes.
Stack Usage for vli_modMult_fast 0x48 bytes.
Stack Usage for vli_bytesToNative 0x8 bytes.

Potential Stack Usage Inaccuracies.

Mutually recursive functions.

 * NMI_Handler => NMI_Handler
 * MemoryManagement_Handler => MemoryManagement_Handler
 * BusFault_Handler => BusFault_Handler
 * UsageFault_Handler => UsageFault_Handler
 * SVC_Handler => SVC_Handler
 * DebugMon_Handler => DebugMon_Handler
 * PendSV_Handler => PendSV_Handler
 * SysTick_Handler => SysTick_Handler
 * CCM_AAR_IRQHandler => CCM_AAR_IRQHandler

Untraceable function pointers.

 * BusFault_Handler from arm_startup_nrf52840.o(.text) referenced from arm_startup_nrf52840.o(RESET)
 * CCM_AAR_IRQHandler from arm_startup_nrf52840.o(.text) referenced from arm_startup_nrf52840.o(RESET)
 * COMP_LPCOMP_IRQHandler from arm_startup_nrf52840.o(.text) referenced from arm_startup_nrf52840.o(RESET)
 * CRYPTOCELL_IRQHandler from arm_startup_nrf52840.o(.text) referenced from arm_startup_nrf52840.o(RESET)
 * DebugMon_Handler from arm_startup_nrf52840.o(.text) referenced from arm_startup_nrf52840.o(RESET)
 * ECB_IRQHandler from arm_startup_nrf52840.o(.text) referenced from arm_startup_nrf52840.o(RESET)
 * FPU_IRQHandler from arm_startup_nrf52840.o(.text) referenced from arm_startup_nrf52840.o(RESET)
 * GPIOTE_IRQHandler from arm_startup_nrf52840.o(.text) referenced from arm_startup_nrf52840.o(RESET)
 * HardFault_Handler from main.o(.text) referenced from arm_startup_nrf52840.o(RESET)
 * I2S_IRQHandler from arm_startup_nrf52840.o(.text) referenced from arm_startup_nrf52840.o(RESET)
 * MWU_IRQHandler from arm_startup_nrf52840.o(.text) referenced from arm_startup_nrf52840.o(RESET)
 * MemoryManagement_Handler from arm_startup_nrf52840.o(.text) referenced from arm_startup_nrf52840.o(RESET)
 * NFCT_IRQHandler from arm_startup_nrf52840.o(.text) referenced from arm_startup_nrf52840.o(RESET)
 * NMI_Handler from arm_startup_nrf52840.o(.text) referenced from arm_startup_nrf52840.o(RESET)
 * PDM_IRQHandler from arm_startup_nrf52840.o(.text) referenced from arm_startup_nrf52840.o(RESET)
 * POWER_CLOCK_IRQHandler from arm_startup_nrf52840.o(.text) referenced from arm_startup_nrf52840.o(RESET)
 * PWM0_IRQHandler from arm_startup_nrf52840.o(.text) referenced from arm_startup_nrf52840.o(RESET)
 * PWM1_IRQHandler from arm_startup_nrf52840.o(.text) referenced from arm_startup_nrf52840.o(RESET)
 * PWM2_IRQHandler from arm_startup_nrf52840.o(.text) referenced from arm_startup_nrf52840.o(RESET)
 * PWM3_IRQHandler from arm_startup_nrf52840.o(.text) referenced from arm_startup_nrf52840.o(RESET)
 * PendSV_Handler from arm_startup_nrf52840.o(.text) referenced from arm_startup_nrf52840.o(RESET)
 * QDEC_IRQHandler from arm_startup_nrf52840.o(.text) referenced from arm_startup_nrf52840.o(RESET)
 * QSPI_IRQHandler from arm_startup_nrf52840.o(.text) referenced from arm_startup_nrf52840.o(RESET)
 * RADIO_IRQHandler from transport.o(.text) referenced from arm_startup_nrf52840.o(RESET)
 * RNG_IRQHandler from arm_startup_nrf52840.o(.text) referenced from arm_startup_nrf52840.o(RESET)
 * RTC0_IRQHandler from bootloader_rtc.o(.text) referenced from arm_startup_nrf52840.o(RESET)
 * RTC1_IRQHandler from arm_startup_nrf52840.o(.text) referenced from arm_startup_nrf52840.o(RESET)
 * RTC2_IRQHandler from arm_startup_nrf52840.o(.text) referenced from arm_startup_nrf52840.o(RESET)
 * Reset_Handler from arm_startup_nrf52840.o(.text) referenced from arm_startup_nrf52840.o(RESET)
 * SAADC_IRQHandler from arm_startup_nrf52840.o(.text) referenced from arm_startup_nrf52840.o(RESET)
 * SPIM0_SPIS0_TWIM0_TWIS0_SPI0_TWI0_IRQHandler from arm_startup_nrf52840.o(.text) referenced from arm_startup_nrf52840.o(RESET)
 * SPIM1_SPIS1_TWIM1_TWIS1_SPI1_TWI1_IRQHandler from arm_startup_nrf52840.o(.text) referenced from arm_startup_nrf52840.o(RESET)
 * SPIM2_SPIS2_SPI2_IRQHandler from arm_startup_nrf52840.o(.text) referenced from arm_startup_nrf52840.o(RESET)
 * SPIM3_IRQHandler from arm_startup_nrf52840.o(.text) referenced from arm_startup_nrf52840.o(RESET)
 * SVC_Handler from arm_startup_nrf52840.o(.text) referenced from arm_startup_nrf52840.o(RESET)
 * SWI0_EGU0_IRQHandler from transport.o(.text) referenced from arm_startup_nrf52840.o(RESET)
 * SWI1_EGU1_IRQHandler from arm_startup_nrf52840.o(.text) referenced from arm_startup_nrf52840.o(RESET)
 * SWI2_EGU2_IRQHandler from arm_startup_nrf52840.o(.text) referenced from arm_startup_nrf52840.o(RESET)
 * SWI3_EGU3_IRQHandler from bootloader.o(.text) referenced from arm_startup_nrf52840.o(RESET)
 * SWI4_EGU4_IRQHandler from arm_startup_nrf52840.o(.text) referenced from arm_startup_nrf52840.o(RESET)
 * SWI5_EGU5_IRQHandler from arm_startup_nrf52840.o(.text) referenced from arm_startup_nrf52840.o(RESET)
 * SysTick_Handler from arm_startup_nrf52840.o(.text) referenced from arm_startup_nrf52840.o(RESET)
 * SystemInit from system_nrf52840.o(.text) referenced from arm_startup_nrf52840.o(.text)
 * TEMP_IRQHandler from arm_startup_nrf52840.o(.text) referenced from arm_startup_nrf52840.o(RESET)
 * TIMER0_IRQHandler from arm_startup_nrf52840.o(.text) referenced from arm_startup_nrf52840.o(RESET)
 * TIMER1_IRQHandler from arm_startup_nrf52840.o(.text) referenced from arm_startup_nrf52840.o(RESET)
 * TIMER2_IRQHandler from arm_startup_nrf52840.o(.text) referenced from arm_startup_nrf52840.o(RESET)
 * TIMER3_IRQHandler from arm_startup_nrf52840.o(.text) referenced from arm_startup_nrf52840.o(RESET)
 * TIMER4_IRQHandler from arm_startup_nrf52840.o(.text) referenced from arm_startup_nrf52840.o(RESET)
 * UARTE0_UART0_IRQHandler from arm_startup_nrf52840.o(.text) referenced from arm_startup_nrf52840.o(RESET)
 * UARTE1_IRQHandler from arm_startup_nrf52840.o(.text) referenced from arm_startup_nrf52840.o(RESET)
 * USBD_IRQHandler from arm_startup_nrf52840.o(.text) referenced from arm_startup_nrf52840.o(RESET)
 * UsageFault_Handler from arm_startup_nrf52840.o(.text) referenced from arm_startup_nrf52840.o(RESET)
 * WDT_IRQHandler from arm_startup_nrf52840.o(.text) referenced from arm_startup_nrf52840.o(RESET)
 * __main from __main.o(!!!main) referenced from arm_startup_nrf52840.o(.text)
 * bl_cmd_handler from bootloader_app_bridge.o(.text) referenced from bootloader_app_bridge.o(.text)
 * bl_evt_handler from bootloader.o(.text) referenced from bootloader.o(.text)
 * radio_idle_cb from transport.o(.text) referenced from transport.o(.text)
 * radio_rx_cb from transport.o(.text) referenced from transport.o(.text)
 * radio_tx_cb from transport.o(.text) referenced from transport.o(.text)
 * rx_cb from bootloader.o(.text) referenced from bootloader.o(.text)

==============================================================================

Image Symbol Table

    Local Symbols

    Symbol Name                              Value     Ov Type        Size  Object(Section)

    ../clib/angel/boardlib.s                 0x00000000   Number         0  boardinit3.o ABSOLUTE
    ../clib/angel/boardlib.s                 0x00000000   Number         0  boardinit2.o ABSOLUTE
    ../clib/angel/boardlib.s                 0x00000000   Number         0  boardinit1.o ABSOLUTE
    ../clib/angel/boardlib.s                 0x00000000   Number         0  boardshut.o ABSOLUTE
    ../clib/angel/handlers.s                 0x00000000   Number         0  __scatter_copy.o ABSOLUTE
    ../clib/angel/handlers.s                 0x00000000   Number         0  __scatter_zi.o ABSOLUTE
    ../clib/angel/kernel.s                   0x00000000   Number         0  __rtentry2.o ABSOLUTE
    ../clib/angel/kernel.s                   0x00000000   Number         0  __rtentry.o ABSOLUTE
    ../clib/angel/kernel.s                   0x00000000   Number         0  rtexit.o ABSOLUTE
    ../clib/angel/kernel.s                   0x00000000   Number         0  __rtentry4.o ABSOLUTE
    ../clib/angel/kernel.s                   0x00000000   Number         0  rtexit2.o ABSOLUTE
    ../clib/angel/rt.s                       0x00000000   Number         0  rt_div0.o ABSOLUTE
    ../clib/angel/rt.s                       0x00000000   Number         0  aeabi_ldiv0_sigfpe.o ABSOLUTE
    ../clib/angel/rt.s                       0x00000000   Number         0  rt_raise.o ABSOLUTE
    ../clib/angel/rt.s                       0x00000000   Number         0  aeabi_ldiv0.o ABSOLUTE
    ../clib/angel/scatter.s                  0x00000000   Number         0  __scatter.o ABSOLUTE
    ../clib/angel/startup.s                  0x00000000   Number         0  __main.o ABSOLUTE
    ../clib/angel/sys.s                      0x00000000   Number         0  libspace.o ABSOLUTE
    ../clib/angel/sys.s                      0x00000000   Number         0  indicate_semi.o ABSOLUTE
    ../clib/angel/sys.s                      0x00000000   Number         0  sys_stackheap_outer.o ABSOLUTE
    ../clib/angel/sys.s                      0x00000000   Number         0  use_no_semi.o ABSOLUTE
    ../clib/angel/sysapp.c                   0x00000000   Number         0  sys_exit.o ABSOLUTE
    ../clib/angel/sysapp.c                   0x00000000   Number         0  sys_command.o ABSOLUTE
    ../clib/angel/sysapp.c                   0x00000000   Number         0  sys_wrch.o ABSOLUTE
    ../clib/armsys.c                         0x00000000   Number         0  _get_argv_nomalloc.o ABSOLUTE
    ../clib/armsys.c                         0x00000000   Number         0  no_argv.o ABSOLUTE
    ../clib/armsys.c                         0x00000000   Number         0  argv_veneer.o ABSOLUTE
    ../clib/armsys.c                         0x00000000   Number         0  argv_veneer.o ABSOLUTE
    ../clib/heapalloc.c                      0x00000000   Number         0  hrguard.o ABSOLUTE
    ../clib/heapaux.c                        0x00000000   Number         0  heapauxi.o ABSOLUTE
    ../clib/libinit.s                        0x00000000   Number         0  libinit.o ABSOLUTE
    ../clib/libinit.s                        0x00000000   Number         0  libshutdown.o ABSOLUTE
    ../clib/libinit.s                        0x00000000   Number         0  libshutdown2.o ABSOLUTE
    ../clib/libinit.s                        0x00000000   Number         0  libinit2.o ABSOLUTE
    ../clib/longlong.s                       0x00000000   Number         0  lludivv7m.o ABSOLUTE
    ../clib/longlong.s                       0x00000000   Number         0  llshl.o ABSOLUTE
    ../clib/memcpset.s                       0x00000000   Number         0  aeabi_memset.o ABSOLUTE
    ../clib/memcpset.s                       0x00000000   Number         0  rt_memcpy_v6.o ABSOLUTE
    ../clib/memcpset.s                       0x00000000   Number         0  rt_memclr.o ABSOLUTE
    ../clib/memcpset.s                       0x00000000   Number         0  rt_memclr_w.o ABSOLUTE
    ../clib/memcpset.s                       0x00000000   Number         0  rt_memcpy_w.o ABSOLUTE
    ../clib/signal.c                         0x00000000   Number         0  defsig_exit.o ABSOLUTE
    ../clib/signal.c                         0x00000000   Number         0  defsig_general.o ABSOLUTE
    ../clib/signal.c                         0x00000000   Number         0  defsig_fpe_formal.o ABSOLUTE
    ../clib/signal.c                         0x00000000   Number         0  defsig_segv_inner.o ABSOLUTE
    ../clib/signal.c                         0x00000000   Number         0  defsig_cppl_inner.o ABSOLUTE
    ../clib/signal.c                         0x00000000   Number         0  defsig_pvfn_inner.o ABSOLUTE
    ../clib/signal.c                         0x00000000   Number         0  defsig_stak_inner.o ABSOLUTE
    ../clib/signal.c                         0x00000000   Number         0  defsig_rtmem_formal.o ABSOLUTE
    ../clib/signal.c                         0x00000000   Number         0  defsig_rtmem_inner.o ABSOLUTE
    ../clib/signal.c                         0x00000000   Number         0  defsig_rtred_inner.o ABSOLUTE
    ../clib/signal.c                         0x00000000   Number         0  defsig_fpe_outer.o ABSOLUTE
    ../clib/signal.c                         0x00000000   Number         0  __raise.o ABSOLUTE
    ../clib/signal.c                         0x00000000   Number         0  defsig_abrt_inner.o ABSOLUTE
    ../clib/signal.c                         0x00000000   Number         0  defsig_other.o ABSOLUTE
    ../clib/signal.c                         0x00000000   Number         0  defsig_rtmem_outer.o ABSOLUTE
    ../clib/signal.c                         0x00000000   Number         0  defsig_fpe_inner.o ABSOLUTE
    ../clib/signal.s                         0x00000000   Number         0  defsig.o ABSOLUTE
    ../clib/stdlib.c                         0x00000000   Number         0  exit.o ABSOLUTE
    ../clib/string.c                         0x00000000   Number         0  memcmp.o ABSOLUTE
    ../fplib/fpinit.s                        0x00000000   Number         0  fpinit.o ABSOLUTE
    ..\\mesh\\bootloader\\src\\bootloader.c  0x00000000   Number         0  bootloader.o ABSOLUTE
    ..\\mesh\\bootloader\\src\\bootloader_app_bridge.c 0x00000000   Number         0  bootloader_app_bridge.o ABSOLUTE
    ..\\mesh\\bootloader\\src\\bootloader_info.c 0x00000000   Number         0  bootloader_info.o ABSOLUTE
    ..\\mesh\\bootloader\\src\\bootloader_rtc.c 0x00000000   Number         0  bootloader_rtc.o ABSOLUTE
    ..\\mesh\\bootloader\\src\\bootloader_util.c 0x00000000   Number         0  bootloader_util.o ABSOLUTE
    ..\\mesh\\bootloader\\src\\dfu_bank.c    0x00000000   Number         0  dfu_bank.o ABSOLUTE
    ..\\mesh\\bootloader\\src\\dfu_mesh.c    0x00000000   Number         0  dfu_mesh.o ABSOLUTE
    ..\\mesh\\bootloader\\src\\dfu_transfer_mesh.c 0x00000000   Number         0  dfu_transfer_mesh.o ABSOLUTE
    ..\\mesh\\bootloader\\src\\dfu_util.c    0x00000000   Number         0  dfu_util.o ABSOLUTE
    ..\\mesh\\bootloader\\src\\fifo.c        0x00000000   Number         0  fifo.o ABSOLUTE
    ..\\mesh\\bootloader\\src\\main.c        0x00000000   Number         0  main.o ABSOLUTE
    ..\\mesh\\bootloader\\src\\mesh_packet.c 0x00000000   Number         0  mesh_packet.o ABSOLUTE
    ..\\mesh\\bootloader\\src\\nrf_flash.c   0x00000000   Number         0  nrf_flash.o ABSOLUTE
    ..\\mesh\\bootloader\\src\\radio_control.c 0x00000000   Number         0  radio_control.o ABSOLUTE
    ..\\mesh\\bootloader\\src\\rand.c        0x00000000   Number         0  rand.o ABSOLUTE
    ..\\mesh\\bootloader\\src\\transport.c   0x00000000   Number         0  transport.o ABSOLUTE
    ..\mesh\bootloader\src\bootloader.c      0x00000000   Number         0  bootloader.o ABSOLUTE
    ..\mesh\bootloader\src\bootloader_app_bridge.c 0x00000000   Number         0  bootloader_app_bridge.o ABSOLUTE
    ..\mesh\bootloader\src\bootloader_info.c 0x00000000   Number         0  bootloader_info.o ABSOLUTE
    ..\mesh\bootloader\src\bootloader_rtc.c  0x00000000   Number         0  bootloader_rtc.o ABSOLUTE
    ..\mesh\bootloader\src\bootloader_util.c 0x00000000   Number         0  bootloader_util.o ABSOLUTE
    ..\mesh\bootloader\src\dfu_bank.c        0x00000000   Number         0  dfu_bank.o ABSOLUTE
    ..\mesh\bootloader\src\dfu_mesh.c        0x00000000   Number         0  dfu_mesh.o ABSOLUTE
    ..\mesh\bootloader\src\dfu_transfer_mesh.c 0x00000000   Number         0  dfu_transfer_mesh.o ABSOLUTE
    ..\mesh\bootloader\src\dfu_util.c        0x00000000   Number         0  dfu_util.o ABSOLUTE
    ..\mesh\bootloader\src\fifo.c            0x00000000   Number         0  fifo.o ABSOLUTE
    ..\mesh\bootloader\src\main.c            0x00000000   Number         0  main.o ABSOLUTE
    ..\mesh\bootloader\src\mesh_packet.c     0x00000000   Number         0  mesh_packet.o ABSOLUTE
    ..\mesh\bootloader\src\nrf_flash.c       0x00000000   Number         0  nrf_flash.o ABSOLUTE
    ..\mesh\bootloader\src\radio_control.c   0x00000000   Number         0  radio_control.o ABSOLUTE
    ..\mesh\bootloader\src\rand.c            0x00000000   Number         0  rand.o ABSOLUTE
    ..\mesh\bootloader\src\transport.c       0x00000000   Number         0  transport.o ABSOLUTE
    ..\mesh\bootloader\src\uECC.c            0x00000000   Number         0  uECC.o ABSOLUTE
    C:\\dev\\nRF5_SDK_16.0.0_98a08e2\\components\\libraries\\sha256\\sha256.c 0x00000000   Number         0  sha256.o ABSOLUTE
    C:\\dev\\nRF5_SDK_16.0.0_98a08e2\\modules\\nrfx\\mdk\\arm_startup_nrf52840.s 0x00000000   Number         0  arm_startup_nrf52840.o ABSOLUTE
    C:\\dev\\nRF5_SDK_16.0.0_98a08e2\\modules\\nrfx\\mdk\\system_nrf52840.c 0x00000000   Number         0  system_nrf52840.o ABSOLUTE
    C:\dev\nRF5_SDK_16.0.0_98a08e2\components\libraries\sha256\sha256.c 0x00000000   Number         0  sha256.o ABSOLUTE
    C:\dev\nRF5_SDK_16.0.0_98a08e2\modules\nrfx\mdk\system_nrf52840.c 0x00000000   Number         0  system_nrf52840.o ABSOLUTE
    dc.s                                     0x00000000   Number         0  dc.o ABSOLUTE
    RESET                                    0x000f8000   Section      512  arm_startup_nrf52840.o(RESET)
    !!!main                                  0x000f8200   Section        8  __main.o(!!!main)
    !!!scatter                               0x000f8208   Section       52  __scatter.o(!!!scatter)
    !!handler_copy                           0x000f823c   Section       26  __scatter_copy.o(!!handler_copy)
    !!handler_zi                             0x000f8258   Section       28  __scatter_zi.o(!!handler_zi)
    .ARM.Collect$$libinit$$00000000          0x000f8274   Section        2  libinit.o(.ARM.Collect$$libinit$$00000000)
    .ARM.Collect$$libinit$$00000001          0x000f8276   Section        4  libinit2.o(.ARM.Collect$$libinit$$00000001)
    .ARM.Collect$$libinit$$00000004          0x000f827a   Section        0  libinit2.o(.ARM.Collect$$libinit$$00000004)
    .ARM.Collect$$libinit$$0000000A          0x000f827a   Section        0  libinit2.o(.ARM.Collect$$libinit$$0000000A)
    .ARM.Collect$$libinit$$0000000C          0x000f827a   Section        0  libinit2.o(.ARM.Collect$$libinit$$0000000C)
    .ARM.Collect$$libinit$$0000000E          0x000f827a   Section        0  libinit2.o(.ARM.Collect$$libinit$$0000000E)
    .ARM.Collect$$libinit$$00000011          0x000f827a   Section        0  libinit2.o(.ARM.Collect$$libinit$$00000011)
    .ARM.Collect$$libinit$$00000013          0x000f827a   Section        0  libinit2.o(.ARM.Collect$$libinit$$00000013)
    .ARM.Collect$$libinit$$00000015          0x000f827a   Section        0  libinit2.o(.ARM.Collect$$libinit$$00000015)
    .ARM.Collect$$libinit$$00000017          0x000f827a   Section        0  libinit2.o(.ARM.Collect$$libinit$$00000017)
    .ARM.Collect$$libinit$$00000019          0x000f827a   Section        0  libinit2.o(.ARM.Collect$$libinit$$00000019)
    .ARM.Collect$$libinit$$0000001B          0x000f827a   Section        0  libinit2.o(.ARM.Collect$$libinit$$0000001B)
    .ARM.Collect$$libinit$$0000001D          0x000f827a   Section        0  libinit2.o(.ARM.Collect$$libinit$$0000001D)
    .ARM.Collect$$libinit$$0000001F          0x000f827a   Section        0  libinit2.o(.ARM.Collect$$libinit$$0000001F)
    .ARM.Collect$$libinit$$00000021          0x000f827a   Section        0  libinit2.o(.ARM.Collect$$libinit$$00000021)
    .ARM.Collect$$libinit$$00000023          0x000f827a   Section        0  libinit2.o(.ARM.Collect$$libinit$$00000023)
    .ARM.Collect$$libinit$$00000025          0x000f827a   Section        0  libinit2.o(.ARM.Collect$$libinit$$00000025)
    .ARM.Collect$$libinit$$0000002C          0x000f827a   Section        0  libinit2.o(.ARM.Collect$$libinit$$0000002C)
    .ARM.Collect$$libinit$$0000002E          0x000f827a   Section        0  libinit2.o(.ARM.Collect$$libinit$$0000002E)
    .ARM.Collect$$libinit$$00000030          0x000f827a   Section        0  libinit2.o(.ARM.Collect$$libinit$$00000030)
    .ARM.Collect$$libinit$$00000032          0x000f827a   Section        0  libinit2.o(.ARM.Collect$$libinit$$00000032)
    .ARM.Collect$$libinit$$00000033          0x000f827a   Section        2  libinit2.o(.ARM.Collect$$libinit$$00000033)
    .ARM.Collect$$libshutdown$$00000000      0x000f827c   Section        2  libshutdown.o(.ARM.Collect$$libshutdown$$00000000)
    .ARM.Collect$$libshutdown$$00000002      0x000f827e   Section        0  libshutdown2.o(.ARM.Collect$$libshutdown$$00000002)
    .ARM.Collect$$libshutdown$$00000004      0x000f827e   Section        0  libshutdown2.o(.ARM.Collect$$libshutdown$$00000004)
    .ARM.Collect$$libshutdown$$00000007      0x000f827e   Section        0  libshutdown2.o(.ARM.Collect$$libshutdown$$00000007)
    .ARM.Collect$$libshutdown$$0000000A      0x000f827e   Section        0  libshutdown2.o(.ARM.Collect$$libshutdown$$0000000A)
    .ARM.Collect$$libshutdown$$0000000C      0x000f827e   Section        0  libshutdown2.o(.ARM.Collect$$libshutdown$$0000000C)
    .ARM.Collect$$libshutdown$$0000000F      0x000f827e   Section        0  libshutdown2.o(.ARM.Collect$$libshutdown$$0000000F)
    .ARM.Collect$$libshutdown$$00000010      0x000f827e   Section        2  libshutdown2.o(.ARM.Collect$$libshutdown$$00000010)
    .ARM.Collect$$rtentry$$00000000          0x000f8280   Section        0  __rtentry.o(.ARM.Collect$$rtentry$$00000000)
    .ARM.Collect$$rtentry$$00000002          0x000f8280   Section        0  __rtentry2.o(.ARM.Collect$$rtentry$$00000002)
    .ARM.Collect$$rtentry$$00000004          0x000f8280   Section        6  __rtentry4.o(.ARM.Collect$$rtentry$$00000004)
    .ARM.Collect$$rtentry$$00000009          0x000f8286   Section        0  __rtentry2.o(.ARM.Collect$$rtentry$$00000009)
    .ARM.Collect$$rtentry$$0000000A          0x000f8286   Section        4  __rtentry2.o(.ARM.Collect$$rtentry$$0000000A)
    .ARM.Collect$$rtentry$$0000000C          0x000f828a   Section        0  __rtentry2.o(.ARM.Collect$$rtentry$$0000000C)
    .ARM.Collect$$rtentry$$0000000D          0x000f828a   Section        8  __rtentry2.o(.ARM.Collect$$rtentry$$0000000D)
    .ARM.Collect$$rtexit$$00000000           0x000f8292   Section        2  rtexit.o(.ARM.Collect$$rtexit$$00000000)
    .ARM.Collect$$rtexit$$00000002           0x000f8294   Section        0  rtexit2.o(.ARM.Collect$$rtexit$$00000002)
    .ARM.Collect$$rtexit$$00000003           0x000f8294   Section        4  rtexit2.o(.ARM.Collect$$rtexit$$00000003)
    .ARM.Collect$$rtexit$$00000004           0x000f8298   Section        6  rtexit2.o(.ARM.Collect$$rtexit$$00000004)
    .emb_text                                0x000f82a0   Section       52  bootloader_util.o(.emb_text)
    $v0                                      0x000f82a0   Number         0  bootloader_util.o(.emb_text)
    .text                                    0x000f82d4   Section        0  bootloader.o(.text)
    rx_cb                                    0x000f83bd   Thumb Code    48  bootloader.o(.text)
    bl_evt_handler                           0x000f8465   Thumb Code   534  bootloader.o(.text)
    NVIC_SetPendingIRQ                       0x000f8841   Thumb Code    22  bootloader.o(.text)
    set_timeout                              0x000f8857   Thumb Code    38  bootloader.o(.text)
    stop_timeout                             0x000f887d   Thumb Code    18  bootloader.o(.text)
    .text                                    0x000f889c   Section        0  bootloader_app_bridge.o(.text)
    .text                                    0x000f8a90   Section        0  bootloader_info.o(.text)
    info_entry_get                           0x000f8a91   Thumb Code    68  bootloader_info.o(.text)
    free_write_buffer                        0x000f8ad5   Thumb Code   114  bootloader_info.o(.text)
    place_head_after_entry                   0x000f8b47   Thumb Code    50  bootloader_info.o(.text)
    get_write_buffer                         0x000f8b79   Thumb Code   132  bootloader_info.o(.text)
    copy_page_write_meta                     0x000f8bfd   Thumb Code    28  bootloader_info.o(.text)
    copy_page_write_next_data                0x000f8c19   Thumb Code   108  bootloader_info.o(.text)
    copy_page                                0x000f8c85   Thumb Code    42  bootloader_info.o(.text)
    entry_header_invalidate                  0x000f8fa9   Thumb Code    28  bootloader_info.o(.text)
    bootloader_info_header_get               0x000f8fc5   Thumb Code    26  bootloader_info.o(.text)
    bootloader_info_first_unused_get         0x000f8fdf   Thumb Code    22  bootloader_info.o(.text)
    copy_page_on_flash_op_end                0x000f8ff5   Thumb Code    84  bootloader_info.o(.text)
    .text                                    0x000f9054   Section        0  bootloader_rtc.o(.text)
    .text                                    0x000f90cc   Section        0  bootloader_util.o(.text)
    .text                                    0x000f90d0   Section        0  dfu_bank.o(.text)
    flash_bank_entry_fw                      0x000f90d1   Thumb Code   326  dfu_bank.o(.text)
    flash_bank_entry                         0x000f9217   Thumb Code   330  dfu_bank.o(.text)
    .text                                    0x000f9414   Section        0  dfu_mesh.o(.text)
    get_info_pointers                        0x000f9415   Thumb Code    98  dfu_mesh.o(.text)
    segment_count_from_start_packet          0x000f9477   Thumb Code    48  dfu_mesh.o(.text)
    packet_tx_dynamic                        0x000f94a7   Thumb Code    64  dfu_mesh.o(.text)
    signature_check                          0x000f94e7   Thumb Code   148  dfu_mesh.o(.text)
    beacon_set                               0x000f957b   Thumb Code   228  dfu_mesh.o(.text)
    relay_packet                             0x000f965f   Thumb Code    44  dfu_mesh.o(.text)
    start_req                                0x000f968b   Thumb Code    66  dfu_mesh.o(.text)
    start_target                             0x000f96cd   Thumb Code   434  dfu_mesh.o(.text)
    notify_state_packet                      0x000f987f   Thumb Code    56  dfu_mesh.o(.text)
    target_rx_start                          0x000f98b7   Thumb Code   276  dfu_mesh.o(.text)
    target_rx_data                           0x000f99cb   Thumb Code   204  dfu_mesh.o(.text)
    handle_data_packet                       0x000f9a97   Thumb Code   338  dfu_mesh.o(.text)
    handle_state_packet                      0x000f9be9   Thumb Code   230  dfu_mesh.o(.text)
    handle_data_req_packet                   0x000f9ccf   Thumb Code   188  dfu_mesh.o(.text)
    state_beacon_type                        0x000fa113   Thumb Code    28  dfu_mesh.o(.text)
    send_progress_event                      0x000fa12f   Thumb Code    26  dfu_mesh.o(.text)
    send_bank_notifications                  0x000fa149   Thumb Code   122  dfu_mesh.o(.text)
    start_find_fwid                          0x000fa1c3   Thumb Code    26  dfu_mesh.o(.text)
    start_ready                              0x000fa1dd   Thumb Code    82  dfu_mesh.o(.text)
    request_missing_data                     0x000fa22f   Thumb Code   138  dfu_mesh.o(.text)
    handle_fwid_packet                       0x000fa2b9   Thumb Code   162  dfu_mesh.o(.text)
    .text                                    0x000fa36c   Section        0  dfu_transfer_mesh.o(.text)
    segment_is_missing                       0x000fa36d   Thumb Code    52  dfu_transfer_mesh.o(.text)
    transfer_abort                           0x000fa62f   Thumb Code    12  dfu_transfer_mesh.o(.text)
    .text                                    0x000fa640   Section        0  dfu_util.o(.text)
    .text                                    0x000fa90c   Section        0  fifo.o(.text)
    .text                                    0x000faa28   Section        0  main.o(.text)
    .text                                    0x000faab8   Section        0  mesh_packet.o(.text)
    .text                                    0x000fac18   Section        0  nrf_flash.o(.text)
    .text                                    0x000face8   Section        0  radio_control.o(.text)
    setup_event                              0x000fad07   Thumb Code   162  radio_control.o(.text)
    NVIC_SetPendingIRQ                       0x000fafc7   Thumb Code    22  radio_control.o(.text)
    .text                                    0x000fb00c   Section        0  rand.o(.text)
    .text                                    0x000fb09c   Section        0  transport.o(.text)
    set_next_tx                              0x000fb09d   Thumb Code   124  transport.o(.text)
    order_scan                               0x000fb119   Thumb Code    52  transport.o(.text)
    radio_tx_cb                              0x000fb14d   Thumb Code     4  transport.o(.text)
    radio_rx_cb                              0x000fb151   Thumb Code    38  transport.o(.text)
    radio_idle_cb                            0x000fb177   Thumb Code    12  transport.o(.text)
    order_next_rtc                           0x000fb183   Thumb Code    92  transport.o(.text)
    NVIC_EnableIRQ                           0x000fb411   Thumb Code    22  transport.o(.text)
    NVIC_DisableIRQ                          0x000fb427   Thumb Code    22  transport.o(.text)
    NVIC_SetPriority                         0x000fb43d   Thumb Code    32  transport.o(.text)
    .text                                    0x000fb480   Section        0  uECC.o(.text)
    vli_numBits                              0x000fb481   Thumb Code    50  uECC.o(.text)
    vli_add                                  0x000fb4b3   Thumb Code    50  uECC.o(.text)
    vli_sub                                  0x000fb4e5   Thumb Code    50  uECC.o(.text)
    muladd                                   0x000fb517   Thumb Code    42  uECC.o(.text)
    vli_mult                                 0x000fb541   Thumb Code   152  uECC.o(.text)
    vli_mmod_fast                            0x000fb5d9   Thumb Code   398  uECC.o(.text)
    vli_modInv                               0x000fb767   Thumb Code   286  uECC.o(.text)
    EccPoint_double_jacobian                 0x000fb885   Thumb Code   284  uECC.o(.text)
    apply_z                                  0x000fb9a1   Thumb Code    52  uECC.o(.text)
    XYcZ_add                                 0x000fb9d5   Thumb Code   166  uECC.o(.text)
    vli_modMult_n                            0x000fba7b   Thumb Code   166  uECC.o(.text)
    vli_clear                                0x000fbd3d   Thumb Code    16  uECC.o(.text)
    vli_isZero                               0x000fbd4d   Thumb Code    22  uECC.o(.text)
    vli_testBit                              0x000fbd63   Thumb Code    18  uECC.o(.text)
    vli_set                                  0x000fbd75   Thumb Code    18  uECC.o(.text)
    vli_cmp                                  0x000fbd87   Thumb Code    38  uECC.o(.text)
    vli_rshift1                              0x000fbdad   Thumb Code    28  uECC.o(.text)
    vli_modAdd                               0x000fbdc9   Thumb Code    40  uECC.o(.text)
    vli_modSub                               0x000fbdf1   Thumb Code    30  uECC.o(.text)
    vli_modMult_fast                         0x000fbe0f   Thumb Code    24  uECC.o(.text)
    vli_bytesToNative                        0x000fbe27   Thumb Code    36  uECC.o(.text)
    .text                                    0x000fbe50   Section        0  sha256.o(.text)
    .text                                    0x000fc130   Section        0  system_nrf52840.o(.text)
    .text                                    0x000fc31c   Section       64  arm_startup_nrf52840.o(.text)
    $v0                                      0x000fc31c   Number         0  arm_startup_nrf52840.o(.text)
    .text                                    0x000fc35c   Section      238  lludivv7m.o(.text)
    .text                                    0x000fc44a   Section       38  llshl.o(.text)
    .text                                    0x000fc470   Section        0  memcmp.o(.text)
    .text                                    0x000fc4c8   Section      138  rt_memcpy_v6.o(.text)
    .text                                    0x000fc552   Section      100  rt_memcpy_w.o(.text)
    .text                                    0x000fc5b6   Section       16  aeabi_memset.o(.text)
    .text                                    0x000fc5c6   Section       68  rt_memclr.o(.text)
    .text                                    0x000fc60a   Section       78  rt_memclr_w.o(.text)
    .text                                    0x000fc658   Section        0  heapauxi.o(.text)
    .text                                    0x000fc65e   Section       74  sys_stackheap_outer.o(.text)
    .text                                    0x000fc6a8   Section        0  exit.o(.text)
    .text                                    0x000fc6bc   Section        8  libspace.o(.text)
    .text                                    0x000fc6c4   Section        0  sys_exit.o(.text)
    .text                                    0x000fc6d0   Section        2  use_no_semi.o(.text)
    .text                                    0x000fc6d2   Section        0  indicate_semi.o(.text)
    x$fpl$fpinit                             0x000fc6d2   Section       10  fpinit.o(x$fpl$fpinit)
    $v0                                      0x000fc6d2   Number         0  fpinit.o(x$fpl$fpinit)
    .constdata                               0x000fc6dc   Section       16  bootloader.o(.constdata)
    .constdata                               0x000fc6ec   Section       72  bootloader_app_bridge.o(.constdata)
    .constdata                               0x000fc734   Section        4  bootloader_info.o(.constdata)
    m_invalid_header                         0x000fc734   Data           4  bootloader_info.o(.constdata)
    .constdata                               0x000fc738   Section        6  dfu_mesh.o(.constdata)
    .constdata                               0x000fc740   Section       12  radio_control.o(.constdata)
    .constdata                               0x000fc74c   Section      144  uECC.o(.constdata)
    curve_p                                  0x000fc74c   Data          32  uECC.o(.constdata)
    curve_G                                  0x000fc76c   Data          64  uECC.o(.constdata)
    curve_n                                  0x000fc7ac   Data          32  uECC.o(.constdata)
    .constdata                               0x000fc7dc   Section      256  sha256.o(.constdata)
    k                                        0x000fc7dc   Data         256  sha256.o(.constdata)
    .ARM.__AT_0x10001014                     0x10001014   Section        4  main.o(.ARM.__AT_0x10001014)
    .ARM.__AT_0x10001018                     0x10001018   Section        4  main.o(.ARM.__AT_0x10001018)
    .data                                    0x20000004   Section        2  bootloader.o(.data)
    m_go_to_app                              0x20000004   Data           1  bootloader.o(.data)
    m_timeout_action                         0x20000005   Data           1  bootloader.o(.data)
    .data                                    0x20000008   Section        4  nrf_flash.o(.data)
    buffer                                   0x20000008   Data           4  nrf_flash.o(.data)
    .data                                    0x2000000c   Section       20  radio_control.o(.data)
    m_radio_state                            0x2000000c   Data           1  radio_control.o(.data)
    m_alt_aa                                 0x20000010   Data           4  radio_control.o(.data)
    m_idle_cb                                0x20000014   Data           4  radio_control.o(.data)
    m_rx_cb                                  0x20000018   Data           4  radio_control.o(.data)
    m_tx_cb                                  0x2000001c   Data           4  radio_control.o(.data)
    .data                                    0x20000020   Section       12  transport.o(.data)
    m_running                                0x20000020   Data           1  transport.o(.data)
    m_rx_cb                                  0x20000024   Data           4  transport.o(.data)
    m_ticks_at_order_time                    0x20000028   Data           4  transport.o(.data)
    .data                                    0x2000002c   Section        4  system_nrf52840.o(.data)
    __tagsym$$used                           0x2000002c   Number         0  system_nrf52840.o(.data)
    .bss                                     0x20000030   Section      176  bootloader.o(.bss)
    rsp_cmd                                  0x20000030   Data          24  bootloader.o(.bss)
    m_flash_fifo                             0x20000048   Data          24  bootloader.o(.bss)
    m_flash_fifo_buf                         0x20000060   Data         128  bootloader.o(.bss)
    .bss                                     0x200000e0   Section     1312  mesh_packet.o(.bss)
    g_packet_pool                            0x200000e0   Data        1280  mesh_packet.o(.bss)
    g_packet_refs                            0x200005e0   Data          32  mesh_packet.o(.bss)
    .bss                                     0x20000600   Section       88  radio_control.o(.bss)
    m_radio_fifo                             0x20000600   Data          24  radio_control.o(.bss)
    m_radio_fifo_queue                       0x20000618   Data          64  radio_control.o(.bss)
    .bss                                     0x20000658   Section      296  transport.o(.bss)
    m_tx                                     0x20000658   Data         128  transport.o(.bss)
    m_rx_fifo                                0x200006d8   Data          24  transport.o(.bss)
    m_rx_fifo_buf                            0x200006f0   Data         128  transport.o(.bss)
    m_prng                                   0x20000770   Data          16  transport.o(.bss)
    .bss                                     0x20000780   Section       96  libspace.o(.bss)
    HEAP                                     0x200007e0   Section     1024  arm_startup_nrf52840.o(HEAP)
    Heap_Mem                                 0x200007e0   Data        1024  arm_startup_nrf52840.o(HEAP)
    STACK                                    0x20000be0   Section     8192  arm_startup_nrf52840.o(STACK)
    Stack_Mem                                0x20000be0   Data        8192  arm_startup_nrf52840.o(STACK)
    __initial_sp                             0x20002be0   Data           0  arm_startup_nrf52840.o(STACK)
    .data                                    0x2003fd00   Section        8  bootloader_app_bridge.o(.data)
    m_in_bl                                  0x2003fd00   Data           1  bootloader_app_bridge.o(.data)
    m_evt_handler                            0x2003fd04   Data           4  bootloader_app_bridge.o(.data)
    .data                                    0x2003fd08   Section       24  bootloader_info.o(.data)
    m_state                                  0x2003fd08   Data           1  bootloader_info.o(.data)
    m_write_in_progress                      0x2003fd09   Data           1  bootloader_info.o(.data)
    mp_bl_info_page                          0x2003fd0c   Data           4  bootloader_info.o(.data)
    mp_bl_info_bank_page                     0x2003fd10   Data           4  bootloader_info.o(.data)
    mp_info_entry_head                       0x2003fd14   Data           4  bootloader_info.o(.data)
    mp_info_entry_tail                       0x2003fd18   Data           4  bootloader_info.o(.data)
    mp_write_pos                             0x2003fd1c   Data           4  bootloader_info.o(.data)
    .data                                    0x2003fd20   Section        8  dfu_bank.o(.data)
    m_dfu_type                               0x2003fd20   Data           1  dfu_bank.o(.data)
    m_waiting_for_idle                       0x2003fd21   Data           1  dfu_bank.o(.data)
    mp_bank_entry                            0x2003fd24   Data           4  dfu_bank.o(.data)
    .data                                    0x2003fd28   Section        8  dfu_mesh.o(.data)
    m_state                                  0x2003fd28   Data           1  dfu_mesh.o(.data)
    tx_slot                                  0x2003fd29   Data           1  dfu_mesh.o(.data)
    m_req_index                              0x2003fd2a   Data           1  dfu_mesh.o(.data)
    m_tx_slots                               0x2003fd2b   Data           1  dfu_mesh.o(.data)
    m_lost_start_edge                        0x2003fd2c   Data           1  dfu_mesh.o(.data)
    m_data_req_segment                       0x2003fd2e   Data           2  dfu_mesh.o(.data)
    .data                                    0x2003fd30   Section        8  dfu_util.o(.data)
    m_tid_index                              0x2003fd30   Data           1  dfu_util.o(.data)
    m_packet_cache_index                     0x2003fd34   Data           4  dfu_util.o(.data)
    .bss                                     0x2003fd38   Section      156  bootloader_info.o(.bss)
    mp_info_entry_buffer                     0x2003fd38   Data         128  bootloader_info.o(.bss)
    m_info_copy                              0x2003fdb8   Data          28  bootloader_info.o(.bss)
    .bss                                     0x2003fdd4   Section      172  dfu_mesh.o(.bss)
    m_transaction                            0x2003fdd4   Data         116  dfu_mesh.o(.bss)
    m_bl_info_pointers                       0x2003fe48   Data          40  dfu_mesh.o(.bss)
    m_req_cache                              0x2003fe70   Data          16  dfu_mesh.o(.bss)
    .bss                                     0x2003fe80   Section       48  dfu_transfer_mesh.o(.bss)
    m_transfer                               0x2003fe80   Data          48  dfu_transfer_mesh.o(.bss)
    .bss                                     0x2003feb0   Section       96  dfu_util.o(.bss)
    m_tid_cache                              0x2003feb0   Data          32  dfu_util.o(.bss)
    m_packet_cache                           0x2003fed0   Data          64  dfu_util.o(.bss)

    Global Symbols

    Symbol Name                              Value     Ov Type        Size  Object(Section)

    BuildAttributes$$THM_ISAv4$E$P$D$K$B$S$7EM$VFPi3$EXTD16$VFPS$VFMA$PE$A:L22UL41UL21$X:L11$S22US41US21$IEEE1$IW$USESV6$~STKCKD$USESV7$~SHL$OSPACE$ROPI$EBA8$UX$STANDARDLIB$REQ8$PRES8$EABIv2 0x00000000   Number         0  anon$$obj.o ABSOLUTE
    __ARM_use_no_argv                        0x00000000   Number         0  main.o ABSOLUTE
    __ARM_exceptions_init                     - Undefined Weak Reference
    __alloca_initialize                       - Undefined Weak Reference
    __arm_preinit_                            - Undefined Weak Reference
    __cpp_initialize__aeabi_                  - Undefined Weak Reference
    __cxa_finalize                            - Undefined Weak Reference
    __rt_locale                               - Undefined Weak Reference
    __sigvec_lookup                           - Undefined Weak Reference
    _atexit_init                              - Undefined Weak Reference
    _call_atexit_fns                          - Undefined Weak Reference
    _clock_init                               - Undefined Weak Reference
    _fp_trap_init                             - Undefined Weak Reference
    _fp_trap_shutdown                         - Undefined Weak Reference
    _get_lc_collate                           - Undefined Weak Reference
    _get_lc_ctype                             - Undefined Weak Reference
    _get_lc_monetary                          - Undefined Weak Reference
    _get_lc_numeric                           - Undefined Weak Reference
    _get_lc_time                              - Undefined Weak Reference
    _getenv_init                              - Undefined Weak Reference
    _handle_redirection                       - Undefined Weak Reference
    _init_alloc                               - Undefined Weak Reference
    _init_user_alloc                          - Undefined Weak Reference
    _initio                                   - Undefined Weak Reference
    _rand_init                                - Undefined Weak Reference
    _signal_finish                            - Undefined Weak Reference
    _signal_init                              - Undefined Weak Reference
    _terminate_alloc                          - Undefined Weak Reference
    _terminate_user_alloc                     - Undefined Weak Reference
    _terminateio                              - Undefined Weak Reference
    __Vectors_Size                           0x00000200   Number         0  arm_startup_nrf52840.o ABSOLUTE
    __Vectors                                0x000f8000   Data           4  arm_startup_nrf52840.o(RESET)
    __Vectors_End                            0x000f8200   Data           0  arm_startup_nrf52840.o(RESET)
    __main                                   0x000f8201   Thumb Code     8  __main.o(!!!main)
    __scatterload                            0x000f8209   Thumb Code     0  __scatter.o(!!!scatter)
    __scatterload_rt2                        0x000f8209   Thumb Code    44  __scatter.o(!!!scatter)
    __scatterload_rt2_thumb_only             0x000f8209   Thumb Code     0  __scatter.o(!!!scatter)
    __scatterload_null                       0x000f8217   Thumb Code     0  __scatter.o(!!!scatter)
    __scatterload_copy                       0x000f823d   Thumb Code    26  __scatter_copy.o(!!handler_copy)
    __scatterload_zeroinit                   0x000f8259   Thumb Code    28  __scatter_zi.o(!!handler_zi)
    __rt_lib_init                            0x000f8275   Thumb Code     0  libinit.o(.ARM.Collect$$libinit$$00000000)
    __rt_lib_init_fp_1                       0x000f8277   Thumb Code     0  libinit2.o(.ARM.Collect$$libinit$$00000001)
    __rt_lib_init_alloca_1                   0x000f827b   Thumb Code     0  libinit2.o(.ARM.Collect$$libinit$$0000002E)
    __rt_lib_init_argv_1                     0x000f827b   Thumb Code     0  libinit2.o(.ARM.Collect$$libinit$$0000002C)
    __rt_lib_init_atexit_1                   0x000f827b   Thumb Code     0  libinit2.o(.ARM.Collect$$libinit$$0000001B)
    __rt_lib_init_clock_1                    0x000f827b   Thumb Code     0  libinit2.o(.ARM.Collect$$libinit$$00000021)
    __rt_lib_init_cpp_1                      0x000f827b   Thumb Code     0  libinit2.o(.ARM.Collect$$libinit$$00000032)
    __rt_lib_init_exceptions_1               0x000f827b   Thumb Code     0  libinit2.o(.ARM.Collect$$libinit$$00000030)
    __rt_lib_init_fp_trap_1                  0x000f827b   Thumb Code     0  libinit2.o(.ARM.Collect$$libinit$$0000001F)
    __rt_lib_init_getenv_1                   0x000f827b   Thumb Code     0  libinit2.o(.ARM.Collect$$libinit$$00000023)
    __rt_lib_init_heap_1                     0x000f827b   Thumb Code     0  libinit2.o(.ARM.Collect$$libinit$$0000000A)
    __rt_lib_init_lc_collate_1               0x000f827b   Thumb Code     0  libinit2.o(.ARM.Collect$$libinit$$00000011)
    __rt_lib_init_lc_ctype_1                 0x000f827b   Thumb Code     0  libinit2.o(.ARM.Collect$$libinit$$00000013)
    __rt_lib_init_lc_monetary_1              0x000f827b   Thumb Code     0  libinit2.o(.ARM.Collect$$libinit$$00000015)
    __rt_lib_init_lc_numeric_1               0x000f827b   Thumb Code     0  libinit2.o(.ARM.Collect$$libinit$$00000017)
    __rt_lib_init_lc_time_1                  0x000f827b   Thumb Code     0  libinit2.o(.ARM.Collect$$libinit$$00000019)
    __rt_lib_init_preinit_1                  0x000f827b   Thumb Code     0  libinit2.o(.ARM.Collect$$libinit$$00000004)
    __rt_lib_init_rand_1                     0x000f827b   Thumb Code     0  libinit2.o(.ARM.Collect$$libinit$$0000000E)
    __rt_lib_init_return                     0x000f827b   Thumb Code     0  libinit2.o(.ARM.Collect$$libinit$$00000033)
    __rt_lib_init_signal_1                   0x000f827b   Thumb Code     0  libinit2.o(.ARM.Collect$$libinit$$0000001D)
    __rt_lib_init_stdio_1                    0x000f827b   Thumb Code     0  libinit2.o(.ARM.Collect$$libinit$$00000025)
    __rt_lib_init_user_alloc_1               0x000f827b   Thumb Code     0  libinit2.o(.ARM.Collect$$libinit$$0000000C)
    __rt_lib_shutdown                        0x000f827d   Thumb Code     0  libshutdown.o(.ARM.Collect$$libshutdown$$00000000)
    __rt_lib_shutdown_cpp_1                  0x000f827f   Thumb Code     0  libshutdown2.o(.ARM.Collect$$libshutdown$$00000002)
    __rt_lib_shutdown_fp_trap_1              0x000f827f   Thumb Code     0  libshutdown2.o(.ARM.Collect$$libshutdown$$00000007)
    __rt_lib_shutdown_heap_1                 0x000f827f   Thumb Code     0  libshutdown2.o(.ARM.Collect$$libshutdown$$0000000F)
    __rt_lib_shutdown_return                 0x000f827f   Thumb Code     0  libshutdown2.o(.ARM.Collect$$libshutdown$$00000010)
    __rt_lib_shutdown_signal_1               0x000f827f   Thumb Code     0  libshutdown2.o(.ARM.Collect$$libshutdown$$0000000A)
    __rt_lib_shutdown_stdio_1                0x000f827f   Thumb Code     0  libshutdown2.o(.ARM.Collect$$libshutdown$$00000004)
    __rt_lib_shutdown_user_alloc_1           0x000f827f   Thumb Code     0  libshutdown2.o(.ARM.Collect$$libshutdown$$0000000C)
    __rt_entry                               0x000f8281   Thumb Code     0  __rtentry.o(.ARM.Collect$$rtentry$$00000000)
    __rt_entry_presh_1                       0x000f8281   Thumb Code     0  __rtentry2.o(.ARM.Collect$$rtentry$$00000002)
    __rt_entry_sh                            0x000f8281   Thumb Code     0  __rtentry4.o(.ARM.Collect$$rtentry$$00000004)
    __rt_entry_li                            0x000f8287   Thumb Code     0  __rtentry2.o(.ARM.Collect$$rtentry$$0000000A)
    __rt_entry_postsh_1                      0x000f8287   Thumb Code     0  __rtentry2.o(.ARM.Collect$$rtentry$$00000009)
    __rt_entry_main                          0x000f828b   Thumb Code     0  __rtentry2.o(.ARM.Collect$$rtentry$$0000000D)
    __rt_entry_postli_1                      0x000f828b   Thumb Code     0  __rtentry2.o(.ARM.Collect$$rtentry$$0000000C)
    __rt_exit                                0x000f8293   Thumb Code     0  rtexit.o(.ARM.Collect$$rtexit$$00000000)
    __rt_exit_ls                             0x000f8295   Thumb Code     0  rtexit2.o(.ARM.Collect$$rtexit$$00000003)
    __rt_exit_prels_1                        0x000f8295   Thumb Code     0  rtexit2.o(.ARM.Collect$$rtexit$$00000002)
    __rt_exit_exit                           0x000f8299   Thumb Code     0  rtexit2.o(.ARM.Collect$$rtexit$$00000004)
    __asm___17_bootloader_util_c_c13d365c__bootloader_util_reset 0x000f82a1   Thumb Code    52  bootloader_util.o(.emb_text)
    SWI3_EGU3_IRQHandler                     0x000f82d5   Thumb Code   232  bootloader.o(.text)
    bootloader_abort                         0x000f83ed   Thumb Code   116  bootloader.o(.text)
    bootloader_cmd_send                      0x000f8461   Thumb Code     4  bootloader.o(.text)
    bootloader_init                          0x000f867b   Thumb Code   128  bootloader.o(.text)
    bootloader_enable                        0x000f86fb   Thumb Code   260  bootloader.o(.text)
    bootloader_timeout                       0x000f87ff   Thumb Code    66  bootloader.o(.text)
    bl_cmd_handler                           0x000f889d   Thumb Code   320  bootloader_app_bridge.o(.text)
    bootloader_app_bridge_init               0x000f89dd   Thumb Code    30  bootloader_app_bridge.o(.text)
    bootloader_evt_send                      0x000f89fb   Thumb Code    12  bootloader_app_bridge.o(.text)
    send_end_evt                             0x000f8a07   Thumb Code    24  bootloader_app_bridge.o(.text)
    flash_write                              0x000f8a1f   Thumb Code    36  bootloader_app_bridge.o(.text)
    flash_erase                              0x000f8a43   Thumb Code    32  bootloader_app_bridge.o(.text)
    tx_abort                                 0x000f8a63   Thumb Code    22  bootloader_app_bridge.o(.text)
    bootloader_is_in_application             0x000f8a79   Thumb Code    10  bootloader_app_bridge.o(.text)
    entry_invalidate                         0x000f8caf   Thumb Code    56  bootloader_info.o(.text)
    entry_write                              0x000f8ce7   Thumb Code   104  bootloader_info.o(.text)
    bootloader_info_init                     0x000f8d4f   Thumb Code   126  bootloader_info.o(.text)
    bootloader_info_entry_get                0x000f8dcd   Thumb Code     8  bootloader_info.o(.text)
    bootloader_info_reset                    0x000f8dd5   Thumb Code    46  bootloader_info.o(.text)
    bootloader_info_entry_put                0x000f8e03   Thumb Code   212  bootloader_info.o(.text)
    bootloader_info_entry_overwrite          0x000f8ed7   Thumb Code    44  bootloader_info.o(.text)
    bootloader_info_entry_invalidate         0x000f8f03   Thumb Code     8  bootloader_info.o(.text)
    bootloader_info_stable                   0x000f8f0b   Thumb Code    20  bootloader_info.o(.text)
    bootloader_info_on_flash_op_end          0x000f8f1f   Thumb Code    88  bootloader_info.o(.text)
    bootloader_info_on_flash_idle            0x000f8f77   Thumb Code    50  bootloader_info.o(.text)
    RTC0_IRQHandler                          0x000f9055   Thumb Code    66  bootloader_rtc.o(.text)
    rtc_init                                 0x000f9097   Thumb Code    42  bootloader_rtc.o(.text)
    bootloader_util_app_start                0x000f90cd   Thumb Code     4  bootloader_util.o(.text)
    dfu_bank_scan                            0x000f9361   Thumb Code    60  dfu_bank.o(.text)
    dfu_bank_flash                           0x000f939d   Thumb Code    64  dfu_bank.o(.text)
    dfu_bank_on_flash_idle                   0x000f93dd   Thumb Code    22  dfu_bank.o(.text)
    dfu_bank_transfer_in_progress            0x000f93f3   Thumb Code    12  dfu_bank.o(.text)
    dfu_mesh_init                            0x000f9d8b   Thumb Code    42  dfu_mesh.o(.text)
    dfu_mesh_start                           0x000f9db5   Thumb Code    60  dfu_mesh.o(.text)
    dfu_mesh_req                             0x000f9df1   Thumb Code    44  dfu_mesh.o(.text)
    dfu_mesh_relay                           0x000f9e1d   Thumb Code    54  dfu_mesh.o(.text)
    dfu_mesh_rx                              0x000f9e53   Thumb Code   110  dfu_mesh.o(.text)
    dfu_mesh_finalize                        0x000f9ec1   Thumb Code   304  dfu_mesh.o(.text)
    dfu_mesh_timeout                         0x000f9ff1   Thumb Code    76  dfu_mesh.o(.text)
    dfu_mesh_missing_type_get                0x000fa03d   Thumb Code    76  dfu_mesh.o(.text)
    dfu_mesh_app_is_valid                    0x000fa089   Thumb Code    60  dfu_mesh.o(.text)
    dfu_mesh_restart                         0x000fa0c5   Thumb Code     4  dfu_mesh.o(.text)
    dfu_mesh_on_flash_idle                   0x000fa0c9   Thumb Code    74  dfu_mesh.o(.text)
    dfu_transfer_init                        0x000fa3a1   Thumb Code    20  dfu_transfer_mesh.o(.text)
    dfu_transfer_start                       0x000fa3b5   Thumb Code   108  dfu_transfer_mesh.o(.text)
    dfu_transfer_data                        0x000fa421   Thumb Code   280  dfu_transfer_mesh.o(.text)
    dfu_transfer_has_entry                   0x000fa539   Thumb Code   100  dfu_transfer_mesh.o(.text)
    dfu_transfer_get_oldest_missing_entry    0x000fa59d   Thumb Code   102  dfu_transfer_mesh.o(.text)
    dfu_transfer_sha256                      0x000fa603   Thumb Code    24  dfu_transfer_mesh.o(.text)
    dfu_transfer_end                         0x000fa61b   Thumb Code     2  dfu_transfer_mesh.o(.text)
    dfu_transfer_flash_write_complete        0x000fa61d   Thumb Code    18  dfu_transfer_mesh.o(.text)
    fwid_union_cpy                           0x000fa641   Thumb Code    32  dfu_util.o(.text)
    fwid_union_cmp                           0x000fa661   Thumb Code    40  dfu_util.o(.text)
    fwid_union_id_cmp                        0x000fa689   Thumb Code    48  dfu_util.o(.text)
    fwid_union_version_cmp                   0x000fa6b9   Thumb Code    40  dfu_util.o(.text)
    tid_cache_has_entry                      0x000fa6e1   Thumb Code    26  dfu_util.o(.text)
    ready_packet_matches_our_req             0x000fa6fb   Thumb Code    66  dfu_util.o(.text)
    addr_from_seg                            0x000fa73d   Thumb Code    20  dfu_util.o(.text)
    is_upgrade                               0x000fa751   Thumb Code   120  dfu_util.o(.text)
    app_is_newer                             0x000fa7c9   Thumb Code    46  dfu_util.o(.text)
    bootloader_is_newer                      0x000fa7f7   Thumb Code    36  dfu_util.o(.text)
    fw_is_verified                           0x000fa81b   Thumb Code    32  dfu_util.o(.text)
    tid_cache_entry_put                      0x000fa83b   Thumb Code    22  dfu_util.o(.text)
    packet_in_cache                          0x000fa851   Thumb Code    44  dfu_util.o(.text)
    packet_cache_put                         0x000fa87d   Thumb Code    34  dfu_util.o(.text)
    packet_cache_flush                       0x000fa89f   Thumb Code    20  dfu_util.o(.text)
    section_overlap                          0x000fa8b3   Thumb Code    28  dfu_util.o(.text)
    interrupts_disable                       0x000fa8cf   Thumb Code    52  dfu_util.o(.text)
    fifo_init                                0x000fa90d   Thumb Code    28  fifo.o(.text)
    fifo_push                                0x000fa929   Thumb Code    80  fifo.o(.text)
    fifo_pop                                 0x000fa979   Thumb Code    76  fifo.o(.text)
    fifo_get_len                             0x000fa9c5   Thumb Code     8  fifo.o(.text)
    fifo_peek_at                             0x000fa9cd   Thumb Code    72  fifo.o(.text)
    fifo_peek                                0x000faa15   Thumb Code     4  fifo.o(.text)
    fifo_is_empty                            0x000faa19   Thumb Code    16  fifo.o(.text)
    app_error_handler_bare                   0x000faa29   Thumb Code     6  main.o(.text)
    HardFault_Handler                        0x000faa2f   Thumb Code     6  main.o(.text)
    main                                     0x000faa35   Thumb Code   120  main.o(.text)
    mesh_packet_init                         0x000faab9   Thumb Code    16  mesh_packet.o(.text)
    mesh_packet_acquire                      0x000faac9   Thumb Code    60  mesh_packet.o(.text)
    mesh_packet_ref_count_inc                0x000fab05   Thumb Code    60  mesh_packet.o(.text)
    mesh_packet_ref_count_dec                0x000fab41   Thumb Code    66  mesh_packet.o(.text)
    mesh_packet_ref_count_get                0x000fab83   Thumb Code    24  mesh_packet.o(.text)
    mesh_packet_set_local_addr               0x000fab9b   Thumb Code    34  mesh_packet.o(.text)
    mesh_packet_adv_data_get                 0x000fabbd   Thumb Code    78  mesh_packet.o(.text)
    nrf_flash_erase                          0x000fac19   Thumb Code    88  nrf_flash.o(.text)
    nrf_flash_store                          0x000fac71   Thumb Code   108  nrf_flash.o(.text)
    radio_disable                            0x000face9   Thumb Code    30  radio_control.o(.text)
    radio_init                               0x000fada9   Thumb Code   244  radio_control.o(.text)
    radio_order                              0x000fae9d   Thumb Code    68  radio_control.o(.text)
    radio_event_handler                      0x000faee1   Thumb Code   230  radio_control.o(.text)
    rand_prng_get                            0x000fb00d   Thumb Code    36  rand.o(.text)
    rand_hw_rng_get                          0x000fb031   Thumb Code    44  rand.o(.text)
    rand_prng_seed                           0x000fb05d   Thumb Code    50  rand.o(.text)
    transport_start                          0x000fb1df   Thumb Code    16  transport.o(.text)
    SWI0_EGU0_IRQHandler                     0x000fb1ef   Thumb Code    64  transport.o(.text)
    RADIO_IRQHandler                         0x000fb22f   Thumb Code     4  transport.o(.text)
    timeslot_is_in_ts                        0x000fb233   Thumb Code     4  transport.o(.text)
    transport_init                           0x000fb237   Thumb Code    96  transport.o(.text)
    transport_tx                             0x000fb297   Thumb Code    96  transport.o(.text)
    transport_tx_abort                       0x000fb2f7   Thumb Code    50  transport.o(.text)
    transport_rtc_irq_handler                0x000fb329   Thumb Code   178  transport.o(.text)
    transport_tx_evt_set                     0x000fb3db   Thumb Code    24  transport.o(.text)
    transport_tx_evt_get                     0x000fb3f3   Thumb Code    30  transport.o(.text)
    uECC_verify                              0x000fbb21   Thumb Code   540  uECC.o(.text)
    sha256_transform                         0x000fbe51   Thumb Code   294  sha256.o(.text)
    sha256_init                              0x000fbf77   Thumb Code    50  sha256.o(.text)
    sha256_update                            0x000fbfa9   Thumb Code    84  sha256.o(.text)
    sha256_final                             0x000fbffd   Thumb Code   272  sha256.o(.text)
    SystemCoreClockUpdate                    0x000fc131   Thumb Code     8  system_nrf52840.o(.text)
    SystemInit                               0x000fc139   Thumb Code   424  system_nrf52840.o(.text)
    Reset_Handler                            0x000fc31d   Thumb Code     8  arm_startup_nrf52840.o(.text)
    NMI_Handler                              0x000fc325   Thumb Code     2  arm_startup_nrf52840.o(.text)
    MemoryManagement_Handler                 0x000fc329   Thumb Code     2  arm_startup_nrf52840.o(.text)
    BusFault_Handler                         0x000fc32b   Thumb Code     2  arm_startup_nrf52840.o(.text)
    UsageFault_Handler                       0x000fc32d   Thumb Code     2  arm_startup_nrf52840.o(.text)
    SVC_Handler                              0x000fc32f   Thumb Code     2  arm_startup_nrf52840.o(.text)
    DebugMon_Handler                         0x000fc331   Thumb Code     2  arm_startup_nrf52840.o(.text)
    PendSV_Handler                           0x000fc333   Thumb Code     2  arm_startup_nrf52840.o(.text)
    SysTick_Handler                          0x000fc335   Thumb Code     2  arm_startup_nrf52840.o(.text)
    CCM_AAR_IRQHandler                       0x000fc337   Thumb Code     0  arm_startup_nrf52840.o(.text)
    COMP_LPCOMP_IRQHandler                   0x000fc337   Thumb Code     0  arm_startup_nrf52840.o(.text)
    CRYPTOCELL_IRQHandler                    0x000fc337   Thumb Code     0  arm_startup_nrf52840.o(.text)
    ECB_IRQHandler                           0x000fc337   Thumb Code     0  arm_startup_nrf52840.o(.text)
    FPU_IRQHandler                           0x000fc337   Thumb Code     0  arm_startup_nrf52840.o(.text)
    GPIOTE_IRQHandler                        0x000fc337   Thumb Code     0  arm_startup_nrf52840.o(.text)
    I2S_IRQHandler                           0x000fc337   Thumb Code     0  arm_startup_nrf52840.o(.text)
    MWU_IRQHandler                           0x000fc337   Thumb Code     0  arm_startup_nrf52840.o(.text)
    NFCT_IRQHandler                          0x000fc337   Thumb Code     0  arm_startup_nrf52840.o(.text)
    PDM_IRQHandler                           0x000fc337   Thumb Code     0  arm_startup_nrf52840.o(.text)
    POWER_CLOCK_IRQHandler                   0x000fc337   Thumb Code     0  arm_startup_nrf52840.o(.text)
    PWM0_IRQHandler                          0x000fc337   Thumb Code     0  arm_startup_nrf52840.o(.text)
    PWM1_IRQHandler                          0x000fc337   Thumb Code     0  arm_startup_nrf52840.o(.text)
    PWM2_IRQHandler                          0x000fc337   Thumb Code     0  arm_startup_nrf52840.o(.text)
    PWM3_IRQHandler                          0x000fc337   Thumb Code     0  arm_startup_nrf52840.o(.text)
    QDEC_IRQHandler                          0x000fc337   Thumb Code     0  arm_startup_nrf52840.o(.text)
    QSPI_IRQHandler                          0x000fc337   Thumb Code     0  arm_startup_nrf52840.o(.text)
    RNG_IRQHandler                           0x000fc337   Thumb Code     0  arm_startup_nrf52840.o(.text)
    RTC1_IRQHandler                          0x000fc337   Thumb Code     0  arm_startup_nrf52840.o(.text)
    RTC2_IRQHandler                          0x000fc337   Thumb Code     0  arm_startup_nrf52840.o(.text)
    SAADC_IRQHandler                         0x000fc337   Thumb Code     0  arm_startup_nrf52840.o(.text)
    SPIM0_SPIS0_TWIM0_TWIS0_SPI0_TWI0_IRQHandler 0x000fc337   Thumb Code     0  arm_startup_nrf52840.o(.text)
    SPIM1_SPIS1_TWIM1_TWIS1_SPI1_TWI1_IRQHandler 0x000fc337   Thumb Code     0  arm_startup_nrf52840.o(.text)
    SPIM2_SPIS2_SPI2_IRQHandler              0x000fc337   Thumb Code     0  arm_startup_nrf52840.o(.text)
    SPIM3_IRQHandler                         0x000fc337   Thumb Code     0  arm_startup_nrf52840.o(.text)
    SWI1_EGU1_IRQHandler                     0x000fc337   Thumb Code     0  arm_startup_nrf52840.o(.text)
    SWI2_EGU2_IRQHandler                     0x000fc337   Thumb Code     0  arm_startup_nrf52840.o(.text)
    SWI4_EGU4_IRQHandler                     0x000fc337   Thumb Code     0  arm_startup_nrf52840.o(.text)
    SWI5_EGU5_IRQHandler                     0x000fc337   Thumb Code     0  arm_startup_nrf52840.o(.text)
    TEMP_IRQHandler                          0x000fc337   Thumb Code     0  arm_startup_nrf52840.o(.text)
    TIMER0_IRQHandler                        0x000fc337   Thumb Code     0  arm_startup_nrf52840.o(.text)
    TIMER1_IRQHandler                        0x000fc337   Thumb Code     0  arm_startup_nrf52840.o(.text)
    TIMER2_IRQHandler                        0x000fc337   Thumb Code     0  arm_startup_nrf52840.o(.text)
    TIMER3_IRQHandler                        0x000fc337   Thumb Code     0  arm_startup_nrf52840.o(.text)
    TIMER4_IRQHandler                        0x000fc337   Thumb Code     0  arm_startup_nrf52840.o(.text)
    UARTE0_UART0_IRQHandler                  0x000fc337   Thumb Code     0  arm_startup_nrf52840.o(.text)
    UARTE1_IRQHandler                        0x000fc337   Thumb Code     0  arm_startup_nrf52840.o(.text)
    USBD_IRQHandler                          0x000fc337   Thumb Code     0  arm_startup_nrf52840.o(.text)
    WDT_IRQHandler                           0x000fc337   Thumb Code     0  arm_startup_nrf52840.o(.text)
    __user_initial_stackheap                 0x000fc339   Thumb Code    10  arm_startup_nrf52840.o(.text)
    __aeabi_uldivmod                         0x000fc35d   Thumb Code     0  lludivv7m.o(.text)
    _ll_udiv                                 0x000fc35d   Thumb Code   238  lludivv7m.o(.text)
    __aeabi_llsl                             0x000fc44b   Thumb Code     0  llshl.o(.text)
    _ll_shift_l                              0x000fc44b   Thumb Code    38  llshl.o(.text)
    memcmp                                   0x000fc471   Thumb Code    88  memcmp.o(.text)
    __aeabi_memcpy                           0x000fc4c9   Thumb Code     0  rt_memcpy_v6.o(.text)
    __rt_memcpy                              0x000fc4c9   Thumb Code   138  rt_memcpy_v6.o(.text)
    _memcpy_lastbytes                        0x000fc52f   Thumb Code     0  rt_memcpy_v6.o(.text)
    __aeabi_memcpy4                          0x000fc553   Thumb Code     0  rt_memcpy_w.o(.text)
    __aeabi_memcpy8                          0x000fc553   Thumb Code     0  rt_memcpy_w.o(.text)
    __rt_memcpy_w                            0x000fc553   Thumb Code   100  rt_memcpy_w.o(.text)
    _memcpy_lastbytes_aligned                0x000fc59b   Thumb Code     0  rt_memcpy_w.o(.text)
    __aeabi_memset                           0x000fc5b7   Thumb Code    16  aeabi_memset.o(.text)
    __aeabi_memclr                           0x000fc5c7   Thumb Code     0  rt_memclr.o(.text)
    __rt_memclr                              0x000fc5c7   Thumb Code    68  rt_memclr.o(.text)
    _memset                                  0x000fc5cb   Thumb Code     0  rt_memclr.o(.text)
    __aeabi_memclr4                          0x000fc60b   Thumb Code     0  rt_memclr_w.o(.text)
    __aeabi_memclr8                          0x000fc60b   Thumb Code     0  rt_memclr_w.o(.text)
    __rt_memclr_w                            0x000fc60b   Thumb Code    78  rt_memclr_w.o(.text)
    _memset_w                                0x000fc60f   Thumb Code     0  rt_memclr_w.o(.text)
    __use_two_region_memory                  0x000fc659   Thumb Code     2  heapauxi.o(.text)
    __rt_heap_escrow$2region                 0x000fc65b   Thumb Code     2  heapauxi.o(.text)
    __rt_heap_expand$2region                 0x000fc65d   Thumb Code     2  heapauxi.o(.text)
    __user_setup_stackheap                   0x000fc65f   Thumb Code    74  sys_stackheap_outer.o(.text)
    exit                                     0x000fc6a9   Thumb Code    18  exit.o(.text)
    __user_libspace                          0x000fc6bd   Thumb Code     8  libspace.o(.text)
    __user_perproc_libspace                  0x000fc6bd   Thumb Code     0  libspace.o(.text)
    __user_perthread_libspace                0x000fc6bd   Thumb Code     0  libspace.o(.text)
    _sys_exit                                0x000fc6c5   Thumb Code     8  sys_exit.o(.text)
    __I$use$semihosting                      0x000fc6d1   Thumb Code     0  use_no_semi.o(.text)
    __use_no_semihosting_swi                 0x000fc6d1   Thumb Code     2  use_no_semi.o(.text)
    __semihosting_library_function           0x000fc6d3   Thumb Code     0  indicate_semi.o(.text)
    _fp_init                                 0x000fc6d3   Thumb Code    10  fpinit.o(x$fpl$fpinit)
    __fplib_config_fpu_vfp                   0x000fc6db   Thumb Code     0  fpinit.o(x$fpl$fpinit)
    __fplib_config_pureend_doubles           0x000fc6db   Thumb Code     0  fpinit.o(x$fpl$fpinit)
    Region$$Table$$Base                      0x000fc8dc   Number         0  anon$$obj.o(Region$$Table)
    Region$$Table$$Limit                     0x000fc91c   Number         0  anon$$obj.o(Region$$Table)
    m_uicr_bootloader_start_address          0x10001014   Data           4  main.o(.ARM.__AT_0x10001014)
    m_uicr_bootloader_mbrparam_address       0x10001018   Data           4  main.o(.ARM.__AT_0x10001018)
    m_tx_evt_bitfield                        0x20000022   Data           2  transport.o(.data)
    SystemCoreClock                          0x2000002c   Data           4  system_nrf52840.o(.data)
    __libspace_start                         0x20000780   Data          96  libspace.o(.bss)
    __temporary_stack_top$libspace           0x200007e0   Data           0  libspace.o(.bss)



==============================================================================

Memory Map of the image

  Image Entry point : 0x000f8201

  Load Region LR_IROM1 (Base: 0x000f8000, Size: 0x00004980, Max: 0x00006000, ABSOLUTE)

    Execution Region ER_IROM1 (Base: 0x000f8000, Size: 0x0000491c, Max: 0x00006000, ABSOLUTE)

    Base Addr    Size         Type   Attr      Idx    E Section Name        Object

    0x000f8000   0x00000200   Data   RO         1003    RESET               arm_startup_nrf52840.o
    0x000f8200   0x00000008   Code   RO         1026  * !!!main             c_w.l(__main.o)
    0x000f8208   0x00000034   Code   RO         1193    !!!scatter          c_w.l(__scatter.o)
    0x000f823c   0x0000001a   Code   RO         1195    !!handler_copy      c_w.l(__scatter_copy.o)
    0x000f8256   0x00000002   PAD
    0x000f8258   0x0000001c   Code   RO         1197    !!handler_zi        c_w.l(__scatter_zi.o)
    0x000f8274   0x00000002   Code   RO         1063    .ARM.Collect$$libinit$$00000000  c_w.l(libinit.o)
    0x000f8276   0x00000004   Code   RO         1075    .ARM.Collect$$libinit$$00000001  c_w.l(libinit2.o)
    0x000f827a   0x00000000   Code   RO         1078    .ARM.Collect$$libinit$$00000004  c_w.l(libinit2.o)
    0x000f827a   0x00000000   Code   RO         1081    .ARM.Collect$$libinit$$0000000A  c_w.l(libinit2.o)
    0x000f827a   0x00000000   Code   RO         1083    .ARM.Collect$$libinit$$0000000C  c_w.l(libinit2.o)
    0x000f827a   0x00000000   Code   RO         1085    .ARM.Collect$$libinit$$0000000E  c_w.l(libinit2.o)
    0x000f827a   0x00000000   Code   RO         1088    .ARM.Collect$$libinit$$00000011  c_w.l(libinit2.o)
    0x000f827a   0x00000000   Code   RO         1090    .ARM.Collect$$libinit$$00000013  c_w.l(libinit2.o)
    0x000f827a   0x00000000   Code   RO         1092    .ARM.Collect$$libinit$$00000015  c_w.l(libinit2.o)
    0x000f827a   0x00000000   Code   RO         1094    .ARM.Collect$$libinit$$00000017  c_w.l(libinit2.o)
    0x000f827a   0x00000000   Code   RO         1096    .ARM.Collect$$libinit$$00000019  c_w.l(libinit2.o)
    0x000f827a   0x00000000   Code   RO         1098    .ARM.Collect$$libinit$$0000001B  c_w.l(libinit2.o)
    0x000f827a   0x00000000   Code   RO         1100    .ARM.Collect$$libinit$$0000001D  c_w.l(libinit2.o)
    0x000f827a   0x00000000   Code   RO         1102    .ARM.Collect$$libinit$$0000001F  c_w.l(libinit2.o)
    0x000f827a   0x00000000   Code   RO         1104    .ARM.Collect$$libinit$$00000021  c_w.l(libinit2.o)
    0x000f827a   0x00000000   Code   RO         1106    .ARM.Collect$$libinit$$00000023  c_w.l(libinit2.o)
    0x000f827a   0x00000000   Code   RO         1108    .ARM.Collect$$libinit$$00000025  c_w.l(libinit2.o)
    0x000f827a   0x00000000   Code   RO         1112    .ARM.Collect$$libinit$$0000002C  c_w.l(libinit2.o)
    0x000f827a   0x00000000   Code   RO         1114    .ARM.Collect$$libinit$$0000002E  c_w.l(libinit2.o)
    0x000f827a   0x00000000   Code   RO         1116    .ARM.Collect$$libinit$$00000030  c_w.l(libinit2.o)
    0x000f827a   0x00000000   Code   RO         1118    .ARM.Collect$$libinit$$00000032  c_w.l(libinit2.o)
    0x000f827a   0x00000002   Code   RO         1119    .ARM.Collect$$libinit$$00000033  c_w.l(libinit2.o)
    0x000f827c   0x00000002   Code   RO         1150    .ARM.Collect$$libshutdown$$00000000  c_w.l(libshutdown.o)
    0x000f827e   0x00000000   Code   RO         1176    .ARM.Collect$$libshutdown$$00000002  c_w.l(libshutdown2.o)
    0x000f827e   0x00000000   Code   RO         1178    .ARM.Collect$$libshutdown$$00000004  c_w.l(libshutdown2.o)
    0x000f827e   0x00000000   Code   RO         1181    .ARM.Collect$$libshutdown$$00000007  c_w.l(libshutdown2.o)
    0x000f827e   0x00000000   Code   RO         1184    .ARM.Collect$$libshutdown$$0000000A  c_w.l(libshutdown2.o)
    0x000f827e   0x00000000   Code   RO         1186    .ARM.Collect$$libshutdown$$0000000C  c_w.l(libshutdown2.o)
    0x000f827e   0x00000000   Code   RO         1189    .ARM.Collect$$libshutdown$$0000000F  c_w.l(libshutdown2.o)
    0x000f827e   0x00000002   Code   RO         1190    .ARM.Collect$$libshutdown$$00000010  c_w.l(libshutdown2.o)
    0x000f8280   0x00000000   Code   RO         1028    .ARM.Collect$$rtentry$$00000000  c_w.l(__rtentry.o)
    0x000f8280   0x00000000   Code   RO         1034    .ARM.Collect$$rtentry$$00000002  c_w.l(__rtentry2.o)
    0x000f8280   0x00000006   Code   RO         1046    .ARM.Collect$$rtentry$$00000004  c_w.l(__rtentry4.o)
    0x000f8286   0x00000000   Code   RO         1036    .ARM.Collect$$rtentry$$00000009  c_w.l(__rtentry2.o)
    0x000f8286   0x00000004   Code   RO         1037    .ARM.Collect$$rtentry$$0000000A  c_w.l(__rtentry2.o)
    0x000f828a   0x00000000   Code   RO         1039    .ARM.Collect$$rtentry$$0000000C  c_w.l(__rtentry2.o)
    0x000f828a   0x00000008   Code   RO         1040    .ARM.Collect$$rtentry$$0000000D  c_w.l(__rtentry2.o)
    0x000f8292   0x00000002   Code   RO         1067    .ARM.Collect$$rtexit$$00000000  c_w.l(rtexit.o)
    0x000f8294   0x00000000   Code   RO         1123    .ARM.Collect$$rtexit$$00000002  c_w.l(rtexit2.o)
    0x000f8294   0x00000004   Code   RO         1124    .ARM.Collect$$rtexit$$00000003  c_w.l(rtexit2.o)
    0x000f8298   0x00000006   Code   RO         1125    .ARM.Collect$$rtexit$$00000004  c_w.l(rtexit2.o)
    0x000f829e   0x00000002   PAD
    0x000f82a0   0x00000034   Code   RO          430    .emb_text           bootloader_util.o
    0x000f82d4   0x000005c8   Code   RO            4    .text               bootloader.o
    0x000f889c   0x000001f4   Code   RO          292    .text               bootloader_app_bridge.o
    0x000f8a90   0x000005c4   Code   RO          354    .text               bootloader_info.o
    0x000f9054   0x00000078   Code   RO          402    .text               bootloader_rtc.o
    0x000f90cc   0x00000004   Code   RO          431    .text               bootloader_util.o
    0x000f90d0   0x00000344   Code   RO          449    .text               dfu_bank.o
    0x000f9414   0x00000f58   Code   RO          489    .text               dfu_mesh.o
    0x000fa36c   0x000002d4   Code   RO          521    .text               dfu_transfer_mesh.o
    0x000fa640   0x000002cc   Code   RO          548    .text               dfu_util.o
    0x000fa90c   0x0000011c   Code   RO          580    .text               fifo.o
    0x000faa28   0x00000090   Code   RO          624    .text               main.o
    0x000faab8   0x00000160   Code   RO          663    .text               mesh_packet.o
    0x000fac18   0x000000d0   Code   RO          732    .text               nrf_flash.o
    0x000face8   0x00000324   Code   RO          757    .text               radio_control.o
    0x000fb00c   0x00000090   Code   RO          805    .text               rand.o
    0x000fb09c   0x000003e4   Code   RO          832    .text               transport.o
    0x000fb480   0x000009d0   Code   RO          884    .text               uECC.o
    0x000fbe50   0x000002e0   Code   RO          901    .text               sha256.o
    0x000fc130   0x000001ec   Code   RO          948    .text               system_nrf52840.o
    0x000fc31c   0x00000040   Code   RO         1004    .text               arm_startup_nrf52840.o
    0x000fc35c   0x000000ee   Code   RO         1008    .text               c_w.l(lludivv7m.o)
    0x000fc44a   0x00000026   Code   RO         1010    .text               c_w.l(llshl.o)
    0x000fc470   0x00000058   Code   RO         1012    .text               c_w.l(memcmp.o)
    0x000fc4c8   0x0000008a   Code   RO         1014    .text               c_w.l(rt_memcpy_v6.o)
    0x000fc552   0x00000064   Code   RO         1016    .text               c_w.l(rt_memcpy_w.o)
    0x000fc5b6   0x00000010   Code   RO         1018    .text               c_w.l(aeabi_memset.o)
    0x000fc5c6   0x00000044   Code   RO         1020    .text               c_w.l(rt_memclr.o)
    0x000fc60a   0x0000004e   Code   RO         1022    .text               c_w.l(rt_memclr_w.o)
    0x000fc658   0x00000006   Code   RO         1024    .text               c_w.l(heapauxi.o)
    0x000fc65e   0x0000004a   Code   RO         1050    .text               c_w.l(sys_stackheap_outer.o)
    0x000fc6a8   0x00000012   Code   RO         1052    .text               c_w.l(exit.o)
    0x000fc6ba   0x00000002   PAD
    0x000fc6bc   0x00000008   Code   RO         1064    .text               c_w.l(libspace.o)
    0x000fc6c4   0x0000000c   Code   RO         1120    .text               c_w.l(sys_exit.o)
    0x000fc6d0   0x00000002   Code   RO         1139    .text               c_w.l(use_no_semi.o)
    0x000fc6d2   0x00000000   Code   RO         1141    .text               c_w.l(indicate_semi.o)
    0x000fc6d2   0x0000000a   Code   RO         1135    x$fpl$fpinit        fz_wm.l(fpinit.o)
    0x000fc6dc   0x00000010   Data   RO            6    .constdata          bootloader.o
    0x000fc6ec   0x00000048   Data   RO          296    .constdata          bootloader_app_bridge.o
    0x000fc734   0x00000004   Data   RO          358    .constdata          bootloader_info.o
    0x000fc738   0x00000006   Data   RO          491    .constdata          dfu_mesh.o
    0x000fc73e   0x00000002   PAD
    0x000fc740   0x0000000c   Data   RO          760    .constdata          radio_control.o
    0x000fc74c   0x00000090   Data   RO          885    .constdata          uECC.o
    0x000fc7dc   0x00000100   Data   RO          902    .constdata          sha256.o
    0x000fc8dc   0x00000040   Data   RO         1191    Region$$Table       anon$$obj.o


    Execution Region RW_IRAM1 (Base: 0x20000004, Size: 0x00002bdc, Max: 0x0003fcfc, ABSOLUTE)

    Base Addr    Size         Type   Attr      Idx    E Section Name        Object

    0x20000004   0x00000002   Data   RW            7    .data               bootloader.o
    0x20000006   0x00000002   PAD
    0x20000008   0x00000004   Data   RW          733    .data               nrf_flash.o
    0x2000000c   0x00000014   Data   RW          761    .data               radio_control.o
    0x20000020   0x0000000c   Data   RW          836    .data               transport.o
    0x2000002c   0x00000004   Data   RW          949    .data               system_nrf52840.o
    0x20000030   0x000000b0   Zero   RW            5    .bss                bootloader.o
    0x200000e0   0x00000520   Zero   RW          671    .bss                mesh_packet.o
    0x20000600   0x00000058   Zero   RW          759    .bss                radio_control.o
    0x20000658   0x00000128   Zero   RW          835    .bss                transport.o
    0x20000780   0x00000060   Zero   RW         1065    .bss                c_w.l(libspace.o)
    0x200007e0   0x00000400   Zero   RW         1002    HEAP                arm_startup_nrf52840.o
    0x20000be0   0x00002000   Zero   RW         1001    STACK               arm_startup_nrf52840.o


    Execution Region RW_IRAM2 (Base: 0x2003fd00, Size: 0x00000210, Max: 0x00000300, ABSOLUTE)

    Base Addr    Size         Type   Attr      Idx    E Section Name        Object

    0x2003fd00   0x00000008   Data   RW          297    .data               bootloader_app_bridge.o
    0x2003fd08   0x00000018   Data   RW          359    .data               bootloader_info.o
    0x2003fd20   0x00000008   Data   RW          451    .data               dfu_bank.o
    0x2003fd28   0x00000008   Data   RW          492    .data               dfu_mesh.o
    0x2003fd30   0x00000008   Data   RW          550    .data               dfu_util.o
    0x2003fd38   0x0000009c   Zero   RW          357    .bss                bootloader_info.o
    0x2003fdd4   0x000000ac   Zero   RW          490    .bss                dfu_mesh.o
    0x2003fe80   0x00000030   Zero   RW          522    .bss                dfu_transfer_mesh.o
    0x2003feb0   0x00000060   Zero   RW          549    .bss                dfu_util.o



  Load Region LR$$.ARM.__AT_0x10001014 (Base: 0x10001014, Size: 0x00000004, Max: 0x00000004, ABSOLUTE)

    Execution Region ER$$.ARM.__AT_0x10001014 (Base: 0x10001014, Size: 0x00000004, Max: 0x00000004, ABSOLUTE, UNINIT)

    Base Addr    Size         Type   Attr      Idx    E Section Name        Object

    0x10001014   0x00000004   Data   RW          626    .ARM.__AT_0x10001014  main.o



  Load Region LR$$.ARM.__AT_0x10001018 (Base: 0x10001018, Size: 0x00000004, Max: 0x00000004, ABSOLUTE)

    Execution Region ER$$.ARM.__AT_0x10001018 (Base: 0x10001018, Size: 0x00000004, Max: 0x00000004, ABSOLUTE, UNINIT)

    Base Addr    Size         Type   Attr      Idx    E Section Name        Object

    0x10001018   0x00000004   Data   RW          627    .ARM.__AT_0x10001018  main.o


==============================================================================

Image component sizes


      Code (inc. data)   RO Data    RW Data    ZI Data      Debug   Object Name

        64         26        512          0       9216        292   arm_startup_nrf52840.o
      1480         50         16          2        176     121590   bootloader.o
       500         14         72          8          0      43797   bootloader_app_bridge.o
      1476         20          4         24        156      10694   bootloader_info.o
       120         12          0          0          0      27606   bootloader_rtc.o
        56          2          0          0          0       1008   bootloader_util.o
       836         22          0          8          0      31159   dfu_bank.o
      3928         64          6          8        172      17690   dfu_mesh.o
       724          6          0          0         48       5175   dfu_transfer_mesh.o
       716         10          0          8         96      33259   dfu_util.o
       284          0          0          0          0       3239   fifo.o
       144         12          0          8          0      29108   main.o
       352         14          0          0       1312       3791   mesh_packet.o
       208         12          0          4          0       1654   nrf_flash.o
       804         48         12         20         88      31248   radio_control.o
       144         14          0          0          0       1979   rand.o
       736         36        256          0          0       5786   sha256.o
       492         60          0          4          0      63698   system_nrf52840.o
       996         36          0         12        296      32946   transport.o
      2512         12        144          0          0      13626   uECC.o

    ----------------------------------------------------------------------
     16572        470       1088        108      11560     479345   Object Totals
         0          0         64          0          0          0   (incl. Generated)
         0          0          2          2          0          0   (incl. Padding)

    ----------------------------------------------------------------------

      Code (inc. data)   RO Data    RW Data    ZI Data      Debug   Library Member Name

         8          0          0          0          0         68   __main.o
         0          0          0          0          0          0   __rtentry.o
        12          0          0          0          0          0   __rtentry2.o
         6          0          0          0          0          0   __rtentry4.o
        52          8          0          0          0          0   __scatter.o
        26          0          0          0          0          0   __scatter_copy.o
        28          0          0          0          0          0   __scatter_zi.o
        16          0          0          0          0         68   aeabi_memset.o
        18          0          0          0          0         80   exit.o
         6          0          0          0          0        152   heapauxi.o
         0          0          0          0          0          0   indicate_semi.o
         2          0          0          0          0          0   libinit.o
         6          0          0          0          0          0   libinit2.o
         2          0          0          0          0          0   libshutdown.o
         2          0          0          0          0          0   libshutdown2.o
         8          4          0          0         96         68   libspace.o
        38          0          0          0          0         68   llshl.o
       238          0          0          0          0        100   lludivv7m.o
        88          0          0          0          0         76   memcmp.o
        68          0          0          0          0         68   rt_memclr.o
        78          0          0          0          0         80   rt_memclr_w.o
       138          0          0          0          0         68   rt_memcpy_v6.o
       100          0          0          0          0         80   rt_memcpy_w.o
         2          0          0          0          0          0   rtexit.o
        10          0          0          0          0          0   rtexit2.o
        12          4          0          0          0         68   sys_exit.o
        74          0          0          0          0         80   sys_stackheap_outer.o
         2          0          0          0          0         68   use_no_semi.o
        10          0          0          0          0        116   fpinit.o

    ----------------------------------------------------------------------
      1056         16          0          0         96       1308   Library Totals
         6          0          0          0          0          0   (incl. Padding)

    ----------------------------------------------------------------------

      Code (inc. data)   RO Data    RW Data    ZI Data      Debug   Library Name

      1040         16          0          0         96       1192   c_w.l
        10          0          0          0          0        116   fz_wm.l

    ----------------------------------------------------------------------
      1056         16          0          0         96       1308   Library Totals

    ----------------------------------------------------------------------

==============================================================================


      Code (inc. data)   RO Data    RW Data    ZI Data      Debug   

     17628        486       1088        108      11656     476381   Grand Totals
     17628        486       1088        108      11656     476381   ELF Image Totals
     17628        486       1088        108          0          0   ROM Totals

==============================================================================

    Total RO  Size (Code + RO Data)                18716 (  18.28kB)
    Total RW  Size (RW Data + ZI Data)             11764 (  11.49kB)
    Total ROM Size (Code + RO Data + RW Data)      18824 (  18.38kB)

==============================================================================

