Component: ARM Compiler 5.06 update 6 (build 750) Tool: armlink [4d35ed]

==============================================================================

Section Cross References

    bootloader.o(.text) refers to mesh_aci.o(.text) for mesh_aci_command_check
    bootloader.o(.text) refers to aeabi_memset.o(.text) for __aeabi_memset
    bootloader.o(.text) refers to main.o(.text) for app_error_handler_bare
    bootloader.o(.text) refers to nrf_flash.o(.text) for nrf_flash_store
    bootloader.o(.text) refers to bootloader_app_bridge.o(.text) for bl_cmd_handler
    bootloader.o(.text) refers to fifo.o(.text) for fifo_pop
    bootloader.o(.text) refers to bootloader_info.o(.text) for bootloader_info_entry_get
    bootloader.o(.text) refers to serial_handler_uart.o(.text) for serial_handler_uart_disable
    bootloader.o(.text) refers to bootloader_util.o(.text) for bootloader_util_app_start
    bootloader.o(.text) refers to mesh_packet.o(.text) for mesh_packet_adv_data_get
    bootloader.o(.text) refers to dfu_mesh.o(.text) for dfu_mesh_app_is_valid
    bootloader.o(.text) refers to dfu_util.o(.text) for interrupts_disable
    bootloader.o(.text) refers to radio_control.o(.text) for radio_disable
    bootloader.o(.text) refers to rt_memcpy_v6.o(.text) for __aeabi_memcpy
    bootloader.o(.text) refers to transport.o(.text) for transport_tx
    bootloader.o(.text) refers to lludivv7m.o(.text) for __aeabi_uldivmod
    bootloader.o(.text) refers to dfu_bank.o(.text) for dfu_bank_flash
    bootloader.o(.text) refers to bootloader_rtc.o(.text) for rtc_init
==============================================================================

Removing Unused input sections from the image.

    Removing bootloader.o(.rev16_text), (4 bytes).
    Removing bootloader.o(.revsh_text), (4 bytes).
    Removing bootloader.o(.rrx_text), (6 bytes).
    Removing bootloader_app_bridge.o(.rev16_text), (4 bytes).
    Removing bootloader_app_bridge.o(.revsh_text), (4 bytes).
    Removing bootloader_app_bridge.o(.rrx_text), (6 bytes).
    Removing bootloader_app_bridge.o(.text), (26 bytes).
    Removing bootloader_app_bridge.o(.text), (24 bytes).
    Removing bootloader_app_bridge.o(.text), (24 bytes).
    Removing bootloader_info.o(.rev16_text), (4 bytes).
    Removing bootloader_info.o(.revsh_text), (4 bytes).
    Removing bootloader_info.o(.rrx_text), (6 bytes).
    Removing bootloader_info.o(.text), (12 bytes).
    Removing bootloader_info.o(.text), (16 bytes).
    Removing bootloader_rtc.o(.rev16_text), (4 bytes).
    Removing bootloader_rtc.o(.revsh_text), (4 bytes).
    Removing bootloader_rtc.o(.rrx_text), (6 bytes).
    Removing dfu_bank.o(.rev16_text), (4 bytes).
==============================================================================

Image Stack Usage Information.

Maximum stack usage for Image.

Maximum Stack Usage for SWI2_EGU2_IRQHandler 0x454 bytes.
Call chain for maximum stack usage:
SWI2_EGU2_IRQHandler => mesh_aci_command_check => serial_command_handler => bootloader_cmd_send => bl_cmd_handler => dfu_mesh_timeout => signature_check => uECC_verify => vli_modMult_n => vli_mult => muladd

Maximum stack usage per global function.

Maximum Stack Usage for SWI2_EGU2_IRQHandler 0x454 bytes.
Call chain for maximum stack usage:
SWI2_EGU2_IRQHandler => mesh_aci_command_check => serial_command_handler => bootloader_cmd_send => bl_cmd_handler => dfu_mesh_timeout => signature_check => uECC_verify => vli_modMult_n => vli_mult => muladd

Maximum Stack Usage for SWI3_EGU3_IRQHandler 0x424 bytes.
Call chain for maximum stack usage:
SWI3_EGU3_IRQHandler => bl_cmd_handler => dfu_mesh_timeout => signature_check => uECC_verify => vli_modMult_n => vli_mult => muladd

Maximum Stack Usage for bootloader_abort 0x40 bytes.
Call chain for maximum stack usage:
bootloader_abort => dfu_mesh_app_is_valid => fw_is_verified => bootloader_info_entry_get => info_entry_get

Maximum Stack Usage for bootloader_cmd_send 0x3ec bytes.
Call chain for maximum stack usage:
bootloader_cmd_send => bl_cmd_handler => dfu_mesh_timeout => signature_check => uECC_verify => vli_modMult_n => vli_mult => muladd

Maximum Stack Usage for bootloader_init 0x41c bytes.
Call chain for maximum stack usage:
bootloader_init => bl_cmd_handler => dfu_mesh_timeout => signature_check => uECC_verify => vli_modMult_n => vli_mult => muladd

Maximum Stack Usage for bootloader_enable 0x42c bytes.
Call chain for maximum stack usage:
bootloader_enable => bl_cmd_handler => dfu_mesh_timeout => signature_check => uECC_verify => vli_modMult_n => vli_mult => muladd

Maximum Stack Usage for bootloader_timeout 0x414 bytes.
Call chain for maximum stack usage:
bootloader_timeout => bl_cmd_handler => dfu_mesh_timeout => signature_check => uECC_verify => vli_modMult_n => vli_mult => muladd

Maximum Stack Usage for bl_cmd_handler 0x3ec bytes.
Call chain for maximum stack usage:
bl_cmd_handler => dfu_mesh_timeout => signature_check => uECC_verify => vli_modMult_n => vli_mult => muladd

Maximum Stack Usage for send_end_evt 0x28 bytes.
Call chain for maximum stack usage:
send_end_evt

Maximum Stack Usage for flash_write 0x40 bytes.
Call chain for maximum stack usage:
flash_write => __aeabi_memcpy4

Maximum Stack Usage for flash_erase 0x38 bytes.
Call chain for maximum stack usage:
flash_erase => __aeabi_memcpy4

Maximum Stack Usage for tx_abort 0x28 bytes.
Call chain for maximum stack usage:
tx_abort

Maximum Stack Usage for entry_invalidate 0x58 bytes.
Call chain for maximum stack usage:
entry_invalidate => entry_header_invalidate => flash_write => __aeabi_memcpy4

Maximum Stack Usage for entry_write 0x60 bytes.
Call chain for maximum stack usage:
entry_write => flash_write => __aeabi_memcpy4

Maximum Stack Usage for bootloader_info_init 0x50 bytes.
Call chain for maximum stack usage:
bootloader_info_init => flash_write => __aeabi_memcpy4

Maximum Stack Usage for bootloader_info_entry_get 0x10 bytes.
Call chain for maximum stack usage:
bootloader_info_entry_get => info_entry_get

Maximum Stack Usage for bootloader_info_reset 0x50 bytes.
Call chain for maximum stack usage:
bootloader_info_reset => copy_page => flash_erase => __aeabi_memcpy4

Maximum Stack Usage for bootloader_info_entry_put 0x80 bytes.
Call chain for maximum stack usage:
bootloader_info_entry_put => entry_write => flash_write => __aeabi_memcpy4

Maximum Stack Usage for bootloader_info_entry_overwrite 0x70 bytes.
Call chain for maximum stack usage:
bootloader_info_entry_overwrite => entry_write => flash_write => __aeabi_memcpy4

Maximum Stack Usage for bootloader_info_entry_invalidate 0x58 bytes.
Call chain for maximum stack usage:
bootloader_info_entry_invalidate => entry_invalidate => entry_header_invalidate => flash_write => __aeabi_memcpy4

Maximum Stack Usage for bootloader_info_on_flash_op_end 0x68 bytes.
Call chain for maximum stack usage:
bootloader_info_on_flash_op_end => copy_page_on_flash_op_end => copy_page_write_next_data => flash_write => __aeabi_memcpy4

Maximum Stack Usage for bootloader_info_on_flash_idle 0x48 bytes.
Call chain for maximum stack usage:
bootloader_info_on_flash_idle => copy_page_write_meta => flash_write => __aeabi_memcpy4

Maximum Stack Usage for RTC0_IRQHandler 0x424 bytes.
Call chain for maximum stack usage:
RTC0_IRQHandler => bootloader_timeout => bl_cmd_handler => dfu_mesh_timeout => signature_check => uECC_verify => vli_modMult_n => vli_mult => muladd

Maximum Stack Usage for dfu_bank_scan 0x1d8 bytes.
Call chain for maximum stack usage:
dfu_bank_scan => flash_bank_entry => flash_bank_entry_fw => bootloader_info_entry_overwrite => entry_write => flash_write => __aeabi_memcpy4

Maximum Stack Usage for dfu_bank_flash 0x1d8 bytes.
Call chain for maximum stack usage:
dfu_bank_flash => flash_bank_entry => flash_bank_entry_fw => bootloader_info_entry_overwrite => entry_write => flash_write => __aeabi_memcpy4

Maximum Stack Usage for dfu_bank_on_flash_idle 0x1c8 bytes.
Call chain for maximum stack usage:
dfu_bank_on_flash_idle => flash_bank_entry => flash_bank_entry_fw => bootloader_info_entry_overwrite => entry_write => flash_write => __aeabi_memcpy4

Maximum Stack Usage for dfu_mesh_init 0x40 bytes.
Call chain for maximum stack usage:
dfu_mesh_init => get_info_pointers => send_end_evt

Maximum Stack Usage for dfu_mesh_start 0x68 bytes.
Call chain for maximum stack usage:
dfu_mesh_start => send_bank_notifications => bootloader_info_entry_get => info_entry_get

Maximum Stack Usage for dfu_mesh_req 0x6c bytes.
Call chain for maximum stack usage:
dfu_mesh_req => start_req => beacon_set => __aeabi_memclr4

Maximum Stack Usage for dfu_mesh_relay 0x64 bytes.
Call chain for maximum stack usage:
dfu_mesh_relay => beacon_set => __aeabi_memclr4

Maximum Stack Usage for dfu_mesh_rx 0x1b0 bytes.
Call chain for maximum stack usage:
dfu_mesh_rx => handle_data_packet => target_rx_start => start_target => bootloader_info_entry_put => entry_write => flash_write => __aeabi_memcpy4

Maximum Stack Usage for dfu_mesh_finalize 0x140 bytes.
Call chain for maximum stack usage:
dfu_mesh_finalize => bootloader_info_entry_put => entry_write => flash_write => __aeabi_memcpy4

Maximum Stack Usage for dfu_mesh_timeout 0x3bc bytes.
Call chain for maximum stack usage:
dfu_mesh_timeout => signature_check => uECC_verify => vli_modMult_n => vli_mult => muladd

Maximum Stack Usage for dfu_mesh_missing_type_get 0x20 bytes.
Call chain for maximum stack usage:
dfu_mesh_missing_type_get => bootloader_info_entry_get => info_entry_get

Maximum Stack Usage for dfu_mesh_app_is_valid 0x20 bytes.
Call chain for maximum stack usage:
dfu_mesh_app_is_valid => fw_is_verified => bootloader_info_entry_get => info_entry_get

Maximum Stack Usage for dfu_mesh_restart 0x5c bytes.
Call chain for maximum stack usage:
dfu_mesh_restart => start_find_fwid => beacon_set => __aeabi_memclr4

Maximum Stack Usage for dfu_mesh_on_flash_idle 0x90 bytes.
Call chain for maximum stack usage:
dfu_mesh_on_flash_idle => dfu_mesh_start => send_bank_notifications => bootloader_info_entry_get => info_entry_get

Maximum Stack Usage for dfu_transfer_init 0xc bytes.
Call chain for maximum stack usage:
dfu_transfer_init => __aeabi_memclr4

Maximum Stack Usage for dfu_transfer_start 0x58 bytes.
Call chain for maximum stack usage:
dfu_transfer_start => flash_erase => __aeabi_memcpy4

Maximum Stack Usage for dfu_transfer_data 0x70 bytes.
Call chain for maximum stack usage:
dfu_transfer_data => flash_write => __aeabi_memcpy4

Maximum Stack Usage for dfu_transfer_has_entry 0x20 bytes.
Call chain for maximum stack usage:
dfu_transfer_has_entry => segment_is_missing

Maximum Stack Usage for dfu_transfer_get_oldest_missing_entry 0x30 bytes.
Call chain for maximum stack usage:
dfu_transfer_get_oldest_missing_entry

Maximum Stack Usage for dfu_transfer_sha256 0x15c bytes.
Call chain for maximum stack usage:
dfu_transfer_sha256 => sha256_update => sha256_transform

Maximum Stack Usage for dfu_transfer_end 0xc bytes.
Call chain for maximum stack usage:
dfu_transfer_end => dfu_transfer_init => __aeabi_memclr4

Maximum Stack Usage for fwid_union_cmp 0x10 bytes.
Call chain for maximum stack usage:
fwid_union_cmp => memcmp

Maximum Stack Usage for ready_packet_matches_our_req 0x10 bytes.
Call chain for maximum stack usage:
ready_packet_matches_our_req

Maximum Stack Usage for is_upgrade 0x20 bytes.
Call chain for maximum stack usage:
is_upgrade => bootloader_info_entry_get => info_entry_get

Maximum Stack Usage for app_is_newer 0x18 bytes.
Call chain for maximum stack usage:
app_is_newer => bootloader_info_entry_get => info_entry_get

Maximum Stack Usage for bootloader_is_newer 0x18 bytes.
Call chain for maximum stack usage:
bootloader_is_newer => bootloader_info_entry_get => info_entry_get

Maximum Stack Usage for fw_is_verified 0x18 bytes.
Call chain for maximum stack usage:
fw_is_verified => bootloader_info_entry_get => info_entry_get

Maximum Stack Usage for tid_cache_entry_put 0x8 bytes.
Call chain for maximum stack usage:
tid_cache_entry_put

Maximum Stack Usage for packet_in_cache 0xc bytes.
Call chain for maximum stack usage:
packet_in_cache

Maximum Stack Usage for packet_cache_put 0xc bytes.
Call chain for maximum stack usage:
packet_cache_put

Maximum Stack Usage for packet_cache_flush 0x8 bytes.
Call chain for maximum stack usage:
packet_cache_flush

Maximum Stack Usage for interrupts_disable 0xc bytes.
Call chain for maximum stack usage:
interrupts_disable

Maximum Stack Usage for fifo_push 0x10 bytes.
Call chain for maximum stack usage:
fifo_push

Maximum Stack Usage for fifo_pop 0x10 bytes.
Call chain for maximum stack usage:
fifo_pop

Maximum Stack Usage for fifo_peek_at 0x10 bytes.
Call chain for maximum stack usage:
fifo_peek_at

Maximum Stack Usage for fifo_peek 0x10 bytes.
Call chain for maximum stack usage:
fifo_peek => fifo_peek_at

Maximum Stack Usage for main 0x42c bytes.
Call chain for maximum stack usage:
main => bootloader_enable => bl_cmd_handler => dfu_mesh_timeout => signature_check => uECC_verify => vli_modMult_n => vli_mult => muladd

Maximum Stack Usage for mesh_packet_acquire 0x8 bytes.
Call chain for maximum stack usage:
mesh_packet_acquire

Maximum Stack Usage for mesh_packet_ref_count_inc 0x10 bytes.
Call chain for maximum stack usage:
mesh_packet_ref_count_inc

Maximum Stack Usage for mesh_packet_ref_count_dec 0x8 bytes.
Call chain for maximum stack usage:
mesh_packet_ref_count_dec

Maximum Stack Usage for mesh_packet_adv_data_get 0xc bytes.
Call chain for maximum stack usage:
mesh_packet_adv_data_get

Maximum Stack Usage for nrf_flash_erase 0x14 bytes.
Call chain for maximum stack usage:
nrf_flash_erase

Maximum Stack Usage for nrf_flash_store 0x1c bytes.
Call chain for maximum stack usage:
nrf_flash_store

Maximum Stack Usage for radio_init 0x20 bytes.
Call chain for maximum stack usage:
radio_init

Maximum Stack Usage for radio_order 0x18 bytes.
Call chain for maximum stack usage:
radio_order => fifo_push

Maximum Stack Usage for radio_event_handler 0x48 bytes.
Call chain for maximum stack usage:
radio_event_handler => setup_event

Maximum Stack Usage for rand_prng_get 0x8 bytes.
Call chain for maximum stack usage:
rand_prng_get

Maximum Stack Usage for rand_hw_rng_get 0x10 bytes.
Call chain for maximum stack usage:
rand_hw_rng_get

Maximum Stack Usage for rand_prng_seed 0x20 bytes.
Call chain for maximum stack usage:
rand_prng_seed => rand_hw_rng_get

Maximum Stack Usage for transport_start 0x28 bytes.
Call chain for maximum stack usage:
transport_start => order_scan => radio_order => fifo_push

Maximum Stack Usage for SWI0_EGU0_IRQHandler 0x38 bytes.
Call chain for maximum stack usage:
SWI0_EGU0_IRQHandler => transport_start => order_scan => radio_order => fifo_push

Maximum Stack Usage for RADIO_IRQHandler 0x48 bytes.
Call chain for maximum stack usage:
RADIO_IRQHandler => radio_event_handler => setup_event

Maximum Stack Usage for transport_init 0x28 bytes.
Call chain for maximum stack usage:
transport_init => rand_prng_seed => rand_hw_rng_get

Maximum Stack Usage for transport_tx 0x30 bytes.
Call chain for maximum stack usage:
transport_tx => set_next_tx => rand_prng_get

Maximum Stack Usage for transport_tx_abort 0x1c bytes.
Call chain for maximum stack usage:
transport_tx_abort => order_next_rtc

Maximum Stack Usage for transport_rtc_irq_handler 0x38 bytes.
Call chain for maximum stack usage:
transport_rtc_irq_handler => set_next_tx => rand_prng_get

Maximum Stack Usage for uECC_verify 0x314 bytes.
Call chain for maximum stack usage:
uECC_verify => vli_modMult_n => vli_mult => muladd

Maximum Stack Usage for sha256_transform 0x144 bytes.
Call chain for maximum stack usage:
sha256_transform

Maximum Stack Usage for sha256_update 0x15c bytes.
Call chain for maximum stack usage:
sha256_update => sha256_transform

Maximum Stack Usage for sha256_final 0x154 bytes.
Call chain for maximum stack usage:
sha256_final => sha256_transform

Maximum Stack Usage for SWI1_EGU1_IRQHandler 0x18 bytes.
Call chain for maximum stack usage:
SWI1_EGU1_IRQHandler => fifo_pop

Maximum Stack Usage for serial_handler_event_send 0x40 bytes.
Call chain for maximum stack usage:
serial_handler_event_send => fifo_push

Maximum Stack Usage for UARTE0_UART0_IRQHandler 0x80 bytes.
Call chain for maximum stack usage:
UARTE0_UART0_IRQHandler => char_rx => serial_handler_event_send => fifo_push

Maximum Stack Usage for serial_handler_init 0x10 bytes.
Call chain for maximum stack usage:
serial_handler_init

Maximum Stack Usage for serial_wait_for_completion 0x90 bytes.
Call chain for maximum stack usage:
serial_wait_for_completion => UARTE0_UART0_IRQHandler => char_rx => serial_handler_event_send => fifo_push

Maximum Stack Usage for serial_handler_command_get 0x40 bytes.
Call chain for maximum stack usage:
serial_handler_command_get => fifo_pop

Maximum Stack Usage for mesh_aci_init 0x10 bytes.
Call chain for maximum stack usage:
mesh_aci_init => serial_handler_init

Maximum Stack Usage for mesh_aci_start 0x68 bytes.
Call chain for maximum stack usage:
mesh_aci_start => serial_handler_event_send => fifo_push

Maximum Stack Usage for mesh_aci_command_check 0x454 bytes.
Call chain for maximum stack usage:
mesh_aci_command_check => serial_command_handler => bootloader_cmd_send => bl_cmd_handler => dfu_mesh_timeout => signature_check => uECC_verify => vli_modMult_n => vli_mult => muladd

Maximum Stack Usage for SystemInit 0xc bytes.
Call chain for maximum stack usage:
SystemInit

Stack Usage for functions.

Stack Usage for __main 0x0 bytes.
Stack Usage for __scatterload unknown bytes.
Stack Usage for __scatterload_rt2 unknown bytes.
Stack Usage for __scatterload_rt2_thumb_only unknown bytes.
Stack Usage for __scatterload_null unknown bytes.
Stack Usage for __scatterload_copy unknown bytes.
Stack Usage for __scatterload_zeroinit unknown bytes.
Stack Usage for __rt_lib_init unknown bytes.
Stack Usage for __rt_lib_init_fp_1 unknown bytes.
Stack Usage for __rt_lib_init_alloca_1 unknown bytes.
Stack Usage for __rt_lib_init_argv_1 unknown bytes.
Stack Usage for __rt_lib_init_atexit_1 unknown bytes.
Stack Usage for __rt_lib_init_clock_1 unknown bytes.
Stack Usage for __rt_lib_init_cpp_1 unknown bytes.
Stack Usage for __rt_lib_init_exceptions_1 unknown bytes.
Stack Usage for __rt_lib_init_fp_trap_1 unknown bytes.
Stack Usage for __rt_lib_init_getenv_1 unknown bytes.
Stack Usage for __rt_lib_init_heap_1 unknown bytes.
Stack Usage for __rt_lib_init_lc_collate_1 unknown bytes.
Stack Usage for __rt_lib_init_lc_ctype_1 unknown bytes.
Stack Usage for __rt_lib_init_lc_monetary_1 unknown bytes.
Stack Usage for __rt_lib_init_lc_numeric_1 unknown bytes.
Stack Usage for __rt_lib_init_lc_time_1 unknown bytes.
Stack Usage for __rt_lib_init_preinit_1 unknown bytes.
Stack Usage for __rt_lib_init_rand_1 unknown bytes.
Stack Usage for __rt_lib_init_return unknown bytes.
Stack Usage for __rt_lib_init_signal_1 unknown bytes.
Stack Usage for __rt_lib_init_stdio_1 unknown bytes.
Stack Usage for __rt_lib_init_user_alloc_1 unknown bytes.
Stack Usage for __rt_lib_shutdown unknown bytes.
Stack Usage for __rt_lib_shutdown_cpp_1 unknown bytes.
Stack Usage for __rt_lib_shutdown_fp_trap_1 unknown bytes.
Stack Usage for __rt_lib_shutdown_heap_1 unknown bytes.
Stack Usage for __rt_lib_shutdown_return unknown bytes.
Stack Usage for __rt_lib_shutdown_signal_1 unknown bytes.
Stack Usage for __rt_lib_shutdown_stdio_1 unknown bytes.
Stack Usage for __rt_lib_shutdown_user_alloc_1 unknown bytes.
Stack Usage for __rt_entry unknown bytes.
Stack Usage for __rt_entry_presh_1 unknown bytes.
Stack Usage for __rt_entry_sh unknown bytes.
Stack Usage for __rt_entry_li unknown bytes.
Stack Usage for __rt_entry_postsh_1 unknown bytes.
Stack Usage for __rt_entry_main unknown bytes.
Stack Usage for __rt_entry_postli_1 unknown bytes.
Stack Usage for __rt_exit unknown bytes.
Stack Usage for __rt_exit_ls unknown bytes.
Stack Usage for __rt_exit_prels_1 unknown bytes.
Stack Usage for __rt_exit_exit unknown bytes.
Stack Usage for __asm___17_bootloader_util_c_c13d365c__bootloader_util_reset 0x0 bytes.
Stack Usage for SWI2_EGU2_IRQHandler 0x0 bytes.
Stack Usage for SWI3_EGU3_IRQHandler 0x38 bytes.
Stack Usage for bootloader_abort 0x20 bytes.
Stack Usage for bootloader_cmd_send 0x0 bytes.
Stack Usage for bootloader_init 0x30 bytes.
Stack Usage for bootloader_enable 0x40 bytes.
Stack Usage for bootloader_timeout 0x28 bytes.
Stack Usage for bl_cmd_handler 0x30 bytes.
Stack Usage for bootloader_app_bridge_init 0x0 bytes.
Stack Usage for bootloader_evt_send 0x0 bytes.
Stack Usage for send_end_evt 0x28 bytes.
Stack Usage for flash_write 0x38 bytes.
Stack Usage for flash_erase 0x30 bytes.
Stack Usage for tx_abort 0x28 bytes.
Stack Usage for bootloader_is_in_application 0x0 bytes.
Stack Usage for entry_invalidate 0x10 bytes.
Stack Usage for entry_write 0x20 bytes.
Stack Usage for bootloader_info_init 0x10 bytes.
Stack Usage for bootloader_info_entry_get 0x0 bytes.
Stack Usage for bootloader_info_reset 0x8 bytes.
Stack Usage for bootloader_info_entry_put 0x20 bytes.
Stack Usage for bootloader_info_entry_overwrite 0x10 bytes.
Stack Usage for bootloader_info_entry_invalidate 0x0 bytes.
Stack Usage for bootloader_info_stable 0x0 bytes.
Stack Usage for bootloader_info_on_flash_op_end 0x10 bytes.
Stack Usage for bootloader_info_on_flash_idle 0x0 bytes.
Stack Usage for RTC0_IRQHandler 0x10 bytes.
Stack Usage for rtc_init 0x0 bytes.
Stack Usage for bootloader_util_app_start 0x0 bytes.
Stack Usage for dfu_bank_scan 0x10 bytes.
Stack Usage for dfu_bank_flash 0x10 bytes.
Stack Usage for dfu_bank_on_flash_idle 0x0 bytes.
Stack Usage for dfu_bank_transfer_in_progress 0x0 bytes.
Stack Usage for dfu_mesh_init 0x10 bytes.
Stack Usage for dfu_mesh_start 0x8 bytes.
Stack Usage for dfu_mesh_req 0x8 bytes.
Stack Usage for dfu_mesh_relay 0x10 bytes.
Stack Usage for dfu_mesh_rx 0x10 bytes.
Stack Usage for dfu_mesh_finalize 0xc0 bytes.
Stack Usage for dfu_mesh_timeout 0x8 bytes.
Stack Usage for dfu_mesh_missing_type_get 0x10 bytes.
Stack Usage for dfu_mesh_app_is_valid 0x8 bytes.
Stack Usage for dfu_mesh_restart 0x0 bytes.
Stack Usage for dfu_mesh_on_flash_idle 0x28 bytes.
Stack Usage for dfu_transfer_init 0x8 bytes.
Stack Usage for dfu_transfer_start 0x20 bytes.
Stack Usage for dfu_transfer_data 0x30 bytes.
Stack Usage for dfu_transfer_has_entry 0x18 bytes.
Stack Usage for dfu_transfer_get_oldest_missing_entry 0x30 bytes.
Stack Usage for dfu_transfer_sha256 0x0 bytes.
Stack Usage for dfu_transfer_end 0x0 bytes.
Stack Usage for dfu_transfer_flash_write_complete 0x0 bytes.
Stack Usage for fwid_union_cpy 0x0 bytes.
Stack Usage for fwid_union_cmp 0x8 bytes.
Stack Usage for fwid_union_id_cmp 0x0 bytes.
Stack Usage for fwid_union_version_cmp 0x0 bytes.
Stack Usage for tid_cache_has_entry 0x0 bytes.
Stack Usage for ready_packet_matches_our_req 0x10 bytes.
Stack Usage for addr_from_seg 0x0 bytes.
Stack Usage for is_upgrade 0x10 bytes.
Stack Usage for app_is_newer 0x8 bytes.
Stack Usage for bootloader_is_newer 0x8 bytes.
Stack Usage for fw_is_verified 0x8 bytes.
Stack Usage for tid_cache_entry_put 0x8 bytes.
Stack Usage for packet_in_cache 0xc bytes.
Stack Usage for packet_cache_put 0xc bytes.
Stack Usage for packet_cache_flush 0x8 bytes.
Stack Usage for section_overlap 0x0 bytes.
Stack Usage for interrupts_disable 0xc bytes.
Stack Usage for fifo_init 0x0 bytes.
Stack Usage for fifo_push 0x10 bytes.
Stack Usage for fifo_pop 0x10 bytes.
Stack Usage for fifo_get_len 0x0 bytes.
Stack Usage for fifo_peek_at 0x10 bytes.
Stack Usage for fifo_peek 0x0 bytes.
Stack Usage for fifo_is_empty 0x0 bytes.
Stack Usage for app_error_handler_bare 0x0 bytes.
Stack Usage for HardFault_Handler 0x0 bytes.
Stack Usage for main 0x0 bytes.
Stack Usage for mesh_packet_init 0x0 bytes.
Stack Usage for mesh_packet_acquire 0x8 bytes.
Stack Usage for mesh_packet_ref_count_inc 0x10 bytes.
Stack Usage for mesh_packet_ref_count_dec 0x8 bytes.
Stack Usage for mesh_packet_ref_count_get 0x0 bytes.
Stack Usage for mesh_packet_set_local_addr 0x0 bytes.
Stack Usage for mesh_packet_adv_data_get 0xc bytes.
Stack Usage for nrf_flash_erase 0x14 bytes.
Stack Usage for nrf_flash_store 0x1c bytes.
Stack Usage for radio_disable 0x0 bytes.
Stack Usage for radio_init 0x20 bytes.
Stack Usage for radio_order 0x8 bytes.
Stack Usage for radio_event_handler 0x28 bytes.
Stack Usage for rand_prng_get 0x8 bytes.
Stack Usage for rand_hw_rng_get 0x10 bytes.
Stack Usage for rand_prng_seed 0x10 bytes.
Stack Usage for transport_tx_evt_get 0x0 bytes.
Stack Usage for transport_start 0x0 bytes.
Stack Usage for SWI0_EGU0_IRQHandler 0x10 bytes.
Stack Usage for RADIO_IRQHandler 0x0 bytes.
Stack Usage for timeslot_is_in_ts 0x0 bytes.
Stack Usage for transport_init 0x8 bytes.
Stack Usage for transport_tx 0x18 bytes.
Stack Usage for transport_tx_abort 0x8 bytes.
Stack Usage for transport_rtc_irq_handler 0x20 bytes.
Stack Usage for transport_tx_evt_set 0x0 bytes.
Stack Usage for uECC_verify 0x1e8 bytes.
Stack Usage for sha256_transform 0x144 bytes.
Stack Usage for sha256_init 0x0 bytes.
Stack Usage for sha256_update 0x18 bytes.
Stack Usage for sha256_final 0x10 bytes.
Stack Usage for SWI1_EGU1_IRQHandler 0x8 bytes.
Stack Usage for serial_handler_event_send 0x30 bytes.
Stack Usage for UARTE0_UART0_IRQHandler 0x10 bytes.
Stack Usage for serial_handler_init 0x10 bytes.
Stack Usage for serial_handler_credit_available 0x0 bytes.
Stack Usage for serial_wait_for_completion 0x10 bytes.
Stack Usage for serial_handler_command_get 0x30 bytes.
Stack Usage for serial_handler_uart_disable 0x0 bytes.
Stack Usage for mesh_aci_init 0x0 bytes.
Stack Usage for mesh_aci_start 0x28 bytes.
Stack Usage for mesh_aci_command_check 0x28 bytes.
Stack Usage for SystemCoreClockUpdate 0x0 bytes.
Stack Usage for SystemInit 0xc bytes.
Stack Usage for Reset_Handler 0x0 bytes.
Stack Usage for NMI_Handler 0x0 bytes.
Stack Usage for MemoryManagement_Handler 0x0 bytes.
Stack Usage for BusFault_Handler 0x0 bytes.
Stack Usage for UsageFault_Handler 0x0 bytes.
Stack Usage for SVC_Handler 0x0 bytes.
Stack Usage for DebugMon_Handler 0x0 bytes.
Stack Usage for PendSV_Handler 0x0 bytes.
Stack Usage for SysTick_Handler 0x0 bytes.
Stack Usage for CCM_AAR_IRQHandler 0x0 bytes.
Stack Usage for COMP_LPCOMP_IRQHandler 0x0 bytes.
Stack Usage for ECB_IRQHandler 0x0 bytes.
Stack Usage for FPU_IRQHandler 0x0 bytes.
Stack Usage for GPIOTE_IRQHandler 0x0 bytes.
Stack Usage for I2S_IRQHandler 0x0 bytes.
Stack Usage for MWU_IRQHandler 0x0 bytes.
Stack Usage for NFCT_IRQHandler 0x0 bytes.
Stack Usage for PDM_IRQHandler 0x0 bytes.
Stack Usage for POWER_CLOCK_IRQHandler 0x0 bytes.
Stack Usage for PWM0_IRQHandler 0x0 bytes.
Stack Usage for PWM1_IRQHandler 0x0 bytes.
Stack Usage for PWM2_IRQHandler 0x0 bytes.
Stack Usage for PWM3_IRQHandler 0x0 bytes.
Stack Usage for QDEC_IRQHandler 0x0 bytes.
Stack Usage for RNG_IRQHandler 0x0 bytes.
Stack Usage for RTC1_IRQHandler 0x0 bytes.
Stack Usage for RTC2_IRQHandler 0x0 bytes.
Stack Usage for SAADC_IRQHandler 0x0 bytes.
Stack Usage for SPIM0_SPIS0_TWIM0_TWIS0_SPI0_TWI0_IRQHandler 0x0 bytes.
Stack Usage for SPIM1_SPIS1_TWIM1_TWIS1_SPI1_TWI1_IRQHandler 0x0 bytes.
Stack Usage for SPIM2_SPIS2_SPI2_IRQHandler 0x0 bytes.
Stack Usage for SPIM3_IRQHandler 0x0 bytes.
Stack Usage for SWI4_EGU4_IRQHandler 0x0 bytes.
Stack Usage for SWI5_EGU5_IRQHandler 0x0 bytes.
Stack Usage for TEMP_IRQHandler 0x0 bytes.
Stack Usage for TIMER0_IRQHandler 0x0 bytes.
Stack Usage for TIMER1_IRQHandler 0x0 bytes.
Stack Usage for TIMER2_IRQHandler 0x0 bytes.
Stack Usage for TIMER3_IRQHandler 0x0 bytes.
Stack Usage for TIMER4_IRQHandler 0x0 bytes.
Stack Usage for UARTE1_IRQHandler 0x0 bytes.
Stack Usage for USBD_IRQHandler 0x0 bytes.
Stack Usage for WDT_IRQHandler 0x0 bytes.
Stack Usage for __user_initial_stackheap 0x0 bytes.
Stack Usage for __aeabi_uldivmod 0x30 bytes.
Stack Usage for _ll_udiv 0x30 bytes.
Stack Usage for __aeabi_llsl 0x0 bytes.
Stack Usage for _ll_shift_l 0x0 bytes.
Stack Usage for memcmp 0x8 bytes.
Stack Usage for __aeabi_memcpy 0x0 bytes.
Stack Usage for __rt_memcpy 0x0 bytes.
Stack Usage for _memcpy_lastbytes unknown bytes.
Stack Usage for __aeabi_memcpy4 0x8 bytes.
Stack Usage for __aeabi_memcpy8 0x8 bytes.
Stack Usage for __rt_memcpy_w 0x8 bytes.
Stack Usage for _memcpy_lastbytes_aligned unknown bytes.
Stack Usage for __aeabi_memset 0x0 bytes.
Stack Usage for __aeabi_memclr 0x0 bytes.
Stack Usage for __rt_memclr 0x0 bytes.
Stack Usage for _memset unknown bytes.
Stack Usage for __aeabi_memclr4 0x4 bytes.
Stack Usage for __aeabi_memclr8 0x4 bytes.
Stack Usage for __rt_memclr_w 0x4 bytes.
Stack Usage for _memset_w unknown bytes.
Stack Usage for __use_two_region_memory 0x0 bytes.
Stack Usage for __rt_heap_escrow$2region 0x0 bytes.
Stack Usage for __rt_heap_expand$2region 0x0 bytes.
Stack Usage for __user_setup_stackheap 0x8 bytes.
Stack Usage for exit 0x8 bytes.
Stack Usage for __user_libspace 0x0 bytes.
Stack Usage for __user_perproc_libspace 0x0 bytes.
Stack Usage for __user_perthread_libspace 0x0 bytes.
Stack Usage for _sys_exit 0x0 bytes.
Stack Usage for __I$use$semihosting 0x0 bytes.
Stack Usage for __use_no_semihosting_swi 0x0 bytes.
Stack Usage for __semihosting_library_function 0x0 bytes.
Stack Usage for fifo_is_full 0x0 bytes.
Stack Usage for _fp_init 0x0 bytes.
Stack Usage for __fplib_config_fpu_vfp unknown bytes.
Stack Usage for __fplib_config_pureend_doubles unknown bytes.
Stack Usage for rx_cb 0x20 bytes.
Stack Usage for bl_evt_handler 0x30 bytes.
Stack Usage for NVIC_SetPendingIRQ 0x0 bytes.
Stack Usage for set_timeout 0x0 bytes.
Stack Usage for stop_timeout 0x0 bytes.
Stack Usage for info_entry_get 0x10 bytes.
Stack Usage for free_write_buffer 0x18 bytes.
Stack Usage for place_head_after_entry 0x0 bytes.
Stack Usage for get_write_buffer 0x18 bytes.
Stack Usage for copy_page_write_meta 0x8 bytes.
Stack Usage for copy_page_write_next_data 0x10 bytes.
Stack Usage for copy_page 0x10 bytes.
Stack Usage for entry_header_invalidate 0x8 bytes.
Stack Usage for bootloader_info_header_get 0x0 bytes.
Stack Usage for bootloader_info_first_unused_get 0x8 bytes.
Stack Usage for copy_page_on_flash_op_end 0x8 bytes.
Stack Usage for flash_bank_entry_fw 0x40 bytes.
Stack Usage for flash_bank_entry 0x118 bytes.
Stack Usage for get_info_pointers 0x8 bytes.
Stack Usage for segment_count_from_start_packet 0x0 bytes.
Stack Usage for packet_tx_dynamic 0x38 bytes.
Stack Usage for signature_check 0xa0 bytes.
Stack Usage for beacon_set 0x50 bytes.
Stack Usage for relay_packet 0x10 bytes.
Stack Usage for start_req 0x10 bytes.
Stack Usage for start_target 0xb8 bytes.
Stack Usage for notify_state_packet 0x28 bytes.
Stack Usage for target_rx_start 0x20 bytes.
Stack Usage for target_rx_data 0x48 bytes.
Stack Usage for handle_data_packet 0x48 bytes.
Stack Usage for handle_state_packet 0x18 bytes.
Stack Usage for handle_data_req_packet 0x40 bytes.
Stack Usage for state_beacon_type 0x0 bytes.
Stack Usage for send_progress_event 0x28 bytes.
Stack Usage for send_bank_notifications 0x50 bytes.
Stack Usage for start_find_fwid 0x8 bytes.
Stack Usage for start_ready 0x10 bytes.
Stack Usage for request_missing_data 0x58 bytes.
Stack Usage for handle_fwid_packet 0x38 bytes.
Stack Usage for segment_is_missing 0x8 bytes.
Stack Usage for transfer_abort 0x0 bytes.
Stack Usage for setup_event 0x20 bytes.
Stack Usage for NVIC_SetPendingIRQ 0x0 bytes.
Stack Usage for set_next_tx 0x10 bytes.
Stack Usage for order_scan 0x10 bytes.
Stack Usage for radio_tx_cb 0x28 bytes.
Stack Usage for radio_rx_cb 0x18 bytes.
Stack Usage for radio_idle_cb 0x0 bytes.
Stack Usage for order_next_rtc 0x14 bytes.
Stack Usage for NVIC_EnableIRQ 0x0 bytes.
Stack Usage for NVIC_DisableIRQ 0x0 bytes.
Stack Usage for NVIC_SetPriority 0x0 bytes.
Stack Usage for vli_numBits 0x0 bytes.
Stack Usage for vli_add 0x10 bytes.
Stack Usage for vli_sub 0x10 bytes.
Stack Usage for muladd 0x14 bytes.
Stack Usage for vli_mult 0x30 bytes.
Stack Usage for vli_mmod_fast 0x38 bytes.
Stack Usage for vli_modInv 0x90 bytes.
Stack Usage for EccPoint_double_jacobian 0x58 bytes.
Stack Usage for apply_z 0x30 bytes.
Stack Usage for XYcZ_add 0x38 bytes.
Stack Usage for vli_modMult_n 0xe8 bytes.
Stack Usage for vli_clear 0x0 bytes.
Stack Usage for vli_isZero 0x0 bytes.
Stack Usage for vli_testBit 0x0 bytes.
Stack Usage for vli_set 0x0 bytes.
Stack Usage for vli_cmp 0x8 bytes.
Stack Usage for vli_rshift1 0x0 bytes.
Stack Usage for vli_modAdd 0x10 bytes.
Stack Usage for vli_modSub 0x10 bytes.
Stack Usage for vli_modMult_fast 0x48 bytes.
Stack Usage for vli_bytesToNative 0x8 bytes.
Stack Usage for schedule_transmit 0x0 bytes.
Stack Usage for char_rx 0x30 bytes.
Stack Usage for NVIC_SetPendingIRQ 0x0 bytes.
Stack Usage for error_code_translate 0x0 bytes.
Stack Usage for serial_command_handler 0x40 bytes.

Potential Stack Usage Inaccuracies.

Mutually recursive functions.

 * NMI_Handler => NMI_Handler
 * MemoryManagement_Handler => MemoryManagement_Handler
 * BusFault_Handler => BusFault_Handler
 * UsageFault_Handler => UsageFault_Handler
 * SVC_Handler => SVC_Handler
 * DebugMon_Handler => DebugMon_Handler
 * PendSV_Handler => PendSV_Handler
 * SysTick_Handler => SysTick_Handler

Untraceable function pointers.

 * BusFault_Handler from arm_startup_nrf52833.o(.text) referenced from arm_startup_nrf52833.o(RESET)
 * CCM_AAR_IRQHandler from arm_startup_nrf52833.o(.text) referenced from arm_startup_nrf52833.o(RESET)
 * COMP_LPCOMP_IRQHandler from arm_startup_nrf52833.o(.text) referenced from arm_startup_nrf52833.o(RESET)
 * DebugMon_Handler from arm_startup_nrf52833.o(.text) referenced from arm_startup_nrf52833.o(RESET)
 * ECB_IRQHandler from arm_startup_nrf52833.o(.text) referenced from arm_startup_nrf52833.o(RESET)
 * FPU_IRQHandler from arm_startup_nrf52833.o(.text) referenced from arm_startup_nrf52833.o(RESET)
 * GPIOTE_IRQHandler from arm_startup_nrf52833.o(.text) referenced from arm_startup_nrf52833.o(RESET)
 * HardFault_Handler from main.o(.text) referenced from arm_startup_nrf52833.o(RESET)
 * I2S_IRQHandler from arm_startup_nrf52833.o(.text) referenced from arm_startup_nrf52833.o(RESET)
 * MWU_IRQHandler from arm_startup_nrf52833.o(.text) referenced from arm_startup_nrf52833.o(RESET)
 * MemoryManagement_Handler from arm_startup_nrf52833.o(.text) referenced from arm_startup_nrf52833.o(RESET)
 * NFCT_IRQHandler from arm_startup_nrf52833.o(.text) referenced from arm_startup_nrf52833.o(RESET)
 * NMI_Handler from arm_startup_nrf52833.o(.text) referenced from arm_startup_nrf52833.o(RESET)
 * PDM_IRQHandler from arm_startup_nrf52833.o(.text) referenced from arm_startup_nrf52833.o(RESET)
 * POWER_CLOCK_IRQHandler from arm_startup_nrf52833.o(.text) referenced from arm_startup_nrf52833.o(RESET)
 * PWM0_IRQHandler from arm_startup_nrf52833.o(.text) referenced from arm_startup_nrf52833.o(RESET)
 * PWM1_IRQHandler from arm_startup_nrf52833.o(.text) referenced from arm_startup_nrf52833.o(RESET)
 * PWM2_IRQHandler from arm_startup_nrf52833.o(.text) referenced from arm_startup_nrf52833.o(RESET)
 * PWM3_IRQHandler from arm_startup_nrf52833.o(.text) referenced from arm_startup_nrf52833.o(RESET)
 * PendSV_Handler from arm_startup_nrf52833.o(.text) referenced from arm_startup_nrf52833.o(RESET)
 * QDEC_IRQHandler from arm_startup_nrf52833.o(.text) referenced from arm_startup_nrf52833.o(RESET)
 * RADIO_IRQHandler from transport.o(.text) referenced from arm_startup_nrf52833.o(RESET)
 * RNG_IRQHandler from arm_startup_nrf52833.o(.text) referenced from arm_startup_nrf52833.o(RESET)
 * RTC0_IRQHandler from bootloader_rtc.o(.text) referenced from arm_startup_nrf52833.o(RESET)
 * RTC1_IRQHandler from arm_startup_nrf52833.o(.text) referenced from arm_startup_nrf52833.o(RESET)
 * RTC2_IRQHandler from arm_startup_nrf52833.o(.text) referenced from arm_startup_nrf52833.o(RESET)
 * Reset_Handler from arm_startup_nrf52833.o(.text) referenced from arm_startup_nrf52833.o(RESET)
 * SAADC_IRQHandler from arm_startup_nrf52833.o(.text) referenced from arm_startup_nrf52833.o(RESET)
 * SPIM0_SPIS0_TWIM0_TWIS0_SPI0_TWI0_IRQHandler from arm_startup_nrf52833.o(.text) referenced from arm_startup_nrf52833.o(RESET)
 * SPIM1_SPIS1_TWIM1_TWIS1_SPI1_TWI1_IRQHandler from arm_startup_nrf52833.o(.text) referenced from arm_startup_nrf52833.o(RESET)
 * SPIM2_SPIS2_SPI2_IRQHandler from arm_startup_nrf52833.o(.text) referenced from arm_startup_nrf52833.o(RESET)
 * SPIM3_IRQHandler from arm_startup_nrf52833.o(.text) referenced from arm_startup_nrf52833.o(RESET)
 * SVC_Handler from arm_startup_nrf52833.o(.text) referenced from arm_startup_nrf52833.o(RESET)
 * SWI0_EGU0_IRQHandler from transport.o(.text) referenced from arm_startup_nrf52833.o(RESET)
 * SWI1_EGU1_IRQHandler from serial_handler_uart.o(.text) referenced from arm_startup_nrf52833.o(RESET)
 * SWI2_EGU2_IRQHandler from bootloader.o(.text) referenced from arm_startup_nrf52833.o(RESET)
 * SWI3_EGU3_IRQHandler from bootloader.o(.text) referenced from arm_startup_nrf52833.o(RESET)
 * SWI4_EGU4_IRQHandler from arm_startup_nrf52833.o(.text) referenced from arm_startup_nrf52833.o(RESET)
 * SWI5_EGU5_IRQHandler from arm_startup_nrf52833.o(.text) referenced from arm_startup_nrf52833.o(RESET)
 * SysTick_Handler from arm_startup_nrf52833.o(.text) referenced from arm_startup_nrf52833.o(RESET)
 * SystemInit from system_nrf52833.o(.text) referenced from arm_startup_nrf52833.o(.text)
 * TEMP_IRQHandler from arm_startup_nrf52833.o(.text) referenced from arm_startup_nrf52833.o(RESET)
 * TIMER0_IRQHandler from arm_startup_nrf52833.o(.text) referenced from arm_startup_nrf52833.o(RESET)
 * TIMER1_IRQHandler from arm_startup_nrf52833.o(.text) referenced from arm_startup_nrf52833.o(RESET)
 * TIMER2_IRQHandler from arm_startup_nrf52833.o(.text) referenced from arm_startup_nrf52833.o(RESET)
 * TIMER3_IRQHandler from arm_startup_nrf52833.o(.text) referenced from arm_startup_nrf52833.o(RESET)
 * TIMER4_IRQHandler from arm_startup_nrf52833.o(.text) referenced from arm_startup_nrf52833.o(RESET)
 * UARTE0_UART0_IRQHandler from serial_handler_uart.o(.text) referenced from arm_startup_nrf52833.o(RESET)
 * UARTE1_IRQHandler from arm_startup_nrf52833.o(.text) referenced from arm_startup_nrf52833.o(RESET)
 * USBD_IRQHandler from arm_startup_nrf52833.o(.text) referenced from arm_startup_nrf52833.o(RESET)
 * UsageFault_Handler from arm_startup_nrf52833.o(.text) referenced from arm_startup_nrf52833.o(RESET)
 * WDT_IRQHandler from arm_startup_nrf52833.o(.text) referenced from arm_startup_nrf52833.o(RESET)
 * __main from __main.o(!!!main) referenced from arm_startup_nrf52833.o(.text)
 * bl_cmd_handler from bootloader_app_bridge.o(.text) referenced from bootloader_app_bridge.o(.text)
 * bl_evt_handler from bootloader.o(.text) referenced from bootloader.o(.text)
 * radio_idle_cb from transport.o(.text) referenced from transport.o(.text)
 * radio_rx_cb from transport.o(.text) referenced from transport.o(.text)
 * radio_tx_cb from transport.o(.text) referenced from transport.o(.text)
 * rx_cb from bootloader.o(.text) referenced from bootloader.o(.text)

==============================================================================

Image Symbol Table

    Local Symbols

    Symbol Name                              Value     Ov Type        Size  Object(Section)

    ../clib/angel/boardlib.s                 0x00000000   Number         0  boardshut.o ABSOLUTE
    ../clib/angel/boardlib.s                 0x00000000   Number         0  boardinit1.o ABSOLUTE
    ../clib/angel/boardlib.s                 0x00000000   Number         0  boardinit2.o ABSOLUTE
    ../clib/angel/boardlib.s                 0x00000000   Number         0  boardinit3.o ABSOLUTE
    ../clib/angel/handlers.s                 0x00000000   Number         0  __scatter_zi.o ABSOLUTE
    ../clib/angel/handlers.s                 0x00000000   Number         0  __scatter_copy.o ABSOLUTE
    ../clib/angel/kernel.s                   0x00000000   Number         0  __rtentry2.o ABSOLUTE
    ../clib/angel/kernel.s                   0x00000000   Number         0  rtexit.o ABSOLUTE
    ../clib/angel/kernel.s                   0x00000000   Number         0  __rtentry.o ABSOLUTE
    ../clib/angel/kernel.s                   0x00000000   Number         0  __rtentry4.o ABSOLUTE
    ../clib/angel/kernel.s                   0x00000000   Number         0  rtexit2.o ABSOLUTE
    ../clib/angel/rt.s                       0x00000000   Number         0  aeabi_ldiv0.o ABSOLUTE
    ../clib/angel/rt.s                       0x00000000   Number         0  rt_div0.o ABSOLUTE
    ../clib/angel/rt.s                       0x00000000   Number         0  aeabi_ldiv0_sigfpe.o ABSOLUTE
    ../clib/angel/rt.s                       0x00000000   Number         0  rt_raise.o ABSOLUTE
    ../clib/angel/scatter.s                  0x00000000   Number         0  __scatter.o ABSOLUTE
    ../clib/angel/startup.s                  0x00000000   Number         0  __main.o ABSOLUTE
    ../clib/angel/sys.s                      0x00000000   Number         0  sys_stackheap_outer.o ABSOLUTE
    ../clib/angel/sys.s                      0x00000000   Number         0  libspace.o ABSOLUTE
    ../clib/angel/sys.s                      0x00000000   Number         0  use_no_semi.o ABSOLUTE
    ../clib/angel/sys.s                      0x00000000   Number         0  indicate_semi.o ABSOLUTE
    ../clib/angel/sysapp.c                   0x00000000   Number         0  sys_exit.o ABSOLUTE
    ../clib/angel/sysapp.c                   0x00000000   Number         0  sys_wrch.o ABSOLUTE
    ../clib/angel/sysapp.c                   0x00000000   Number         0  sys_command.o ABSOLUTE
    ../clib/armsys.c                         0x00000000   Number         0  argv_veneer.o ABSOLUTE
    ../clib/armsys.c                         0x00000000   Number         0  no_argv.o ABSOLUTE
    ../clib/armsys.c                         0x00000000   Number         0  _get_argv_nomalloc.o ABSOLUTE
    ../clib/armsys.c                         0x00000000   Number         0  argv_veneer.o ABSOLUTE
    ../clib/heapalloc.c                      0x00000000   Number         0  hrguard.o ABSOLUTE
    ../clib/heapaux.c                        0x00000000   Number         0  heapauxi.o ABSOLUTE
    ../clib/libinit.s                        0x00000000   Number         0  libinit2.o ABSOLUTE
    ../clib/libinit.s                        0x00000000   Number         0  libshutdown.o ABSOLUTE
    ../clib/libinit.s                        0x00000000   Number         0  libinit.o ABSOLUTE
    ../clib/libinit.s                        0x00000000   Number         0  libshutdown2.o ABSOLUTE
    ../clib/longlong.s                       0x00000000   Number         0  lludivv7m.o ABSOLUTE
    ../clib/longlong.s                       0x00000000   Number         0  llshl.o ABSOLUTE
    ../clib/memcpset.s                       0x00000000   Number         0  rt_memclr_w.o ABSOLUTE
    ../clib/memcpset.s                       0x00000000   Number         0  rt_memclr.o ABSOLUTE
    ../clib/memcpset.s                       0x00000000   Number         0  aeabi_memset.o ABSOLUTE
    ../clib/memcpset.s                       0x00000000   Number         0  rt_memcpy_v6.o ABSOLUTE
    ../clib/memcpset.s                       0x00000000   Number         0  rt_memcpy_w.o ABSOLUTE
    ../clib/signal.c                         0x00000000   Number         0  defsig_abrt_inner.o ABSOLUTE
    ../clib/signal.c                         0x00000000   Number         0  defsig_rtmem_formal.o ABSOLUTE
    ../clib/signal.c                         0x00000000   Number         0  defsig_rtmem_outer.o ABSOLUTE
    ../clib/signal.c                         0x00000000   Number         0  defsig_stak_inner.o ABSOLUTE
    ../clib/signal.c                         0x00000000   Number         0  defsig_pvfn_inner.o ABSOLUTE
    ../clib/signal.c                         0x00000000   Number         0  defsig_cppl_inner.o ABSOLUTE
    ../clib/signal.c                         0x00000000   Number         0  defsig_rtmem_inner.o ABSOLUTE
    ../clib/signal.c                         0x00000000   Number         0  defsig_rtred_inner.o ABSOLUTE
    ../clib/signal.c                         0x00000000   Number         0  defsig_general.o ABSOLUTE
    ../clib/signal.c                         0x00000000   Number         0  __raise.o ABSOLUTE
    ../clib/signal.c                         0x00000000   Number         0  defsig_exit.o ABSOLUTE
    ../clib/signal.c                         0x00000000   Number         0  defsig_fpe_inner.o ABSOLUTE
    ../clib/signal.c                         0x00000000   Number         0  defsig_segv_inner.o ABSOLUTE
    ../clib/signal.c                         0x00000000   Number         0  defsig_other.o ABSOLUTE
    ../clib/signal.c                         0x00000000   Number         0  defsig_fpe_formal.o ABSOLUTE
    ../clib/signal.c                         0x00000000   Number         0  defsig_fpe_outer.o ABSOLUTE
    ../clib/signal.s                         0x00000000   Number         0  defsig.o ABSOLUTE
    ../clib/stdlib.c                         0x00000000   Number         0  exit.o ABSOLUTE
    ../clib/string.c                         0x00000000   Number         0  memcmp.o ABSOLUTE
    ../fplib/fpinit.s                        0x00000000   Number         0  fpinit.o ABSOLUTE
    ..\\mesh\\bootloader\\src\\bootloader.c  0x00000000   Number         0  bootloader.o ABSOLUTE
    ..\\mesh\\bootloader\\src\\bootloader_app_bridge.c 0x00000000   Number         0  bootloader_app_bridge.o ABSOLUTE
    ..\\mesh\\bootloader\\src\\bootloader_info.c 0x00000000   Number         0  bootloader_info.o ABSOLUTE
    ..\\mesh\\bootloader\\src\\bootloader_rtc.c 0x00000000   Number         0  bootloader_rtc.o ABSOLUTE
    ..\\mesh\\bootloader\\src\\bootloader_util.c 0x00000000   Number         0  bootloader_util.o ABSOLUTE
    ..\\mesh\\bootloader\\src\\dfu_bank.c    0x00000000   Number         0  dfu_bank.o ABSOLUTE
    ..\\mesh\\bootloader\\src\\dfu_mesh.c    0x00000000   Number         0  dfu_mesh.o ABSOLUTE
    ..\\mesh\\bootloader\\src\\dfu_transfer_mesh.c 0x00000000   Number         0  dfu_transfer_mesh.o ABSOLUTE
    ..\\mesh\\bootloader\\src\\dfu_util.c    0x00000000   Number         0  dfu_util.o ABSOLUTE
    ..\\mesh\\bootloader\\src\\fifo.c        0x00000000   Number         0  fifo.o ABSOLUTE
    ..\\mesh\\bootloader\\src\\main.c        0x00000000   Number         0  main.o ABSOLUTE
    ..\\mesh\\bootloader\\src\\mesh_aci.c    0x00000000   Number         0  mesh_aci.o ABSOLUTE
    ..\\mesh\\bootloader\\src\\mesh_packet.c 0x00000000   Number         0  mesh_packet.o ABSOLUTE
    ..\\mesh\\bootloader\\src\\nrf_flash.c   0x00000000   Number         0  nrf_flash.o ABSOLUTE
    ..\\mesh\\bootloader\\src\\radio_control.c 0x00000000   Number         0  radio_control.o ABSOLUTE
    ..\\mesh\\bootloader\\src\\rand.c        0x00000000   Number         0  rand.o ABSOLUTE
    ..\\mesh\\bootloader\\src\\serial_handler_uart.c 0x00000000   Number         0  serial_handler_uart.o ABSOLUTE
    ..\\mesh\\bootloader\\src\\transport.c   0x00000000   Number         0  transport.o ABSOLUTE
    ..\mesh\bootloader\src\bootloader.c      0x00000000   Number         0  bootloader.o ABSOLUTE
    ..\mesh\bootloader\src\bootloader_app_bridge.c 0x00000000   Number         0  bootloader_app_bridge.o ABSOLUTE
    ..\mesh\bootloader\src\bootloader_info.c 0x00000000   Number         0  bootloader_info.o ABSOLUTE
    ..\mesh\bootloader\src\bootloader_rtc.c  0x00000000   Number         0  bootloader_rtc.o ABSOLUTE
    ..\mesh\bootloader\src\bootloader_util.c 0x00000000   Number         0  bootloader_util.o ABSOLUTE
    ..\mesh\bootloader\src\dfu_bank.c        0x00000000   Number         0  dfu_bank.o ABSOLUTE
    ..\mesh\bootloader\src\dfu_mesh.c        0x00000000   Number         0  dfu_mesh.o ABSOLUTE
    ..\mesh\bootloader\src\dfu_transfer_mesh.c 0x00000000   Number         0  dfu_transfer_mesh.o ABSOLUTE
    ..\mesh\bootloader\src\dfu_util.c        0x00000000   Number         0  dfu_util.o ABSOLUTE
    ..\mesh\bootloader\src\fifo.c            0x00000000   Number         0  fifo.o ABSOLUTE
    ..\mesh\bootloader\src\main.c            0x00000000   Number         0  main.o ABSOLUTE
    ..\mesh\bootloader\src\mesh_aci.c        0x00000000   Number         0  mesh_aci.o ABSOLUTE
    ..\mesh\bootloader\src\mesh_packet.c     0x00000000   Number         0  mesh_packet.o ABSOLUTE
    ..\mesh\bootloader\src\nrf_flash.c       0x00000000   Number         0  nrf_flash.o ABSOLUTE
    ..\mesh\bootloader\src\radio_control.c   0x00000000   Number         0  radio_control.o ABSOLUTE
    ..\mesh\bootloader\src\rand.c            0x00000000   Number         0  rand.o ABSOLUTE
    ..\mesh\bootloader\src\serial_handler_uart.c 0x00000000   Number         0  serial_handler_uart.o ABSOLUTE
    ..\mesh\bootloader\src\transport.c       0x00000000   Number         0  transport.o ABSOLUTE
    ..\mesh\bootloader\src\uECC.c            0x00000000   Number         0  uECC.o ABSOLUTE
    C:\\dev\\nRF5_SDK_16.0.0_98a08e2\\components\\libraries\\sha256\\sha256.c 0x00000000   Number         0  sha256.o ABSOLUTE
    C:\\dev\\nRF5_SDK_16.0.0_98a08e2\\modules\\nrfx\\mdk\\arm_startup_nrf52833.s 0x00000000   Number         0  arm_startup_nrf52833.o ABSOLUTE
    C:\\dev\\nRF5_SDK_16.0.0_98a08e2\\modules\\nrfx\\mdk\\system_nrf52833.c 0x00000000   Number         0  system_nrf52833.o ABSOLUTE
    C:\dev\nRF5_SDK_16.0.0_98a08e2\components\libraries\sha256\sha256.c 0x00000000   Number         0  sha256.o ABSOLUTE
    C:\dev\nRF5_SDK_16.0.0_98a08e2\modules\nrfx\mdk\system_nrf52833.c 0x00000000   Number         0  system_nrf52833.o ABSOLUTE
    dc.s                                     0x00000000   Number         0  dc.o ABSOLUTE
    RESET                                    0x00078000   Section      512  arm_startup_nrf52833.o(RESET)
    !!!main                                  0x00078200   Section        8  __main.o(!!!main)
    !!!scatter                               0x00078208   Section       52  __scatter.o(!!!scatter)
    !!handler_copy                           0x0007823c   Section       26  __scatter_copy.o(!!handler_copy)
    !!handler_zi                             0x00078258   Section       28  __scatter_zi.o(!!handler_zi)
    .ARM.Collect$$libinit$$00000000          0x00078274   Section        2  libinit.o(.ARM.Collect$$libinit$$00000000)
    .ARM.Collect$$libinit$$00000001          0x00078276   Section        4  libinit2.o(.ARM.Collect$$libinit$$00000001)
    .ARM.Collect$$libinit$$00000004          0x0007827a   Section        0  libinit2.o(.ARM.Collect$$libinit$$00000004)
    .ARM.Collect$$libinit$$0000000A          0x0007827a   Section        0  libinit2.o(.ARM.Collect$$libinit$$0000000A)
    .ARM.Collect$$libinit$$0000000C          0x0007827a   Section        0  libinit2.o(.ARM.Collect$$libinit$$0000000C)
    .ARM.Collect$$libinit$$0000000E          0x0007827a   Section        0  libinit2.o(.ARM.Collect$$libinit$$0000000E)
    .ARM.Collect$$libinit$$00000011          0x0007827a   Section        0  libinit2.o(.ARM.Collect$$libinit$$00000011)
    .ARM.Collect$$libinit$$00000013          0x0007827a   Section        0  libinit2.o(.ARM.Collect$$libinit$$00000013)
    .ARM.Collect$$libinit$$00000015          0x0007827a   Section        0  libinit2.o(.ARM.Collect$$libinit$$00000015)
    .ARM.Collect$$libinit$$00000017          0x0007827a   Section        0  libinit2.o(.ARM.Collect$$libinit$$00000017)
    .ARM.Collect$$libinit$$00000019          0x0007827a   Section        0  libinit2.o(.ARM.Collect$$libinit$$00000019)
    .ARM.Collect$$libinit$$0000001B          0x0007827a   Section        0  libinit2.o(.ARM.Collect$$libinit$$0000001B)
    .ARM.Collect$$libinit$$0000001D          0x0007827a   Section        0  libinit2.o(.ARM.Collect$$libinit$$0000001D)
    .ARM.Collect$$libinit$$0000001F          0x0007827a   Section        0  libinit2.o(.ARM.Collect$$libinit$$0000001F)
    .ARM.Collect$$libinit$$00000021          0x0007827a   Section        0  libinit2.o(.ARM.Collect$$libinit$$00000021)
    .ARM.Collect$$libinit$$00000023          0x0007827a   Section        0  libinit2.o(.ARM.Collect$$libinit$$00000023)
    .ARM.Collect$$libinit$$00000025          0x0007827a   Section        0  libinit2.o(.ARM.Collect$$libinit$$00000025)
    .ARM.Collect$$libinit$$0000002C          0x0007827a   Section        0  libinit2.o(.ARM.Collect$$libinit$$0000002C)
    .ARM.Collect$$libinit$$0000002E          0x0007827a   Section        0  libinit2.o(.ARM.Collect$$libinit$$0000002E)
    .ARM.Collect$$libinit$$00000030          0x0007827a   Section        0  libinit2.o(.ARM.Collect$$libinit$$00000030)
    .ARM.Collect$$libinit$$00000032          0x0007827a   Section        0  libinit2.o(.ARM.Collect$$libinit$$00000032)
    .ARM.Collect$$libinit$$00000033          0x0007827a   Section        2  libinit2.o(.ARM.Collect$$libinit$$00000033)
    .ARM.Collect$$libshutdown$$00000000      0x0007827c   Section        2  libshutdown.o(.ARM.Collect$$libshutdown$$00000000)
    .ARM.Collect$$libshutdown$$00000002      0x0007827e   Section        0  libshutdown2.o(.ARM.Collect$$libshutdown$$00000002)
    .ARM.Collect$$libshutdown$$00000004      0x0007827e   Section        0  libshutdown2.o(.ARM.Collect$$libshutdown$$00000004)
    .ARM.Collect$$libshutdown$$00000007      0x0007827e   Section        0  libshutdown2.o(.ARM.Collect$$libshutdown$$00000007)
    .ARM.Collect$$libshutdown$$0000000A      0x0007827e   Section        0  libshutdown2.o(.ARM.Collect$$libshutdown$$0000000A)
    .ARM.Collect$$libshutdown$$0000000C      0x0007827e   Section        0  libshutdown2.o(.ARM.Collect$$libshutdown$$0000000C)
    .ARM.Collect$$libshutdown$$0000000F      0x0007827e   Section        0  libshutdown2.o(.ARM.Collect$$libshutdown$$0000000F)
    .ARM.Collect$$libshutdown$$00000010      0x0007827e   Section        2  libshutdown2.o(.ARM.Collect$$libshutdown$$00000010)
    .ARM.Collect$$rtentry$$00000000          0x00078280   Section        0  __rtentry.o(.ARM.Collect$$rtentry$$00000000)
    .ARM.Collect$$rtentry$$00000002          0x00078280   Section        0  __rtentry2.o(.ARM.Collect$$rtentry$$00000002)
    .ARM.Collect$$rtentry$$00000004          0x00078280   Section        6  __rtentry4.o(.ARM.Collect$$rtentry$$00000004)
    .ARM.Collect$$rtentry$$00000009          0x00078286   Section        0  __rtentry2.o(.ARM.Collect$$rtentry$$00000009)
    .ARM.Collect$$rtentry$$0000000A          0x00078286   Section        4  __rtentry2.o(.ARM.Collect$$rtentry$$0000000A)
    .ARM.Collect$$rtentry$$0000000C          0x0007828a   Section        0  __rtentry2.o(.ARM.Collect$$rtentry$$0000000C)
    .ARM.Collect$$rtentry$$0000000D          0x0007828a   Section        8  __rtentry2.o(.ARM.Collect$$rtentry$$0000000D)
    .ARM.Collect$$rtexit$$00000000           0x00078292   Section        2  rtexit.o(.ARM.Collect$$rtexit$$00000000)
    .ARM.Collect$$rtexit$$00000002           0x00078294   Section        0  rtexit2.o(.ARM.Collect$$rtexit$$00000002)
    .ARM.Collect$$rtexit$$00000003           0x00078294   Section        4  rtexit2.o(.ARM.Collect$$rtexit$$00000003)
    .ARM.Collect$$rtexit$$00000004           0x00078298   Section        6  rtexit2.o(.ARM.Collect$$rtexit$$00000004)
    .emb_text                                0x000782a0   Section       52  bootloader_util.o(.emb_text)
    $v0                                      0x000782a0   Number         0  bootloader_util.o(.emb_text)
    .text                                    0x000782d4   Section        0  bootloader.o(.text)
    rx_cb                                    0x000783c7   Thumb Code    48  bootloader.o(.text)
    bl_evt_handler                           0x00078473   Thumb Code   572  bootloader.o(.text)
    NVIC_SetPendingIRQ                       0x00078881   Thumb Code    22  bootloader.o(.text)
    set_timeout                              0x00078897   Thumb Code    38  bootloader.o(.text)
    stop_timeout                             0x000788bd   Thumb Code    18  bootloader.o(.text)
    .text                                    0x000788dc   Section        0  bootloader_app_bridge.o(.text)
    .text                                    0x00078ad0   Section        0  bootloader_info.o(.text)
    info_entry_get                           0x00078ad1   Thumb Code    68  bootloader_info.o(.text)
    free_write_buffer                        0x00078b15   Thumb Code   114  bootloader_info.o(.text)
    place_head_after_entry                   0x00078b87   Thumb Code    50  bootloader_info.o(.text)
    get_write_buffer                         0x00078bb9   Thumb Code   132  bootloader_info.o(.text)
    copy_page_write_meta                     0x00078c3d   Thumb Code    28  bootloader_info.o(.text)
    copy_page_write_next_data                0x00078c59   Thumb Code   108  bootloader_info.o(.text)
    copy_page                                0x00078cc5   Thumb Code    42  bootloader_info.o(.text)
    entry_header_invalidate                  0x00078fe9   Thumb Code    28  bootloader_info.o(.text)
    bootloader_info_header_get               0x00079005   Thumb Code    26  bootloader_info.o(.text)
    bootloader_info_first_unused_get         0x0007901f   Thumb Code    22  bootloader_info.o(.text)
    copy_page_on_flash_op_end                0x00079035   Thumb Code    84  bootloader_info.o(.text)
    .text                                    0x00079094   Section        0  bootloader_rtc.o(.text)
    .text                                    0x0007910c   Section        0  bootloader_util.o(.text)
    .text                                    0x00079110   Section        0  dfu_bank.o(.text)
    flash_bank_entry_fw                      0x00079111   Thumb Code   326  dfu_bank.o(.text)
    flash_bank_entry                         0x00079257   Thumb Code   330  dfu_bank.o(.text)
    .text                                    0x00079454   Section        0  dfu_mesh.o(.text)
    get_info_pointers                        0x00079455   Thumb Code    98  dfu_mesh.o(.text)
    segment_count_from_start_packet          0x000794b7   Thumb Code    48  dfu_mesh.o(.text)
    packet_tx_dynamic                        0x000794e7   Thumb Code    64  dfu_mesh.o(.text)
    signature_check                          0x00079527   Thumb Code   148  dfu_mesh.o(.text)
    beacon_set                               0x000795bb   Thumb Code   244  dfu_mesh.o(.text)
    relay_packet                             0x000796af   Thumb Code    44  dfu_mesh.o(.text)
    start_req                                0x000796db   Thumb Code    66  dfu_mesh.o(.text)
    start_target                             0x0007971d   Thumb Code   434  dfu_mesh.o(.text)
    notify_state_packet                      0x000798cf   Thumb Code    56  dfu_mesh.o(.text)
    target_rx_start                          0x00079907   Thumb Code   276  dfu_mesh.o(.text)
    target_rx_data                           0x00079a1b   Thumb Code   204  dfu_mesh.o(.text)
    handle_data_packet                       0x00079ae7   Thumb Code   338  dfu_mesh.o(.text)
    handle_state_packet                      0x00079c39   Thumb Code   230  dfu_mesh.o(.text)
    handle_data_req_packet                   0x00079d1f   Thumb Code   222  dfu_mesh.o(.text)
    state_beacon_type                        0x0007a189   Thumb Code    28  dfu_mesh.o(.text)
    send_progress_event                      0x0007a1a5   Thumb Code    26  dfu_mesh.o(.text)
    send_bank_notifications                  0x0007a1bf   Thumb Code   122  dfu_mesh.o(.text)
    start_find_fwid                          0x0007a239   Thumb Code    26  dfu_mesh.o(.text)
    start_ready                              0x0007a253   Thumb Code    82  dfu_mesh.o(.text)
    request_missing_data                     0x0007a2a5   Thumb Code   138  dfu_mesh.o(.text)
    handle_fwid_packet                       0x0007a32f   Thumb Code   162  dfu_mesh.o(.text)
    .text                                    0x0007a3e0   Section        0  dfu_transfer_mesh.o(.text)
    segment_is_missing                       0x0007a3e1   Thumb Code    52  dfu_transfer_mesh.o(.text)
    transfer_abort                           0x0007a6a3   Thumb Code    12  dfu_transfer_mesh.o(.text)
    .text                                    0x0007a6b4   Section        0  dfu_util.o(.text)
    .text                                    0x0007a980   Section        0  fifo.o(.text)
    .text                                    0x0007aa9c   Section        0  main.o(.text)
    .text                                    0x0007ab2c   Section        0  mesh_packet.o(.text)
    .text                                    0x0007ac8c   Section        0  nrf_flash.o(.text)
    .text                                    0x0007ad5c   Section        0  radio_control.o(.text)
    setup_event                              0x0007ad7b   Thumb Code   162  radio_control.o(.text)
    NVIC_SetPendingIRQ                       0x0007b03b   Thumb Code    22  radio_control.o(.text)
    .text                                    0x0007b080   Section        0  rand.o(.text)
    .text                                    0x0007b110   Section        0  transport.o(.text)
    set_next_tx                              0x0007b111   Thumb Code   124  transport.o(.text)
    order_scan                               0x0007b18d   Thumb Code    52  transport.o(.text)
    radio_tx_cb                              0x0007b1df   Thumb Code    66  transport.o(.text)
    radio_rx_cb                              0x0007b221   Thumb Code    38  transport.o(.text)
    radio_idle_cb                            0x0007b247   Thumb Code    12  transport.o(.text)
    order_next_rtc                           0x0007b253   Thumb Code    92  transport.o(.text)
    NVIC_EnableIRQ                           0x0007b4c3   Thumb Code    22  transport.o(.text)
    NVIC_DisableIRQ                          0x0007b4d9   Thumb Code    22  transport.o(.text)
    NVIC_SetPriority                         0x0007b4ef   Thumb Code    68  transport.o(.text)
    .text                                    0x0007b534   Section        0  uECC.o(.text)
    vli_numBits                              0x0007b535   Thumb Code    50  uECC.o(.text)
    vli_add                                  0x0007b567   Thumb Code    50  uECC.o(.text)
    vli_sub                                  0x0007b599   Thumb Code    50  uECC.o(.text)
    muladd                                   0x0007b5cb   Thumb Code    42  uECC.o(.text)
    vli_mult                                 0x0007b5f5   Thumb Code   152  uECC.o(.text)
    vli_mmod_fast                            0x0007b68d   Thumb Code   398  uECC.o(.text)
    vli_modInv                               0x0007b81b   Thumb Code   286  uECC.o(.text)
    EccPoint_double_jacobian                 0x0007b939   Thumb Code   284  uECC.o(.text)
    apply_z                                  0x0007ba55   Thumb Code    52  uECC.o(.text)
    XYcZ_add                                 0x0007ba89   Thumb Code   166  uECC.o(.text)
    vli_modMult_n                            0x0007bb2f   Thumb Code   166  uECC.o(.text)
    vli_clear                                0x0007bdf1   Thumb Code    16  uECC.o(.text)
    vli_isZero                               0x0007be01   Thumb Code    22  uECC.o(.text)
    vli_testBit                              0x0007be17   Thumb Code    18  uECC.o(.text)
    vli_set                                  0x0007be29   Thumb Code    18  uECC.o(.text)
    vli_cmp                                  0x0007be3b   Thumb Code    38  uECC.o(.text)
    vli_rshift1                              0x0007be61   Thumb Code    28  uECC.o(.text)
    vli_modAdd                               0x0007be7d   Thumb Code    40  uECC.o(.text)
    vli_modSub                               0x0007bea5   Thumb Code    30  uECC.o(.text)
    vli_modMult_fast                         0x0007bec3   Thumb Code    24  uECC.o(.text)
    vli_bytesToNative                        0x0007bedb   Thumb Code    36  uECC.o(.text)
    .text                                    0x0007bf04   Section        0  sha256.o(.text)
    .text                                    0x0007c1e4   Section        0  serial_handler_uart.o(.text)
    schedule_transmit                        0x0007c3f9   Thumb Code    26  serial_handler_uart.o(.text)
    char_rx                                  0x0007c413   Thumb Code   124  serial_handler_uart.o(.text)
    NVIC_SetPendingIRQ                       0x0007c48f   Thumb Code    22  serial_handler_uart.o(.text)
    .text                                    0x0007c4c8   Section        0  mesh_aci.o(.text)
    error_code_translate                     0x0007c4c9   Thumb Code    58  mesh_aci.o(.text)
    serial_command_handler                   0x0007c503   Thumb Code   326  mesh_aci.o(.text)
    .text                                    0x0007c6c8   Section        0  system_nrf52833.o(.text)
    .text                                    0x0007c86c   Section       64  arm_startup_nrf52833.o(.text)
    $v0                                      0x0007c86c   Number         0  arm_startup_nrf52833.o(.text)
    .text                                    0x0007c8ac   Section      238  lludivv7m.o(.text)
    .text                                    0x0007c99a   Section       38  llshl.o(.text)
    .text                                    0x0007c9c0   Section        0  memcmp.o(.text)
    .text                                    0x0007ca18   Section      138  rt_memcpy_v6.o(.text)
    .text                                    0x0007caa2   Section      100  rt_memcpy_w.o(.text)
    .text                                    0x0007cb06   Section       16  aeabi_memset.o(.text)
    .text                                    0x0007cb16   Section       68  rt_memclr.o(.text)
    .text                                    0x0007cb5a   Section       78  rt_memclr_w.o(.text)
    .text                                    0x0007cba8   Section        0  heapauxi.o(.text)
    .text                                    0x0007cbae   Section       74  sys_stackheap_outer.o(.text)
    .text                                    0x0007cbf8   Section        0  exit.o(.text)
    .text                                    0x0007cc0c   Section        8  libspace.o(.text)
    .text                                    0x0007cc14   Section        0  sys_exit.o(.text)
    .text                                    0x0007cc20   Section        2  use_no_semi.o(.text)
    .text                                    0x0007cc22   Section        0  indicate_semi.o(.text)
    i.fifo_is_full                           0x0007cc22   Section        0  fifo.o(i.fifo_is_full)
    x$fpl$fpinit                             0x0007cc36   Section       10  fpinit.o(x$fpl$fpinit)
    $v0                                      0x0007cc36   Number         0  fpinit.o(x$fpl$fpinit)
    .constdata                               0x0007cc40   Section       16  bootloader.o(.constdata)
    .constdata                               0x0007cc50   Section       72  bootloader_app_bridge.o(.constdata)
    .constdata                               0x0007cc98   Section        4  bootloader_info.o(.constdata)
    m_invalid_header                         0x0007cc98   Data           4  bootloader_info.o(.constdata)
    .constdata                               0x0007cc9c   Section        6  dfu_mesh.o(.constdata)
    .constdata                               0x0007cca4   Section       12  radio_control.o(.constdata)
    .constdata                               0x0007ccb0   Section      144  uECC.o(.constdata)
    curve_p                                  0x0007ccb0   Data          32  uECC.o(.constdata)
    curve_G                                  0x0007ccd0   Data          64  uECC.o(.constdata)
    curve_n                                  0x0007cd10   Data          32  uECC.o(.constdata)
    .constdata                               0x0007cd40   Section      256  sha256.o(.constdata)
    k                                        0x0007cd40   Data         256  sha256.o(.constdata)
    .ARM.__AT_0x10001014                     0x10001014   Section        4  main.o(.ARM.__AT_0x10001014)
    .ARM.__AT_0x10001018                     0x10001018   Section        4  main.o(.ARM.__AT_0x10001018)
    .data                                    0x20000004   Section        2  bootloader.o(.data)
    m_go_to_app                              0x20000004   Data           1  bootloader.o(.data)
    m_timeout_action                         0x20000005   Data           1  bootloader.o(.data)
    .data                                    0x20000008   Section        4  nrf_flash.o(.data)
    buffer                                   0x20000008   Data           4  nrf_flash.o(.data)
    .data                                    0x2000000c   Section       20  radio_control.o(.data)
    m_radio_state                            0x2000000c   Data           1  radio_control.o(.data)
    m_alt_aa                                 0x20000010   Data           4  radio_control.o(.data)
    m_idle_cb                                0x20000014   Data           4  radio_control.o(.data)
    m_rx_cb                                  0x20000018   Data           4  radio_control.o(.data)
    m_tx_cb                                  0x2000001c   Data           4  radio_control.o(.data)
    .data                                    0x20000020   Section       12  transport.o(.data)
    m_running                                0x20000020   Data           1  transport.o(.data)
    m_rx_cb                                  0x20000024   Data           4  transport.o(.data)
    m_ticks_at_order_time                    0x20000028   Data           4  transport.o(.data)
    .data                                    0x2000002c   Section       16  serial_handler_uart.o(.data)
    m_serial_state                           0x2000002c   Data           1  serial_handler_uart.o(.data)
    m_suspend                                0x2000002d   Data           1  serial_handler_uart.o(.data)
    pp                                       0x20000030   Data           4  serial_handler_uart.o(.data)
    m_tx_len                                 0x20000034   Data           4  serial_handler_uart.o(.data)
    mp_tx_ptr                                0x20000038   Data           4  serial_handler_uart.o(.data)
    .data                                    0x2000003c   Section        4  system_nrf52833.o(.data)
    __tagsym$$used                           0x2000003c   Number         0  system_nrf52833.o(.data)
    .bss                                     0x20000040   Section      176  bootloader.o(.bss)
    rsp_cmd                                  0x20000040   Data          24  bootloader.o(.bss)
    m_flash_fifo                             0x20000058   Data          24  bootloader.o(.bss)
    m_flash_fifo_buf                         0x20000070   Data         128  bootloader.o(.bss)
    .bss                                     0x200000f0   Section     1312  mesh_packet.o(.bss)
    g_packet_pool                            0x200000f0   Data        1280  mesh_packet.o(.bss)
    g_packet_refs                            0x200005f0   Data          32  mesh_packet.o(.bss)
    .bss                                     0x20000610   Section       88  radio_control.o(.bss)
    m_radio_fifo                             0x20000610   Data          24  radio_control.o(.bss)
    m_radio_fifo_queue                       0x20000628   Data          64  radio_control.o(.bss)
    .bss                                     0x20000668   Section      296  transport.o(.bss)
    m_tx                                     0x20000668   Data         128  transport.o(.bss)
    m_rx_fifo                                0x200006e8   Data          24  transport.o(.bss)
    m_rx_fifo_buf                            0x20000700   Data         128  transport.o(.bss)
    m_prng                                   0x20000780   Data          16  transport.o(.bss)
    .bss                                     0x20000790   Section      439  serial_handler_uart.o(.bss)
    rx_buf                                   0x20000790   Data          39  serial_handler_uart.o(.bss)
    m_rx_fifo                                0x200007b8   Data          24  serial_handler_uart.o(.bss)
    m_tx_fifo                                0x200007d0   Data          24  serial_handler_uart.o(.bss)
    m_rx_fifo_buffer                         0x200007e8   Data         156  serial_handler_uart.o(.bss)
    m_tx_fifo_buffer                         0x20000884   Data         156  serial_handler_uart.o(.bss)
    m_tx_buffer                              0x20000920   Data          39  serial_handler_uart.o(.bss)
    .bss                                     0x20000948   Section       96  libspace.o(.bss)
    HEAP                                     0x200009a8   Section     1024  arm_startup_nrf52833.o(HEAP)
    Heap_Mem                                 0x200009a8   Data        1024  arm_startup_nrf52833.o(HEAP)
    STACK                                    0x20000da8   Section     8192  arm_startup_nrf52833.o(STACK)
    Stack_Mem                                0x20000da8   Data        8192  arm_startup_nrf52833.o(STACK)
    __initial_sp                             0x20002da8   Data           0  arm_startup_nrf52833.o(STACK)
    .data                                    0x2001fd00   Section        8  bootloader_app_bridge.o(.data)
    m_in_bl                                  0x2001fd00   Data           1  bootloader_app_bridge.o(.data)
    m_evt_handler                            0x2001fd04   Data           4  bootloader_app_bridge.o(.data)
    .data                                    0x2001fd08   Section       24  bootloader_info.o(.data)
    m_state                                  0x2001fd08   Data           1  bootloader_info.o(.data)
    m_write_in_progress                      0x2001fd09   Data           1  bootloader_info.o(.data)
    mp_bl_info_page                          0x2001fd0c   Data           4  bootloader_info.o(.data)
    mp_bl_info_bank_page                     0x2001fd10   Data           4  bootloader_info.o(.data)
    mp_info_entry_head                       0x2001fd14   Data           4  bootloader_info.o(.data)
    mp_info_entry_tail                       0x2001fd18   Data           4  bootloader_info.o(.data)
    mp_write_pos                             0x2001fd1c   Data           4  bootloader_info.o(.data)
    .data                                    0x2001fd20   Section        8  dfu_bank.o(.data)
    m_dfu_type                               0x2001fd20   Data           1  dfu_bank.o(.data)
    m_waiting_for_idle                       0x2001fd21   Data           1  dfu_bank.o(.data)
    mp_bank_entry                            0x2001fd24   Data           4  dfu_bank.o(.data)
    .data                                    0x2001fd28   Section        8  dfu_mesh.o(.data)
    m_state                                  0x2001fd28   Data           1  dfu_mesh.o(.data)
    tx_slot                                  0x2001fd29   Data           1  dfu_mesh.o(.data)
    m_req_index                              0x2001fd2a   Data           1  dfu_mesh.o(.data)
    m_tx_slots                               0x2001fd2b   Data           1  dfu_mesh.o(.data)
    m_lost_start_edge                        0x2001fd2c   Data           1  dfu_mesh.o(.data)
    m_data_req_segment                       0x2001fd2e   Data           2  dfu_mesh.o(.data)
    .data                                    0x2001fd30   Section        8  dfu_util.o(.data)
    m_tid_index                              0x2001fd30   Data           1  dfu_util.o(.data)
    m_packet_cache_index                     0x2001fd34   Data           4  dfu_util.o(.data)
    .bss                                     0x2001fd38   Section      156  bootloader_info.o(.bss)
    mp_info_entry_buffer                     0x2001fd38   Data         128  bootloader_info.o(.bss)
    m_info_copy                              0x2001fdb8   Data          28  bootloader_info.o(.bss)
    .bss                                     0x2001fdd4   Section      172  dfu_mesh.o(.bss)
    m_transaction                            0x2001fdd4   Data         116  dfu_mesh.o(.bss)
    m_bl_info_pointers                       0x2001fe48   Data          40  dfu_mesh.o(.bss)
    m_req_cache                              0x2001fe70   Data          16  dfu_mesh.o(.bss)
    .bss                                     0x2001fe80   Section       48  dfu_transfer_mesh.o(.bss)
    m_transfer                               0x2001fe80   Data          48  dfu_transfer_mesh.o(.bss)
    .bss                                     0x2001feb0   Section       96  dfu_util.o(.bss)
    m_tid_cache                              0x2001feb0   Data          32  dfu_util.o(.bss)
    m_packet_cache                           0x2001fed0   Data          64  dfu_util.o(.bss)

    Global Symbols

    Symbol Name                              Value     Ov Type        Size  Object(Section)

    BuildAttributes$$THM_ISAv4$E$P$D$K$B$S$7EM$VFPi3$EXTD16$VFPS$VFMA$PE$A:L22UL41UL21$X:L11$S22US41US21$IEEE1$IW$USESV6$~STKCKD$USESV7$~SHL$OSPACE$ROPI$EBA8$UX$STANDARDLIB$REQ8$PRES8$EABIv2 0x00000000   Number         0  anon$$obj.o ABSOLUTE
    __ARM_use_no_argv                        0x00000000   Number         0  main.o ABSOLUTE
    __ARM_exceptions_init                     - Undefined Weak Reference
    __alloca_initialize                       - Undefined Weak Reference
    __arm_preinit_                            - Undefined Weak Reference
    __cpp_initialize__aeabi_                  - Undefined Weak Reference
    __cxa_finalize                            - Undefined Weak Reference
    __rt_locale                               - Undefined Weak Reference
    __sigvec_lookup                           - Undefined Weak Reference
    _atexit_init                              - Undefined Weak Reference
    _call_atexit_fns                          - Undefined Weak Reference
    _clock_init                               - Undefined Weak Reference
    _fp_trap_init                             - Undefined Weak Reference
    _fp_trap_shutdown                         - Undefined Weak Reference
    _get_lc_collate                           - Undefined Weak Reference
    _get_lc_ctype                             - Undefined Weak Reference
    _get_lc_monetary                          - Undefined Weak Reference
    _get_lc_numeric                           - Undefined Weak Reference
    _get_lc_time                              - Undefined Weak Reference
    _getenv_init                              - Undefined Weak Reference
    _handle_redirection                       - Undefined Weak Reference
    _init_alloc                               - Undefined Weak Reference
    _init_user_alloc                          - Undefined Weak Reference
    _initio                                   - Undefined Weak Reference
    _rand_init                                - Undefined Weak Reference
    _signal_finish                            - Undefined Weak Reference
    _signal_init                              - Undefined Weak Reference
    _terminate_alloc                          - Undefined Weak Reference
    _terminate_user_alloc                     - Undefined Weak Reference
    _terminateio                              - Undefined Weak Reference
    __Vectors_Size                           0x00000200   Number         0  arm_startup_nrf52833.o ABSOLUTE
    __Vectors                                0x00078000   Data           4  arm_startup_nrf52833.o(RESET)
    __Vectors_End                            0x00078200   Data           0  arm_startup_nrf52833.o(RESET)
    __main                                   0x00078201   Thumb Code     8  __main.o(!!!main)
    __scatterload                            0x00078209   Thumb Code     0  __scatter.o(!!!scatter)
    __scatterload_rt2                        0x00078209   Thumb Code    44  __scatter.o(!!!scatter)
    __scatterload_rt2_thumb_only             0x00078209   Thumb Code     0  __scatter.o(!!!scatter)
    __scatterload_null                       0x00078217   Thumb Code     0  __scatter.o(!!!scatter)
    __scatterload_copy                       0x0007823d   Thumb Code    26  __scatter_copy.o(!!handler_copy)
    __scatterload_zeroinit                   0x00078259   Thumb Code    28  __scatter_zi.o(!!handler_zi)
    __rt_lib_init                            0x00078275   Thumb Code     0  libinit.o(.ARM.Collect$$libinit$$00000000)
    __rt_lib_init_fp_1                       0x00078277   Thumb Code     0  libinit2.o(.ARM.Collect$$libinit$$00000001)
    __rt_lib_init_alloca_1                   0x0007827b   Thumb Code     0  libinit2.o(.ARM.Collect$$libinit$$0000002E)
    __rt_lib_init_argv_1                     0x0007827b   Thumb Code     0  libinit2.o(.ARM.Collect$$libinit$$0000002C)
    __rt_lib_init_atexit_1                   0x0007827b   Thumb Code     0  libinit2.o(.ARM.Collect$$libinit$$0000001B)
    __rt_lib_init_clock_1                    0x0007827b   Thumb Code     0  libinit2.o(.ARM.Collect$$libinit$$00000021)
    __rt_lib_init_cpp_1                      0x0007827b   Thumb Code     0  libinit2.o(.ARM.Collect$$libinit$$00000032)
    __rt_lib_init_exceptions_1               0x0007827b   Thumb Code     0  libinit2.o(.ARM.Collect$$libinit$$00000030)
    __rt_lib_init_fp_trap_1                  0x0007827b   Thumb Code     0  libinit2.o(.ARM.Collect$$libinit$$0000001F)
    __rt_lib_init_getenv_1                   0x0007827b   Thumb Code     0  libinit2.o(.ARM.Collect$$libinit$$00000023)
    __rt_lib_init_heap_1                     0x0007827b   Thumb Code     0  libinit2.o(.ARM.Collect$$libinit$$0000000A)
    __rt_lib_init_lc_collate_1               0x0007827b   Thumb Code     0  libinit2.o(.ARM.Collect$$libinit$$00000011)
    __rt_lib_init_lc_ctype_1                 0x0007827b   Thumb Code     0  libinit2.o(.ARM.Collect$$libinit$$00000013)
    __rt_lib_init_lc_monetary_1              0x0007827b   Thumb Code     0  libinit2.o(.ARM.Collect$$libinit$$00000015)
    __rt_lib_init_lc_numeric_1               0x0007827b   Thumb Code     0  libinit2.o(.ARM.Collect$$libinit$$00000017)
    __rt_lib_init_lc_time_1                  0x0007827b   Thumb Code     0  libinit2.o(.ARM.Collect$$libinit$$00000019)
    __rt_lib_init_preinit_1                  0x0007827b   Thumb Code     0  libinit2.o(.ARM.Collect$$libinit$$00000004)
    __rt_lib_init_rand_1                     0x0007827b   Thumb Code     0  libinit2.o(.ARM.Collect$$libinit$$0000000E)
    __rt_lib_init_return                     0x0007827b   Thumb Code     0  libinit2.o(.ARM.Collect$$libinit$$00000033)
    __rt_lib_init_signal_1                   0x0007827b   Thumb Code     0  libinit2.o(.ARM.Collect$$libinit$$0000001D)
    __rt_lib_init_stdio_1                    0x0007827b   Thumb Code     0  libinit2.o(.ARM.Collect$$libinit$$00000025)
    __rt_lib_init_user_alloc_1               0x0007827b   Thumb Code     0  libinit2.o(.ARM.Collect$$libinit$$0000000C)
    __rt_lib_shutdown                        0x0007827d   Thumb Code     0  libshutdown.o(.ARM.Collect$$libshutdown$$00000000)
    __rt_lib_shutdown_cpp_1                  0x0007827f   Thumb Code     0  libshutdown2.o(.ARM.Collect$$libshutdown$$00000002)
    __rt_lib_shutdown_fp_trap_1              0x0007827f   Thumb Code     0  libshutdown2.o(.ARM.Collect$$libshutdown$$00000007)
    __rt_lib_shutdown_heap_1                 0x0007827f   Thumb Code     0  libshutdown2.o(.ARM.Collect$$libshutdown$$0000000F)
    __rt_lib_shutdown_return                 0x0007827f   Thumb Code     0  libshutdown2.o(.ARM.Collect$$libshutdown$$00000010)
    __rt_lib_shutdown_signal_1               0x0007827f   Thumb Code     0  libshutdown2.o(.ARM.Collect$$libshutdown$$0000000A)
    __rt_lib_shutdown_stdio_1                0x0007827f   Thumb Code     0  libshutdown2.o(.ARM.Collect$$libshutdown$$00000004)
    __rt_lib_shutdown_user_alloc_1           0x0007827f   Thumb Code     0  libshutdown2.o(.ARM.Collect$$libshutdown$$0000000C)
    __rt_entry                               0x00078281   Thumb Code     0  __rtentry.o(.ARM.Collect$$rtentry$$00000000)
    __rt_entry_presh_1                       0x00078281   Thumb Code     0  __rtentry2.o(.ARM.Collect$$rtentry$$00000002)
    __rt_entry_sh                            0x00078281   Thumb Code     0  __rtentry4.o(.ARM.Collect$$rtentry$$00000004)
    __rt_entry_li                            0x00078287   Thumb Code     0  __rtentry2.o(.ARM.Collect$$rtentry$$0000000A)
    __rt_entry_postsh_1                      0x00078287   Thumb Code     0  __rtentry2.o(.ARM.Collect$$rtentry$$00000009)
    __rt_entry_main                          0x0007828b   Thumb Code     0  __rtentry2.o(.ARM.Collect$$rtentry$$0000000D)
    __rt_entry_postli_1                      0x0007828b   Thumb Code     0  __rtentry2.o(.ARM.Collect$$rtentry$$0000000C)
    __rt_exit                                0x00078293   Thumb Code     0  rtexit.o(.ARM.Collect$$rtexit$$00000000)
    __rt_exit_ls                             0x00078295   Thumb Code     0  rtexit2.o(.ARM.Collect$$rtexit$$00000003)
    __rt_exit_prels_1                        0x00078295   Thumb Code     0  rtexit2.o(.ARM.Collect$$rtexit$$00000002)
    __rt_exit_exit                           0x00078299   Thumb Code     0  rtexit2.o(.ARM.Collect$$rtexit$$00000004)
    __asm___17_bootloader_util_c_c13d365c__bootloader_util_reset 0x000782a1   Thumb Code    52  bootloader_util.o(.emb_text)
    SWI2_EGU2_IRQHandler                     0x000782d5   Thumb Code     4  bootloader.o(.text)
    SWI3_EGU3_IRQHandler                     0x000782d9   Thumb Code   238  bootloader.o(.text)
    bootloader_abort                         0x000783f7   Thumb Code   120  bootloader.o(.text)
    bootloader_cmd_send                      0x0007846f   Thumb Code     4  bootloader.o(.text)
    bootloader_init                          0x000786af   Thumb Code   132  bootloader.o(.text)
    bootloader_enable                        0x00078733   Thumb Code   266  bootloader.o(.text)
    bootloader_timeout                       0x0007883d   Thumb Code    68  bootloader.o(.text)
    bl_cmd_handler                           0x000788dd   Thumb Code   320  bootloader_app_bridge.o(.text)
    bootloader_app_bridge_init               0x00078a1d   Thumb Code    30  bootloader_app_bridge.o(.text)
    bootloader_evt_send                      0x00078a3b   Thumb Code    12  bootloader_app_bridge.o(.text)
    send_end_evt                             0x00078a47   Thumb Code    24  bootloader_app_bridge.o(.text)
    flash_write                              0x00078a5f   Thumb Code    36  bootloader_app_bridge.o(.text)
    flash_erase                              0x00078a83   Thumb Code    32  bootloader_app_bridge.o(.text)
    tx_abort                                 0x00078aa3   Thumb Code    22  bootloader_app_bridge.o(.text)
    bootloader_is_in_application             0x00078ab9   Thumb Code    10  bootloader_app_bridge.o(.text)
    entry_invalidate                         0x00078cef   Thumb Code    56  bootloader_info.o(.text)
    entry_write                              0x00078d27   Thumb Code   104  bootloader_info.o(.text)
    bootloader_info_init                     0x00078d8f   Thumb Code   126  bootloader_info.o(.text)
    bootloader_info_entry_get                0x00078e0d   Thumb Code     8  bootloader_info.o(.text)
    bootloader_info_reset                    0x00078e15   Thumb Code    46  bootloader_info.o(.text)
    bootloader_info_entry_put                0x00078e43   Thumb Code   212  bootloader_info.o(.text)
    bootloader_info_entry_overwrite          0x00078f17   Thumb Code    44  bootloader_info.o(.text)
    bootloader_info_entry_invalidate         0x00078f43   Thumb Code     8  bootloader_info.o(.text)
    bootloader_info_stable                   0x00078f4b   Thumb Code    20  bootloader_info.o(.text)
    bootloader_info_on_flash_op_end          0x00078f5f   Thumb Code    88  bootloader_info.o(.text)
    bootloader_info_on_flash_idle            0x00078fb7   Thumb Code    50  bootloader_info.o(.text)
    RTC0_IRQHandler                          0x00079095   Thumb Code    66  bootloader_rtc.o(.text)
    rtc_init                                 0x000790d7   Thumb Code    42  bootloader_rtc.o(.text)
    bootloader_util_app_start                0x0007910d   Thumb Code     4  bootloader_util.o(.text)
    dfu_bank_scan                            0x000793a1   Thumb Code    60  dfu_bank.o(.text)
    dfu_bank_flash                           0x000793dd   Thumb Code    64  dfu_bank.o(.text)
    dfu_bank_on_flash_idle                   0x0007941d   Thumb Code    22  dfu_bank.o(.text)
    dfu_bank_transfer_in_progress            0x00079433   Thumb Code    12  dfu_bank.o(.text)
    dfu_mesh_init                            0x00079dfd   Thumb Code    42  dfu_mesh.o(.text)
    dfu_mesh_start                           0x00079e27   Thumb Code    60  dfu_mesh.o(.text)
    dfu_mesh_req                             0x00079e63   Thumb Code    44  dfu_mesh.o(.text)
    dfu_mesh_relay                           0x00079e8f   Thumb Code    54  dfu_mesh.o(.text)
    dfu_mesh_rx                              0x00079ec5   Thumb Code   110  dfu_mesh.o(.text)
    dfu_mesh_finalize                        0x00079f33   Thumb Code   304  dfu_mesh.o(.text)
    dfu_mesh_timeout                         0x0007a063   Thumb Code    76  dfu_mesh.o(.text)
    dfu_mesh_missing_type_get                0x0007a0af   Thumb Code    76  dfu_mesh.o(.text)
    dfu_mesh_app_is_valid                    0x0007a0fb   Thumb Code    64  dfu_mesh.o(.text)
    dfu_mesh_restart                         0x0007a13b   Thumb Code     4  dfu_mesh.o(.text)
    dfu_mesh_on_flash_idle                   0x0007a13f   Thumb Code    74  dfu_mesh.o(.text)
    dfu_transfer_init                        0x0007a415   Thumb Code    20  dfu_transfer_mesh.o(.text)
    dfu_transfer_start                       0x0007a429   Thumb Code   108  dfu_transfer_mesh.o(.text)
    dfu_transfer_data                        0x0007a495   Thumb Code   280  dfu_transfer_mesh.o(.text)
    dfu_transfer_has_entry                   0x0007a5ad   Thumb Code   100  dfu_transfer_mesh.o(.text)
    dfu_transfer_get_oldest_missing_entry    0x0007a611   Thumb Code   102  dfu_transfer_mesh.o(.text)
    dfu_transfer_sha256                      0x0007a677   Thumb Code    24  dfu_transfer_mesh.o(.text)
    dfu_transfer_end                         0x0007a68f   Thumb Code     2  dfu_transfer_mesh.o(.text)
    dfu_transfer_flash_write_complete        0x0007a691   Thumb Code    18  dfu_transfer_mesh.o(.text)
    fwid_union_cpy                           0x0007a6b5   Thumb Code    32  dfu_util.o(.text)
    fwid_union_cmp                           0x0007a6d5   Thumb Code    40  dfu_util.o(.text)
    fwid_union_id_cmp                        0x0007a6fd   Thumb Code    48  dfu_util.o(.text)
    fwid_union_version_cmp                   0x0007a72d   Thumb Code    40  dfu_util.o(.text)
    tid_cache_has_entry                      0x0007a755   Thumb Code    26  dfu_util.o(.text)
    ready_packet_matches_our_req             0x0007a76f   Thumb Code    66  dfu_util.o(.text)
    addr_from_seg                            0x0007a7b1   Thumb Code    20  dfu_util.o(.text)
    is_upgrade                               0x0007a7c5   Thumb Code   120  dfu_util.o(.text)
    app_is_newer                             0x0007a83d   Thumb Code    46  dfu_util.o(.text)
    bootloader_is_newer                      0x0007a86b   Thumb Code    36  dfu_util.o(.text)
    fw_is_verified                           0x0007a88f   Thumb Code    32  dfu_util.o(.text)
    tid_cache_entry_put                      0x0007a8af   Thumb Code    22  dfu_util.o(.text)
    packet_in_cache                          0x0007a8c5   Thumb Code    44  dfu_util.o(.text)
    packet_cache_put                         0x0007a8f1   Thumb Code    34  dfu_util.o(.text)
    packet_cache_flush                       0x0007a913   Thumb Code    20  dfu_util.o(.text)
    section_overlap                          0x0007a927   Thumb Code    28  dfu_util.o(.text)
    interrupts_disable                       0x0007a943   Thumb Code    52  dfu_util.o(.text)
    fifo_init                                0x0007a981   Thumb Code    28  fifo.o(.text)
    fifo_push                                0x0007a99d   Thumb Code    80  fifo.o(.text)
    fifo_pop                                 0x0007a9ed   Thumb Code    76  fifo.o(.text)
    fifo_get_len                             0x0007aa39   Thumb Code     8  fifo.o(.text)
    fifo_peek_at                             0x0007aa41   Thumb Code    72  fifo.o(.text)
    fifo_peek                                0x0007aa89   Thumb Code     4  fifo.o(.text)
    fifo_is_empty                            0x0007aa8d   Thumb Code    16  fifo.o(.text)
    app_error_handler_bare                   0x0007aa9d   Thumb Code     6  main.o(.text)
    HardFault_Handler                        0x0007aaa3   Thumb Code     6  main.o(.text)
    main                                     0x0007aaa9   Thumb Code   120  main.o(.text)
    mesh_packet_init                         0x0007ab2d   Thumb Code    16  mesh_packet.o(.text)
    mesh_packet_acquire                      0x0007ab3d   Thumb Code    60  mesh_packet.o(.text)
    mesh_packet_ref_count_inc                0x0007ab79   Thumb Code    60  mesh_packet.o(.text)
    mesh_packet_ref_count_dec                0x0007abb5   Thumb Code    66  mesh_packet.o(.text)
    mesh_packet_ref_count_get                0x0007abf7   Thumb Code    24  mesh_packet.o(.text)
    mesh_packet_set_local_addr               0x0007ac0f   Thumb Code    34  mesh_packet.o(.text)
    mesh_packet_adv_data_get                 0x0007ac31   Thumb Code    78  mesh_packet.o(.text)
    nrf_flash_erase                          0x0007ac8d   Thumb Code    88  nrf_flash.o(.text)
    nrf_flash_store                          0x0007ace5   Thumb Code   108  nrf_flash.o(.text)
    radio_disable                            0x0007ad5d   Thumb Code    30  radio_control.o(.text)
    radio_init                               0x0007ae1d   Thumb Code   244  radio_control.o(.text)
    radio_order                              0x0007af11   Thumb Code    68  radio_control.o(.text)
    radio_event_handler                      0x0007af55   Thumb Code   230  radio_control.o(.text)
    rand_prng_get                            0x0007b081   Thumb Code    36  rand.o(.text)
    rand_hw_rng_get                          0x0007b0a5   Thumb Code    44  rand.o(.text)
    rand_prng_seed                           0x0007b0d1   Thumb Code    50  rand.o(.text)
    transport_tx_evt_get                     0x0007b1c1   Thumb Code    30  transport.o(.text)
    transport_start                          0x0007b2af   Thumb Code    16  transport.o(.text)
    SWI0_EGU0_IRQHandler                     0x0007b2bf   Thumb Code    64  transport.o(.text)
    RADIO_IRQHandler                         0x0007b2ff   Thumb Code     4  transport.o(.text)
    timeslot_is_in_ts                        0x0007b303   Thumb Code     4  transport.o(.text)
    transport_init                           0x0007b307   Thumb Code    96  transport.o(.text)
    transport_tx                             0x0007b367   Thumb Code    96  transport.o(.text)
    transport_tx_abort                       0x0007b3c7   Thumb Code    50  transport.o(.text)
    transport_rtc_irq_handler                0x0007b3f9   Thumb Code   178  transport.o(.text)
    transport_tx_evt_set                     0x0007b4ab   Thumb Code    24  transport.o(.text)
    uECC_verify                              0x0007bbd5   Thumb Code   540  uECC.o(.text)
    sha256_transform                         0x0007bf05   Thumb Code   294  sha256.o(.text)
    sha256_init                              0x0007c02b   Thumb Code    50  sha256.o(.text)
    sha256_update                            0x0007c05d   Thumb Code    84  sha256.o(.text)
    sha256_final                             0x0007c0b1   Thumb Code   272  sha256.o(.text)
    SWI1_EGU1_IRQHandler                     0x0007c1e5   Thumb Code    48  serial_handler_uart.o(.text)
    serial_handler_event_send                0x0007c215   Thumb Code    62  serial_handler_uart.o(.text)
    UARTE0_UART0_IRQHandler                  0x0007c253   Thumb Code   104  serial_handler_uart.o(.text)
    serial_handler_init                      0x0007c2bb   Thumb Code   174  serial_handler_uart.o(.text)
    serial_handler_credit_available          0x0007c369   Thumb Code     8  serial_handler_uart.o(.text)
    serial_wait_for_completion               0x0007c371   Thumb Code    40  serial_handler_uart.o(.text)
    serial_handler_command_get               0x0007c399   Thumb Code    62  serial_handler_uart.o(.text)
    serial_handler_uart_disable              0x0007c3d7   Thumb Code    34  serial_handler_uart.o(.text)
    mesh_aci_init                            0x0007c649   Thumb Code    24  mesh_aci.o(.text)
    mesh_aci_start                           0x0007c661   Thumb Code    60  mesh_aci.o(.text)
    mesh_aci_command_check                   0x0007c69d   Thumb Code    24  mesh_aci.o(.text)
    SystemCoreClockUpdate                    0x0007c6c9   Thumb Code     8  system_nrf52833.o(.text)
    SystemInit                               0x0007c6d1   Thumb Code   372  system_nrf52833.o(.text)
    Reset_Handler                            0x0007c86d   Thumb Code     8  arm_startup_nrf52833.o(.text)
    NMI_Handler                              0x0007c875   Thumb Code     2  arm_startup_nrf52833.o(.text)
    MemoryManagement_Handler                 0x0007c879   Thumb Code     2  arm_startup_nrf52833.o(.text)
    BusFault_Handler                         0x0007c87b   Thumb Code     2  arm_startup_nrf52833.o(.text)
    UsageFault_Handler                       0x0007c87d   Thumb Code     2  arm_startup_nrf52833.o(.text)
    SVC_Handler                              0x0007c87f   Thumb Code     2  arm_startup_nrf52833.o(.text)
    DebugMon_Handler                         0x0007c881   Thumb Code     2  arm_startup_nrf52833.o(.text)
    PendSV_Handler                           0x0007c883   Thumb Code     2  arm_startup_nrf52833.o(.text)
    SysTick_Handler                          0x0007c885   Thumb Code     2  arm_startup_nrf52833.o(.text)
    CCM_AAR_IRQHandler                       0x0007c887   Thumb Code     0  arm_startup_nrf52833.o(.text)
    COMP_LPCOMP_IRQHandler                   0x0007c887   Thumb Code     0  arm_startup_nrf52833.o(.text)
    ECB_IRQHandler                           0x0007c887   Thumb Code     0  arm_startup_nrf52833.o(.text)
    FPU_IRQHandler                           0x0007c887   Thumb Code     0  arm_startup_nrf52833.o(.text)
    GPIOTE_IRQHandler                        0x0007c887   Thumb Code     0  arm_startup_nrf52833.o(.text)
    I2S_IRQHandler                           0x0007c887   Thumb Code     0  arm_startup_nrf52833.o(.text)
    MWU_IRQHandler                           0x0007c887   Thumb Code     0  arm_startup_nrf52833.o(.text)
    NFCT_IRQHandler                          0x0007c887   Thumb Code     0  arm_startup_nrf52833.o(.text)
    PDM_IRQHandler                           0x0007c887   Thumb Code     0  arm_startup_nrf52833.o(.text)
    POWER_CLOCK_IRQHandler                   0x0007c887   Thumb Code     0  arm_startup_nrf52833.o(.text)
    PWM0_IRQHandler                          0x0007c887   Thumb Code     0  arm_startup_nrf52833.o(.text)
    PWM1_IRQHandler                          0x0007c887   Thumb Code     0  arm_startup_nrf52833.o(.text)
    PWM2_IRQHandler                          0x0007c887   Thumb Code     0  arm_startup_nrf52833.o(.text)
    PWM3_IRQHandler                          0x0007c887   Thumb Code     0  arm_startup_nrf52833.o(.text)
    QDEC_IRQHandler                          0x0007c887   Thumb Code     0  arm_startup_nrf52833.o(.text)
    RNG_IRQHandler                           0x0007c887   Thumb Code     0  arm_startup_nrf52833.o(.text)
    RTC1_IRQHandler                          0x0007c887   Thumb Code     0  arm_startup_nrf52833.o(.text)
    RTC2_IRQHandler                          0x0007c887   Thumb Code     0  arm_startup_nrf52833.o(.text)
    SAADC_IRQHandler                         0x0007c887   Thumb Code     0  arm_startup_nrf52833.o(.text)
    SPIM0_SPIS0_TWIM0_TWIS0_SPI0_TWI0_IRQHandler 0x0007c887   Thumb Code     0  arm_startup_nrf52833.o(.text)
    SPIM1_SPIS1_TWIM1_TWIS1_SPI1_TWI1_IRQHandler 0x0007c887   Thumb Code     0  arm_startup_nrf52833.o(.text)
    SPIM2_SPIS2_SPI2_IRQHandler              0x0007c887   Thumb Code     0  arm_startup_nrf52833.o(.text)
    SPIM3_IRQHandler                         0x0007c887   Thumb Code     0  arm_startup_nrf52833.o(.text)
    SWI4_EGU4_IRQHandler                     0x0007c887   Thumb Code     0  arm_startup_nrf52833.o(.text)
    SWI5_EGU5_IRQHandler                     0x0007c887   Thumb Code     0  arm_startup_nrf52833.o(.text)
    TEMP_IRQHandler                          0x0007c887   Thumb Code     0  arm_startup_nrf52833.o(.text)
    TIMER0_IRQHandler                        0x0007c887   Thumb Code     0  arm_startup_nrf52833.o(.text)
    TIMER1_IRQHandler                        0x0007c887   Thumb Code     0  arm_startup_nrf52833.o(.text)
    TIMER2_IRQHandler                        0x0007c887   Thumb Code     0  arm_startup_nrf52833.o(.text)
    TIMER3_IRQHandler                        0x0007c887   Thumb Code     0  arm_startup_nrf52833.o(.text)
    TIMER4_IRQHandler                        0x0007c887   Thumb Code     0  arm_startup_nrf52833.o(.text)
    UARTE1_IRQHandler                        0x0007c887   Thumb Code     0  arm_startup_nrf52833.o(.text)
    USBD_IRQHandler                          0x0007c887   Thumb Code     0  arm_startup_nrf52833.o(.text)
    WDT_IRQHandler                           0x0007c887   Thumb Code     0  arm_startup_nrf52833.o(.text)
    __user_initial_stackheap                 0x0007c889   Thumb Code    10  arm_startup_nrf52833.o(.text)
    __aeabi_uldivmod                         0x0007c8ad   Thumb Code     0  lludivv7m.o(.text)
    _ll_udiv                                 0x0007c8ad   Thumb Code   238  lludivv7m.o(.text)
    __aeabi_llsl                             0x0007c99b   Thumb Code     0  llshl.o(.text)
    _ll_shift_l                              0x0007c99b   Thumb Code    38  llshl.o(.text)
    memcmp                                   0x0007c9c1   Thumb Code    88  memcmp.o(.text)
    __aeabi_memcpy                           0x0007ca19   Thumb Code     0  rt_memcpy_v6.o(.text)
    __rt_memcpy                              0x0007ca19   Thumb Code   138  rt_memcpy_v6.o(.text)
    _memcpy_lastbytes                        0x0007ca7f   Thumb Code     0  rt_memcpy_v6.o(.text)
    __aeabi_memcpy4                          0x0007caa3   Thumb Code     0  rt_memcpy_w.o(.text)
    __aeabi_memcpy8                          0x0007caa3   Thumb Code     0  rt_memcpy_w.o(.text)
    __rt_memcpy_w                            0x0007caa3   Thumb Code   100  rt_memcpy_w.o(.text)
    _memcpy_lastbytes_aligned                0x0007caeb   Thumb Code     0  rt_memcpy_w.o(.text)
    __aeabi_memset                           0x0007cb07   Thumb Code    16  aeabi_memset.o(.text)
    __aeabi_memclr                           0x0007cb17   Thumb Code     0  rt_memclr.o(.text)
    __rt_memclr                              0x0007cb17   Thumb Code    68  rt_memclr.o(.text)
    _memset                                  0x0007cb1b   Thumb Code     0  rt_memclr.o(.text)
    __aeabi_memclr4                          0x0007cb5b   Thumb Code     0  rt_memclr_w.o(.text)
    __aeabi_memclr8                          0x0007cb5b   Thumb Code     0  rt_memclr_w.o(.text)
    __rt_memclr_w                            0x0007cb5b   Thumb Code    78  rt_memclr_w.o(.text)
    _memset_w                                0x0007cb5f   Thumb Code     0  rt_memclr_w.o(.text)
    __use_two_region_memory                  0x0007cba9   Thumb Code     2  heapauxi.o(.text)
    __rt_heap_escrow$2region                 0x0007cbab   Thumb Code     2  heapauxi.o(.text)
    __rt_heap_expand$2region                 0x0007cbad   Thumb Code     2  heapauxi.o(.text)
    __user_setup_stackheap                   0x0007cbaf   Thumb Code    74  sys_stackheap_outer.o(.text)
    exit                                     0x0007cbf9   Thumb Code    18  exit.o(.text)
    __user_libspace                          0x0007cc0d   Thumb Code     8  libspace.o(.text)
    __user_perproc_libspace                  0x0007cc0d   Thumb Code     0  libspace.o(.text)
    __user_perthread_libspace                0x0007cc0d   Thumb Code     0  libspace.o(.text)
    _sys_exit                                0x0007cc15   Thumb Code     8  sys_exit.o(.text)
    __I$use$semihosting                      0x0007cc21   Thumb Code     0  use_no_semi.o(.text)
    __use_no_semihosting_swi                 0x0007cc21   Thumb Code     2  use_no_semi.o(.text)
    __semihosting_library_function           0x0007cc23   Thumb Code     0  indicate_semi.o(.text)
    fifo_is_full                             0x0007cc23   Thumb Code    20  fifo.o(i.fifo_is_full)
    _fp_init                                 0x0007cc37   Thumb Code    10  fpinit.o(x$fpl$fpinit)
    __fplib_config_fpu_vfp                   0x0007cc3f   Thumb Code     0  fpinit.o(x$fpl$fpinit)
    __fplib_config_pureend_doubles           0x0007cc3f   Thumb Code     0  fpinit.o(x$fpl$fpinit)
    Region$$Table$$Base                      0x0007ce40   Number         0  anon$$obj.o(Region$$Table)
    Region$$Table$$Limit                     0x0007ce80   Number         0  anon$$obj.o(Region$$Table)
    m_uicr_bootloader_start_address          0x10001014   Data           4  main.o(.ARM.__AT_0x10001014)
    m_uicr_bootloader_mbrparam_address       0x10001018   Data           4  main.o(.ARM.__AT_0x10001018)
    m_tx_evt_bitfield                        0x20000022   Data           2  transport.o(.data)
    SystemCoreClock                          0x2000003c   Data           4  system_nrf52833.o(.data)
    __libspace_start                         0x20000948   Data          96  libspace.o(.bss)
    __temporary_stack_top$libspace           0x200009a8   Data           0  libspace.o(.bss)



==============================================================================

Memory Map of the image

  Image Entry point : 0x00078201

  Load Region LR_IROM1 (Base: 0x00078000, Size: 0x00004ef4, Max: 0x00006000, ABSOLUTE)

    Execution Region ER_IROM1 (Base: 0x00078000, Size: 0x00004e80, Max: 0x00006000, ABSOLUTE)

    Base Addr    Size         Type   Attr      Idx    E Section Name        Object

    0x00078000   0x00000200   Data   RO         1076    RESET               arm_startup_nrf52833.o
    0x00078200   0x00000008   Code   RO         1099  * !!!main             c_w.l(__main.o)
    0x00078208   0x00000034   Code   RO         1266    !!!scatter          c_w.l(__scatter.o)
    0x0007823c   0x0000001a   Code   RO         1268    !!handler_copy      c_w.l(__scatter_copy.o)
    0x00078256   0x00000002   PAD
    0x00078258   0x0000001c   Code   RO         1270    !!handler_zi        c_w.l(__scatter_zi.o)
    0x00078274   0x00000002   Code   RO         1136    .ARM.Collect$$libinit$$00000000  c_w.l(libinit.o)
    0x00078276   0x00000004   Code   RO         1148    .ARM.Collect$$libinit$$00000001  c_w.l(libinit2.o)
    0x0007827a   0x00000000   Code   RO         1151    .ARM.Collect$$libinit$$00000004  c_w.l(libinit2.o)
    0x0007827a   0x00000000   Code   RO         1154    .ARM.Collect$$libinit$$0000000A  c_w.l(libinit2.o)
    0x0007827a   0x00000000   Code   RO         1156    .ARM.Collect$$libinit$$0000000C  c_w.l(libinit2.o)
    0x0007827a   0x00000000   Code   RO         1158    .ARM.Collect$$libinit$$0000000E  c_w.l(libinit2.o)
    0x0007827a   0x00000000   Code   RO         1161    .ARM.Collect$$libinit$$00000011  c_w.l(libinit2.o)
    0x0007827a   0x00000000   Code   RO         1163    .ARM.Collect$$libinit$$00000013  c_w.l(libinit2.o)
    0x0007827a   0x00000000   Code   RO         1165    .ARM.Collect$$libinit$$00000015  c_w.l(libinit2.o)
    0x0007827a   0x00000000   Code   RO         1167    .ARM.Collect$$libinit$$00000017  c_w.l(libinit2.o)
    0x0007827a   0x00000000   Code   RO         1169    .ARM.Collect$$libinit$$00000019  c_w.l(libinit2.o)
    0x0007827a   0x00000000   Code   RO         1171    .ARM.Collect$$libinit$$0000001B  c_w.l(libinit2.o)
    0x0007827a   0x00000000   Code   RO         1173    .ARM.Collect$$libinit$$0000001D  c_w.l(libinit2.o)
    0x0007827a   0x00000000   Code   RO         1175    .ARM.Collect$$libinit$$0000001F  c_w.l(libinit2.o)
    0x0007827a   0x00000000   Code   RO         1177    .ARM.Collect$$libinit$$00000021  c_w.l(libinit2.o)
    0x0007827a   0x00000000   Code   RO         1179    .ARM.Collect$$libinit$$00000023  c_w.l(libinit2.o)
    0x0007827a   0x00000000   Code   RO         1181    .ARM.Collect$$libinit$$00000025  c_w.l(libinit2.o)
    0x0007827a   0x00000000   Code   RO         1185    .ARM.Collect$$libinit$$0000002C  c_w.l(libinit2.o)
    0x0007827a   0x00000000   Code   RO         1187    .ARM.Collect$$libinit$$0000002E  c_w.l(libinit2.o)
    0x0007827a   0x00000000   Code   RO         1189    .ARM.Collect$$libinit$$00000030  c_w.l(libinit2.o)
    0x0007827a   0x00000000   Code   RO         1191    .ARM.Collect$$libinit$$00000032  c_w.l(libinit2.o)
    0x0007827a   0x00000002   Code   RO         1192    .ARM.Collect$$libinit$$00000033  c_w.l(libinit2.o)
    0x0007827c   0x00000002   Code   RO         1223    .ARM.Collect$$libshutdown$$00000000  c_w.l(libshutdown.o)
    0x0007827e   0x00000000   Code   RO         1249    .ARM.Collect$$libshutdown$$00000002  c_w.l(libshutdown2.o)
    0x0007827e   0x00000000   Code   RO         1251    .ARM.Collect$$libshutdown$$00000004  c_w.l(libshutdown2.o)
    0x0007827e   0x00000000   Code   RO         1254    .ARM.Collect$$libshutdown$$00000007  c_w.l(libshutdown2.o)
    0x0007827e   0x00000000   Code   RO         1257    .ARM.Collect$$libshutdown$$0000000A  c_w.l(libshutdown2.o)
    0x0007827e   0x00000000   Code   RO         1259    .ARM.Collect$$libshutdown$$0000000C  c_w.l(libshutdown2.o)
    0x0007827e   0x00000000   Code   RO         1262    .ARM.Collect$$libshutdown$$0000000F  c_w.l(libshutdown2.o)
    0x0007827e   0x00000002   Code   RO         1263    .ARM.Collect$$libshutdown$$00000010  c_w.l(libshutdown2.o)
    0x00078280   0x00000000   Code   RO         1101    .ARM.Collect$$rtentry$$00000000  c_w.l(__rtentry.o)
    0x00078280   0x00000000   Code   RO         1107    .ARM.Collect$$rtentry$$00000002  c_w.l(__rtentry2.o)
    0x00078280   0x00000006   Code   RO         1119    .ARM.Collect$$rtentry$$00000004  c_w.l(__rtentry4.o)
    0x00078286   0x00000000   Code   RO         1109    .ARM.Collect$$rtentry$$00000009  c_w.l(__rtentry2.o)
    0x00078286   0x00000004   Code   RO         1110    .ARM.Collect$$rtentry$$0000000A  c_w.l(__rtentry2.o)
    0x0007828a   0x00000000   Code   RO         1112    .ARM.Collect$$rtentry$$0000000C  c_w.l(__rtentry2.o)
    0x0007828a   0x00000008   Code   RO         1113    .ARM.Collect$$rtentry$$0000000D  c_w.l(__rtentry2.o)
    0x00078292   0x00000002   Code   RO         1140    .ARM.Collect$$rtexit$$00000000  c_w.l(rtexit.o)
    0x00078294   0x00000000   Code   RO         1196    .ARM.Collect$$rtexit$$00000002  c_w.l(rtexit2.o)
    0x00078294   0x00000004   Code   RO         1197    .ARM.Collect$$rtexit$$00000003  c_w.l(rtexit2.o)
    0x00078298   0x00000006   Code   RO         1198    .ARM.Collect$$rtexit$$00000004  c_w.l(rtexit2.o)
    0x0007829e   0x00000002   PAD
    0x000782a0   0x00000034   Code   RO          430    .emb_text           bootloader_util.o
    0x000782d4   0x00000608   Code   RO            4    .text               bootloader.o
    0x000788dc   0x000001f4   Code   RO          292    .text               bootloader_app_bridge.o
    0x00078ad0   0x000005c4   Code   RO          354    .text               bootloader_info.o
    0x00079094   0x00000078   Code   RO          402    .text               bootloader_rtc.o
    0x0007910c   0x00000004   Code   RO          431    .text               bootloader_util.o
    0x00079110   0x00000344   Code   RO          449    .text               dfu_bank.o
    0x00079454   0x00000f8c   Code   RO          489    .text               dfu_mesh.o
    0x0007a3e0   0x000002d4   Code   RO          521    .text               dfu_transfer_mesh.o
    0x0007a6b4   0x000002cc   Code   RO          548    .text               dfu_util.o
    0x0007a980   0x0000011c   Code   RO          580    .text               fifo.o
    0x0007aa9c   0x00000090   Code   RO          624    .text               main.o
    0x0007ab2c   0x00000160   Code   RO          663    .text               mesh_packet.o
    0x0007ac8c   0x000000d0   Code   RO          732    .text               nrf_flash.o
    0x0007ad5c   0x00000324   Code   RO          757    .text               radio_control.o
    0x0007b080   0x00000090   Code   RO          805    .text               rand.o
    0x0007b110   0x00000422   Code   RO          832    .text               transport.o
    0x0007b532   0x00000002   PAD
    0x0007b534   0x000009d0   Code   RO          884    .text               uECC.o
    0x0007bf04   0x000002e0   Code   RO          901    .text               sha256.o
    0x0007c1e4   0x000002e4   Code   RO          948    .text               serial_handler_uart.o
    0x0007c4c8   0x00000200   Code   RO          984    .text               mesh_aci.o
    0x0007c6c8   0x000001a4   Code   RO         1021    .text               system_nrf52833.o
    0x0007c86c   0x00000040   Code   RO         1077    .text               arm_startup_nrf52833.o
    0x0007c8ac   0x000000ee   Code   RO         1081    .text               c_w.l(lludivv7m.o)
    0x0007c99a   0x00000026   Code   RO         1083    .text               c_w.l(llshl.o)
    0x0007c9c0   0x00000058   Code   RO         1085    .text               c_w.l(memcmp.o)
    0x0007ca18   0x0000008a   Code   RO         1087    .text               c_w.l(rt_memcpy_v6.o)
    0x0007caa2   0x00000064   Code   RO         1089    .text               c_w.l(rt_memcpy_w.o)
    0x0007cb06   0x00000010   Code   RO         1091    .text               c_w.l(aeabi_memset.o)
    0x0007cb16   0x00000044   Code   RO         1093    .text               c_w.l(rt_memclr.o)
    0x0007cb5a   0x0000004e   Code   RO         1095    .text               c_w.l(rt_memclr_w.o)
    0x0007cba8   0x00000006   Code   RO         1097    .text               c_w.l(heapauxi.o)
    0x0007cbae   0x0000004a   Code   RO         1123    .text               c_w.l(sys_stackheap_outer.o)
    0x0007cbf8   0x00000012   Code   RO         1125    .text               c_w.l(exit.o)
    0x0007cc0a   0x00000002   PAD
    0x0007cc0c   0x00000008   Code   RO         1137    .text               c_w.l(libspace.o)
    0x0007cc14   0x0000000c   Code   RO         1193    .text               c_w.l(sys_exit.o)
    0x0007cc20   0x00000002   Code   RO         1212    .text               c_w.l(use_no_semi.o)
    0x0007cc22   0x00000000   Code   RO         1214    .text               c_w.l(indicate_semi.o)
    0x0007cc22   0x00000014   Code   RO          604    i.fifo_is_full      fifo.o
    0x0007cc36   0x0000000a   Code   RO         1208    x$fpl$fpinit        fz_wm.l(fpinit.o)
    0x0007cc40   0x00000010   Data   RO            6    .constdata          bootloader.o
    0x0007cc50   0x00000048   Data   RO          296    .constdata          bootloader_app_bridge.o
    0x0007cc98   0x00000004   Data   RO          358    .constdata          bootloader_info.o
    0x0007cc9c   0x00000006   Data   RO          491    .constdata          dfu_mesh.o
    0x0007cca2   0x00000002   PAD
    0x0007cca4   0x0000000c   Data   RO          760    .constdata          radio_control.o
    0x0007ccb0   0x00000090   Data   RO          885    .constdata          uECC.o
    0x0007cd40   0x00000100   Data   RO          902    .constdata          sha256.o
    0x0007ce40   0x00000040   Data   RO         1264    Region$$Table       anon$$obj.o


    Execution Region RW_IRAM1 (Base: 0x20000004, Size: 0x00002da4, Max: 0x0001fcfc, ABSOLUTE)

    Base Addr    Size         Type   Attr      Idx    E Section Name        Object

    0x20000004   0x00000002   Data   RW            7    .data               bootloader.o
    0x20000006   0x00000002   PAD
    0x20000008   0x00000004   Data   RW          733    .data               nrf_flash.o
    0x2000000c   0x00000014   Data   RW          761    .data               radio_control.o
    0x20000020   0x0000000c   Data   RW          836    .data               transport.o
    0x2000002c   0x00000010   Data   RW          950    .data               serial_handler_uart.o
    0x2000003c   0x00000004   Data   RW         1022    .data               system_nrf52833.o
    0x20000040   0x000000b0   Zero   RW            5    .bss                bootloader.o
    0x200000f0   0x00000520   Zero   RW          671    .bss                mesh_packet.o
    0x20000610   0x00000058   Zero   RW          759    .bss                radio_control.o
    0x20000668   0x00000128   Zero   RW          835    .bss                transport.o
    0x20000790   0x000001b7   Zero   RW          949    .bss                serial_handler_uart.o
    0x20000947   0x00000001   PAD
    0x20000948   0x00000060   Zero   RW         1138    .bss                c_w.l(libspace.o)
    0x200009a8   0x00000400   Zero   RW         1075    HEAP                arm_startup_nrf52833.o
    0x20000da8   0x00002000   Zero   RW         1074    STACK               arm_startup_nrf52833.o


    Execution Region RW_IRAM2 (Base: 0x2001fd00, Size: 0x00000210, Max: 0x00000300, ABSOLUTE)

    Base Addr    Size         Type   Attr      Idx    E Section Name        Object

    0x2001fd00   0x00000008   Data   RW          297    .data               bootloader_app_bridge.o
    0x2001fd08   0x00000018   Data   RW          359    .data               bootloader_info.o
    0x2001fd20   0x00000008   Data   RW          451    .data               dfu_bank.o
    0x2001fd28   0x00000008   Data   RW          492    .data               dfu_mesh.o
    0x2001fd30   0x00000008   Data   RW          550    .data               dfu_util.o
    0x2001fd38   0x0000009c   Zero   RW          357    .bss                bootloader_info.o
    0x2001fdd4   0x000000ac   Zero   RW          490    .bss                dfu_mesh.o
    0x2001fe80   0x00000030   Zero   RW          522    .bss                dfu_transfer_mesh.o
    0x2001feb0   0x00000060   Zero   RW          549    .bss                dfu_util.o



  Load Region LR$$.ARM.__AT_0x10001014 (Base: 0x10001014, Size: 0x00000004, Max: 0x00000004, ABSOLUTE)

    Execution Region ER$$.ARM.__AT_0x10001014 (Base: 0x10001014, Size: 0x00000004, Max: 0x00000004, ABSOLUTE, UNINIT)

    Base Addr    Size         Type   Attr      Idx    E Section Name        Object

    0x10001014   0x00000004   Data   RW          626    .ARM.__AT_0x10001014  main.o



  Load Region LR$$.ARM.__AT_0x10001018 (Base: 0x10001018, Size: 0x00000004, Max: 0x00000004, ABSOLUTE)

    Execution Region ER$$.ARM.__AT_0x10001018 (Base: 0x10001018, Size: 0x00000004, Max: 0x00000004, ABSOLUTE, UNINIT)

    Base Addr    Size         Type   Attr      Idx    E Section Name        Object

    0x10001018   0x00000004   Data   RW          627    .ARM.__AT_0x10001018  main.o


==============================================================================

Image component sizes


      Code (inc. data)   RO Data    RW Data    ZI Data      Debug   Object Name

        64         26        512          0       9216        292   arm_startup_nrf52833.o
      1544         52         16          2        176     122559   bootloader.o
       500         14         72          8          0      42529   bootloader_app_bridge.o
      1476         20          4         24        156      10694   bootloader_info.o
       120         12          0          0          0      27606   bootloader_rtc.o
        56          2          0          0          0       1008   bootloader_util.o
       836         22          0          8          0      31159   dfu_bank.o
      3980         64          6          8        172      17658   dfu_mesh.o
       724          6          0          0         48       5175   dfu_transfer_mesh.o
       716         10          0          8         96      33259   dfu_util.o
       304          0          0          0          0       3810   fifo.o
       144         12          0          8          0      29108   main.o
       512         38          0          0          0      29437   mesh_aci.o
       352         14          0          0       1312       3791   mesh_packet.o
       208         12          0          4          0       1654   nrf_flash.o
       804         48         12         20         88      31248   radio_control.o
       144         14          0          0          0       1979   rand.o
       740         36          0         16        439       4603   serial_handler_uart.o
       736         36        256          0          0       5786   sha256.o
       420         40          0          4          0      62174   system_nrf52833.o
      1058         36          0         12        296      33194   transport.o
      2512         12        144          0          0      13626   uECC.o

    ----------------------------------------------------------------------
     17952        526       1088        124      12000     512349   Object Totals
         0          0         64          0          0          0   (incl. Generated)
         2          0          2          2          1          0   (incl. Padding)

    ----------------------------------------------------------------------

      Code (inc. data)   RO Data    RW Data    ZI Data      Debug   Library Member Name

         8          0          0          0          0         68   __main.o
         0          0          0          0          0          0   __rtentry.o
        12          0          0          0          0          0   __rtentry2.o
         6          0          0          0          0          0   __rtentry4.o
        52          8          0          0          0          0   __scatter.o
        26          0          0          0          0          0   __scatter_copy.o
        28          0          0          0          0          0   __scatter_zi.o
        16          0          0          0          0         68   aeabi_memset.o
        18          0          0          0          0         80   exit.o
         6          0          0          0          0        152   heapauxi.o
         0          0          0          0          0          0   indicate_semi.o
         2          0          0          0          0          0   libinit.o
         6          0          0          0          0          0   libinit2.o
         2          0          0          0          0          0   libshutdown.o
         2          0          0          0          0          0   libshutdown2.o
         8          4          0          0         96         68   libspace.o
        38          0          0          0          0         68   llshl.o
       238          0          0          0          0        100   lludivv7m.o
        88          0          0          0          0         76   memcmp.o
        68          0          0          0          0         68   rt_memclr.o
        78          0          0          0          0         80   rt_memclr_w.o
       138          0          0          0          0         68   rt_memcpy_v6.o
       100          0          0          0          0         80   rt_memcpy_w.o
         2          0          0          0          0          0   rtexit.o
        10          0          0          0          0          0   rtexit2.o
        12          4          0          0          0         68   sys_exit.o
        74          0          0          0          0         80   sys_stackheap_outer.o
         2          0          0          0          0         68   use_no_semi.o
        10          0          0          0          0        116   fpinit.o

    ----------------------------------------------------------------------
      1056         16          0          0         96       1308   Library Totals
         6          0          0          0          0          0   (incl. Padding)

    ----------------------------------------------------------------------

      Code (inc. data)   RO Data    RW Data    ZI Data      Debug   Library Name

      1040         16          0          0         96       1192   c_w.l
        10          0          0          0          0        116   fz_wm.l

    ----------------------------------------------------------------------
      1056         16          0          0         96       1308   Library Totals

    ----------------------------------------------------------------------

==============================================================================


      Code (inc. data)   RO Data    RW Data    ZI Data      Debug   

     19008        542       1088        124      12096     508985   Grand Totals
     19008        542       1088        124      12096     508985   ELF Image Totals
     19008        542       1088        124          0          0   ROM Totals

==============================================================================

    Total RO  Size (Code + RO Data)                20096 (  19.63kB)
    Total RW  Size (RW Data + ZI Data)             12220 (  11.93kB)
    Total ROM Size (Code + RO Data + RW Data)      20220 (  19.75kB)

==============================================================================

