:020000021000EC
:10B00000007D002025B2010065B2010067B2010099
:10B010000000000000000000000000000000000030
:10B0200000000000000000000000000069B2010004
:10B0300000000000000000006BB201006DB20100D2
:10B040006FB201006FB201006FB201006FB2010078
:10B050006FB20100000000006FB201006FB201008A
:10B060006FB201006FB201006FB201006FB2010058
:10B070006FB201006FB201006FB201006FB2010048
:10B080006FB201006FB201006FB201006FB2010038
:10B090006FB201006FB201006FB201006FB2010028
:10B0A0006FB201006FB2010000000000000000005C
:10B0B0000000000000000000000000000000000090
:10B0C00010B5064C2378002B07D1054B002B02D07E
:10B0D000044800E000BF0123237010BD4823002076
:10B0E00000000000F8B30100084B10B5002B03D09E
:10B0F0000749084800E000BF07480368002B00D15B
:10B1000010BD064B002BFBD09847F9E7000000006C
:10B110004C230020F8B3010044230020000000006D
:10B12000164B002B00D1144B9D46402292029A1AD6
:10B13000924600218B460F461348144A121A00F01B
:10B1400043F90F4B002B00D098470E4B002B00D03B
:10B1500098470020002104000D000D48002802D06F
:10B160000C4800E000BF00F00BF92000290000F0BF
:10B1700013F800F0EFF8C04600000800007D002042
:10B18000000000000000000048230020642300208D
:10B190000000000000000000F0B5A022E023A32181
:10B1A000A125C646D2051B04C900ED0000B55350C9
:10B1B00053510023144C1548135180231939DB05D2
:10B1C000FF39585001201249124F5850124B80211C
:10B1D0001B68124E9C46124BC90398460800D3596F
:10B1E00098430B40505113513300C046C046C046EF
:10B1F000C046C046C046C046C046C44500D0C04652
:10B20000013BF2D1EAE7C0460C0500000F000F0039
:10B210001C05000004050000D822002020A1070022
:10B220000024F40003210A4802680A430260094826
:10B2300002680A4302600849084A094B9B1A03DD69
:10B24000043BC858D050FBDC00F012F8FFF768FF51
:10B25000240500405405004004B40100D822002019
:10B2600048230020FEE7FEE7FEE7FEE7FEE7FEE7F5
:10B270002E4B1B78012B00D070472D4B1B681B07F2
:10B28000FAD1F0222B4B1B68134027D12A4B1B68A5
:10B2900013422BD0264B1B681B07EDD1F022254B08
:10B2A0001B681340402B2DD0F022224B1B6813400B
:10B2B000A02B01D0D02BDFD1F0231F4A12681A42F5
:10B2C000DAD11E4A1368012B04D01D4B136013689A
:10B2D000012BFCD1C0221B4B1A60CDE7102B01D0F3
:10B2E000302BDBD1144B1B681342D7D1164A174BB6
:10B2F0001A608022164B12021A600C4B1B78012B2D
:10B30000C8D0B9E70C4B1B681342CDD1C1238022B2
:10B310000121DB00D205D150044B1B78012BABD1AE
:10B32000034B1B681B07BFD0A6E7C046E00F00F029
:10B33000E40F00F0E80F00F0EC0F00F000EC064026
:10B340007593000014EC0640DFFF07C004050040C1
:10B35000186C0040084B10B50400002B02D00021EF
:10B3600000E000BF054B1868836A002B00D09847A7
:10B37000200000F031F8C04600000000F4B30100E6
:10B3800070B500260C4D0D4C641BA410A64209D1CB
:10B39000002600F023F80A4D0A4C641BA410A642B4
:10B3A00005D170BDB300EB5898470136EEE7B30006
:10B3B000EB5898470136F2E73C2300203C2300205D
:10B3C0003C2300204023002003008218934200D138
:10B3D000704719700133F9E7FEE7C046F8B5C0467B
:10B3E000F8BC08BC9E467047F8B5C046F8BC08BC1F
:0CB3F0009E467047DC2200200000000098
:08B3FC0024FDFF7F01000000A9
:10B404000024F40000000000000000000000000020
:10B414000000000000000000000000000000000028
:10B424000000000000000000000000000000000018
:10B434000000000000000000000000000000000008
:10B4440000000000000000000000000000000000F8
:10B4540000000000000000000000000000000000E8
:10B4640000000000E9B00100C1B0010000000000CC
:040000031000B22512
:00000001FF
