:020000021000EC
:10800000007D002035820100758201007782010029
:108010000000000000000000000000000000000060
:108020000000000000000000000000007982010054
:1080300000000000000000007B8201007D82010042
:108040007F8201007F8201007F8201007F82010028
:108050007F820100000000007F8201007F8201001A
:108060007F8201007F8201007F8201007F82010008
:108070007F8201007F8201007F8201007F820100F8
:108080007F8201007F8201007F8201007F820100E8
:108090007F8201007F8201007F8201007F820100D8
:1080A0007F8201007F8201000000000000000000CC
:1080B00000000000000000000000000000000000C0
:1080C00010B5064C2378002B07D1054B002B02D0AE
:1080D000044800E000BF0123237010BD6C20002085
:1080E0000000000008840100084B10B5002B03D0ED
:1080F0000749084800E000BF07480368002B00D18B
:1081000010BD064B002BFBD09847F9E7000000009C
:10811000702000200884010068200020000000007A
:10812000164B002B00D1144B9D46402292029A1A06
:10813000924600218B460F461348144A121A00F04B
:108140004BF90F4B002B00D098470E4B002B00D063
:1081500098470020002104000D000D48002802D09F
:108160000C4800E000BF00F013F92000290000F0E7
:1081700013F800F0F7F8C04600000800007D00206A
:1081800000000000000000006C200020882000207B
:10819000000000000000000070B5E023A024A3222E
:1081A000E4051B04D200A350103AA35000220E4B4A
:1081B0000E49E25080238022DB05D2009950012134
:1081C0000B4A0C4D99508022D2031000A121635913
:1081D000C90098436050FA201340034A4000A3505E
:1081E00000F00AF8EFE7C0460C0500000F000F0092
:1081F0001C0500000405000082B00190019B002BCB
:1082000014D0019B0A48013B01930138C046C04687
:10821000C046C046C046C046C046C046C046C0462E
:10822000C046C046F1D1019B002BEAD102B0704795
:10823000E703000003210A4802680A430260094874
:1082400002680A4302600849084A094B9B1A03DD89
:10825000043BC858D050FBDC00F012F8FFF760FF79
:108260002405004054050040148401000020002033
:108270006C200020FEE7FEE7FEE7FEE7FEE7FEE7F4
:108280002E4B1B78012B00D070472D4B1B681B0712
:10829000FAD1F0222B4B1B68134027D12A4B1B68C5
:1082A00013422BD0264B1B681B07EDD1F022254B28
:1082B0001B681340402B2DD0F022224B1B6813402B
:1082C000A02B01D0D02BDFD1F0231F4A12681A4215
:1082D000DAD11E4A1368012B04D01D4B13601368BA
:1082E000012BFCD1C0221B4B1A60CDE7102B01D013
:1082F000302BDBD1144B1B681342D7D1164A174BD6
:108300001A608022164B12021A600C4B1B78012B4C
:10831000C8D0B9E70C4B1B681342CDD1C1238022D2
:108320000121DB00D205D150044B1B78012BABD1CE
:10833000034B1B681B07BFD0A6E7C046E00F00F049
:10834000E40F00F0E80F00F0EC0F00F000EC064046
:108350007593000014EC0640DFFF07C004050040E1
:10836000186C0040084B10B50400002B02D000210F
:1083700000E000BF054B1868836A002B00D09847C7
:10838000200000F031F8C046000000000484010025
:1083900070B500260C4D0D4C641BA410A64209D1EB
:1083A000002600F023F80A4D0A4C641BA410A642D4
:1083B00005D170BDB300EB5898470136EEE7B30026
:1083C000EB5898470136F2E760200020602000203B
:1083D000602000206420002003008218934200D116
:1083E000704719700133F9E7FEE7C046F8B5C0469B
:1083F000F8BC08BC9E467047F8B5C046F8BC08BC3F
:0C8400009E467047002000200000000095
:08840C0014FDFF7F01000000D8
:108414000000000000000000000000000000000058
:108424000000000000000000000000000000000048
:108434000000000000000000000000000000000038
:108444000000000000000000000000000000000028
:108454000000000000000000000000000000000018
:108464000000000000000000000000000000000008
:0C847400E9800100C18001000000000050
:040000031000823532
:00000001FF
