:020000021000EC
:10F0000000F00020B1F50100D9F50100DBF50100A9
:10F01000DDF50100DFF50100E1F501000000000071
:10F02000000000000000000000000000E3F5010007
:10F03000E5F5010000000000E7F50100E9F5010039
:10F04000EBF50100EBF50100EBF50100EBF501003C
:10F05000EBF50100EBF50100EBF50100EBF501002C
:10F06000EBF50100EBF50100EBF50100EBF501001C
:10F07000EBF50100EBF50100EBF50100EBF501000C
:10F08000EBF50100EBF50100EBF50100EBF50100FC
:10F09000EBF50100EBF50100EBF50100EBF50100EC
:10F0A000EBF50100EBF50100EBF50100EBF50100DC
:10F0B000EBF50100EBF5010000000000000000008E
:10F0C000EBF50100EBF50100EBF50100EBF50100BC
:10F0D000EBF50100EBF50100EBF50100000000008D
:10F0E0000000000000000000000000000000000020
:10F0F0000000000000000000000000000000000010
:10F1000000000000000000000000000000000000FF
:10F1100000000000000000000000000000000000EF
:10F4000010B5054C237833B9044B13B10448AFF35E
:10F4100000800123237010BD48230020000000005D
:10F420007CF901000C4B43B10C480D4910B5AFF30A
:10F4300000800C48036823B910BD0A48036833B93B
:10F440007047094B002BF7D0BDE810401847064B1A
:10F45000002BF5D0184700BF000000007CF9010028
:10F460004C2300204423002000000000154B002BFB
:10F4700008BF134B9D46A3F5803A00218B460F46EB
:10F480001348144A121A00F061FA0F4B002B00D0F7
:10F4900098470E4B002B00D0984700200021040015
:10F4A0000D000D48002802D00C48AFF3008000F09A
:10F4B00029FA2000290000F013F800F00FFA00BF2D
:10F4C0000000080000F00020000000000000000024
:10F4D00048230020642300200000000000000000FA
:10F4E0004FF0A0414FF080434FF4F0124FF00F1552
:10F4F00001242C48C1F818250026C1F80825C1F8B8
:10F500000C65C3F80054C3F81C450568264C274811
:10F51000D1F80435DA4302F4802203F48023C1F8E1
:10F5200008250246C1F80C3500BF00BF00BF00BF70
:10F5300000BF00BF00BF00BFA5422FD000BF00BF6B
:10F5400000BF00BF00BF00BF00BF00BF00BF00BFC3
:10F5500000BF00BF00BF00BF00BF00BF00BF00BFB3
:10F5600000BF00BF00BF00BF00BF00BF00BF00BFA3
:10F5700000BF00BF00BF00BF00BF00BF00BF00BF93
:10F5800000BF00BF00BF00BF00BF00BF00BF00BF83
:10F5900000BF00BF00BF00BF00BF00BF013AC3D122
:10F5A000B6E700BFD82200200024F40020A1070005
:10F5B0000649074A074B9B1A03DD043BC858D05045
:10F5C000FBDC00F013F8FFF751FF000088F90100A1
:10F5D000D822002048230020FEE7FEE7FEE7FEE7F2
:10F5E000FEE7FEE7FEE7FEE7FEE7FEE7F0B4A64B28
:10F5F0001B78062B1BD0A54AD2F8883043F4700341
:10F60000C2F88830BFF34F8FBFF36F8F4FF01023D6
:10F61000D3F80022002AC0F20581D3F80432002B6F
:10F62000C0F200819A4B9B4A1A60F0BC70479A4B1B
:10F630001B681E07DFD1994B1B6803F0F003302BCA
:10F6400002D1974B974A1A60944B1B6803F0F00263
:10F65000302A00F0D68003F0E003402B00F0D18088
:10F660008E4B1B6803F0F003302B00F0BB808B4BFC
:10F670001B6803F0F002302A00F0A08003F0E003E2
:10F68000402B00F09B80854B1B6803F0F003302B70
:10F6900000F08680814B1B6803F0F003302B68D0AC
:10F6A0007E4B1B6803F0F003502B10D07B4B1B6884
:10F6B00003F0F002302A03D003F0E003402B9AD18C
:10F6C000794B7A4A1B6803F04F03136093E74FF0BE
:10F6D0008052774BD2F80414C3F82015D2F80814DE
:10F6E000C3F82415D2F80C14C3F82815D2F8101456
:10F6F000C3F82C15D2F81414C3F83015D2F8181426
:10F70000C3F83415D2F81C14C3F84015D2F82014ED
:10F71000C3F84415D2F82414C3F84815D2F82814B5
:10F72000C3F84C15D2F82C14C3F85015D2F8301485
:10F73000C3F85415D2F83414C3F86015D2F838144D
:10F74000C3F86415D2F83C14C3F86815D2F8401415
:10F75000C3F86C15D2F844244B49C3F870250A78D5
:10F76000062A7FF448AF4C4B1B681B077FF443AF5E
:10F770009CE7454B4F491B784F4D5048504A052751
:10F780000F60012600243F21062B2E6004601160CB
:10F790007FF431AF404B1B681A077FF42CAF7FE733
:10F7A000394B484A1B780321062B11607FF423AFA5
:10F7B000394B1B6819077FF41EAF6BE7324B1B7880
:10F7C0004FF080420021062BC2F80C11C2F8101134
:10F7D000C2F838157FF40FAF2F4B1B6818077FF462
:10F7E0000AAF50E73849284ACB68127823F0807373
:10F7F000062ACB60B4D1284B1B681C077FF4FBAEF4
:10F8000035E7324A204B12681B783149C2F3423245
:10F81000062B0A607FF4EFAE1F4B1B681D077FF4B9
:10F82000EAAE1DE72B4B0122C3F80425D3F80024D0
:10F83000002AFBD04FF0102315222649C3F80022DE
:10F84000D1F80034002BFBD04FF010221521214BB2
:10F85000C2F80412D3F80024002AFBD000221D496C
:10F86000C3F80425D1F80034002BFBD0BFF34F8F31
:10F870000649194BCA6802F4E0621343CB60BFF338
:10F880004F8F00BFFDE700BFE00F00F000ED00E08C
:10F89000D82200200090D003E40F00F0E80F00F021
:10F8A00074C007400DF0ADBA58020010E40E0040DD
:10F8B00000C00040105600408856004018560040D6
:10F8C00014560040A0050040F0ED00E04402001096
:10F8D0003C05004000E001400400FA0508B5074B74
:10F8E000044613B10021AFF30080054B1868836A0A
:10F8F00003B19847204600F031F800BF0000000037
:10F9000078F9010070B50D4E0D4CA41BA410002514
:10F91000A54209D10B4E0C4C00F022F8A41BA410F8
:10F920000025A54205D170BD56F825309847013510
:10F93000EEE756F8253098470135F2E73C230020E2
:10F940003C2300203C2300204023002002440346A7
:10F95000934200D1704703F8011BF9E7FEE700BFAF
:10F96000F8B500BFF8BC08BC9E467047F8B500BFAC
:10F97000F8BC08BC9E467047DC2200200000000056
:08F98000ECFAFF7F010000001A
:10F988000090D0030000000000000000000000000C
:10F99800000000000000000000000000000000005F
:10F9A800000000000000000000000000000000004F
:10F9B800000000000000000000000000000000003F
:10F9C800000000000000000000000000000000002F
:10F9D800000000000000000000000000000000001F
:10F9E8000000000025F4010001F4010000000000FF
:040000031000F5B143
:00000001FF
