Archive member included to satisfy reference by file (symbol)

c:/progra~2/gnutoo~1/92019-~1/bin/../lib/gcc/arm-none-eabi/9.2.1/thumb/v7e-m+fp/hard\libgcc.a(_aeabi_ldivmod.o)
                              mesh/bootloader/CMakeFiles/mesh_bootloader_serial_gccarmemb_nrf52832_xxAA.dir/src/bootloader.c.obj (__aeabi_ldivmod)
c:/progra~2/gnutoo~1/92019-~1/bin/../lib/gcc/arm-none-eabi/9.2.1/thumb/v7e-m+fp/hard\libgcc.a(_aeabi_uldivmod.o)
                              mesh/bootloader/CMakeFiles/mesh_bootloader_serial_gccarmemb_nrf52832_xxAA.dir/src/bootloader.c.obj (__aeabi_uldivmod)
c:/progra~2/gnutoo~1/92019-~1/bin/../lib/gcc/arm-none-eabi/9.2.1/thumb/v7e-m+fp/hard\libgcc.a(_udivmoddi4.o)
                              c:/progra~2/gnutoo~1/92019-~1/bin/../lib/gcc/arm-none-eabi/9.2.1/thumb/v7e-m+fp/hard\libgcc.a(_aeabi_ldivmod.o) (__udivmoddi4)
c:/progra~2/gnutoo~1/92019-~1/bin/../lib/gcc/arm-none-eabi/9.2.1/thumb/v7e-m+fp/hard\libgcc.a(_dvmd_tls.o)
                              c:/progra~2/gnutoo~1/92019-~1/bin/../lib/gcc/arm-none-eabi/9.2.1/thumb/v7e-m+fp/hard\libgcc.a(_aeabi_ldivmod.o) (__aeabi_ldiv0)
c:/progra~2/gnutoo~1/92019-~1/bin/../lib/gcc/arm-none-eabi/9.2.1/../../../../arm-none-eabi/lib/thumb/v7e-m+fp/hard\libg_nano.a(lib_a-exit.o)
                              c:/progra~2/gnutoo~1/92019-~1/bin/../lib/gcc/arm-none-eabi/9.2.1/../../../../arm-none-eabi/lib/thumb/v7e-m+fp/hard/crt0.o (exit)
c:/progra~2/gnutoo~1/92019-~1/bin/../lib/gcc/arm-none-eabi/9.2.1/../../../../arm-none-eabi/lib/thumb/v7e-m+fp/hard\libg_nano.a(lib_a-impure.o)
                              c:/progra~2/gnutoo~1/92019-~1/bin/../lib/gcc/arm-none-eabi/9.2.1/../../../../arm-none-eabi/lib/thumb/v7e-m+fp/hard\libg_nano.a(lib_a-exit.o) (_global_impure_ptr)
c:/progra~2/gnutoo~1/92019-~1/bin/../lib/gcc/arm-none-eabi/9.2.1/../../../../arm-none-eabi/lib/thumb/v7e-m+fp/hard\libg_nano.a(lib_a-init.o)
                              c:/progra~2/gnutoo~1/92019-~1/bin/../lib/gcc/arm-none-eabi/9.2.1/../../../../arm-none-eabi/lib/thumb/v7e-m+fp/hard/crt0.o (__libc_init_array)
c:/progra~2/gnutoo~1/92019-~1/bin/../lib/gcc/arm-none-eabi/9.2.1/../../../../arm-none-eabi/lib/thumb/v7e-m+fp/hard\libg_nano.a(lib_a-memcmp.o)
                              mesh/bootloader/CMakeFiles/mesh_bootloader_serial_gccarmemb_nrf52832_xxAA.dir/src/dfu_bank.c.obj (memcmp)
c:/progra~2/gnutoo~1/92019-~1/bin/../lib/gcc/arm-none-eabi/9.2.1/../../../../arm-none-eabi/lib/thumb/v7e-m+fp/hard\libg_nano.a(lib_a-memcpy-stub.o)
                              mesh/bootloader/CMakeFiles/mesh_bootloader_serial_gccarmemb_nrf52832_xxAA.dir/src/bootloader.c.obj (memcpy)
c:/progra~2/gnutoo~1/92019-~1/bin/../lib/gcc/arm-none-eabi/9.2.1/../../../../arm-none-eabi/lib/thumb/v7e-m+fp/hard\libg_nano.a(lib_a-memset.o)
                              c:/progra~2/gnutoo~1/92019-~1/bin/../lib/gcc/arm-none-eabi/9.2.1/../../../../arm-none-eabi/lib/thumb/v7e-m+fp/hard/crt0.o (memset)
c:/progra~2/gnutoo~1/92019-~1/bin/../lib/gcc/arm-none-eabi/9.2.1/../../../../arm-none-eabi/lib/thumb/v7e-m+fp/hard\libnosys.a(_exit.o)
                              c:/progra~2/gnutoo~1/92019-~1/bin/../lib/gcc/arm-none-eabi/9.2.1/../../../../arm-none-eabi/lib/thumb/v7e-m+fp/hard\libg_nano.a(lib_a-exit.o) (_exit)

Allocating common symbols
Common symbol       size              file

m_tx_evt_bitfield   0x2               mesh/bootloader/CMakeFiles/mesh_bootloader_serial_gccarmemb_nrf52832_xxAA.dir/src/transport.c.obj

Discarded input sections

 .text          0x00000000        0x0 c:/progra~2/gnutoo~1/92019-~1/bin/../lib/gcc/arm-none-eabi/9.2.1/thumb/v7e-m+fp/hard/crti.o
 .data          0x00000000        0x0 c:/progra~2/gnutoo~1/92019-~1/bin/../lib/gcc/arm-none-eabi/9.2.1/thumb/v7e-m+fp/hard/crti.o
 .bss           0x00000000        0x0 c:/progra~2/gnutoo~1/92019-~1/bin/../lib/gcc/arm-none-eabi/9.2.1/thumb/v7e-m+fp/hard/crti.o
 .data          0x00000000        0x4 c:/progra~2/gnutoo~1/92019-~1/bin/../lib/gcc/arm-none-eabi/9.2.1/thumb/v7e-m+fp/hard/crtbegin.o
 .data          0x00000000        0x0 c:/progra~2/gnutoo~1/92019-~1/bin/../lib/gcc/arm-none-eabi/9.2.1/../../../../arm-none-eabi/lib/thumb/v7e-m+fp/hard/crt0.o
 .bss           0x00000000        0x0 c:/progra~2/gnutoo~1/92019-~1/bin/../lib/gcc/arm-none-eabi/9.2.1/../../../../arm-none-eabi/lib/thumb/v7e-m+fp/hard/crt0.o
 .ARM.extab     0x00000000        0x0 c:/progra~2/gnutoo~1/92019-~1/bin/../lib/gcc/arm-none-eabi/9.2.1/../../../../arm-none-eabi/lib/thumb/v7e-m+fp/hard/crt0.o
 .text          0x00000000        0x0 mesh/bootloader/CMakeFiles/mesh_bootloader_serial_gccarmemb_nrf52832_xxAA.dir/src/bootloader.c.obj
 .data          0x00000000        0x0 mesh/bootloader/CMakeFiles/mesh_bootloader_serial_gccarmemb_nrf52832_xxAA.dir/src/bootloader.c.obj
 .bss           0x00000000        0x0 mesh/bootloader/CMakeFiles/mesh_bootloader_serial_gccarmemb_nrf52832_xxAA.dir/src/bootloader.c.obj
 .text          0x00000000        0x0 mesh/bootloader/CMakeFiles/mesh_bootloader_serial_gccarmemb_nrf52832_xxAA.dir/src/bootloader_app_bridge.c.obj
 .data          0x00000000        0x0 mesh/bootloader/CMakeFiles/mesh_bootloader_serial_gccarmemb_nrf52832_xxAA.dir/src/bootloader_app_bridge.c.obj
 .bss           0x00000000        0x0 mesh/bootloader/CMakeFiles/mesh_bootloader_serial_gccarmemb_nrf52832_xxAA.dir/src/bootloader_app_bridge.c.obj
 .text.timer_set
                0x00000000       0x1c mesh/bootloader/CMakeFiles/mesh_bootloader_serial_gccarmemb_nrf52832_xxAA.dir/src/bootloader_app_bridge.c.obj
 .text.timer_abort
                0x00000000       0x1a mesh/bootloader/CMakeFiles/mesh_bootloader_serial_gccarmemb_nrf52832_xxAA.dir/src/bootloader_app_bridge.c.obj
 .text.bootloader_error_post
Memory Configuration

Name             Origin             Length             Attributes
FLASH            0x00078000         0x00006000         xr
RAM              0x20000004         0x0000fcfc         rw
CORE_BL_RAM      0x2000fd00         0x00000300         rw
UICR_BOOTADDR    0x10001014         0x00000004         r
UICR_MBRPARAMADDR 0x10001018         0x00000004         r
*default*        0x00000000         0xffffffff

Linker script and memory map

LOAD c:/progra~2/gnutoo~1/92019-~1/bin/../lib/gcc/arm-none-eabi/9.2.1/thumb/v7e-m+fp/hard/crti.o
LOAD c:/progra~2/gnutoo~1/92019-~1/bin/../lib/gcc/arm-none-eabi/9.2.1/thumb/v7e-m+fp/hard/crtbegin.o
LOAD c:/progra~2/gnutoo~1/92019-~1/bin/../lib/gcc/arm-none-eabi/9.2.1/../../../../arm-none-eabi/lib/thumb/v7e-m+fp/hard/crt0.o
LOAD mesh/bootloader/CMakeFiles/mesh_bootloader_serial_gccarmemb_nrf52832_xxAA.dir/src/bootloader.c.obj
LOAD mesh/bootloader/CMakeFiles/mesh_bootloader_serial_gccarmemb_nrf52832_xxAA.dir/src/bootloader_app_bridge.c.obj
LOAD mesh/bootloader/CMakeFiles/mesh_bootloader_serial_gccarmemb_nrf52832_xxAA.dir/src/bootloader_info.c.obj
LOAD mesh/bootloader/CMakeFiles/mesh_bootloader_serial_gccarmemb_nrf52832_xxAA.dir/src/bootloader_rtc.c.obj
LOAD mesh/bootloader/CMakeFiles/mesh_bootloader_serial_gccarmemb_nrf52832_xxAA.dir/src/bootloader_util.c.obj
LOAD mesh/bootloader/CMakeFiles/mesh_bootloader_serial_gccarmemb_nrf52832_xxAA.dir/src/dfu_bank.c.obj
LOAD mesh/bootloader/CMakeFiles/mesh_bootloader_serial_gccarmemb_nrf52832_xxAA.dir/src/dfu_mesh.c.obj
LOAD mesh/bootloader/CMakeFiles/mesh_bootloader_serial_gccarmemb_nrf52832_xxAA.dir/src/dfu_transfer_mesh.c.obj
LOAD mesh/bootloader/CMakeFiles/mesh_bootloader_serial_gccarmemb_nrf52832_xxAA.dir/src/dfu_util.c.obj
LOAD mesh/bootloader/CMakeFiles/mesh_bootloader_serial_gccarmemb_nrf52832_xxAA.dir/src/fifo.c.obj
LOAD mesh/bootloader/CMakeFiles/mesh_bootloader_serial_gccarmemb_nrf52832_xxAA.dir/src/main.c.obj
LOAD mesh/bootloader/CMakeFiles/mesh_bootloader_serial_gccarmemb_nrf52832_xxAA.dir/src/mesh_packet.c.obj
LOAD mesh/bootloader/CMakeFiles/mesh_bootloader_serial_gccarmemb_nrf52832_xxAA.dir/src/nrf_flash.c.obj
LOAD mesh/bootloader/CMakeFiles/mesh_bootloader_serial_gccarmemb_nrf52832_xxAA.dir/src/radio_control.c.obj
LOAD mesh/bootloader/CMakeFiles/mesh_bootloader_serial_gccarmemb_nrf52832_xxAA.dir/src/rand.c.obj
LOAD mesh/bootloader/CMakeFiles/mesh_bootloader_serial_gccarmemb_nrf52832_xxAA.dir/src/transport.c.obj
LOAD mesh/bootloader/CMakeFiles/mesh_bootloader_serial_gccarmemb_nrf52832_xxAA.dir/src/uECC.c.obj
LOAD mesh/bootloader/CMakeFiles/mesh_bootloader_serial_gccarmemb_nrf52832_xxAA.dir/C_/dev/mesh_dep/nRF5_SDK_16.0.0_98a08e2/components/libraries/sha256/sha256.c.obj
LOAD mesh/bootloader/CMakeFiles/mesh_bootloader_serial_gccarmemb_nrf52832_xxAA.dir/src/serial_handler_uart.c.obj
LOAD mesh/bootloader/CMakeFiles/mesh_bootloader_serial_gccarmemb_nrf52832_xxAA.dir/src/mesh_aci.c.obj
LOAD mesh/bootloader/CMakeFiles/mesh_bootloader_serial_gccarmemb_nrf52832_xxAA.dir/C_/dev/mesh_dep/nRF5_SDK_16.0.0_98a08e2/modules/nrfx/mdk/system_nrf52.c.obj
LOAD mesh/bootloader/CMakeFiles/mesh_bootloader_serial_gccarmemb_nrf52832_xxAA.dir/C_/dev/mesh_dep/nRF5_SDK_16.0.0_98a08e2/modules/nrfx/mdk/gcc_startup_nrf52.S.obj
LOAD external/rtt/librtt_nrf52832_xxAA.a
START GROUP
LOAD c:/progra~2/gnutoo~1/92019-~1/bin/../lib/gcc/arm-none-eabi/9.2.1/thumb/v7e-m+fp/hard\libgcc.a
LOAD c:/progra~2/gnutoo~1/92019-~1/bin/../lib/gcc/arm-none-eabi/9.2.1/../../../../arm-none-eabi/lib/thumb/v7e-m+fp/hard\libg_nano.a
LOAD c:/progra~2/gnutoo~1/92019-~1/bin/../lib/gcc/arm-none-eabi/9.2.1/../../../../arm-none-eabi/lib/thumb/v7e-m+fp/hard\libc_nano.a
END GROUP
START GROUP
LOAD c:/progra~2/gnutoo~1/92019-~1/bin/../lib/gcc/arm-none-eabi/9.2.1/thumb/v7e-m+fp/hard\libgcc.a
LOAD c:/progra~2/gnutoo~1/92019-~1/bin/../lib/gcc/arm-none-eabi/9.2.1/../../../../arm-none-eabi/lib/thumb/v7e-m+fp/hard\libc_nano.a
END GROUP
LOAD c:/progra~2/gnutoo~1/92019-~1/bin/../lib/gcc/arm-none-eabi/9.2.1/thumb/v7e-m+fp/hard/crtend.o
LOAD c:/progra~2/gnutoo~1/92019-~1/bin/../lib/gcc/arm-none-eabi/9.2.1/thumb/v7e-m+fp/hard/crtn.o
START GROUP
LOAD c:/progra~2/gnutoo~1/92019-~1/bin/../lib/gcc/arm-none-eabi/9.2.1/thumb/v7e-m+fp/hard\libgcc.a
LOAD c:/progra~2/gnutoo~1/92019-~1/bin/../lib/gcc/arm-none-eabi/9.2.1/../../../../arm-none-eabi/lib/thumb/v7e-m+fp/hard\libc.a
LOAD c:/progra~2/gnutoo~1/92019-~1/bin/../lib/gcc/arm-none-eabi/9.2.1/../../../../arm-none-eabi/lib/thumb/v7e-m+fp/hard\libnosys.a
END GROUP

.core_data      0x2000fd00        0x4
                0x2000fd08                __core_ram_start__ = .
                0x2000fd00                . = ALIGN (0x4)
 *sha256.c.obj(.data*)
 *bootloader_app_bridge.c.obj(.data*)
 *bootloader_info.c.obj(.data*)
 *uECC.c.obj(.data*)
 *dfu_mesh.c.obj(.data*)
 .data.m_state  0x2000fd00        0x1 mesh/bootloader/CMakeFiles/mesh_bootloader_serial_gccarmemb_nrf52832_xxAA.dir/src/dfu_mesh.c.obj
 .data.tx_slot.11586
                0x2000fd01        0x1 mesh/bootloader/CMakeFiles/mesh_bootloader_serial_gccarmemb_nrf52832_xxAA.dir/src/dfu_mesh.c.obj
 *dfu_transfer_mesh.c.obj(.data*)
 *dfu_bank.c.obj(.data*)
 *dfu_util.c.obj(.data*)
                0x2000fd04                . = ALIGN (0x4)
 *fill*         0x2000fd02        0x2 
                0x2000ff20                __core_ram_end__ = .

.core_bss       0x2000fd08      0x218
                0x2000fd08                __core_ram_start__ = .
                0x2000fd08                . = ALIGN (0x4)
 *sha256.c.obj(.bss*)
 *bootloader_app_bridge.c.obj(.bss*)
 .bss.m_evt_handler
                0x2000fd08        0x4 mesh/bootloader/CMakeFiles/mesh_bootloader_serial_gccarmemb_nrf52832_xxAA.dir/src/bootloader_app_bridge.c.obj
 .bss.m_in_bl   0x2000fd0c        0x1 mesh/bootloader/CMakeFiles/mesh_bootloader_serial_gccarmemb_nrf52832_xxAA.dir/src/bootloader_app_bridge.c.obj
 *bootloader_info.c.obj(.bss*)
 *fill*         0x2000fd0d        0x3 
 .bss.m_info_copy
                0x2000fd10       0x1c mesh/bootloader/CMakeFiles/mesh_bootloader_serial_gccarmemb_nrf52832_xxAA.dir/src/bootloader_info.c.obj
 .bss.m_state   0x2000fd2c        0x1 mesh/bootloader/CMakeFiles/mesh_bootloader_serial_gccarmemb_nrf52832_xxAA.dir/src/bootloader_info.c.obj
 .bss.m_write_in_progress
                0x2000fd2d        0x1 mesh/bootloader/CMakeFiles/mesh_bootloader_serial_gccarmemb_nrf52832_xxAA.dir/src/bootloader_info.c.obj
 *fill*         0x2000fd2e        0x2 
 .bss.mp_bl_info_bank_page
                0x2000fd30        0x4 mesh/bootloader/CMakeFiles/mesh_bootloader_serial_gccarmemb_nrf52832_xxAA.dir/src/bootloader_info.c.obj
 .bss.mp_bl_info_page
                0x2000fd34        0x4 mesh/bootloader/CMakeFiles/mesh_bootloader_serial_gccarmemb_nrf52832_xxAA.dir/src/bootloader_info.c.obj
 .bss.mp_info_entry_buffer
                0x2000fd38       0x80 mesh/bootloader/CMakeFiles/mesh_bootloader_serial_gccarmemb_nrf52832_xxAA.dir/src/bootloader_info.c.obj
 .bss.mp_info_entry_head
                0x2000fdb8        0x4 mesh/bootloader/CMakeFiles/mesh_bootloader_serial_gccarmemb_nrf52832_xxAA.dir/src/bootloader_info.c.obj
 .bss.mp_info_entry_tail
                0x2000fdbc        0x4 mesh/bootloader/CMakeFiles/mesh_bootloader_serial_gccarmemb_nrf52832_xxAA.dir/src/bootloader_info.c.obj
 .bss.mp_write_pos
                0x2000fdc0        0x4 mesh/bootloader/CMakeFiles/mesh_bootloader_serial_gccarmemb_nrf52832_xxAA.dir/src/bootloader_info.c.obj
 *uECC.c.obj(.bss*)
 *dfu_mesh.c.obj(.bss*)
 .bss.m_bl_info_pointers
                0x2000fdc4       0x28 mesh/bootloader/CMakeFiles/mesh_bootloader_serial_gccarmemb_nrf52832_xxAA.dir/src/dfu_mesh.c.obj
 .bss.m_data_req_segment
                0x2000fdec        0x2 mesh/bootloader/CMakeFiles/mesh_bootloader_serial_gccarmemb_nrf52832_xxAA.dir/src/dfu_mesh.c.obj
 .bss.m_lost_start_edge
                0x2000fdee        0x1 mesh/bootloader/CMakeFiles/mesh_bootloader_serial_gccarmemb_nrf52832_xxAA.dir/src/dfu_mesh.c.obj
 *fill*         0x2000fdef        0x1 
 .bss.m_req_cache
                0x2000fdf0       0x10 mesh/bootloader/CMakeFiles/mesh_bootloader_serial_gccarmemb_nrf52832_xxAA.dir/src/dfu_mesh.c.obj
 .bss.m_req_index
                0x2000fe00        0x1 mesh/bootloader/CMakeFiles/mesh_bootloader_serial_gccarmemb_nrf52832_xxAA.dir/src/dfu_mesh.c.obj
 *fill*         0x2000fe01        0x3 
 .bss.m_transaction
                0x2000fe04       0x74 mesh/bootloader/CMakeFiles/mesh_bootloader_serial_gccarmemb_nrf52832_xxAA.dir/src/dfu_mesh.c.obj
 .bss.m_tx_slots
                0x2000fe78        0x1 mesh/bootloader/CMakeFiles/mesh_bootloader_serial_gccarmemb_nrf52832_xxAA.dir/src/dfu_mesh.c.obj
 *dfu_transfer_mesh.c.obj(.bss*)
 *fill*         0x2000fe79        0x7 
 .bss.m_transfer
                0x2000fe80       0x30 mesh/bootloader/CMakeFiles/mesh_bootloader_serial_gccarmemb_nrf52832_xxAA.dir/src/dfu_transfer_mesh.c.obj
 *dfu_bank.c.obj(.bss*)
 .bss.m_dfu_type
                0x2000feb0        0x1 mesh/bootloader/CMakeFiles/mesh_bootloader_serial_gccarmemb_nrf52832_xxAA.dir/src/dfu_bank.c.obj
 .bss.m_waiting_for_idle
                0x2000feb1        0x1 mesh/bootloader/CMakeFiles/mesh_bootloader_serial_gccarmemb_nrf52832_xxAA.dir/src/dfu_bank.c.obj
 *fill*         0x2000feb2        0x2 
 .bss.mp_bank_entry
                0x2000feb4        0x4 mesh/bootloader/CMakeFiles/mesh_bootloader_serial_gccarmemb_nrf52832_xxAA.dir/src/dfu_bank.c.obj
 *dfu_util.c.obj(.bss*)
 .bss.m_packet_cache
                0x2000feb8       0x40 mesh/bootloader/CMakeFiles/mesh_bootloader_serial_gccarmemb_nrf52832_xxAA.dir/src/dfu_util.c.obj
 .bss.m_packet_cache_index
                0x2000fef8        0x4 mesh/bootloader/CMakeFiles/mesh_bootloader_serial_gccarmemb_nrf52832_xxAA.dir/src/dfu_util.c.obj
 .bss.m_tid_cache
                0x2000fefc       0x20 mesh/bootloader/CMakeFiles/mesh_bootloader_serial_gccarmemb_nrf52832_xxAA.dir/src/dfu_util.c.obj
 .bss.m_tid_index
                0x2000ff1c        0x1 mesh/bootloader/CMakeFiles/mesh_bootloader_serial_gccarmemb_nrf52832_xxAA.dir/src/dfu_util.c.obj
                0x2000ff20                . = ALIGN (0x4)
 *fill*         0x2000ff1d        0x3 
                0x2000ff20                __core_ram_end__ = .

.uicrBootStartAddress
                0x10001014        0x4
 *(.uicrBootStartAddress)
 .uicrBootStartAddress
                0x10001014        0x4 mesh/bootloader/CMakeFiles/mesh_bootloader_serial_gccarmemb_nrf52832_xxAA.dir/src/main.c.obj
                0x10001014                m_uicr_bootloader_start_address

.uicrBootMBRParamAddress
                0x10001018        0x4
 *(.uicrBootMBRParamAddress)
 .uicrBootMBRParamAddress
                0x10001018        0x4 mesh/bootloader/CMakeFiles/mesh_bootloader_serial_gccarmemb_nrf52832_xxAA.dir/src/main.c.obj
                0x10001018                m_uicr_bootloader_mbrparam_address

.text           0x00078000     0x5178
 *(.isr_vector)
 .isr_vector    0x00078000      0x200 mesh/bootloader/CMakeFiles/mesh_bootloader_serial_gccarmemb_nrf52832_xxAA.dir/C_/dev/mesh_dep/nRF5_SDK_16.0.0_98a08e2/modules/nrfx/mdk/gcc_startup_nrf52.S.obj
                0x00078000                __isr_vector
 *(.text*)
 .text          0x00078200       0x40 c:/progra~2/gnutoo~1/92019-~1/bin/../lib/gcc/arm-none-eabi/9.2.1/thumb/v7e-m+fp/hard/crtbegin.o
 .text          0x00078240       0x74 c:/progra~2/gnutoo~1/92019-~1/bin/../lib/gcc/arm-none-eabi/9.2.1/../../../../arm-none-eabi/lib/thumb/v7e-m+fp/hard/crt0.o
                0x00078240                _start
                0x00078240                _mainCRTStartup
 .text.sd_softdevice_vector_table_base_set
                0x000782b4        0x4 mesh/bootloader/CMakeFiles/mesh_bootloader_serial_gccarmemb_nrf52832_xxAA.dir/src/bootloader.c.obj
 .text.sd_mbr_command
                0x000782b8        0x4 mesh/bootloader/CMakeFiles/mesh_bootloader_serial_gccarmemb_nrf52832_xxAA.dir/src/bootloader.c.obj
 .text.set_timeout
                0x000782bc       0x2c mesh/bootloader/CMakeFiles/mesh_bootloader_serial_gccarmemb_nrf52832_xxAA.dir/src/bootloader.c.obj
 .text.rx_cb    0x000782e8       0x2e mesh/bootloader/CMakeFiles/mesh_bootloader_serial_gccarmemb_nrf52832_xxAA.dir/src/bootloader.c.obj
 .text.SWI2_EGU2_IRQHandler
                0x00078316        0x4 mesh/bootloader/CMakeFiles/mesh_bootloader_serial_gccarmemb_nrf52832_xxAA.dir/src/bootloader.c.obj
                0x00078316                SWI2_EGU2_IRQHandler
 *fill*         0x0007831a        0x2 
 .text.SWI3_EGU3_IRQHandler
                0x0007831c       0xdc mesh/bootloader/CMakeFiles/mesh_bootloader_serial_gccarmemb_nrf52832_xxAA.dir/src/bootloader.c.obj
                0x0007831c                SWI3_EGU3_IRQHandler
 .text.bootloader_init
                0x000783f8       0xa0 mesh/bootloader/CMakeFiles/mesh_bootloader_serial_gccarmemb_nrf52832_xxAA.dir/src/bootloader.c.obj
                0x000783f8                bootloader_init
 .text.bootloader_enable
                0x00078498       0xe2 mesh/bootloader/CMakeFiles/mesh_bootloader_serial_gccarmemb_nrf52832_xxAA.dir/src/bootloader.c.obj
                0x00078498                bootloader_enable
 .text.bootloader_cmd_send
                0x0007857a        0x4 mesh/bootloader/CMakeFiles/mesh_bootloader_serial_gccarmemb_nrf52832_xxAA.dir/src/bootloader.c.obj
                0x0007857a                bootloader_cmd_send
 *fill*         0x0007857e        0x2 
 .text.bootloader_abort
                0x00078580       0x88 mesh/bootloader/CMakeFiles/mesh_bootloader_serial_gccarmemb_nrf52832_xxAA.dir/src/bootloader.c.obj
                0x00078580                bootloader_abort
 .text.bl_evt_handler
                0x00078608      0x258 mesh/bootloader/CMakeFiles/mesh_bootloader_serial_gccarmemb_nrf52832_xxAA.dir/src/bootloader.c.obj
 .text.bootloader_timeout
                0x00078860       0x4c mesh/bootloader/CMakeFiles/mesh_bootloader_serial_gccarmemb_nrf52832_xxAA.dir/src/bootloader.c.obj
                0x00078860                bootloader_timeout
 .text.bl_cmd_handler
                0x000788ac      0x188 mesh/bootloader/CMakeFiles/mesh_bootloader_serial_gccarmemb_nrf52832_xxAA.dir/src/bootloader_app_bridge.c.obj
                0x000788ac                bl_cmd_handler
 .text.bootloader_app_bridge_init
                0x00078a34       0x28 mesh/bootloader/CMakeFiles/mesh_bootloader_serial_gccarmemb_nrf52832_xxAA.dir/src/bootloader_app_bridge.c.obj
                0x00078a34                bootloader_app_bridge_init
 .text.bootloader_evt_send
                0x00078a5c       0x10 mesh/bootloader/CMakeFiles/mesh_bootloader_serial_gccarmemb_nrf52832_xxAA.dir/src/bootloader_app_bridge.c.obj
                0x00078a5c                bootloader_evt_send
 .text.send_end_evt
                0x00078a6c       0x1a mesh/bootloader/CMakeFiles/mesh_bootloader_serial_gccarmemb_nrf52832_xxAA.dir/src/bootloader_app_bridge.c.obj
                0x00078a6c                send_end_evt
 .text.flash_write
                0x00078a86       0x2a mesh/bootloader/CMakeFiles/mesh_bootloader_serial_gccarmemb_nrf52832_xxAA.dir/src/bootloader_app_bridge.c.obj
                0x00078a86                flash_write
 .text.flash_erase
                0x00078ab0       0x26 mesh/bootloader/CMakeFiles/mesh_bootloader_serial_gccarmemb_nrf52832_xxAA.dir/src/bootloader_app_bridge.c.obj
                0x00078ab0                flash_erase
 .text.tx_abort
                0x00078ad6       0x1a mesh/bootloader/CMakeFiles/mesh_bootloader_serial_gccarmemb_nrf52832_xxAA.dir/src/bootloader_app_bridge.c.obj
                0x00078ad6                tx_abort
 .text.bootloader_is_in_application
                0x00078af0       0x10 mesh/bootloader/CMakeFiles/mesh_bootloader_serial_gccarmemb_nrf52832_xxAA.dir/src/bootloader_app_bridge.c.obj
                0x00078af0                bootloader_is_in_application
 .text.info_entry_get
                0x00078b00       0x40 mesh/bootloader/CMakeFiles/mesh_bootloader_serial_gccarmemb_nrf52832_xxAA.dir/src/bootloader_info.c.obj
 .text.bootloader_info_header_get
                0x00078b40       0x1c mesh/bootloader/CMakeFiles/mesh_bootloader_serial_gccarmemb_nrf52832_xxAA.dir/src/bootloader_info.c.obj
 .text.bootloader_info_first_unused_get
                0x00078b5c       0x16 mesh/bootloader/CMakeFiles/mesh_bootloader_serial_gccarmemb_nrf52832_xxAA.dir/src/bootloader_info.c.obj
 *fill*         0x00078b72        0x2 
 .text.entry_header_invalidate
                0x00078b74       0x20 mesh/bootloader/CMakeFiles/mesh_bootloader_serial_gccarmemb_nrf52832_xxAA.dir/src/bootloader_info.c.obj
 .text.copy_page_write_meta
                0x00078b94       0x20 mesh/bootloader/CMakeFiles/mesh_bootloader_serial_gccarmemb_nrf52832_xxAA.dir/src/bootloader_info.c.obj
 .text.copy_page_write_next_data
                0x00078bb4       0x74 mesh/bootloader/CMakeFiles/mesh_bootloader_serial_gccarmemb_nrf52832_xxAA.dir/src/bootloader_info.c.obj
 .text.copy_page
                0x00078c28       0x34 mesh/bootloader/CMakeFiles/mesh_bootloader_serial_gccarmemb_nrf52832_xxAA.dir/src/bootloader_info.c.obj
 .text.place_head_after_entry.constprop.0
                0x00078c5c       0x40 mesh/bootloader/CMakeFiles/mesh_bootloader_serial_gccarmemb_nrf52832_xxAA.dir/src/bootloader_info.c.obj
 .text.entry_invalidate
                0x00078c9c       0x38 mesh/bootloader/CMakeFiles/mesh_bootloader_serial_gccarmemb_nrf52832_xxAA.dir/src/bootloader_info.c.obj
                0x00078c9c                entry_invalidate
 .text.entry_write
                0x00078cd4      0x110 mesh/bootloader/CMakeFiles/mesh_bootloader_serial_gccarmemb_nrf52832_xxAA.dir/src/bootloader_info.c.obj
                0x00078cd4                entry_write
 .text.bootloader_info_init
                0x00078de4       0xc0 mesh/bootloader/CMakeFiles/mesh_bootloader_serial_gccarmemb_nrf52832_xxAA.dir/src/bootloader_info.c.obj
                0x00078de4                bootloader_info_init
 .text.bootloader_info_entry_get
                0x00078ea4        0xa mesh/bootloader/CMakeFiles/mesh_bootloader_serial_gccarmemb_nrf52832_xxAA.dir/src/bootloader_info.c.obj
                0x00078ea4                bootloader_info_entry_get
 .text.bootloader_info_entry_overwrite
                0x00078eae       0x2a mesh/bootloader/CMakeFiles/mesh_bootloader_serial_gccarmemb_nrf52832_xxAA.dir/src/bootloader_info.c.obj
                0x00078eae                bootloader_info_entry_overwrite
 .text.bootloader_info_entry_invalidate
                0x00078ed8        0xa mesh/bootloader/CMakeFiles/mesh_bootloader_serial_gccarmemb_nrf52832_xxAA.dir/src/bootloader_info.c.obj
                0x00078ed8                bootloader_info_entry_invalidate
 *fill*         0x00078ee2        0x2 
 .text.bootloader_info_reset
                0x00078ee4       0x40 mesh/bootloader/CMakeFiles/mesh_bootloader_serial_gccarmemb_nrf52832_xxAA.dir/src/bootloader_info.c.obj
                0x00078ee4                bootloader_info_reset
 .text.bootloader_info_entry_put
                0x00078f24       0xd4 mesh/bootloader/CMakeFiles/mesh_bootloader_serial_gccarmemb_nrf52832_xxAA.dir/src/bootloader_info.c.obj
                0x00078f24                bootloader_info_entry_put
 .text.bootloader_info_stable
                0x00078ff8       0x20 mesh/bootloader/CMakeFiles/mesh_bootloader_serial_gccarmemb_nrf52832_xxAA.dir/src/bootloader_info.c.obj
                0x00078ff8                bootloader_info_stable
 .text.bootloader_info_on_flash_op_end
                0x00079018      0x118 mesh/bootloader/CMakeFiles/mesh_bootloader_serial_gccarmemb_nrf52832_xxAA.dir/src/bootloader_info.c.obj
                0x00079018                bootloader_info_on_flash_op_end
 .text.bootloader_info_on_flash_idle
                0x00079130       0x40 mesh/bootloader/CMakeFiles/mesh_bootloader_serial_gccarmemb_nrf52832_xxAA.dir/src/bootloader_info.c.obj
                0x00079130                bootloader_info_on_flash_idle
 .text.RTC0_IRQHandler
                0x00079170       0x48 mesh/bootloader/CMakeFiles/mesh_bootloader_serial_gccarmemb_nrf52832_xxAA.dir/src/bootloader_rtc.c.obj
                0x00079170                RTC0_IRQHandler
 .text.rtc_init
                0x000791b8       0x30 mesh/bootloader/CMakeFiles/mesh_bootloader_serial_gccarmemb_nrf52832_xxAA.dir/src/bootloader_rtc.c.obj
                0x000791b8                rtc_init
 .text.bootloader_util_app_start
                0x000791e8       0x3c mesh/bootloader/CMakeFiles/mesh_bootloader_serial_gccarmemb_nrf52832_xxAA.dir/src/bootloader_util.c.obj
                0x000791e8                bootloader_util_app_start
 .text.sd_mbr_command
                0x00079224        0x4 mesh/bootloader/CMakeFiles/mesh_bootloader_serial_gccarmemb_nrf52832_xxAA.dir/src/dfu_bank.c.obj
 .text.flash_bank_entry
                0x00079228      0x2b0 mesh/bootloader/CMakeFiles/mesh_bootloader_serial_gccarmemb_nrf52832_xxAA.dir/src/dfu_bank.c.obj
 .text.dfu_bank_scan
                0x000794d8       0x4c mesh/bootloader/CMakeFiles/mesh_bootloader_serial_gccarmemb_nrf52832_xxAA.dir/src/dfu_bank.c.obj
                0x000794d8                dfu_bank_scan
 .text.dfu_bank_flash
                0x00079524       0x48 mesh/bootloader/CMakeFiles/mesh_bootloader_serial_gccarmemb_nrf52832_xxAA.dir/src/dfu_bank.c.obj
                0x00079524                dfu_bank_flash
 .text.dfu_bank_on_flash_idle
                0x0007956c       0x20 mesh/bootloader/CMakeFiles/mesh_bootloader_serial_gccarmemb_nrf52832_xxAA.dir/src/dfu_bank.c.obj
                0x0007956c                dfu_bank_on_flash_idle
 .text.dfu_bank_transfer_in_progress
                0x0007958c       0x10 mesh/bootloader/CMakeFiles/mesh_bootloader_serial_gccarmemb_nrf52832_xxAA.dir/src/dfu_bank.c.obj
                0x0007958c                dfu_bank_transfer_in_progress
 .text.segment_count_from_start_packet
                0x0007959c       0x2c mesh/bootloader/CMakeFiles/mesh_bootloader_serial_gccarmemb_nrf52832_xxAA.dir/src/dfu_mesh.c.obj
 .text.get_info_pointers
                0x000795c8       0x6c mesh/bootloader/CMakeFiles/mesh_bootloader_serial_gccarmemb_nrf52832_xxAA.dir/src/dfu_mesh.c.obj
 .text.beacon_set
                0x00079634      0x110 mesh/bootloader/CMakeFiles/mesh_bootloader_serial_gccarmemb_nrf52832_xxAA.dir/src/dfu_mesh.c.obj
 .text.start_find_fwid
                0x00079744       0x24 mesh/bootloader/CMakeFiles/mesh_bootloader_serial_gccarmemb_nrf52832_xxAA.dir/src/dfu_mesh.c.obj
 .text.notify_state_packet
                0x00079768       0x3c mesh/bootloader/CMakeFiles/mesh_bootloader_serial_gccarmemb_nrf52832_xxAA.dir/src/dfu_mesh.c.obj
 .text.packet_tx_dynamic.constprop.0
                0x000797a4       0x4c mesh/bootloader/CMakeFiles/mesh_bootloader_serial_gccarmemb_nrf52832_xxAA.dir/src/dfu_mesh.c.obj
 .text.relay_packet
                0x000797f0       0x30 mesh/bootloader/CMakeFiles/mesh_bootloader_serial_gccarmemb_nrf52832_xxAA.dir/src/dfu_mesh.c.obj
 .text.start_req
                0x00079820       0x58 mesh/bootloader/CMakeFiles/mesh_bootloader_serial_gccarmemb_nrf52832_xxAA.dir/src/dfu_mesh.c.obj
 .text.handle_data_packet
                0x00079878      0x568 mesh/bootloader/CMakeFiles/mesh_bootloader_serial_gccarmemb_nrf52832_xxAA.dir/src/dfu_mesh.c.obj
 .text.dfu_mesh_init
                0x00079de0       0x44 mesh/bootloader/CMakeFiles/mesh_bootloader_serial_gccarmemb_nrf52832_xxAA.dir/src/dfu_mesh.c.obj
                0x00079de0                dfu_mesh_init
 .text.dfu_mesh_start
                0x00079e24       0xe0 mesh/bootloader/CMakeFiles/mesh_bootloader_serial_gccarmemb_nrf52832_xxAA.dir/src/dfu_mesh.c.obj
                0x00079e24                dfu_mesh_start
 .text.dfu_mesh_req
                0x00079f04       0x34 mesh/bootloader/CMakeFiles/mesh_bootloader_serial_gccarmemb_nrf52832_xxAA.dir/src/dfu_mesh.c.obj
                0x00079f04                dfu_mesh_req
 .text.dfu_mesh_relay
                0x00079f38       0x4c mesh/bootloader/CMakeFiles/mesh_bootloader_serial_gccarmemb_nrf52832_xxAA.dir/src/dfu_mesh.c.obj
                0x00079f38                dfu_mesh_relay
 .text.dfu_mesh_rx
                0x00079f84      0x2fc mesh/bootloader/CMakeFiles/mesh_bootloader_serial_gccarmemb_nrf52832_xxAA.dir/src/dfu_mesh.c.obj
                0x00079f84                dfu_mesh_rx
 .text.dfu_mesh_missing_type_get
                0x0007a280       0x52 mesh/bootloader/CMakeFiles/mesh_bootloader_serial_gccarmemb_nrf52832_xxAA.dir/src/dfu_mesh.c.obj
                0x0007a280                dfu_mesh_missing_type_get
 .text.dfu_mesh_app_is_valid
                0x0007a2d2       0x34 mesh/bootloader/CMakeFiles/mesh_bootloader_serial_gccarmemb_nrf52832_xxAA.dir/src/dfu_mesh.c.obj
                0x0007a2d2                dfu_mesh_app_is_valid
 *fill*         0x0007a306        0x2 
 .text.dfu_mesh_finalize
                0x0007a308      0x14c mesh/bootloader/CMakeFiles/mesh_bootloader_serial_gccarmemb_nrf52832_xxAA.dir/src/dfu_mesh.c.obj
                0x0007a308                dfu_mesh_finalize
 .text.dfu_mesh_timeout
                0x0007a454       0xd8 mesh/bootloader/CMakeFiles/mesh_bootloader_serial_gccarmemb_nrf52832_xxAA.dir/src/dfu_mesh.c.obj
                0x0007a454                dfu_mesh_timeout
 .text.dfu_mesh_restart
                0x0007a52c        0x4 mesh/bootloader/CMakeFiles/mesh_bootloader_serial_gccarmemb_nrf52832_xxAA.dir/src/dfu_mesh.c.obj
                0x0007a52c                dfu_mesh_restart
 .text.dfu_mesh_on_flash_idle
                0x0007a530       0x50 mesh/bootloader/CMakeFiles/mesh_bootloader_serial_gccarmemb_nrf52832_xxAA.dir/src/dfu_mesh.c.obj
                0x0007a530                dfu_mesh_on_flash_idle
 .text.dfu_transfer_init
                0x0007a580       0x1c mesh/bootloader/CMakeFiles/mesh_bootloader_serial_gccarmemb_nrf52832_xxAA.dir/src/dfu_transfer_mesh.c.obj
                0x0007a580                dfu_transfer_init
 .text.dfu_transfer_start
                0x0007a59c       0x74 mesh/bootloader/CMakeFiles/mesh_bootloader_serial_gccarmemb_nrf52832_xxAA.dir/src/dfu_transfer_mesh.c.obj
                0x0007a59c                dfu_transfer_start
 .text.dfu_transfer_data
                0x0007a610      0x180 mesh/bootloader/CMakeFiles/mesh_bootloader_serial_gccarmemb_nrf52832_xxAA.dir/src/dfu_transfer_mesh.c.obj
                0x0007a610                dfu_transfer_data
 .text.dfu_transfer_has_entry
                0x0007a790       0x78 mesh/bootloader/CMakeFiles/mesh_bootloader_serial_gccarmemb_nrf52832_xxAA.dir/src/dfu_transfer_mesh.c.obj
                0x0007a790                dfu_transfer_has_entry
 .text.dfu_transfer_get_oldest_missing_entry
                0x0007a808       0x7c mesh/bootloader/CMakeFiles/mesh_bootloader_serial_gccarmemb_nrf52832_xxAA.dir/src/dfu_transfer_mesh.c.obj
                0x0007a808                dfu_transfer_get_oldest_missing_entry
 .text.dfu_transfer_sha256
                0x0007a884       0x1c mesh/bootloader/CMakeFiles/mesh_bootloader_serial_gccarmemb_nrf52832_xxAA.dir/src/dfu_transfer_mesh.c.obj
                0x0007a884                dfu_transfer_sha256
 .text.dfu_transfer_end
                0x0007a8a0        0x4 mesh/bootloader/CMakeFiles/mesh_bootloader_serial_gccarmemb_nrf52832_xxAA.dir/src/dfu_transfer_mesh.c.obj
                0x0007a8a0                dfu_transfer_end
 .text.dfu_transfer_flash_write_complete
                0x0007a8a4       0x18 mesh/bootloader/CMakeFiles/mesh_bootloader_serial_gccarmemb_nrf52832_xxAA.dir/src/dfu_transfer_mesh.c.obj
                0x0007a8a4                dfu_transfer_flash_write_complete
 .text.fwid_union_cpy
                0x0007a8bc       0x1e mesh/bootloader/CMakeFiles/mesh_bootloader_serial_gccarmemb_nrf52832_xxAA.dir/src/dfu_util.c.obj
                0x0007a8bc                fwid_union_cpy
 .text.fwid_union_cmp
                0x0007a8da       0x2c mesh/bootloader/CMakeFiles/mesh_bootloader_serial_gccarmemb_nrf52832_xxAA.dir/src/dfu_util.c.obj
                0x0007a8da                fwid_union_cmp
 .text.fwid_union_id_cmp
                0x0007a906       0x30 mesh/bootloader/CMakeFiles/mesh_bootloader_serial_gccarmemb_nrf52832_xxAA.dir/src/dfu_util.c.obj
                0x0007a906                fwid_union_id_cmp
 .text.fwid_union_version_cmp
                0x0007a936       0x28 mesh/bootloader/CMakeFiles/mesh_bootloader_serial_gccarmemb_nrf52832_xxAA.dir/src/dfu_util.c.obj
                0x0007a936                fwid_union_version_cmp
 .text.addr_from_seg
                0x0007a95e       0x14 mesh/bootloader/CMakeFiles/mesh_bootloader_serial_gccarmemb_nrf52832_xxAA.dir/src/dfu_util.c.obj
                0x0007a95e                addr_from_seg
 .text.is_upgrade
                0x0007a972       0x94 mesh/bootloader/CMakeFiles/mesh_bootloader_serial_gccarmemb_nrf52832_xxAA.dir/src/dfu_util.c.obj
                0x0007a972                is_upgrade
 .text.app_is_newer
                0x0007aa06       0x30 mesh/bootloader/CMakeFiles/mesh_bootloader_serial_gccarmemb_nrf52832_xxAA.dir/src/dfu_util.c.obj
                0x0007aa06                app_is_newer
 .text.bootloader_is_newer
                0x0007aa36       0x2e mesh/bootloader/CMakeFiles/mesh_bootloader_serial_gccarmemb_nrf52832_xxAA.dir/src/dfu_util.c.obj
                0x0007aa36                bootloader_is_newer
 .text.fw_is_verified
                0x0007aa64       0x1c mesh/bootloader/CMakeFiles/mesh_bootloader_serial_gccarmemb_nrf52832_xxAA.dir/src/dfu_util.c.obj
                0x0007aa64                fw_is_verified
 .text.tid_cache_entry_put
                0x0007aa80       0x1c mesh/bootloader/CMakeFiles/mesh_bootloader_serial_gccarmemb_nrf52832_xxAA.dir/src/dfu_util.c.obj
                0x0007aa80                tid_cache_entry_put
 .text.tid_cache_has_entry
                0x0007aa9c       0x20 mesh/bootloader/CMakeFiles/mesh_bootloader_serial_gccarmemb_nrf52832_xxAA.dir/src/dfu_util.c.obj
                0x0007aa9c                tid_cache_has_entry
 .text.ready_packet_matches_our_req
                0x0007aabc       0x42 mesh/bootloader/CMakeFiles/mesh_bootloader_serial_gccarmemb_nrf52832_xxAA.dir/src/dfu_util.c.obj
                0x0007aabc                ready_packet_matches_our_req
 *fill*         0x0007aafe        0x2 
 .text.packet_in_cache
                0x0007ab00       0x2c mesh/bootloader/CMakeFiles/mesh_bootloader_serial_gccarmemb_nrf52832_xxAA.dir/src/dfu_util.c.obj
                0x0007ab00                packet_in_cache
 .text.packet_cache_put
                0x0007ab2c       0x28 mesh/bootloader/CMakeFiles/mesh_bootloader_serial_gccarmemb_nrf52832_xxAA.dir/src/dfu_util.c.obj
                0x0007ab2c                packet_cache_put
 .text.packet_cache_flush
                0x0007ab54       0x1c mesh/bootloader/CMakeFiles/mesh_bootloader_serial_gccarmemb_nrf52832_xxAA.dir/src/dfu_util.c.obj
                0x0007ab54                packet_cache_flush
 .text.section_overlap
                0x0007ab70       0x22 mesh/bootloader/CMakeFiles/mesh_bootloader_serial_gccarmemb_nrf52832_xxAA.dir/src/dfu_util.c.obj
                0x0007ab70                section_overlap
 *fill*         0x0007ab92        0x2 
 .text.interrupts_disable
                0x0007ab94       0x24 mesh/bootloader/CMakeFiles/mesh_bootloader_serial_gccarmemb_nrf52832_xxAA.dir/src/dfu_util.c.obj
                0x0007ab94                interrupts_disable
 .text.fifo_init
                0x0007abb8       0x1e mesh/bootloader/CMakeFiles/mesh_bootloader_serial_gccarmemb_nrf52832_xxAA.dir/src/fifo.c.obj
                0x0007abb8                fifo_init
 .text.fifo_push
                0x0007abd6       0x4e mesh/bootloader/CMakeFiles/mesh_bootloader_serial_gccarmemb_nrf52832_xxAA.dir/src/fifo.c.obj
                0x0007abd6                fifo_push
 .text.fifo_pop
                0x0007ac24       0x4a mesh/bootloader/CMakeFiles/mesh_bootloader_serial_gccarmemb_nrf52832_xxAA.dir/src/fifo.c.obj
                0x0007ac24                fifo_pop
 .text.fifo_peek_at
                0x0007ac6e       0x4e mesh/bootloader/CMakeFiles/mesh_bootloader_serial_gccarmemb_nrf52832_xxAA.dir/src/fifo.c.obj
                0x0007ac6e                fifo_peek_at
 .text.fifo_peek
                0x0007acbc        0x6 mesh/bootloader/CMakeFiles/mesh_bootloader_serial_gccarmemb_nrf52832_xxAA.dir/src/fifo.c.obj
                0x0007acbc                fifo_peek
 .text.fifo_get_len
                0x0007acc2        0x8 mesh/bootloader/CMakeFiles/mesh_bootloader_serial_gccarmemb_nrf52832_xxAA.dir/src/fifo.c.obj
                0x0007acc2                fifo_get_len
 .text.fifo_is_full
                0x0007acca       0x10 mesh/bootloader/CMakeFiles/mesh_bootloader_serial_gccarmemb_nrf52832_xxAA.dir/src/fifo.c.obj
                0x0007acca                fifo_is_full
 .text.fifo_is_empty
                0x0007acda        0xc mesh/bootloader/CMakeFiles/mesh_bootloader_serial_gccarmemb_nrf52832_xxAA.dir/src/fifo.c.obj
                0x0007acda                fifo_is_empty
 .text.app_error_handler_bare
                0x0007ace6        0x6 mesh/bootloader/CMakeFiles/mesh_bootloader_serial_gccarmemb_nrf52832_xxAA.dir/src/main.c.obj
                0x0007ace6                app_error_handler_bare
 .text.HardFault_Handler
                0x0007acec        0x6 mesh/bootloader/CMakeFiles/mesh_bootloader_serial_gccarmemb_nrf52832_xxAA.dir/src/main.c.obj
                0x0007acec                HardFault_Handler
 *fill*         0x0007acf2        0x2 
 .text.startup.main
                0x0007acf4       0x90 mesh/bootloader/CMakeFiles/mesh_bootloader_serial_gccarmemb_nrf52832_xxAA.dir/src/main.c.obj
                0x0007acf4                main
 .text.mesh_packet_init
                0x0007ad84       0x18 mesh/bootloader/CMakeFiles/mesh_bootloader_serial_gccarmemb_nrf52832_xxAA.dir/src/mesh_packet.c.obj
                0x0007ad84                mesh_packet_init
 .text.mesh_packet_acquire
                0x0007ad9c       0x40 mesh/bootloader/CMakeFiles/mesh_bootloader_serial_gccarmemb_nrf52832_xxAA.dir/src/mesh_packet.c.obj
                0x0007ad9c                mesh_packet_acquire
 .text.mesh_packet_ref_count_inc
                0x0007addc       0x44 mesh/bootloader/CMakeFiles/mesh_bootloader_serial_gccarmemb_nrf52832_xxAA.dir/src/mesh_packet.c.obj
                0x0007addc                mesh_packet_ref_count_inc
 .text.mesh_packet_ref_count_dec
                0x0007ae20       0x4c mesh/bootloader/CMakeFiles/mesh_bootloader_serial_gccarmemb_nrf52832_xxAA.dir/src/mesh_packet.c.obj
                0x0007ae20                mesh_packet_ref_count_dec
 .text.mesh_packet_ref_count_get
                0x0007ae6c       0x24 mesh/bootloader/CMakeFiles/mesh_bootloader_serial_gccarmemb_nrf52832_xxAA.dir/src/mesh_packet.c.obj
                0x0007ae6c                mesh_packet_ref_count_get
 .text.mesh_packet_set_local_addr
                0x0007ae90       0x28 mesh/bootloader/CMakeFiles/mesh_bootloader_serial_gccarmemb_nrf52832_xxAA.dir/src/mesh_packet.c.obj
                0x0007ae90                mesh_packet_set_local_addr
 .text.mesh_packet_adv_data_get
                0x0007aeb8       0x3c mesh/bootloader/CMakeFiles/mesh_bootloader_serial_gccarmemb_nrf52832_xxAA.dir/src/mesh_packet.c.obj
                0x0007aeb8                mesh_packet_adv_data_get
 .text.nrf_flash_erase
                0x0007aef4       0x60 mesh/bootloader/CMakeFiles/mesh_bootloader_serial_gccarmemb_nrf52832_xxAA.dir/src/nrf_flash.c.obj
                0x0007aef4                nrf_flash_erase
 .text.nrf_flash_store
                0x0007af54       0x70 mesh/bootloader/CMakeFiles/mesh_bootloader_serial_gccarmemb_nrf52832_xxAA.dir/src/nrf_flash.c.obj
                0x0007af54                nrf_flash_store
 .text.radio_init
                0x0007afc4      0x118 mesh/bootloader/CMakeFiles/mesh_bootloader_serial_gccarmemb_nrf52832_xxAA.dir/src/radio_control.c.obj
                0x0007afc4                radio_init
 .text.radio_order
                0x0007b0dc       0x4c mesh/bootloader/CMakeFiles/mesh_bootloader_serial_gccarmemb_nrf52832_xxAA.dir/src/radio_control.c.obj
                0x0007b0dc                radio_order
 .text.radio_disable
                0x0007b128       0x28 mesh/bootloader/CMakeFiles/mesh_bootloader_serial_gccarmemb_nrf52832_xxAA.dir/src/radio_control.c.obj
                0x0007b128                radio_disable
 .text.radio_event_handler
                0x0007b150      0x1b4 mesh/bootloader/CMakeFiles/mesh_bootloader_serial_gccarmemb_nrf52832_xxAA.dir/src/radio_control.c.obj
                0x0007b150                radio_event_handler
 .text.rand_prng_get
                0x0007b304       0x24 mesh/bootloader/CMakeFiles/mesh_bootloader_serial_gccarmemb_nrf52832_xxAA.dir/src/rand.c.obj
                0x0007b304                rand_prng_get
 .text.rand_hw_rng_get
                0x0007b328       0x30 mesh/bootloader/CMakeFiles/mesh_bootloader_serial_gccarmemb_nrf52832_xxAA.dir/src/rand.c.obj
                0x0007b328                rand_hw_rng_get
 .text.rand_prng_seed
                0x0007b358       0x38 mesh/bootloader/CMakeFiles/mesh_bootloader_serial_gccarmemb_nrf52832_xxAA.dir/src/rand.c.obj
                0x0007b358                rand_prng_seed
 .text.order_next_rtc
                0x0007b390       0x68 mesh/bootloader/CMakeFiles/mesh_bootloader_serial_gccarmemb_nrf52832_xxAA.dir/src/transport.c.obj
 .text.radio_rx_cb
                0x0007b3f8       0x30 mesh/bootloader/CMakeFiles/mesh_bootloader_serial_gccarmemb_nrf52832_xxAA.dir/src/transport.c.obj
 .text.order_scan
                0x0007b428       0x3c mesh/bootloader/CMakeFiles/mesh_bootloader_serial_gccarmemb_nrf52832_xxAA.dir/src/transport.c.obj
 .text.radio_idle_cb
                0x0007b464       0x10 mesh/bootloader/CMakeFiles/mesh_bootloader_serial_gccarmemb_nrf52832_xxAA.dir/src/transport.c.obj
 .text.set_next_tx
                0x0007b474       0x74 mesh/bootloader/CMakeFiles/mesh_bootloader_serial_gccarmemb_nrf52832_xxAA.dir/src/transport.c.obj
 .text.RADIO_IRQHandler
                0x0007b4e8        0x4 mesh/bootloader/CMakeFiles/mesh_bootloader_serial_gccarmemb_nrf52832_xxAA.dir/src/transport.c.obj
                0x0007b4e8                RADIO_IRQHandler
 .text.timeslot_is_in_ts
                0x0007b4ec        0x4 mesh/bootloader/CMakeFiles/mesh_bootloader_serial_gccarmemb_nrf52832_xxAA.dir/src/transport.c.obj
                0x0007b4ec                timeslot_is_in_ts
 .text.transport_init
                0x0007b4f0       0x8c mesh/bootloader/CMakeFiles/mesh_bootloader_serial_gccarmemb_nrf52832_xxAA.dir/src/transport.c.obj
                0x0007b4f0                transport_init
 .text.transport_start
                0x0007b57c       0x14 mesh/bootloader/CMakeFiles/mesh_bootloader_serial_gccarmemb_nrf52832_xxAA.dir/src/transport.c.obj
                0x0007b57c                transport_start
 .text.SWI0_EGU0_IRQHandler
                0x0007b590       0x4c mesh/bootloader/CMakeFiles/mesh_bootloader_serial_gccarmemb_nrf52832_xxAA.dir/src/transport.c.obj
                0x0007b590                SWI0_EGU0_IRQHandler
 .text.transport_tx
                0x0007b5dc       0x70 mesh/bootloader/CMakeFiles/mesh_bootloader_serial_gccarmemb_nrf52832_xxAA.dir/src/transport.c.obj
                0x0007b5dc                transport_tx
 .text.transport_tx_abort
                0x0007b64c       0x40 mesh/bootloader/CMakeFiles/mesh_bootloader_serial_gccarmemb_nrf52832_xxAA.dir/src/transport.c.obj
                0x0007b64c                transport_tx_abort
 .text.transport_rtc_irq_handler
                0x0007b68c       0xc8 mesh/bootloader/CMakeFiles/mesh_bootloader_serial_gccarmemb_nrf52832_xxAA.dir/src/transport.c.obj
                0x0007b68c                transport_rtc_irq_handler
 .text.transport_tx_evt_set
                0x0007b754       0x28 mesh/bootloader/CMakeFiles/mesh_bootloader_serial_gccarmemb_nrf52832_xxAA.dir/src/transport.c.obj
                0x0007b754                transport_tx_evt_set
 .text.transport_tx_evt_get
                0x0007b77c       0x24 mesh/bootloader/CMakeFiles/mesh_bootloader_serial_gccarmemb_nrf52832_xxAA.dir/src/transport.c.obj
                0x0007b77c                transport_tx_evt_get
 .text.radio_tx_cb
                0x0007b7a0       0x3a mesh/bootloader/CMakeFiles/mesh_bootloader_serial_gccarmemb_nrf52832_xxAA.dir/src/transport.c.obj
 .text.vli_clear
                0x0007b7da       0x10 mesh/bootloader/CMakeFiles/mesh_bootloader_serial_gccarmemb_nrf52832_xxAA.dir/src/uECC.c.obj
 .text.vli_isZero
                0x0007b7ea       0x16 mesh/bootloader/CMakeFiles/mesh_bootloader_serial_gccarmemb_nrf52832_xxAA.dir/src/uECC.c.obj
 .text.vli_testBit
                0x0007b800       0x14 mesh/bootloader/CMakeFiles/mesh_bootloader_serial_gccarmemb_nrf52832_xxAA.dir/src/uECC.c.obj
 .text.vli_set  0x0007b814       0x12 mesh/bootloader/CMakeFiles/mesh_bootloader_serial_gccarmemb_nrf52832_xxAA.dir/src/uECC.c.obj
 .text.vli_cmp  0x0007b826       0x28 mesh/bootloader/CMakeFiles/mesh_bootloader_serial_gccarmemb_nrf52832_xxAA.dir/src/uECC.c.obj
 .text.vli_rshift1
                0x0007b84e       0x1a mesh/bootloader/CMakeFiles/mesh_bootloader_serial_gccarmemb_nrf52832_xxAA.dir/src/uECC.c.obj
 .text.vli_add  0x0007b868       0x2a mesh/bootloader/CMakeFiles/mesh_bootloader_serial_gccarmemb_nrf52832_xxAA.dir/src/uECC.c.obj
 .text.vli_sub  0x0007b892       0x2a mesh/bootloader/CMakeFiles/mesh_bootloader_serial_gccarmemb_nrf52832_xxAA.dir/src/uECC.c.obj
 .text.vli_bytesToNative
                0x0007b8bc       0x18 mesh/bootloader/CMakeFiles/mesh_bootloader_serial_gccarmemb_nrf52832_xxAA.dir/src/uECC.c.obj
 .text.vli_modInv
                0x0007b8d4      0x128 mesh/bootloader/CMakeFiles/mesh_bootloader_serial_gccarmemb_nrf52832_xxAA.dir/src/uECC.c.obj
 .text.vli_modSub.constprop.0
                0x0007b9fc       0x20 mesh/bootloader/CMakeFiles/mesh_bootloader_serial_gccarmemb_nrf52832_xxAA.dir/src/uECC.c.obj
 .text.vli_modAdd.constprop.0
                0x0007ba1c       0x2c mesh/bootloader/CMakeFiles/mesh_bootloader_serial_gccarmemb_nrf52832_xxAA.dir/src/uECC.c.obj
 .text.vli_numBits.constprop.0
                0x0007ba48       0x22 mesh/bootloader/CMakeFiles/mesh_bootloader_serial_gccarmemb_nrf52832_xxAA.dir/src/uECC.c.obj
 .text.vli_mult
                0x0007ba6a       0xba mesh/bootloader/CMakeFiles/mesh_bootloader_serial_gccarmemb_nrf52832_xxAA.dir/src/uECC.c.obj
 .text.vli_modMult_fast
                0x0007bb24      0x190 mesh/bootloader/CMakeFiles/mesh_bootloader_serial_gccarmemb_nrf52832_xxAA.dir/src/uECC.c.obj
 .text.apply_z  0x0007bcb4       0x34 mesh/bootloader/CMakeFiles/mesh_bootloader_serial_gccarmemb_nrf52832_xxAA.dir/src/uECC.c.obj
 .text.XYcZ_add
                0x0007bce8       0x9a mesh/bootloader/CMakeFiles/mesh_bootloader_serial_gccarmemb_nrf52832_xxAA.dir/src/uECC.c.obj
 *fill*         0x0007bd82        0x2 
 .text.vli_modMult_n
                0x0007bd84       0xa0 mesh/bootloader/CMakeFiles/mesh_bootloader_serial_gccarmemb_nrf52832_xxAA.dir/src/uECC.c.obj
 .text.uECC_verify
                0x0007be24      0x31c mesh/bootloader/CMakeFiles/mesh_bootloader_serial_gccarmemb_nrf52832_xxAA.dir/src/uECC.c.obj
                0x0007be24                uECC_verify
 .text.sha256_transform
                0x0007c140      0x13c mesh/bootloader/CMakeFiles/mesh_bootloader_serial_gccarmemb_nrf52832_xxAA.dir/C_/dev/mesh_dep/nRF5_SDK_16.0.0_98a08e2/components/libraries/sha256/sha256.c.obj
                0x0007c140                sha256_transform
 .text.sha256_init
                0x0007c27c       0x60 mesh/bootloader/CMakeFiles/mesh_bootloader_serial_gccarmemb_nrf52832_xxAA.dir/C_/dev/mesh_dep/nRF5_SDK_16.0.0_98a08e2/components/libraries/sha256/sha256.c.obj
                0x0007c27c                sha256_init
 .text.sha256_update
                0x0007c2dc       0x46 mesh/bootloader/CMakeFiles/mesh_bootloader_serial_gccarmemb_nrf52832_xxAA.dir/C_/dev/mesh_dep/nRF5_SDK_16.0.0_98a08e2/components/libraries/sha256/sha256.c.obj
                0x0007c2dc                sha256_update
 .text.sha256_final
                0x0007c322       0xfc mesh/bootloader/CMakeFiles/mesh_bootloader_serial_gccarmemb_nrf52832_xxAA.dir/C_/dev/mesh_dep/nRF5_SDK_16.0.0_98a08e2/components/libraries/sha256/sha256.c.obj
                0x0007c322                sha256_final
 *fill*         0x0007c41e        0x2 
 .text.schedule_transmit
                0x0007c420       0x2c mesh/bootloader/CMakeFiles/mesh_bootloader_serial_gccarmemb_nrf52832_xxAA.dir/src/serial_handler_uart.c.obj
 .text.SWI1_EGU1_IRQHandler
                0x0007c44c       0x40 mesh/bootloader/CMakeFiles/mesh_bootloader_serial_gccarmemb_nrf52832_xxAA.dir/src/serial_handler_uart.c.obj
                0x0007c44c                SWI1_EGU1_IRQHandler
 .text.serial_handler_init
                0x0007c48c       0xc0 mesh/bootloader/CMakeFiles/mesh_bootloader_serial_gccarmemb_nrf52832_xxAA.dir/src/serial_handler_uart.c.obj
                0x0007c48c                serial_handler_init
 .text.serial_handler_credit_available
                0x0007c54c        0xc mesh/bootloader/CMakeFiles/mesh_bootloader_serial_gccarmemb_nrf52832_xxAA.dir/src/serial_handler_uart.c.obj
                0x0007c54c                serial_handler_credit_available
 .text.serial_handler_event_send
                0x0007c558       0x44 mesh/bootloader/CMakeFiles/mesh_bootloader_serial_gccarmemb_nrf52832_xxAA.dir/src/serial_handler_uart.c.obj
                0x0007c558                serial_handler_event_send
 .text.UARTE0_UART0_IRQHandler
                0x0007c59c       0xf4 mesh/bootloader/CMakeFiles/mesh_bootloader_serial_gccarmemb_nrf52832_xxAA.dir/src/serial_handler_uart.c.obj
                0x0007c59c                UARTE0_UART0_IRQHandler
 .text.serial_wait_for_completion
                0x0007c690       0x2c mesh/bootloader/CMakeFiles/mesh_bootloader_serial_gccarmemb_nrf52832_xxAA.dir/src/serial_handler_uart.c.obj
                0x0007c690                serial_wait_for_completion
 .text.serial_handler_command_get
                0x0007c6bc       0x4c mesh/bootloader/CMakeFiles/mesh_bootloader_serial_gccarmemb_nrf52832_xxAA.dir/src/serial_handler_uart.c.obj
                0x0007c6bc                serial_handler_command_get
 .text.serial_handler_uart_disable
                0x0007c708       0x28 mesh/bootloader/CMakeFiles/mesh_bootloader_serial_gccarmemb_nrf52832_xxAA.dir/src/serial_handler_uart.c.obj
                0x0007c708                serial_handler_uart_disable
 .text.mesh_aci_init
                0x0007c730       0x18 mesh/bootloader/CMakeFiles/mesh_bootloader_serial_gccarmemb_nrf52832_xxAA.dir/src/mesh_aci.c.obj
                0x0007c730                mesh_aci_init
 .text.mesh_aci_start
                0x0007c748       0x3e mesh/bootloader/CMakeFiles/mesh_bootloader_serial_gccarmemb_nrf52832_xxAA.dir/src/mesh_aci.c.obj
                0x0007c748                mesh_aci_start
 *fill*         0x0007c786        0x2 
 .text.mesh_aci_command_check
                0x0007c788      0x168 mesh/bootloader/CMakeFiles/mesh_bootloader_serial_gccarmemb_nrf52832_xxAA.dir/src/mesh_aci.c.obj
                0x0007c788                mesh_aci_command_check
 .text.errata_12
                0x0007c8f0       0x40 mesh/bootloader/CMakeFiles/mesh_bootloader_serial_gccarmemb_nrf52832_xxAA.dir/C_/dev/mesh_dep/nRF5_SDK_16.0.0_98a08e2/modules/nrfx/mdk/system_nrf52.c.obj
 .text.errata_16
                0x0007c930       0x34 mesh/bootloader/CMakeFiles/mesh_bootloader_serial_gccarmemb_nrf52832_xxAA.dir/C_/dev/mesh_dep/nRF5_SDK_16.0.0_98a08e2/modules/nrfx/mdk/system_nrf52.c.obj
 .text.SystemInit
                0x0007c964      0x25c mesh/bootloader/CMakeFiles/mesh_bootloader_serial_gccarmemb_nrf52832_xxAA.dir/C_/dev/mesh_dep/nRF5_SDK_16.0.0_98a08e2/modules/nrfx/mdk/system_nrf52.c.obj
                0x0007c964                SystemInit
 .text          0x0007cbc0       0x3c mesh/bootloader/CMakeFiles/mesh_bootloader_serial_gccarmemb_nrf52832_xxAA.dir/C_/dev/mesh_dep/nRF5_SDK_16.0.0_98a08e2/modules/nrfx/mdk/gcc_startup_nrf52.S.obj
                0x0007cbc0                Reset_Handler
                0x0007cbe8                NMI_Handler
                0x0007cbec                MemoryManagement_Handler
                0x0007cbee                BusFault_Handler
                0x0007cbf0                UsageFault_Handler
                0x0007cbf2                SVC_Handler
                0x0007cbf4                DebugMon_Handler
                0x0007cbf6                PendSV_Handler
                0x0007cbf8                SysTick_Handler
                0x0007cbfa                TEMP_IRQHandler
                0x0007cbfa                QDEC_IRQHandler
                0x0007cbfa                TIMER3_IRQHandler
                0x0007cbfa                FPU_IRQHandler
                0x0007cbfa                PDM_IRQHandler
                0x0007cbfa                POWER_CLOCK_IRQHandler
                0x0007cbfa                TIMER4_IRQHandler
                0x0007cbfa                PWM1_IRQHandler
                0x0007cbfa                SWI4_EGU4_IRQHandler
                0x0007cbfa                TIMER0_IRQHandler
                0x0007cbfa                SPIM0_SPIS0_TWIM0_TWIS0_SPI0_TWI0_IRQHandler
                0x0007cbfa                TIMER1_IRQHandler
                0x0007cbfa                PWM2_IRQHandler
                0x0007cbfa                ECB_IRQHandler
                0x0007cbfa                SPIM1_SPIS1_TWIM1_TWIS1_SPI1_TWI1_IRQHandler
                0x0007cbfa                Default_Handler
                0x0007cbfa                SAADC_IRQHandler
                0x0007cbfa                CCM_AAR_IRQHandler
                0x0007cbfa                WDT_IRQHandler
                0x0007cbfa                I2S_IRQHandler
                0x0007cbfa                SWI5_EGU5_IRQHandler
                0x0007cbfa                RNG_IRQHandler
                0x0007cbfa                RTC2_IRQHandler
                0x0007cbfa                PWM0_IRQHandler
                0x0007cbfa                RTC1_IRQHandler
                0x0007cbfa                SPIM2_SPIS2_SPI2_IRQHandler
                0x0007cbfa                NFCT_IRQHandler
                0x0007cbfa                GPIOTE_IRQHandler
                0x0007cbfa                MWU_IRQHandler
                0x0007cbfa                TIMER2_IRQHandler
                0x0007cbfa                COMP_LPCOMP_IRQHandler
 .text          0x0007cbfc       0x30 c:/progra~2/gnutoo~1/92019-~1/bin/../lib/gcc/arm-none-eabi/9.2.1/thumb/v7e-m+fp/hard\libgcc.a(_aeabi_uldivmod.o)
                0x0007cbfc                __aeabi_uldivmod
 .text          0x0007cc2c      0x2c4 c:/progra~2/gnutoo~1/92019-~1/bin/../lib/gcc/arm-none-eabi/9.2.1/thumb/v7e-m+fp/hard\libgcc.a(_udivmoddi4.o)
                0x0007cc2c                __udivmoddi4
 .text          0x0007cef0        0x4 c:/progra~2/gnutoo~1/92019-~1/bin/../lib/gcc/arm-none-eabi/9.2.1/thumb/v7e-m+fp/hard\libgcc.a(_dvmd_tls.o)
                0x0007cef0                __aeabi_idiv0
                0x0007cef0                __aeabi_ldiv0
 .text.exit     0x0007cef4       0x28 c:/progra~2/gnutoo~1/92019-~1/bin/../lib/gcc/arm-none-eabi/9.2.1/../../../../arm-none-eabi/lib/thumb/v7e-m+fp/hard\libg_nano.a(lib_a-exit.o)
                0x0007cef4                exit
 .text.__libc_init_array
                0x0007cf1c       0x48 c:/progra~2/gnutoo~1/92019-~1/bin/../lib/gcc/arm-none-eabi/9.2.1/../../../../arm-none-eabi/lib/thumb/v7e-m+fp/hard\libg_nano.a(lib_a-init.o)
                0x0007cf1c                __libc_init_array
 .text.memcmp   0x0007cf64       0x1c c:/progra~2/gnutoo~1/92019-~1/bin/../lib/gcc/arm-none-eabi/9.2.1/../../../../arm-none-eabi/lib/thumb/v7e-m+fp/hard\libg_nano.a(lib_a-memcmp.o)
                0x0007cf64                memcmp
 .text.memcpy   0x0007cf80       0x1c c:/progra~2/gnutoo~1/92019-~1/bin/../lib/gcc/arm-none-eabi/9.2.1/../../../../arm-none-eabi/lib/thumb/v7e-m+fp/hard\libg_nano.a(lib_a-memcpy-stub.o)
                0x0007cf80                memcpy
 .text.memset   0x0007cf9c       0x10 c:/progra~2/gnutoo~1/92019-~1/bin/../lib/gcc/arm-none-eabi/9.2.1/../../../../arm-none-eabi/lib/thumb/v7e-m+fp/hard\libg_nano.a(lib_a-memset.o)
                0x0007cf9c                memset
 .text._exit    0x0007cfac        0x4 c:/progra~2/gnutoo~1/92019-~1/bin/../lib/gcc/arm-none-eabi/9.2.1/../../../../arm-none-eabi/lib/thumb/v7e-m+fp/hard\libnosys.a(_exit.o)
                0x0007cfac                _exit
 *(.init)
 .init          0x0007cfb0        0x4 c:/progra~2/gnutoo~1/92019-~1/bin/../lib/gcc/arm-none-eabi/9.2.1/thumb/v7e-m+fp/hard/crti.o
                0x0007cfb0                _init
 .init          0x0007cfb4        0x8 c:/progra~2/gnutoo~1/92019-~1/bin/../lib/gcc/arm-none-eabi/9.2.1/thumb/v7e-m+fp/hard/crtn.o
 *(.fini)
 .fini          0x0007cfbc        0x4 c:/progra~2/gnutoo~1/92019-~1/bin/../lib/gcc/arm-none-eabi/9.2.1/thumb/v7e-m+fp/hard/crti.o
                0x0007cfbc                _fini
 .fini          0x0007cfc0        0x8 c:/progra~2/gnutoo~1/92019-~1/bin/../lib/gcc/arm-none-eabi/9.2.1/thumb/v7e-m+fp/hard/crtn.o
 *crtbegin.o(.ctors)
 *crtbegin?.o(.ctors)
 *(EXCLUDE_FILE(*crtend.o *crtend?.o) .ctors)
 *(SORT_BY_NAME(.ctors.*))
 *(.ctors)
 *crtbegin.o(.dtors)
 *crtbegin?.o(.dtors)
 *(EXCLUDE_FILE(*crtend.o *crtend?.o) .dtors)
 *(SORT_BY_NAME(.dtors.*))
 *(.dtors)
 *(.rodata*)
 .rodata.m_invalid_header
                0x0007cfc8        0x4 mesh/bootloader/CMakeFiles/mesh_bootloader_serial_gccarmemb_nrf52832_xxAA.dir/src/bootloader_info.c.obj
 .rodata.CSWTCH.47
                0x0007cfcc        0x4 mesh/bootloader/CMakeFiles/mesh_bootloader_serial_gccarmemb_nrf52832_xxAA.dir/src/dfu_mesh.c.obj
 .rodata        0x0007cfd0        0xc mesh/bootloader/CMakeFiles/mesh_bootloader_serial_gccarmemb_nrf52832_xxAA.dir/src/radio_control.c.obj
 .rodata.curve_G
                0x0007cfdc       0x40 mesh/bootloader/CMakeFiles/mesh_bootloader_serial_gccarmemb_nrf52832_xxAA.dir/src/uECC.c.obj
 .rodata.curve_n
                0x0007d01c       0x20 mesh/bootloader/CMakeFiles/mesh_bootloader_serial_gccarmemb_nrf52832_xxAA.dir/src/uECC.c.obj
 .rodata.curve_p
                0x0007d03c       0x20 mesh/bootloader/CMakeFiles/mesh_bootloader_serial_gccarmemb_nrf52832_xxAA.dir/src/uECC.c.obj
 .rodata.k      0x0007d05c      0x100 mesh/bootloader/CMakeFiles/mesh_bootloader_serial_gccarmemb_nrf52832_xxAA.dir/C_/dev/mesh_dep/nRF5_SDK_16.0.0_98a08e2/components/libraries/sha256/sha256.c.obj
 .rodata.CSWTCH.8
                0x0007d15c       0x12 mesh/bootloader/CMakeFiles/mesh_bootloader_serial_gccarmemb_nrf52832_xxAA.dir/src/mesh_aci.c.obj
 *fill*         0x0007d16e        0x2 
 .rodata._global_impure_ptr
                0x0007d170        0x4 c:/progra~2/gnutoo~1/92019-~1/bin/../lib/gcc/arm-none-eabi/9.2.1/../../../../arm-none-eabi/lib/thumb/v7e-m+fp/hard\libg_nano.a(lib_a-impure.o)
                0x0007d170                _global_impure_ptr
 *(.eh_frame*)
 .eh_frame      0x0007d174        0x0 c:/progra~2/gnutoo~1/92019-~1/bin/../lib/gcc/arm-none-eabi/9.2.1/thumb/v7e-m+fp/hard/crtbegin.o
 .eh_frame      0x0007d174        0x4 c:/progra~2/gnutoo~1/92019-~1/bin/../lib/gcc/arm-none-eabi/9.2.1/thumb/v7e-m+fp/hard/crtend.o

.glue_7         0x0007d178        0x0
 .glue_7        0x0007d178        0x0 linker stubs

.glue_7t        0x0007d178        0x0
 .glue_7t       0x0007d178        0x0 linker stubs

.vfp11_veneer   0x0007d178        0x0
 .vfp11_veneer  0x0007d178        0x0 linker stubs

.v4_bx          0x0007d178        0x0
 .v4_bx         0x0007d178        0x0 linker stubs

.iplt           0x0007d178        0x0
 .iplt          0x0007d178        0x0 c:/progra~2/gnutoo~1/92019-~1/bin/../lib/gcc/arm-none-eabi/9.2.1/thumb/v7e-m+fp/hard/crtbegin.o

.ARM.extab
 *(.ARM.extab* .gnu.linkonce.armextab.*)
                0x0007d178                __exidx_start = .

.ARM.exidx      0x0007d178        0x8
 *(.ARM.exidx* .gnu.linkonce.armexidx.*)
 .ARM.exidx     0x0007d178        0x8 c:/progra~2/gnutoo~1/92019-~1/bin/../lib/gcc/arm-none-eabi/9.2.1/../../../../arm-none-eabi/lib/thumb/v7e-m+fp/hard/crt0.o
 .ARM.exidx     0x0007d180        0x0 c:/progra~2/gnutoo~1/92019-~1/bin/../lib/gcc/arm-none-eabi/9.2.1/thumb/v7e-m+fp/hard\libgcc.a(_udivmoddi4.o)
                                  0x8 (size before relaxing)
                0x0007d180                __exidx_end = .
                0x0007d180                __etext = .

.rel.dyn        0x0007d180        0x0
 .rel.iplt      0x0007d180        0x0 c:/progra~2/gnutoo~1/92019-~1/bin/../lib/gcc/arm-none-eabi/9.2.1/thumb/v7e-m+fp/hard/crtbegin.o

.data           0x20000004       0x78 load address 0x0007d180
                0x20000004                __data_start__ = .
 *(vtable)
 *(.data*)
 .data.m_alt_aa
                0x20000004        0x4 mesh/bootloader/CMakeFiles/mesh_bootloader_serial_gccarmemb_nrf52832_xxAA.dir/src/radio_control.c.obj
 .data.m_radio_state
                0x20000008        0x1 mesh/bootloader/CMakeFiles/mesh_bootloader_serial_gccarmemb_nrf52832_xxAA.dir/src/radio_control.c.obj
 *fill*         0x20000009        0x3 
 .data.pp.11316
                0x2000000c        0x4 mesh/bootloader/CMakeFiles/mesh_bootloader_serial_gccarmemb_nrf52832_xxAA.dir/src/serial_handler_uart.c.obj
 .data.SystemCoreClock
                0x20000010        0x4 mesh/bootloader/CMakeFiles/mesh_bootloader_serial_gccarmemb_nrf52832_xxAA.dir/C_/dev/mesh_dep/nRF5_SDK_16.0.0_98a08e2/modules/nrfx/mdk/system_nrf52.c.obj
                0x20000010                SystemCoreClock
 .data.impure_data
                0x20000014       0x60 c:/progra~2/gnutoo~1/92019-~1/bin/../lib/gcc/arm-none-eabi/9.2.1/../../../../arm-none-eabi/lib/thumb/v7e-m+fp/hard\libg_nano.a(lib_a-impure.o)
                0x20000074                . = ALIGN (0x4)
                0x20000074                PROVIDE (__preinit_array_start = .)
 *(.preinit_array)
                0x20000074                PROVIDE (__preinit_array_end = .)
                0x20000074                . = ALIGN (0x4)
                0x20000074                PROVIDE (__init_array_start = .)
 *(SORT_BY_NAME(.init_array.*))
 *(.init_array)
 .init_array    0x20000074        0x4 c:/progra~2/gnutoo~1/92019-~1/bin/../lib/gcc/arm-none-eabi/9.2.1/thumb/v7e-m+fp/hard/crtbegin.o
                0x20000078                PROVIDE (__init_array_end = .)
                0x20000078                . = ALIGN (0x4)
                [!provide]                PROVIDE (__fini_array_start = .)
 *(SORT_BY_NAME(.fini_array.*))
 *(.fini_array)
 .fini_array    0x20000078        0x4 c:/progra~2/gnutoo~1/92019-~1/bin/../lib/gcc/arm-none-eabi/9.2.1/thumb/v7e-m+fp/hard/crtbegin.o
                [!provide]                PROVIDE (__fini_array_end = .)
 *(.jcr*)
                0x2000007c                . = ALIGN (0x4)
                0x2000007c                __data_end__ = .

.igot.plt       0x2000007c        0x0 load address 0x0007d1f8
 .igot.plt      0x2000007c        0x0 c:/progra~2/gnutoo~1/92019-~1/bin/../lib/gcc/arm-none-eabi/9.2.1/thumb/v7e-m+fp/hard/crtbegin.o

.bss            0x2000007c      0x954 load address 0x0007d1f8
                0x2000007c                . = ALIGN (0x4)
                0x2000007c                __bss_start__ = .
 *(.bss*)
 .bss           0x2000007c       0x1c c:/progra~2/gnutoo~1/92019-~1/bin/../lib/gcc/arm-none-eabi/9.2.1/thumb/v7e-m+fp/hard/crtbegin.o
 .bss.m_flash_fifo
                0x20000098       0x18 mesh/bootloader/CMakeFiles/mesh_bootloader_serial_gccarmemb_nrf52832_xxAA.dir/src/bootloader.c.obj
 .bss.m_flash_fifo_buf
                0x200000b0       0x80 mesh/bootloader/CMakeFiles/mesh_bootloader_serial_gccarmemb_nrf52832_xxAA.dir/src/bootloader.c.obj
 .bss.m_go_to_app
                0x20000130        0x1 mesh/bootloader/CMakeFiles/mesh_bootloader_serial_gccarmemb_nrf52832_xxAA.dir/src/bootloader.c.obj
 .bss.m_timeout_action
                0x20000131        0x1 mesh/bootloader/CMakeFiles/mesh_bootloader_serial_gccarmemb_nrf52832_xxAA.dir/src/bootloader.c.obj
 *fill*         0x20000132        0x2 
 .bss.rsp_cmd.11842
                0x20000134       0x18 mesh/bootloader/CMakeFiles/mesh_bootloader_serial_gccarmemb_nrf52832_xxAA.dir/src/bootloader.c.obj
 .bss.g_packet_pool
                0x2000014c      0x500 mesh/bootloader/CMakeFiles/mesh_bootloader_serial_gccarmemb_nrf52832_xxAA.dir/src/mesh_packet.c.obj
 .bss.g_packet_refs
                0x2000064c       0x20 mesh/bootloader/CMakeFiles/mesh_bootloader_serial_gccarmemb_nrf52832_xxAA.dir/src/mesh_packet.c.obj
 .bss.buffer.7116
                0x2000066c        0x4 mesh/bootloader/CMakeFiles/mesh_bootloader_serial_gccarmemb_nrf52832_xxAA.dir/src/nrf_flash.c.obj
 .bss.m_idle_cb
                0x20000670        0x4 mesh/bootloader/CMakeFiles/mesh_bootloader_serial_gccarmemb_nrf52832_xxAA.dir/src/radio_control.c.obj
 .bss.m_radio_fifo
                0x20000674       0x18 mesh/bootloader/CMakeFiles/mesh_bootloader_serial_gccarmemb_nrf52832_xxAA.dir/src/radio_control.c.obj
 .bss.m_radio_fifo_queue
                0x2000068c       0x40 mesh/bootloader/CMakeFiles/mesh_bootloader_serial_gccarmemb_nrf52832_xxAA.dir/src/radio_control.c.obj
 .bss.m_rx_cb   0x200006cc        0x4 mesh/bootloader/CMakeFiles/mesh_bootloader_serial_gccarmemb_nrf52832_xxAA.dir/src/radio_control.c.obj
 .bss.m_tx_cb   0x200006d0        0x4 mesh/bootloader/CMakeFiles/mesh_bootloader_serial_gccarmemb_nrf52832_xxAA.dir/src/radio_control.c.obj
 .bss.m_prng    0x200006d4       0x10 mesh/bootloader/CMakeFiles/mesh_bootloader_serial_gccarmemb_nrf52832_xxAA.dir/src/transport.c.obj
 .bss.m_running
                0x200006e4        0x1 mesh/bootloader/CMakeFiles/mesh_bootloader_serial_gccarmemb_nrf52832_xxAA.dir/src/transport.c.obj
 *fill*         0x200006e5        0x3 
 .bss.m_rx_cb   0x200006e8        0x4 mesh/bootloader/CMakeFiles/mesh_bootloader_serial_gccarmemb_nrf52832_xxAA.dir/src/transport.c.obj
 .bss.m_rx_fifo
                0x200006ec       0x18 mesh/bootloader/CMakeFiles/mesh_bootloader_serial_gccarmemb_nrf52832_xxAA.dir/src/transport.c.obj
 .bss.m_rx_fifo_buf
                0x20000704       0x80 mesh/bootloader/CMakeFiles/mesh_bootloader_serial_gccarmemb_nrf52832_xxAA.dir/src/transport.c.obj
 .bss.m_ticks_at_order_time
                0x20000784        0x4 mesh/bootloader/CMakeFiles/mesh_bootloader_serial_gccarmemb_nrf52832_xxAA.dir/src/transport.c.obj
 .bss.m_tx      0x20000788       0x80 mesh/bootloader/CMakeFiles/mesh_bootloader_serial_gccarmemb_nrf52832_xxAA.dir/src/transport.c.obj
 .bss.m_rx_fifo
                0x20000808       0x18 mesh/bootloader/CMakeFiles/mesh_bootloader_serial_gccarmemb_nrf52832_xxAA.dir/src/serial_handler_uart.c.obj
 .bss.m_rx_fifo_buffer
                0x20000820       0x9c mesh/bootloader/CMakeFiles/mesh_bootloader_serial_gccarmemb_nrf52832_xxAA.dir/src/serial_handler_uart.c.obj
 .bss.m_serial_state
                0x200008bc        0x1 mesh/bootloader/CMakeFiles/mesh_bootloader_serial_gccarmemb_nrf52832_xxAA.dir/src/serial_handler_uart.c.obj
 .bss.m_suspend
                0x200008bd        0x1 mesh/bootloader/CMakeFiles/mesh_bootloader_serial_gccarmemb_nrf52832_xxAA.dir/src/serial_handler_uart.c.obj
 .bss.m_tx_buffer
                0x200008be       0x27 mesh/bootloader/CMakeFiles/mesh_bootloader_serial_gccarmemb_nrf52832_xxAA.dir/src/serial_handler_uart.c.obj
 *fill*         0x200008e5        0x3 
 .bss.m_tx_fifo
                0x200008e8       0x18 mesh/bootloader/CMakeFiles/mesh_bootloader_serial_gccarmemb_nrf52832_xxAA.dir/src/serial_handler_uart.c.obj
 .bss.m_tx_fifo_buffer
                0x20000900       0x9c mesh/bootloader/CMakeFiles/mesh_bootloader_serial_gccarmemb_nrf52832_xxAA.dir/src/serial_handler_uart.c.obj
 .bss.m_tx_len  0x2000099c        0x4 mesh/bootloader/CMakeFiles/mesh_bootloader_serial_gccarmemb_nrf52832_xxAA.dir/src/serial_handler_uart.c.obj
 .bss.mp_tx_ptr
                0x200009a0        0x4 mesh/bootloader/CMakeFiles/mesh_bootloader_serial_gccarmemb_nrf52832_xxAA.dir/src/serial_handler_uart.c.obj
 .bss.rx_buf.11315
                0x200009a4       0x27 mesh/bootloader/CMakeFiles/mesh_bootloader_serial_gccarmemb_nrf52832_xxAA.dir/src/serial_handler_uart.c.obj
 *(COMMON)
 *fill*         0x200009cb        0x1 
 COMMON         0x200009cc        0x2 mesh/bootloader/CMakeFiles/mesh_bootloader_serial_gccarmemb_nrf52832_xxAA.dir/src/transport.c.obj
                0x200009cc                m_tx_evt_bitfield
                0x200009d0                . = ALIGN (0x4)
 *fill*         0x200009ce        0x2 
                0x200009d0                __bss_end__ = .

.heap           0x200009d0     0x2000
                0x200009d0                __HeapBase = .
                0x200009d0                __end__ = .
                [!provide]                PROVIDE (end = .)
 *(.heap*)
 .heap          0x200009d0     0x2000 mesh/bootloader/CMakeFiles/mesh_bootloader_serial_gccarmemb_nrf52832_xxAA.dir/C_/dev/mesh_dep/nRF5_SDK_16.0.0_98a08e2/modules/nrfx/mdk/gcc_startup_nrf52.S.obj
                0x200029d0                __HeapLimit = .

.stack_dummy    0x200009d0     0x2000
 *(.stack*)
 .stack         0x200009d0     0x2000 mesh/bootloader/CMakeFiles/mesh_bootloader_serial_gccarmemb_nrf52832_xxAA.dir/C_/dev/mesh_dep/nRF5_SDK_16.0.0_98a08e2/modules/nrfx/mdk/gcc_startup_nrf52.S.obj
                0x2000fd00                __StackTop = (ORIGIN (RAM) + LENGTH (RAM))
                0x2000dd00                __StackLimit = (__StackTop - SIZEOF (.stack_dummy))
                0x2000fd00                PROVIDE (__stack = __StackTop)
                0x00000001                ASSERT ((__StackLimit >= __HeapLimit), region RAM overflowed with stack)
                0x00000078                DataInitFlashUsed = (__bss_start__ - __data_start__)
                0x00005180                CodeFlashUsed = (__etext - ORIGIN (FLASH))
                0x000051f8                TotalFlashUsed = (CodeFlashUsed + DataInitFlashUsed)
                0x00000001                ASSERT ((TotalFlashUsed <= LENGTH (FLASH)), region FLASH overflowed with .data and user data)
OUTPUT(mesh\bootloader\mesh_bootloader_serial_gccarmemb_nrf52832_xxAA.elf elf32-littlearm)

.ARM.attributes
                0x00000000       0x30
 .ARM.attributes
                0x00000000       0x1e c:/progra~2/gnutoo~1/92019-~1/bin/../lib/gcc/arm-none-eabi/9.2.1/thumb/v7e-m+fp/hard/crti.o
 .ARM.attributes
                0x0000001e       0x34 c:/progra~2/gnutoo~1/92019-~1/bin/../lib/gcc/arm-none-eabi/9.2.1/thumb/v7e-m+fp/hard/crtbegin.o
 .ARM.attributes
                0x00000052       0x1c c:/progra~2/gnutoo~1/92019-~1/bin/../lib/gcc/arm-none-eabi/9.2.1/../../../../arm-none-eabi/lib/thumb/v7e-m+fp/hard/crt0.o
 .ARM.attributes
                0x0000006e       0x34 mesh/bootloader/CMakeFiles/mesh_bootloader_serial_gccarmemb_nrf52832_xxAA.dir/src/bootloader.c.obj
 .ARM.attributes
                0x000000a2       0x34 mesh/bootloader/CMakeFiles/mesh_bootloader_serial_gccarmemb_nrf52832_xxAA.dir/src/bootloader_app_bridge.c.obj
 .ARM.attributes
                0x000000d6       0x34 mesh/bootloader/CMakeFiles/mesh_bootloader_serial_gccarmemb_nrf52832_xxAA.dir/src/bootloader_info.c.obj
 .ARM.attributes
                0x0000010a       0x34 mesh/bootloader/CMakeFiles/mesh_bootloader_serial_gccarmemb_nrf52832_xxAA.dir/src/bootloader_rtc.c.obj
 .ARM.attributes
                0x0000013e       0x34 mesh/bootloader/CMakeFiles/mesh_bootloader_serial_gccarmemb_nrf52832_xxAA.dir/src/bootloader_util.c.obj
 .ARM.attributes
                0x00000172       0x34 mesh/bootloader/CMakeFiles/mesh_bootloader_serial_gccarmemb_nrf52832_xxAA.dir/src/dfu_bank.c.obj
 .ARM.attributes
                0x000001a6       0x34 mesh/bootloader/CMakeFiles/mesh_bootloader_serial_gccarmemb_nrf52832_xxAA.dir/src/dfu_mesh.c.obj
 .ARM.attributes
                0x000001da       0x34 mesh/bootloader/CMakeFiles/mesh_bootloader_serial_gccarmemb_nrf52832_xxAA.dir/src/dfu_transfer_mesh.c.obj
 .ARM.attributes
                0x0000020e       0x34 mesh/bootloader/CMakeFiles/mesh_bootloader_serial_gccarmemb_nrf52832_xxAA.dir/src/dfu_util.c.obj
 .ARM.attributes
                0x00000242       0x34 mesh/bootloader/CMakeFiles/mesh_bootloader_serial_gccarmemb_nrf52832_xxAA.dir/src/fifo.c.obj
 .ARM.attributes
                0x00000276       0x34 mesh/bootloader/CMakeFiles/mesh_bootloader_serial_gccarmemb_nrf52832_xxAA.dir/src/main.c.obj
 .ARM.attributes
                0x000002aa       0x34 mesh/bootloader/CMakeFiles/mesh_bootloader_serial_gccarmemb_nrf52832_xxAA.dir/src/mesh_packet.c.obj
 .ARM.attributes
                0x000002de       0x34 mesh/bootloader/CMakeFiles/mesh_bootloader_serial_gccarmemb_nrf52832_xxAA.dir/src/nrf_flash.c.obj
 .ARM.attributes
                0x00000312       0x34 mesh/bootloader/CMakeFiles/mesh_bootloader_serial_gccarmemb_nrf52832_xxAA.dir/src/radio_control.c.obj
 .ARM.attributes
                0x00000346       0x34 mesh/bootloader/CMakeFiles/mesh_bootloader_serial_gccarmemb_nrf52832_xxAA.dir/src/rand.c.obj
 .ARM.attributes
                0x0000037a       0x34 mesh/bootloader/CMakeFiles/mesh_bootloader_serial_gccarmemb_nrf52832_xxAA.dir/src/transport.c.obj
 .ARM.attributes
                0x000003ae       0x34 mesh/bootloader/CMakeFiles/mesh_bootloader_serial_gccarmemb_nrf52832_xxAA.dir/src/uECC.c.obj
 .ARM.attributes
                0x000003e2       0x34 mesh/bootloader/CMakeFiles/mesh_bootloader_serial_gccarmemb_nrf52832_xxAA.dir/C_/dev/mesh_dep/nRF5_SDK_16.0.0_98a08e2/components/libraries/sha256/sha256.c.obj
 .ARM.attributes
                0x00000416       0x34 mesh/bootloader/CMakeFiles/mesh_bootloader_serial_gccarmemb_nrf52832_xxAA.dir/src/serial_handler_uart.c.obj
 .ARM.attributes
                0x0000044a       0x34 mesh/bootloader/CMakeFiles/mesh_bootloader_serial_gccarmemb_nrf52832_xxAA.dir/src/mesh_aci.c.obj
 .ARM.attributes
                0x0000047e       0x34 mesh/bootloader/CMakeFiles/mesh_bootloader_serial_gccarmemb_nrf52832_xxAA.dir/C_/dev/mesh_dep/nRF5_SDK_16.0.0_98a08e2/modules/nrfx/mdk/system_nrf52.c.obj
 .ARM.attributes
                0x000004b2       0x20 mesh/bootloader/CMakeFiles/mesh_bootloader_serial_gccarmemb_nrf52832_xxAA.dir/C_/dev/mesh_dep/nRF5_SDK_16.0.0_98a08e2/modules/nrfx/mdk/gcc_startup_nrf52.S.obj
 .ARM.attributes
                0x000004d2       0x1e c:/progra~2/gnutoo~1/92019-~1/bin/../lib/gcc/arm-none-eabi/9.2.1/thumb/v7e-m+fp/hard\libgcc.a(_aeabi_uldivmod.o)
 .ARM.attributes
                0x000004f0       0x34 c:/progra~2/gnutoo~1/92019-~1/bin/../lib/gcc/arm-none-eabi/9.2.1/thumb/v7e-m+fp/hard\libgcc.a(_udivmoddi4.o)
 .ARM.attributes
                0x00000524       0x1e c:/progra~2/gnutoo~1/92019-~1/bin/../lib/gcc/arm-none-eabi/9.2.1/thumb/v7e-m+fp/hard\libgcc.a(_dvmd_tls.o)
 .ARM.attributes
                0x00000542       0x34 c:/progra~2/gnutoo~1/92019-~1/bin/../lib/gcc/arm-none-eabi/9.2.1/../../../../arm-none-eabi/lib/thumb/v7e-m+fp/hard\libg_nano.a(lib_a-exit.o)
 .ARM.attributes
                0x00000576       0x32 c:/progra~2/gnutoo~1/92019-~1/bin/../lib/gcc/arm-none-eabi/9.2.1/../../../../arm-none-eabi/lib/thumb/v7e-m+fp/hard\libg_nano.a(lib_a-impure.o)
 .ARM.attributes
                0x000005a8       0x34 c:/progra~2/gnutoo~1/92019-~1/bin/../lib/gcc/arm-none-eabi/9.2.1/../../../../arm-none-eabi/lib/thumb/v7e-m+fp/hard\libg_nano.a(lib_a-init.o)
 .ARM.attributes
                0x000005dc       0x34 c:/progra~2/gnutoo~1/92019-~1/bin/../lib/gcc/arm-none-eabi/9.2.1/../../../../arm-none-eabi/lib/thumb/v7e-m+fp/hard\libg_nano.a(lib_a-memcmp.o)
 .ARM.attributes
                0x00000610       0x34 c:/progra~2/gnutoo~1/92019-~1/bin/../lib/gcc/arm-none-eabi/9.2.1/../../../../arm-none-eabi/lib/thumb/v7e-m+fp/hard\libg_nano.a(lib_a-memcpy-stub.o)
 .ARM.attributes
                0x00000644       0x34 c:/progra~2/gnutoo~1/92019-~1/bin/../lib/gcc/arm-none-eabi/9.2.1/../../../../arm-none-eabi/lib/thumb/v7e-m+fp/hard\libg_nano.a(lib_a-memset.o)
 .ARM.attributes
                0x00000678       0x32 c:/progra~2/gnutoo~1/92019-~1/bin/../lib/gcc/arm-none-eabi/9.2.1/thumb/v7e-m+fp/hard/crtend.o
 .ARM.attributes
                0x000006aa       0x1e c:/progra~2/gnutoo~1/92019-~1/bin/../lib/gcc/arm-none-eabi/9.2.1/thumb/v7e-m+fp/hard/crtn.o
 .ARM.attributes
                0x000006c8       0x34 c:/progra~2/gnutoo~1/92019-~1/bin/../lib/gcc/arm-none-eabi/9.2.1/../../../../arm-none-eabi/lib/thumb/v7e-m+fp/hard\libnosys.a(_exit.o)

.comment        0x00000000       0x79
 .comment       0x00000000       0x79 mesh/bootloader/CMakeFiles/mesh_bootloader_serial_gccarmemb_nrf52832_xxAA.dir/src/bootloader.c.obj
                                 0x7a (size before relaxing)
 .comment       0x00000079       0x7a mesh/bootloader/CMakeFiles/mesh_bootloader_serial_gccarmemb_nrf52832_xxAA.dir/src/bootloader_app_bridge.c.obj
 .comment       0x00000079       0x7a mesh/bootloader/CMakeFiles/mesh_bootloader_serial_gccarmemb_nrf52832_xxAA.dir/src/bootloader_info.c.obj
 .comment       0x00000079       0x7a mesh/bootloader/CMakeFiles/mesh_bootloader_serial_gccarmemb_nrf52832_xxAA.dir/src/bootloader_rtc.c.obj
 .comment       0x00000079       0x7a mesh/bootloader/CMakeFiles/mesh_bootloader_serial_gccarmemb_nrf52832_xxAA.dir/src/bootloader_util.c.obj
 .comment       0x00000079       0x7a mesh/bootloader/CMakeFiles/mesh_bootloader_serial_gccarmemb_nrf52832_xxAA.dir/src/dfu_bank.c.obj
 .comment       0x00000079       0x7a mesh/bootloader/CMakeFiles/mesh_bootloader_serial_gccarmemb_nrf52832_xxAA.dir/src/dfu_mesh.c.obj
 .comment       0x00000079       0x7a mesh/bootloader/CMakeFiles/mesh_bootloader_serial_gccarmemb_nrf52832_xxAA.dir/src/dfu_transfer_mesh.c.obj
 .comment       0x00000079       0x7a mesh/bootloader/CMakeFiles/mesh_bootloader_serial_gccarmemb_nrf52832_xxAA.dir/src/dfu_util.c.obj
 .comment       0x00000079       0x7a mesh/bootloader/CMakeFiles/mesh_bootloader_serial_gccarmemb_nrf52832_xxAA.dir/src/fifo.c.obj
 .comment       0x00000079       0x7a mesh/bootloader/CMakeFiles/mesh_bootloader_serial_gccarmemb_nrf52832_xxAA.dir/src/main.c.obj
 .comment       0x00000079       0x7a mesh/bootloader/CMakeFiles/mesh_bootloader_serial_gccarmemb_nrf52832_xxAA.dir/src/mesh_packet.c.obj
 .comment       0x00000079       0x7a mesh/bootloader/CMakeFiles/mesh_bootloader_serial_gccarmemb_nrf52832_xxAA.dir/src/nrf_flash.c.obj
 .comment       0x00000079       0x7a mesh/bootloader/CMakeFiles/mesh_bootloader_serial_gccarmemb_nrf52832_xxAA.dir/src/radio_control.c.obj
 .comment       0x00000079       0x7a mesh/bootloader/CMakeFiles/mesh_bootloader_serial_gccarmemb_nrf52832_xxAA.dir/src/rand.c.obj
 .comment       0x00000079       0x7a mesh/bootloader/CMakeFiles/mesh_bootloader_serial_gccarmemb_nrf52832_xxAA.dir/src/transport.c.obj
 .comment       0x00000079       0x7a mesh/bootloader/CMakeFiles/mesh_bootloader_serial_gccarmemb_nrf52832_xxAA.dir/src/uECC.c.obj
 .comment       0x00000079       0x7a mesh/bootloader/CMakeFiles/mesh_bootloader_serial_gccarmemb_nrf52832_xxAA.dir/C_/dev/mesh_dep/nRF5_SDK_16.0.0_98a08e2/components/libraries/sha256/sha256.c.obj
 .comment       0x00000079       0x7a mesh/bootloader/CMakeFiles/mesh_bootloader_serial_gccarmemb_nrf52832_xxAA.dir/src/serial_handler_uart.c.obj
 .comment       0x00000079       0x7a mesh/bootloader/CMakeFiles/mesh_bootloader_serial_gccarmemb_nrf52832_xxAA.dir/src/mesh_aci.c.obj
 .comment       0x00000079       0x7a mesh/bootloader/CMakeFiles/mesh_bootloader_serial_gccarmemb_nrf52832_xxAA.dir/C_/dev/mesh_dep/nRF5_SDK_16.0.0_98a08e2/modules/nrfx/mdk/system_nrf52.c.obj

.debug_info     0x00000000    0x237a7
 .debug_info    0x00000000     0x3dae mesh/bootloader/CMakeFiles/mesh_bootloader_serial_gccarmemb_nrf52832_xxAA.dir/src/bootloader.c.obj
 .debug_info    0x00003dae     0x25c7 mesh/bootloader/CMakeFiles/mesh_bootloader_serial_gccarmemb_nrf52832_xxAA.dir/src/bootloader_app_bridge.c.obj
 .debug_info    0x00006375     0x1eec mesh/bootloader/CMakeFiles/mesh_bootloader_serial_gccarmemb_nrf52832_xxAA.dir/src/bootloader_info.c.obj
 .debug_info    0x00008261      0x7e5 mesh/bootloader/CMakeFiles/mesh_bootloader_serial_gccarmemb_nrf52832_xxAA.dir/src/bootloader_rtc.c.obj
 .debug_info    0x00008a46      0x98a mesh/bootloader/CMakeFiles/mesh_bootloader_serial_gccarmemb_nrf52832_xxAA.dir/src/bootloader_util.c.obj
 .debug_info    0x000093d0     0x252a mesh/bootloader/CMakeFiles/mesh_bootloader_serial_gccarmemb_nrf52832_xxAA.dir/src/dfu_bank.c.obj
 .debug_info    0x0000b8fa     0x3b94 mesh/bootloader/CMakeFiles/mesh_bootloader_serial_gccarmemb_nrf52832_xxAA.dir/src/dfu_mesh.c.obj
 .debug_info    0x0000f48e     0x1003 mesh/bootloader/CMakeFiles/mesh_bootloader_serial_gccarmemb_nrf52832_xxAA.dir/src/dfu_transfer_mesh.c.obj
 .debug_info    0x00010491     0x18df mesh/bootloader/CMakeFiles/mesh_bootloader_serial_gccarmemb_nrf52832_xxAA.dir/src/dfu_util.c.obj
 .debug_info    0x00011d70      0xda2 mesh/bootloader/CMakeFiles/mesh_bootloader_serial_gccarmemb_nrf52832_xxAA.dir/src/fifo.c.obj
 .debug_info    0x00012b12     0x168b mesh/bootloader/CMakeFiles/mesh_bootloader_serial_gccarmemb_nrf52832_xxAA.dir/src/main.c.obj
 .debug_info    0x0001419d     0x150e mesh/bootloader/CMakeFiles/mesh_bootloader_serial_gccarmemb_nrf52832_xxAA.dir/src/mesh_packet.c.obj
 .debug_info    0x000156ab      0x6d5 mesh/bootloader/CMakeFiles/mesh_bootloader_serial_gccarmemb_nrf52832_xxAA.dir/src/nrf_flash.c.obj
 .debug_info    0x00015d80     0x182a mesh/bootloader/CMakeFiles/mesh_bootloader_serial_gccarmemb_nrf52832_xxAA.dir/src/radio_control.c.obj
 .debug_info    0x000175aa      0x387 mesh/bootloader/CMakeFiles/mesh_bootloader_serial_gccarmemb_nrf52832_xxAA.dir/src/rand.c.obj
 .debug_info    0x00017931     0x26ba mesh/bootloader/CMakeFiles/mesh_bootloader_serial_gccarmemb_nrf52832_xxAA.dir/src/transport.c.obj
 .debug_info    0x00019feb     0x212d mesh/bootloader/CMakeFiles/mesh_bootloader_serial_gccarmemb_nrf52832_xxAA.dir/src/uECC.c.obj
 .debug_info    0x0001c118      0xd27 mesh/bootloader/CMakeFiles/mesh_bootloader_serial_gccarmemb_nrf52832_xxAA.dir/C_/dev/mesh_dep/nRF5_SDK_16.0.0_98a08e2/components/libraries/sha256/sha256.c.obj
 .debug_info    0x0001ce3f     0x2411 mesh/bootloader/CMakeFiles/mesh_bootloader_serial_gccarmemb_nrf52832_xxAA.dir/src/serial_handler_uart.c.obj
 .debug_info    0x0001f250     0x3327 mesh/bootloader/CMakeFiles/mesh_bootloader_serial_gccarmemb_nrf52832_xxAA.dir/src/mesh_aci.c.obj
 .debug_info    0x00022577     0x1230 mesh/bootloader/CMakeFiles/mesh_bootloader_serial_gccarmemb_nrf52832_xxAA.dir/C_/dev/mesh_dep/nRF5_SDK_16.0.0_98a08e2/modules/nrfx/mdk/system_nrf52.c.obj

.debug_abbrev   0x00000000     0x4e89
 .debug_abbrev  0x00000000      0x4eb mesh/bootloader/CMakeFiles/mesh_bootloader_serial_gccarmemb_nrf52832_xxAA.dir/src/bootloader.c.obj
 .debug_abbrev  0x000004eb      0x404 mesh/bootloader/CMakeFiles/mesh_bootloader_serial_gccarmemb_nrf52832_xxAA.dir/src/bootloader_app_bridge.c.obj
 .debug_abbrev  0x000008ef      0x5a0 mesh/bootloader/CMakeFiles/mesh_bootloader_serial_gccarmemb_nrf52832_xxAA.dir/src/bootloader_info.c.obj
 .debug_abbrev  0x00000e8f      0x1c2 mesh/bootloader/CMakeFiles/mesh_bootloader_serial_gccarmemb_nrf52832_xxAA.dir/src/bootloader_rtc.c.obj
 .debug_abbrev  0x00001051      0x214 mesh/bootloader/CMakeFiles/mesh_bootloader_serial_gccarmemb_nrf52832_xxAA.dir/src/bootloader_util.c.obj
 .debug_abbrev  0x00001265      0x4d9 mesh/bootloader/CMakeFiles/mesh_bootloader_serial_gccarmemb_nrf52832_xxAA.dir/src/dfu_bank.c.obj
 .debug_abbrev  0x0000173e      0x547 mesh/bootloader/CMakeFiles/mesh_bootloader_serial_gccarmemb_nrf52832_xxAA.dir/src/dfu_mesh.c.obj
 .debug_abbrev  0x00001c85      0x3e3 mesh/bootloader/CMakeFiles/mesh_bootloader_serial_gccarmemb_nrf52832_xxAA.dir/src/dfu_transfer_mesh.c.obj
 .debug_abbrev  0x00002068      0x4a6 mesh/bootloader/CMakeFiles/mesh_bootloader_serial_gccarmemb_nrf52832_xxAA.dir/src/dfu_util.c.obj
 .debug_abbrev  0x0000250e      0x335 mesh/bootloader/CMakeFiles/mesh_bootloader_serial_gccarmemb_nrf52832_xxAA.dir/src/fifo.c.obj
 .debug_abbrev  0x00002843      0x38f mesh/bootloader/CMakeFiles/mesh_bootloader_serial_gccarmemb_nrf52832_xxAA.dir/src/main.c.obj
 .debug_abbrev  0x00002bd2      0x3d3 mesh/bootloader/CMakeFiles/mesh_bootloader_serial_gccarmemb_nrf52832_xxAA.dir/src/mesh_packet.c.obj
 .debug_abbrev  0x00002fa5      0x1e0 mesh/bootloader/CMakeFiles/mesh_bootloader_serial_gccarmemb_nrf52832_xxAA.dir/src/nrf_flash.c.obj
 .debug_abbrev  0x00003185      0x4dc mesh/bootloader/CMakeFiles/mesh_bootloader_serial_gccarmemb_nrf52832_xxAA.dir/src/radio_control.c.obj
 .debug_abbrev  0x00003661      0x1a3 mesh/bootloader/CMakeFiles/mesh_bootloader_serial_gccarmemb_nrf52832_xxAA.dir/src/rand.c.obj
 .debug_abbrev  0x00003804      0x55f mesh/bootloader/CMakeFiles/mesh_bootloader_serial_gccarmemb_nrf52832_xxAA.dir/src/transport.c.obj
 .debug_abbrev  0x00003d63      0x2dd mesh/bootloader/CMakeFiles/mesh_bootloader_serial_gccarmemb_nrf52832_xxAA.dir/src/uECC.c.obj
 .debug_abbrev  0x00004040      0x28b mesh/bootloader/CMakeFiles/mesh_bootloader_serial_gccarmemb_nrf52832_xxAA.dir/C_/dev/mesh_dep/nRF5_SDK_16.0.0_98a08e2/components/libraries/sha256/sha256.c.obj
 .debug_abbrev  0x000042cb      0x509 mesh/bootloader/CMakeFiles/mesh_bootloader_serial_gccarmemb_nrf52832_xxAA.dir/src/serial_handler_uart.c.obj
 .debug_abbrev  0x000047d4      0x470 mesh/bootloader/CMakeFiles/mesh_bootloader_serial_gccarmemb_nrf52832_xxAA.dir/src/mesh_aci.c.obj
 .debug_abbrev  0x00004c44      0x245 mesh/bootloader/CMakeFiles/mesh_bootloader_serial_gccarmemb_nrf52832_xxAA.dir/C_/dev/mesh_dep/nRF5_SDK_16.0.0_98a08e2/modules/nrfx/mdk/system_nrf52.c.obj

.debug_loc      0x00000000     0x7308
 .debug_loc     0x00000000      0x650 mesh/bootloader/CMakeFiles/mesh_bootloader_serial_gccarmemb_nrf52832_xxAA.dir/src/bootloader.c.obj
 .debug_loc     0x00000650      0x41b mesh/bootloader/CMakeFiles/mesh_bootloader_serial_gccarmemb_nrf52832_xxAA.dir/src/bootloader_app_bridge.c.obj
 .debug_loc     0x00000a6b      0xce4 mesh/bootloader/CMakeFiles/mesh_bootloader_serial_gccarmemb_nrf52832_xxAA.dir/src/bootloader_info.c.obj
 .debug_loc     0x0000174f       0x42 mesh/bootloader/CMakeFiles/mesh_bootloader_serial_gccarmemb_nrf52832_xxAA.dir/src/bootloader_rtc.c.obj
 .debug_loc     0x00001791       0x37 mesh/bootloader/CMakeFiles/mesh_bootloader_serial_gccarmemb_nrf52832_xxAA.dir/src/bootloader_util.c.obj
 .debug_loc     0x000017c8      0x37e mesh/bootloader/CMakeFiles/mesh_bootloader_serial_gccarmemb_nrf52832_xxAA.dir/src/dfu_bank.c.obj
 .debug_loc     0x00001b46     0x1369 mesh/bootloader/CMakeFiles/mesh_bootloader_serial_gccarmemb_nrf52832_xxAA.dir/src/dfu_mesh.c.obj
 .debug_loc     0x00002eaf      0x52a mesh/bootloader/CMakeFiles/mesh_bootloader_serial_gccarmemb_nrf52832_xxAA.dir/src/dfu_transfer_mesh.c.obj
 .debug_loc     0x000033d9      0x72f mesh/bootloader/CMakeFiles/mesh_bootloader_serial_gccarmemb_nrf52832_xxAA.dir/src/dfu_util.c.obj
 .debug_loc     0x00003b08      0x3c4 mesh/bootloader/CMakeFiles/mesh_bootloader_serial_gccarmemb_nrf52832_xxAA.dir/src/fifo.c.obj
 .debug_loc     0x00003ecc       0x57 mesh/bootloader/CMakeFiles/mesh_bootloader_serial_gccarmemb_nrf52832_xxAA.dir/src/main.c.obj
 .debug_loc     0x00003f23      0x6c6 mesh/bootloader/CMakeFiles/mesh_bootloader_serial_gccarmemb_nrf52832_xxAA.dir/src/mesh_packet.c.obj
 .debug_loc     0x000045e9      0x1c1 mesh/bootloader/CMakeFiles/mesh_bootloader_serial_gccarmemb_nrf52832_xxAA.dir/src/nrf_flash.c.obj
 .debug_loc     0x000047aa      0x2d6 mesh/bootloader/CMakeFiles/mesh_bootloader_serial_gccarmemb_nrf52832_xxAA.dir/src/radio_control.c.obj
 .debug_loc     0x00004a80      0x11e mesh/bootloader/CMakeFiles/mesh_bootloader_serial_gccarmemb_nrf52832_xxAA.dir/src/rand.c.obj
 .debug_loc     0x00004b9e      0x6ba mesh/bootloader/CMakeFiles/mesh_bootloader_serial_gccarmemb_nrf52832_xxAA.dir/src/transport.c.obj
 .debug_loc     0x00005258     0x1733 mesh/bootloader/CMakeFiles/mesh_bootloader_serial_gccarmemb_nrf52832_xxAA.dir/src/uECC.c.obj
 .debug_loc     0x0000698b      0x698 mesh/bootloader/CMakeFiles/mesh_bootloader_serial_gccarmemb_nrf52832_xxAA.dir/C_/dev/mesh_dep/nRF5_SDK_16.0.0_98a08e2/components/libraries/sha256/sha256.c.obj
 .debug_loc     0x00007023      0x173 mesh/bootloader/CMakeFiles/mesh_bootloader_serial_gccarmemb_nrf52832_xxAA.dir/src/serial_handler_uart.c.obj
 .debug_loc     0x00007196      0x172 mesh/bootloader/CMakeFiles/mesh_bootloader_serial_gccarmemb_nrf52832_xxAA.dir/src/mesh_aci.c.obj

.debug_aranges  0x00000000      0x800
 .debug_aranges
                0x00000000       0x78 mesh/bootloader/CMakeFiles/mesh_bootloader_serial_gccarmemb_nrf52832_xxAA.dir/src/bootloader.c.obj
 .debug_aranges
                0x00000078       0x70 mesh/bootloader/CMakeFiles/mesh_bootloader_serial_gccarmemb_nrf52832_xxAA.dir/src/bootloader_app_bridge.c.obj
 .debug_aranges
                0x000000e8       0xc0 mesh/bootloader/CMakeFiles/mesh_bootloader_serial_gccarmemb_nrf52832_xxAA.dir/src/bootloader_info.c.obj
 .debug_aranges
                0x000001a8       0x28 mesh/bootloader/CMakeFiles/mesh_bootloader_serial_gccarmemb_nrf52832_xxAA.dir/src/bootloader_rtc.c.obj
 .debug_aranges
                0x000001d0       0x20 mesh/bootloader/CMakeFiles/mesh_bootloader_serial_gccarmemb_nrf52832_xxAA.dir/src/bootloader_util.c.obj
 .debug_aranges
                0x000001f0       0x50 mesh/bootloader/CMakeFiles/mesh_bootloader_serial_gccarmemb_nrf52832_xxAA.dir/src/dfu_bank.c.obj
 .debug_aranges
                0x00000240       0xb8 mesh/bootloader/CMakeFiles/mesh_bootloader_serial_gccarmemb_nrf52832_xxAA.dir/src/dfu_mesh.c.obj
 .debug_aranges
                0x000002f8       0x58 mesh/bootloader/CMakeFiles/mesh_bootloader_serial_gccarmemb_nrf52832_xxAA.dir/src/dfu_transfer_mesh.c.obj
 .debug_aranges
                0x00000350       0xa0 mesh/bootloader/CMakeFiles/mesh_bootloader_serial_gccarmemb_nrf52832_xxAA.dir/src/dfu_util.c.obj
 .debug_aranges
                0x000003f0       0x60 mesh/bootloader/CMakeFiles/mesh_bootloader_serial_gccarmemb_nrf52832_xxAA.dir/src/fifo.c.obj
 .debug_aranges
                0x00000450       0x38 mesh/bootloader/CMakeFiles/mesh_bootloader_serial_gccarmemb_nrf52832_xxAA.dir/src/main.c.obj
 .debug_aranges
                0x00000488       0x80 mesh/bootloader/CMakeFiles/mesh_bootloader_serial_gccarmemb_nrf52832_xxAA.dir/src/mesh_packet.c.obj
 .debug_aranges
                0x00000508       0x28 mesh/bootloader/CMakeFiles/mesh_bootloader_serial_gccarmemb_nrf52832_xxAA.dir/src/nrf_flash.c.obj
 .debug_aranges
                0x00000530       0x40 mesh/bootloader/CMakeFiles/mesh_bootloader_serial_gccarmemb_nrf52832_xxAA.dir/src/radio_control.c.obj
 .debug_aranges
                0x00000570       0x30 mesh/bootloader/CMakeFiles/mesh_bootloader_serial_gccarmemb_nrf52832_xxAA.dir/src/rand.c.obj
 .debug_aranges
                0x000005a0       0xa8 mesh/bootloader/CMakeFiles/mesh_bootloader_serial_gccarmemb_nrf52832_xxAA.dir/src/transport.c.obj
 .debug_aranges
                0x00000648       0xb0 mesh/bootloader/CMakeFiles/mesh_bootloader_serial_gccarmemb_nrf52832_xxAA.dir/src/uECC.c.obj
 .debug_aranges
                0x000006f8       0x38 mesh/bootloader/CMakeFiles/mesh_bootloader_serial_gccarmemb_nrf52832_xxAA.dir/C_/dev/mesh_dep/nRF5_SDK_16.0.0_98a08e2/components/libraries/sha256/sha256.c.obj
 .debug_aranges
                0x00000730       0x60 mesh/bootloader/CMakeFiles/mesh_bootloader_serial_gccarmemb_nrf52832_xxAA.dir/src/serial_handler_uart.c.obj
 .debug_aranges
                0x00000790       0x38 mesh/bootloader/CMakeFiles/mesh_bootloader_serial_gccarmemb_nrf52832_xxAA.dir/src/mesh_aci.c.obj
 .debug_aranges
                0x000007c8       0x38 mesh/bootloader/CMakeFiles/mesh_bootloader_serial_gccarmemb_nrf52832_xxAA.dir/C_/dev/mesh_dep/nRF5_SDK_16.0.0_98a08e2/modules/nrfx/mdk/system_nrf52.c.obj

.debug_ranges   0x00000000     0x1180
 .debug_ranges  0x00000000      0x130 mesh/bootloader/CMakeFiles/mesh_bootloader_serial_gccarmemb_nrf52832_xxAA.dir/src/bootloader.c.obj
 .debug_ranges  0x00000130       0x60 mesh/bootloader/CMakeFiles/mesh_bootloader_serial_gccarmemb_nrf52832_xxAA.dir/src/bootloader_app_bridge.c.obj
 .debug_ranges  0x00000190      0x1f0 mesh/bootloader/CMakeFiles/mesh_bootloader_serial_gccarmemb_nrf52832_xxAA.dir/src/bootloader_info.c.obj
 .debug_ranges  0x00000380       0x18 mesh/bootloader/CMakeFiles/mesh_bootloader_serial_gccarmemb_nrf52832_xxAA.dir/src/bootloader_rtc.c.obj
 .debug_ranges  0x00000398       0x10 mesh/bootloader/CMakeFiles/mesh_bootloader_serial_gccarmemb_nrf52832_xxAA.dir/src/bootloader_util.c.obj
 .debug_ranges  0x000003a8       0xf0 mesh/bootloader/CMakeFiles/mesh_bootloader_serial_gccarmemb_nrf52832_xxAA.dir/src/dfu_bank.c.obj
 .debug_ranges  0x00000498      0x3b8 mesh/bootloader/CMakeFiles/mesh_bootloader_serial_gccarmemb_nrf52832_xxAA.dir/src/dfu_mesh.c.obj
 .debug_ranges  0x00000850       0xb0 mesh/bootloader/CMakeFiles/mesh_bootloader_serial_gccarmemb_nrf52832_xxAA.dir/src/dfu_transfer_mesh.c.obj
 .debug_ranges  0x00000900       0xe0 mesh/bootloader/CMakeFiles/mesh_bootloader_serial_gccarmemb_nrf52832_xxAA.dir/src/dfu_util.c.obj
 .debug_ranges  0x000009e0       0x68 mesh/bootloader/CMakeFiles/mesh_bootloader_serial_gccarmemb_nrf52832_xxAA.dir/src/fifo.c.obj
 .debug_ranges  0x00000a48       0x40 mesh/bootloader/CMakeFiles/mesh_bootloader_serial_gccarmemb_nrf52832_xxAA.dir/src/main.c.obj
 .debug_ranges  0x00000a88       0xe0 mesh/bootloader/CMakeFiles/mesh_bootloader_serial_gccarmemb_nrf52832_xxAA.dir/src/mesh_packet.c.obj
 .debug_ranges  0x00000b68       0x70 mesh/bootloader/CMakeFiles/mesh_bootloader_serial_gccarmemb_nrf52832_xxAA.dir/src/nrf_flash.c.obj
 .debug_ranges  0x00000bd8      0x100 mesh/bootloader/CMakeFiles/mesh_bootloader_serial_gccarmemb_nrf52832_xxAA.dir/src/radio_control.c.obj
 .debug_ranges  0x00000cd8       0x38 mesh/bootloader/CMakeFiles/mesh_bootloader_serial_gccarmemb_nrf52832_xxAA.dir/src/rand.c.obj
 .debug_ranges  0x00000d10      0x158 mesh/bootloader/CMakeFiles/mesh_bootloader_serial_gccarmemb_nrf52832_xxAA.dir/src/transport.c.obj
 .debug_ranges  0x00000e68      0x198 mesh/bootloader/CMakeFiles/mesh_bootloader_serial_gccarmemb_nrf52832_xxAA.dir/src/uECC.c.obj
 .debug_ranges  0x00001000       0x28 mesh/bootloader/CMakeFiles/mesh_bootloader_serial_gccarmemb_nrf52832_xxAA.dir/C_/dev/mesh_dep/nRF5_SDK_16.0.0_98a08e2/components/libraries/sha256/sha256.c.obj
 .debug_ranges  0x00001028       0x98 mesh/bootloader/CMakeFiles/mesh_bootloader_serial_gccarmemb_nrf52832_xxAA.dir/src/serial_handler_uart.c.obj
 .debug_ranges  0x000010c0       0x98 mesh/bootloader/CMakeFiles/mesh_bootloader_serial_gccarmemb_nrf52832_xxAA.dir/src/mesh_aci.c.obj
 .debug_ranges  0x00001158       0x28 mesh/bootloader/CMakeFiles/mesh_bootloader_serial_gccarmemb_nrf52832_xxAA.dir/C_/dev/mesh_dep/nRF5_SDK_16.0.0_98a08e2/modules/nrfx/mdk/system_nrf52.c.obj

.debug_line     0x00000000     0xacfc
 .debug_line    0x00000000      0xe52 mesh/bootloader/CMakeFiles/mesh_bootloader_serial_gccarmemb_nrf52832_xxAA.dir/src/bootloader.c.obj
 .debug_line    0x00000e52      0x69a mesh/bootloader/CMakeFiles/mesh_bootloader_serial_gccarmemb_nrf52832_xxAA.dir/src/bootloader_app_bridge.c.obj
 .debug_line    0x000014ec      0xe44 mesh/bootloader/CMakeFiles/mesh_bootloader_serial_gccarmemb_nrf52832_xxAA.dir/src/bootloader_info.c.obj
 .debug_line    0x00002330      0x29a mesh/bootloader/CMakeFiles/mesh_bootloader_serial_gccarmemb_nrf52832_xxAA.dir/src/bootloader_rtc.c.obj
 .debug_line    0x000025ca      0x17a mesh/bootloader/CMakeFiles/mesh_bootloader_serial_gccarmemb_nrf52832_xxAA.dir/src/bootloader_util.c.obj
 .debug_line    0x00002744      0x976 mesh/bootloader/CMakeFiles/mesh_bootloader_serial_gccarmemb_nrf52832_xxAA.dir/src/dfu_bank.c.obj
 .debug_line    0x000030ba     0x185f mesh/bootloader/CMakeFiles/mesh_bootloader_serial_gccarmemb_nrf52832_xxAA.dir/src/dfu_mesh.c.obj
 .debug_line    0x00004919      0x67e mesh/bootloader/CMakeFiles/mesh_bootloader_serial_gccarmemb_nrf52832_xxAA.dir/src/dfu_transfer_mesh.c.obj
 .debug_line    0x00004f97      0x746 mesh/bootloader/CMakeFiles/mesh_bootloader_serial_gccarmemb_nrf52832_xxAA.dir/src/dfu_util.c.obj
 .debug_line    0x000056dd      0x4e3 mesh/bootloader/CMakeFiles/mesh_bootloader_serial_gccarmemb_nrf52832_xxAA.dir/src/fifo.c.obj
 .debug_line    0x00005bc0      0x492 mesh/bootloader/CMakeFiles/mesh_bootloader_serial_gccarmemb_nrf52832_xxAA.dir/src/main.c.obj
 .debug_line    0x00006052      0x7e3 mesh/bootloader/CMakeFiles/mesh_bootloader_serial_gccarmemb_nrf52832_xxAA.dir/src/mesh_packet.c.obj
 .debug_line    0x00006835      0x3ba mesh/bootloader/CMakeFiles/mesh_bootloader_serial_gccarmemb_nrf52832_xxAA.dir/src/nrf_flash.c.obj
 .debug_line    0x00006bef      0x77a mesh/bootloader/CMakeFiles/mesh_bootloader_serial_gccarmemb_nrf52832_xxAA.dir/src/radio_control.c.obj
 .debug_line    0x00007369      0x304 mesh/bootloader/CMakeFiles/mesh_bootloader_serial_gccarmemb_nrf52832_xxAA.dir/src/rand.c.obj
 .debug_line    0x0000766d      0xb78 mesh/bootloader/CMakeFiles/mesh_bootloader_serial_gccarmemb_nrf52832_xxAA.dir/src/transport.c.obj
 .debug_line    0x000081e5      0xda3 mesh/bootloader/CMakeFiles/mesh_bootloader_serial_gccarmemb_nrf52832_xxAA.dir/src/uECC.c.obj
 .debug_line    0x00008f88      0x916 mesh/bootloader/CMakeFiles/mesh_bootloader_serial_gccarmemb_nrf52832_xxAA.dir/C_/dev/mesh_dep/nRF5_SDK_16.0.0_98a08e2/components/libraries/sha256/sha256.c.obj
 .debug_line    0x0000989e      0x7df mesh/bootloader/CMakeFiles/mesh_bootloader_serial_gccarmemb_nrf52832_xxAA.dir/src/serial_handler_uart.c.obj
 .debug_line    0x0000a07d      0x6b6 mesh/bootloader/CMakeFiles/mesh_bootloader_serial_gccarmemb_nrf52832_xxAA.dir/src/mesh_aci.c.obj
 .debug_line    0x0000a733      0x5c9 mesh/bootloader/CMakeFiles/mesh_bootloader_serial_gccarmemb_nrf52832_xxAA.dir/C_/dev/mesh_dep/nRF5_SDK_16.0.0_98a08e2/modules/nrfx/mdk/system_nrf52.c.obj

.debug_str      0x00000000     0x54af
 .debug_str     0x00000000     0x2866 mesh/bootloader/CMakeFiles/mesh_bootloader_serial_gccarmemb_nrf52832_xxAA.dir/src/bootloader.c.obj
                               0x2aef (size before relaxing)
 .debug_str     0x00002866      0x2eb mesh/bootloader/CMakeFiles/mesh_bootloader_serial_gccarmemb_nrf52832_xxAA.dir/src/bootloader_app_bridge.c.obj
                               0x1977 (size before relaxing)
 .debug_str     0x00002b51      0x51d mesh/bootloader/CMakeFiles/mesh_bootloader_serial_gccarmemb_nrf52832_xxAA.dir/src/bootloader_info.c.obj
                               0x1090 (size before relaxing)
 .debug_str     0x0000306e       0x52 mesh/bootloader/CMakeFiles/mesh_bootloader_serial_gccarmemb_nrf52832_xxAA.dir/src/bootloader_rtc.c.obj
                                0x6a8 (size before relaxing)
 .debug_str     0x000030c0       0x3f mesh/bootloader/CMakeFiles/mesh_bootloader_serial_gccarmemb_nrf52832_xxAA.dir/src/bootloader_util.c.obj
                                0x5fc (size before relaxing)
 .debug_str     0x000030ff      0x182 mesh/bootloader/CMakeFiles/mesh_bootloader_serial_gccarmemb_nrf52832_xxAA.dir/src/dfu_bank.c.obj
                               0x179d (size before relaxing)
 .debug_str     0x00003281      0x7f4 mesh/bootloader/CMakeFiles/mesh_bootloader_serial_gccarmemb_nrf52832_xxAA.dir/src/dfu_mesh.c.obj
                               0x1b94 (size before relaxing)
 .debug_str     0x00003a75      0x114 mesh/bootloader/CMakeFiles/mesh_bootloader_serial_gccarmemb_nrf52832_xxAA.dir/src/dfu_transfer_mesh.c.obj
                                0xa2c (size before relaxing)
 .debug_str     0x00003b89      0x140 mesh/bootloader/CMakeFiles/mesh_bootloader_serial_gccarmemb_nrf52832_xxAA.dir/src/dfu_util.c.obj
                               0x10ff (size before relaxing)
 .debug_str     0x00003cc9       0x68 mesh/bootloader/CMakeFiles/mesh_bootloader_serial_gccarmemb_nrf52832_xxAA.dir/src/fifo.c.obj
                                0x6eb (size before relaxing)
 .debug_str     0x00003d31      0x1bd mesh/bootloader/CMakeFiles/mesh_bootloader_serial_gccarmemb_nrf52832_xxAA.dir/src/main.c.obj
                                0xe8b (size before relaxing)
 .debug_str     0x00003eee      0x17a mesh/bootloader/CMakeFiles/mesh_bootloader_serial_gccarmemb_nrf52832_xxAA.dir/src/mesh_packet.c.obj
                                0xac3 (size before relaxing)
 .debug_str     0x00004068       0x9a mesh/bootloader/CMakeFiles/mesh_bootloader_serial_gccarmemb_nrf52832_xxAA.dir/src/nrf_flash.c.obj
                                0x3fa (size before relaxing)
 .debug_str     0x00004102      0x446 mesh/bootloader/CMakeFiles/mesh_bootloader_serial_gccarmemb_nrf52832_xxAA.dir/src/radio_control.c.obj
                                0xede (size before relaxing)
 .debug_str     0x00004548       0x7d mesh/bootloader/CMakeFiles/mesh_bootloader_serial_gccarmemb_nrf52832_xxAA.dir/src/rand.c.obj
                                0x2fd (size before relaxing)
 .debug_str     0x000045c5      0x1a6 mesh/bootloader/CMakeFiles/mesh_bootloader_serial_gccarmemb_nrf52832_xxAA.dir/src/transport.c.obj
                               0x1773 (size before relaxing)
 .debug_str     0x0000476b      0x2a3 mesh/bootloader/CMakeFiles/mesh_bootloader_serial_gccarmemb_nrf52832_xxAA.dir/src/uECC.c.obj
                                0x4c1 (size before relaxing)
 .debug_str     0x00004a0e       0x7a mesh/bootloader/CMakeFiles/mesh_bootloader_serial_gccarmemb_nrf52832_xxAA.dir/C_/dev/mesh_dep/nRF5_SDK_16.0.0_98a08e2/components/libraries/sha256/sha256.c.obj
                                0x6f2 (size before relaxing)
 .debug_str     0x00004a88      0x61a mesh/bootloader/CMakeFiles/mesh_bootloader_serial_gccarmemb_nrf52832_xxAA.dir/src/serial_handler_uart.c.obj
                               0x18a6 (size before relaxing)
 .debug_str     0x000050a2      0x2e9 mesh/bootloader/CMakeFiles/mesh_bootloader_serial_gccarmemb_nrf52832_xxAA.dir/src/mesh_aci.c.obj
                               0x271d (size before relaxing)
 .debug_str     0x0000538b      0x124 mesh/bootloader/CMakeFiles/mesh_bootloader_serial_gccarmemb_nrf52832_xxAA.dir/C_/dev/mesh_dep/nRF5_SDK_16.0.0_98a08e2/modules/nrfx/mdk/system_nrf52.c.obj
                                0x796 (size before relaxing)

.debug_frame    0x00000000     0x1668
 .debug_frame   0x00000000      0x14c mesh/bootloader/CMakeFiles/mesh_bootloader_serial_gccarmemb_nrf52832_xxAA.dir/src/bootloader.c.obj
 .debug_frame   0x0000014c      0x130 mesh/bootloader/CMakeFiles/mesh_bootloader_serial_gccarmemb_nrf52832_xxAA.dir/src/bootloader_app_bridge.c.obj
 .debug_frame   0x0000027c      0x230 mesh/bootloader/CMakeFiles/mesh_bootloader_serial_gccarmemb_nrf52832_xxAA.dir/src/bootloader_info.c.obj
 .debug_frame   0x000004ac       0x40 mesh/bootloader/CMakeFiles/mesh_bootloader_serial_gccarmemb_nrf52832_xxAA.dir/src/bootloader_rtc.c.obj
 .debug_frame   0x000004ec       0x30 mesh/bootloader/CMakeFiles/mesh_bootloader_serial_gccarmemb_nrf52832_xxAA.dir/src/bootloader_util.c.obj
 .debug_frame   0x0000051c       0xbc mesh/bootloader/CMakeFiles/mesh_bootloader_serial_gccarmemb_nrf52832_xxAA.dir/src/dfu_bank.c.obj
 .debug_frame   0x000005d8      0x280 mesh/bootloader/CMakeFiles/mesh_bootloader_serial_gccarmemb_nrf52832_xxAA.dir/src/dfu_mesh.c.obj
 .debug_frame   0x00000858       0xf4 mesh/bootloader/CMakeFiles/mesh_bootloader_serial_gccarmemb_nrf52832_xxAA.dir/src/dfu_transfer_mesh.c.obj
 .debug_frame   0x0000094c      0x1a0 mesh/bootloader/CMakeFiles/mesh_bootloader_serial_gccarmemb_nrf52832_xxAA.dir/src/dfu_util.c.obj
 .debug_frame   0x00000aec       0xc8 mesh/bootloader/CMakeFiles/mesh_bootloader_serial_gccarmemb_nrf52832_xxAA.dir/src/fifo.c.obj
 .debug_frame   0x00000bb4       0x58 mesh/bootloader/CMakeFiles/mesh_bootloader_serial_gccarmemb_nrf52832_xxAA.dir/src/main.c.obj
 .debug_frame   0x00000c0c      0x150 mesh/bootloader/CMakeFiles/mesh_bootloader_serial_gccarmemb_nrf52832_xxAA.dir/src/mesh_packet.c.obj
 .debug_frame   0x00000d5c       0x50 mesh/bootloader/CMakeFiles/mesh_bootloader_serial_gccarmemb_nrf52832_xxAA.dir/src/nrf_flash.c.obj
 .debug_frame   0x00000dac       0xac mesh/bootloader/CMakeFiles/mesh_bootloader_serial_gccarmemb_nrf52832_xxAA.dir/src/radio_control.c.obj
 .debug_frame   0x00000e58       0x5c mesh/bootloader/CMakeFiles/mesh_bootloader_serial_gccarmemb_nrf52832_xxAA.dir/src/rand.c.obj
 .debug_frame   0x00000eb4      0x1e0 mesh/bootloader/CMakeFiles/mesh_bootloader_serial_gccarmemb_nrf52832_xxAA.dir/src/transport.c.obj
 .debug_frame   0x00001094      0x22c mesh/bootloader/CMakeFiles/mesh_bootloader_serial_gccarmemb_nrf52832_xxAA.dir/src/uECC.c.obj
 .debug_frame   0x000012c0       0x94 mesh/bootloader/CMakeFiles/mesh_bootloader_serial_gccarmemb_nrf52832_xxAA.dir/C_/dev/mesh_dep/nRF5_SDK_16.0.0_98a08e2/components/libraries/sha256/sha256.c.obj
 .debug_frame   0x00001354       0xf4 mesh/bootloader/CMakeFiles/mesh_bootloader_serial_gccarmemb_nrf52832_xxAA.dir/src/serial_handler_uart.c.obj
 .debug_frame   0x00001448       0x80 mesh/bootloader/CMakeFiles/mesh_bootloader_serial_gccarmemb_nrf52832_xxAA.dir/src/mesh_aci.c.obj
 .debug_frame   0x000014c8       0x58 mesh/bootloader/CMakeFiles/mesh_bootloader_serial_gccarmemb_nrf52832_xxAA.dir/C_/dev/mesh_dep/nRF5_SDK_16.0.0_98a08e2/modules/nrfx/mdk/system_nrf52.c.obj
 .debug_frame   0x00001520       0x2c c:/progra~2/gnutoo~1/92019-~1/bin/../lib/gcc/arm-none-eabi/9.2.1/thumb/v7e-m+fp/hard\libgcc.a(_aeabi_uldivmod.o)
 .debug_frame   0x0000154c       0x34 c:/progra~2/gnutoo~1/92019-~1/bin/../lib/gcc/arm-none-eabi/9.2.1/thumb/v7e-m+fp/hard\libgcc.a(_udivmoddi4.o)
 .debug_frame   0x00001580       0x28 c:/progra~2/gnutoo~1/92019-~1/bin/../lib/gcc/arm-none-eabi/9.2.1/../../../../arm-none-eabi/lib/thumb/v7e-m+fp/hard\libg_nano.a(lib_a-exit.o)
 .debug_frame   0x000015a8       0x2c c:/progra~2/gnutoo~1/92019-~1/bin/../lib/gcc/arm-none-eabi/9.2.1/../../../../arm-none-eabi/lib/thumb/v7e-m+fp/hard\libg_nano.a(lib_a-init.o)
 .debug_frame   0x000015d4       0x2c c:/progra~2/gnutoo~1/92019-~1/bin/../lib/gcc/arm-none-eabi/9.2.1/../../../../arm-none-eabi/lib/thumb/v7e-m+fp/hard\libg_nano.a(lib_a-memcmp.o)
 .debug_frame   0x00001600       0x28 c:/progra~2/gnutoo~1/92019-~1/bin/../lib/gcc/arm-none-eabi/9.2.1/../../../../arm-none-eabi/lib/thumb/v7e-m+fp/hard\libg_nano.a(lib_a-memcpy-stub.o)
 .debug_frame   0x00001628       0x20 c:/progra~2/gnutoo~1/92019-~1/bin/../lib/gcc/arm-none-eabi/9.2.1/../../../../arm-none-eabi/lib/thumb/v7e-m+fp/hard\libg_nano.a(lib_a-memset.o)
 .debug_frame   0x00001648       0x20 c:/progra~2/gnutoo~1/92019-~1/bin/../lib/gcc/arm-none-eabi/9.2.1/../../../../arm-none-eabi/lib/thumb/v7e-m+fp/hard\libnosys.a(_exit.o)
