:0200000270008C
:1080000000FD0020C1CB0700E9CB0700EDAC070065
:10801000EDCB0700EFCB0700F1CB0700000000001D
:10802000000000000000000000000000F3CB07008B
:10803000F5CB070000000000F7CB0700F9CB0700E5
:10804000FBCB0700E9B407009DC50700FBCB070089
:10805000FBCB0700FBCB0700FBCB0700FBCB0700EC
:10806000FBCB0700FBCB0700FBCB070071910700A0
:10807000FBCB0700FBCB0700FBCB0700FBCB0700CC
:10808000FBCB0700FBCB0700FBCB0700FBCB0700BC
:1080900091B507004DC40700178307001D83070033
:1080A000FBCB0700FBCB0700FBCB0700FBCB07009C
:1080B000FBCB0700FBCB0700000000000000000026
:1080C000FBCB0700FBCB0700FBCB0700FBCB07007C
:1080D000FBCB0700FBCB0700FBCB07000000000039
:1080E0000000000000000000000000000000000090
:1080F0000000000000000000000000000000000080
:10810000000000000000000000000000000000006F
:10811000000000000000000000000000000000005F
:10812000000000000000000000000000000000004F
:10813000000000000000000000000000000000003F
:10814000000000000000000000000000000000002F
:10815000000000000000000000000000000000001F
:10816000000000000000000000000000000000000F
:1081700000000000000000000000000000000000FF
:1081800000000000000000000000000000000000EF
:1081900000000000000000000000000000000000DF
:1081A00000000000000000000000000000000000CF
:1081B00000000000000000000000000000000000BF
:1081C00000000000000000000000000000000000AF
:1081D000000000000000000000000000000000009F
:1081E000000000000000000000000000000000008F
:1081F000000000000000000000000000000000007F
:1082000010B5054C237833B9044B13B10448AFF3D0
:1082100000800123237010BD7C00002000000000BE
:1082200074D1070008B5034B1BB103490348AFF3F2
:10823000008008BD000000008000002074D107000D
:10824000154B002B08BF134B9D46A3F5803A002128
:108250008B460F461348144A121A04F09FFE0F4B28
:10826000002B00D098470E4B002B00D098470020E1
:10827000002104000D000D48002802D00C48AFF387
:10828000008004F04BFE2000290002F033FD04F0D2
:1082900031FE00BF0000080000FD002000000000CB
:1082A000000000007C000020D00900200000000039
:1082B0000000000013DF704718DF7047084A0023F2
:1082C000C2F84431D2F80435184420F07F404FF40E
:1082D0000033C2F84405C2F80433024B19707047EA
:1082E00000B00040310100207FB502F0E5FD78B11B
:1082F00082884FF6EF739A420AD902238DF8003034
:10830000031D019303786846033B029300F0CEFA05
:1083100007B05DF804FB04F037BA0000F0B5344E46
:108320008BB0002561276946304602F07BFC04468D
:10833000C0B12DB1622304A88DF8103000F0B6FA58
:108340002B4802F0CAFC58B12A4B1B7843B11220CB
:1083500000F0A8FD044604F0D7F9206800F044FFBF
:108360000BB0F0BD9DF80020019B012A05F101052D
:108370002CD1990701D002F0B6FC039B9A0702D0DA
:10838000002002F0B0FC029B9B0702D0002002F00C
:10839000AAFC0198B0F1005F12D3DDE90223A342E9
:1083A00008D860238DF81030029B059304A800F0D4
:1083B0007DFAB8E7135D025D134003550134ECE725
:1083C000DDE90212002302F0C5FDEAE7B3F1005F28
:1083D000029A07D3FF21184604F0E0FD019B8DF8B7
:1083E0001070E2E71146184602F084FDF6E700BF80
:1083F000980000203001002010B5214C88B000F01A
:10840000DBFE00211822204604F0C8FD1D4B23602E
:10841000102208232046C4E9012302F0CDFB1A4BA9
:10842000602283F817234FF400021A6000F002FB69
:1084300001228DF80C20154A0492002340F6010217
:1084400002A88DF80830ADF814208DF8163000F031
:108450002DFA08B102F047FC04F06AF90C490D4806
:1084600003F046F80DF1070001F036F89DF80730EB
:1084700023B14FF080430022C3F81C2508B010BD83
:1084800098000020B000002000E100E0098607000D
:10849000D6BE898EE982070070B58AB004F054F91F
:1084A000012304A88DF8103000F000FA03F066F8FC
:1084B00001F00FFF30B103214FF4A020FFF7FEFEC3
:1084C0000AB070BD042000F0EDFC0546122000F05B
:1084D000E9FC0646102000F0E5FC0446022001F00D
:1084E00021F80028ECD04FF0FF3300932B78590788
:1084F00006D533681B68013304BF6FF00403009393
:108500002A78009BD2070DD522681268013209D162
:1085100062683AB123F0010300936946042000F039
:10852000C6FC01E00133F8D101F0AAFE054600289F
:10853000C6D000F0F7FF0528C2D1022000F0B2FC3F
:10854000044608B902F0CFFB012D05D0042D0DD053
:108550000B2002F0C8FB02E02388ADF804304FF096
:10856000FF3201A9284601F0CDFCA9E7043494E8C4
:10857000070001AB03C31A80F1E700F097B90000D0
:1085800030B5054685B0122000F08CFC04460A2D5B
:1085900033D8DFE805F006063232323206322F32A7
:1085A000060008B301F095FEF0B1154802F095FB06
:1085B000E0B102F0EFFA02F0B7FD0023CDE901339C
:1085C0000393684602230093FFF776FE08B102F09A
:1085D0008AFB2068FFF76EFE08B102F084FB04F00E
:1085E00093F8206800F000FE05B030BD054B012275
:1085F0001A70F9E7002002F076FB72B6FEE700BFC2
:10860000980000203001002030B50378252B89B078
:10861000054611D81F2B05D8022B00F0B08006208C
:1086200009B030BD213B042B21D8DFE813F07000E6
:10863000B500D800DC00E000612B56D008D8512BE3
:1086400000F0DF80602B19D0502BE8D10223E2E04C
:10865000622B46D0702BE2D181687B4AC80300238D
:10866000490C04F0CBFA0221FFF728FE04E0007960
:10867000FFF786FF01F0D6FB0020D1E70023684614
:10868000009302F08BFB002800F0D180009802F0EC
:10869000FFFB009B1A78022161F303021A70AB689A
:1086A000009A0A335370009816238372E423C3722E
:1086B000FE230373AB6803334372D5E901120D3017
:1086C00004F05EFC2B7B6A7BA97B009802F086FF9E
:1086D0000446009802F0A4FB002C14BF00200320E5
:1086E0009EE7007902F0B2FFC6E7D0E901127823D5
:1086F0000DF102008DF8013004F042FCAB686846D1
:1087000001338DF8003003F027FF0028E5E74F4BD9
:108710004FF40032C3F808234D4B00221A7003793E
:10872000022B28D1232368468DF80030FFF725FF60
:1087300001232B71AC1D6979204602F01AF900283B
:108740009AD0022000F0AEFB08B902F0CCFA414802
:10875000202303704FF0FF3303616B7903712368AB
:10876000C0F805306368C0F809302389A0F80D30DF
:1087700000F09CF854E7012B7FF47EAFDAE705792F
:10878000022D7FF479AF01F0A4FD00287FF474AFCF
:10879000284600F0C7FE6FE70379022B7FF46CAF29
:1087A0002A4B4FF40032C3F80823294B00241C70D5
:1087B00021238DF80030034653F8072FCDF805200C
:1087C0005A681B89ADF80D3083798DF80430436900
:1087D000CDF8092068460493FFF7CFFE4CE701214E
:1087E0004FF4202040E701214FF470203CE743790B
:1087F000042B02D0012B7FF43FAF0020FFF7C0FE17
:108800003AE74368990714D183689A0711D1C3687E
:108810009B0710D10123291D0C2201A88DF80030DF
:1088200004F0AEFB0C48694602F0D5F928B10420EB
:10883000F6E61020F4E60920F2E6084B4FF40002B9
:10884000C3F80021ECE600BF40420F0000B000403A
:1088500031010020340100209800002000E100E0F8
:1088600010B5114C2278022A86B007D0032A11D005
:10887000012A14D123238DF8003005E003238DF85D
:10888000003000238DF80430002368462370FFF782
:1088900074FE02E00020FFF773FE06B010BD082052
:1088A00002F021FAF0E700BF3101002030B5037873
:1088B000322B8BB005463CD81F2B06D8042B31D960
:1088C000062002F010FA06245BE0203B122BF7D8BA
:1088D00001A252F823F000BFBF890700CB8907002F
:1088E000C7880700D7890700DD890700C18807000E
:1088F000C1880700C1880700C1880700C188070038
:10890000C1880700C1880700C1880700C188070027
:10891000C1880700C1880700E5890700F5890700BD
:10892000098A0700013B032B11D8DFE803F02D3142
:10893000383B612B6CD0622B6DD0602BC0D140686E
:1089400001F0B0FF6968012000F066FB1EE0374BC4
:1089500082681A60837B364A83F001031370037BBD
:10896000002B5FD0437B012B5CD94FF4FC214FF4EB
:10897000FE2000F037FA0446002855D1687B01F04C
:108980002FFA20460BB030BD01F04CFA0024F8E776
:1089900001894068012201F0F5FA0446F1E701F08F
:1089A00059FDF3E70023011D102202A88DF80430C1
:1089B00004F0E6FA1D4B01A81B689847EDE7026931
:1089C000411D007901F09EFAE7E70269411D007937
:1089D00001F0B2FAE1E701F0A9FDD7E7007900F074
:1089E000A1FDDAE7808800F05DFAA8600028CDD10B
:1089F0000524C6E7D0E90212808800F093FAB0F5AA
:108A0000FE2FC3D21024BCE7808800F065FABDE7D2
:108A10004168022098E700F08BFB00F0A7FD01F011
:108A200087FDB3E70724ACE70324AAE708FD00208D
:108A30000CFD00204FF08053064AD3F80C3103F5AB
:108A400000239B02002043F8042C034B01221A70E0
:108A5000704700BFAD8807000CFD0020024B1B686B
:108A600003B118470820704708FD002000B58BB0FF
:108A700020238DF8080001A88DF80430FFF7EEFFE1
:108A80000BB05DF804FB70B58AB006460D4614467F
:108A90000021242201A804F081FA512301A8CDE984
:108AA00002658DF804300494FFF7D8FF0AB070BD5A
:108AB00030B58BB005460C462422002101A804F0F5
:108AC0006DFA502301A8CDE902548DF80430FFF768
:108AD000C5FF0BB030BD00B58BB062238DF8080028
:108AE00001A88DF80430FFF7B9FF0BB05DF804FB67
:108AF000024B187880F00100704700BF0CFD002089
:108B000030B50278FF2A19D0024440F6010300F57F
:108B1000805047F6FF7455888D4201D1101D30BD3D
:108B2000158802EB8502904208D35588A54201D1F1
:108B3000A14203D1013BEED11846F0E70020EEE759
:108B400048B1B0F5002F05D0034B1B685B78A0EB54
:108B5000830070470020704734FD002008B547F6B9
:108B6000FF71FFF7CDFF18B1BDE80840FFF7E8BF80
:108B700008BD0000830710B5044602D0102002F0A3
:108B8000B2F820460249BDE810400422FFF77BBF3F
:108B9000C8CF070010B5064C0223D4E90101042216
:108BA0002370FFF770FF08B10123237610BD00BFCB
:108BB00010FD0020F8B51B4F4FF6FF763C46D7E975
:108BC000023203F580539A4204D30123237604230F
:108BD0002370F8BD5388B342F7D0E3B1158847F648
:108BE000FF729342236914BFAD0004255A196368CC
:108BF00003F580539A4202D9032002F074F8D4E9B5
:108C000003102A46FFF73FFF0028E2D12269E368FC
:108C100063612A442261E3681A8803EB8203E360FC
:108C2000CDE700BF10FD002010B50A4C22787AB9BC
:108C300001232370084B1B78C4E9010123B94FF4C9
:108C40008051FFF735FF10B101232376002010BDBE
:108C50000820FCE710FD00202DFD0020038800EB1C
:108C600083000B4B03F18002904208BF1846094B6A
:108C70001860094B1B68984208D0A3EB0003C3F3AC
:108C80008F0388BF2033038000234380704700BFD9
:108C900038FD0020B8FD0020BCFD002013B50C4BB2
:108CA0001B78012B044604D00020019102F01BF830
:108CB00001992046FFF724FFFFF742FF20B102B0E1
:108CC000BDE81040FFF756BF052002B010BD00BF41
:108CD0002CFD00202DE9F74F9DF8309001910333D2
:108CE0004FEA890823F0030508F1040306461746F6
:108CF0002B44EFF3108A72B6DFF8E4C0DCF80040D2
:108D00002288B3EB820F4FEA820E01D8608828B127
:108D1000BAF1000F00D162B6042338E02E4A116880
:108D20008C422E4937D1CCF8001011609B08488046
:108D30000B800846FFF792FFBAF1000F4AD162B6E6
:108D40000C46B9F1000F0AD004EB05090822FF21F7
:108D5000484604F023F947F6FF73A9F8063005F1F9
:108D600007094FEA99032380019B63802A4639460D
:108D7000201D04F005F929F0030242442146304643
:108D8000FFF781FE034610B101F0ADFF0023184646
:108D900003B0BDE8F08F01F1800BABEB040293420E
:108DA0000DD9A4EB0B0BF3445B45B1D847F6FF7E1E
:108DB0009208A4F802E02280CCF80010B6E79B08E5
:108DC000608023802046FFF749FFBAF1000FB8D139
:108DD00062B6B6E7014CB4E7BCFD002038FD0020C8
:108DE000B8FD00202DE9F041254E40EA01040023A2
:108DF000C4F30B043370002C3ED1224FDFF8A08067
:108E0000214DC8F80000802229603846214604F030
:108E1000C5F81E4BD8F800001F601D4B1F602023B3
:108E20003B80FFF79BFE1B4F1C22386021461A48EF
:108E300004F0B4F8194B1C703B68C3B92868FFF7FD
:108E40008DFE0746D0B1D8F800004FF48051FFF7EF
:108E50002FFE08B101F047FF2968D8F80000C1F1E2
:108E600004023A44FFF70FFE08B101F03CFF012372
:108E700033702046BDE8F0811024FAE70B24F8E7B0
:108E80002CFD002038FD002030FD0020B8FD002022
:108E9000BCFD0020C0FD002010FD00202DFD0020A5
:108EA00034FD002001464FF4FE20FFF729BE1FB518
:108EB00004460391FFF7F6FFFFF742FE50B1038827
:108EC000039A00219B000091043B2146FFF702FF1B
:108ED00004B010BD0520FBE701464FF4FE20FFF76C
:108EE000DDBE000010B50B4C2378012B02D0002012
:108EF00001F0F9FE04232370074B1968074B0A1D84
:108F00001A60074B1868FFF78FFE08B90323237018
:108F100010BD00BF2CFD002034FD0020C0FD00204E
:108F200030FD00202DE9F3472F4B1B78012B8146A4
:108F30008A46144602D0002001F0D5FE542C02D9F6
:108F4000002001F0D0FE294E33689B0702D000209C
:108F500001F0C9FE3368B3F5FE2F02D8002001F0FE
:108F6000C2FE356835B90E2001F0BDFE284602B0BC
:108F7000BDE8F0871E4F3B6805F10802224403F567
:108F800080539A4204D3082001F0ADFE0025EDE79E
:108F90004846FFF787FFFFF7D3FD164A01231370FA
:108FA000804600935246234649462846FFF792FEE4
:108FB00008B10420E8E73368073424F003041C44B4
:108FC0003460B8F1000F04D04046FFF7D3FD00280D
:108FD000EFD132683B68583203F580539A4201D38F
:108FE000FFF780FF0435C1E72CFD0020C0FD002005
:108FF00034FD00202DFD0020054B1B78012B05BF03
:10900000044B1878002080F0010000F00100704748
:109010002CFD00202DFD002001282DE9F041064601
:109020000C4632D13A4FB9422FD307F1800399420F
:1090300098462AD2374D2B68994202D0102001F071
:1090400052FEEFF3108272B62B6819884FF6FF7349
:109050009942314B18BF208819680B8814BF1B1820
:1090600001330B80238804EB8303434508BF3B4651
:109070006FF0004019682B60814204D104334345EE
:1090800008BF3B462B6002B962B6244D2B78013BEA
:10909000032B0AD8DFE803F0021A2629022E04D196
:1090A0006B689C4201D1FFF775FD2B7863B91C4CAE
:1090B0002378032B21D11B4B19681B4B1868FFF732
:1090C000B3FD08B905232370BDE8F081012EECD172
:1090D000AB689C42E9D103232B706B6804340433E2
:1090E000EC602B61FFF766FDDFE7012EDDD16B69D8
:1090F0009C4204BF00232B70D7E7052BE4D10A4B19
:109100001868FFF72BFD094B18600123DBE700BF50
:1091100038FD0020BCFD0020B8FD002010FD00201F
:109120002CFD002030FD002034FD0020C0FD00207B
:109130000C4B002119700C4B1B6859800B4B1A7893
:1091400072B1187E60B1012A197602D0022A05D0C8
:10915000704758684FF48051FFF7AABCFFF71ABD5B
:10916000704700BF2DFD0020B8FD002010FD00203D
:1091700010B5104CD4F8403143B1D4F80433DA03BD
:1091800004D50023C4F8403102F080FAD4F8443109
:1091900073B1D4F804339B030AD50023C4F84431D7
:1091A0004FF40033C4F80833BDE81040FFF758BB54
:1091B00010BD00BF00B00040094B0022C3F80825D5
:1091C0004FF44032C3F8442301229A601A60054BE1
:1091D000202283F80B234FF400621A60704700BF0F
:1091E00000B0004000E100E0F0B50346186880F3ED
:1091F00008885868FF2464B2EFF30585002D01D17B
:10920000A64600472546064621273FBAF0B400246B
:10921000002500260027F0B4F92040B2004700BF27
:10922000F0BD00BF18DF70472DE9F041A54F3C6845
:10923000C0B0002C6CD0EFF3108672B654222146D9
:1092400001A803F09DFEE37CF83B072B5ED8DFE826
:1092500013F02F015D005D005D00B7005D0015009B
:109260000800994B01221A70FE238DF81730974B96
:10927000187801A92030FFF71AFE47E0934FDFF876
:109280004882012388F800303B7816A9DB4304208C
:109290001693FFF70CFE3D78022D1CD0042D3AD01A
:1092A000012D40F089801020D4F80080FFF7FAFDEE
:1092B00062680168404603F055FE002877D001F04F
:1092C00069FC62B62B9523682C9363689B082E93E8
:1092D0004FF4805313E011202568FFF7E3FD626827
:1092E0000168284603F03EFE002860D001F052FCE1
:1092F00062B600232B9323682C9363689B082BA8EA
:109300002D93FFF78FFF08B101F0EDFC06B962B6AF
:1093100040B0BDE8F081FFF7EBFBB8B101F03AFCDB
:109320004FF080434FF00F12C3F800240022C3F81F
:109330001C25BFF34F8F6649664BCA6802F4E06292
:109340001343CB60BFF34F8F00BFFDE71220FFF741
:10935000A9FD054608B901F0C6FC2B68C3F30B0351
:1093600013B1002001F0BFFC50238DF8AC302B6806
:109370002C93636803F6FF7323F47F6323F00F03DA
:109380002BA82D93FFF76AFB18B1012388F8003052
:10939000BCE751238DF8AC3023682D9363682E937E
:1093A0002B682C932BA8FFF759FB0028EDD1FC2349
:1093B00038788DF817305CE70B2001F094FCF6E765
:1093C0000220FFF76FFD05460420FFF76BFD804686
:1093D00015B9284601F087FC0E22294616A803F08D
:1093E000CFFD0422B8F1000F20D1FF212BA803F0FC
:1093F000D5FD364D2B78022B1DD0042B27D0012B09
:1094000037D12389ADF858309DF8AC3043F00103D3
:109410008DF8AC304FF01A080E2216A90220FFF783
:1094200081FD60BB284B01221A706FE741462BA8D3
:1094300003F0A6FDDDE72389ADF85A309DF8AC3086
:1094400043F002038DF8AC304FF01B08E4E7A3684B
:109450001793A389ADF86030D4F80E30CDF86230A0
:109460009DF8AC3043F004038DF8AC304FF01C088D
:10947000D2E70B2001F037FC4FF00008CCE7A37CCB
:109480003BB1402204F114014046FFF74BFD002898
:10949000C8D004222BA91046FFF744FD0028C1D0F4
:1094A0002878F82301A920308DF81730FFF7FFFC4A
:1094B000064B18782030FFF70FFD0028B2D1386036
:1094C00024E700BFB4FE0020B1FE0020B0FE002063
:1094D00000ED00E00400FA0570B5044603250126FE
:1094E00006F1200080B2FFF7DDFC60B1C37CFF2BEA
:1094F00009D00A4B1E700A4B1860FFF795FE0CB19D
:109500000123237070BD013D4FEA4606E8D1044BAC
:109510001D60002CF6D02570F4E700BFB0FE0020DF
:10952000B4FE0020431E012B70B5054601D9042866
:1095300012D10C4E34688CB905F12000FFF7B2FC53
:1095400070B103681B6801330AD0074B30601D708F
:10955000FFF76AFE204670BD0720FCE70820FAE707
:109560000520F8E7B4FE0020B0FE0020054B1B6884
:1095700033B1054B1A781AB100221A70FFF754BEA6
:10958000704700BFB4FE0020B1FE0020024B1868F7
:10959000003818BF01207047B4FE00208268531CB9
:1095A000C36808BF00229B0002F00F02013B134476
:1095B000028A1B0901330AB103EB12134FF6FF7045
:1095C000984228BF1846704710B50420FFF76AFC80
:1095D000174C20610220FFF765FC20601220FFF786
:1095E00061FCE0601120FFF75DFCA0601020FFF738
:1095F00059FC60600120FFF755FC23696061B3F5F9
:10960000FE2F0FD32368B3F5FE2F0BD3E368B3F51A
:10961000FE2F07D36368B3F5FE2F03D3A368B3F51A
:10962000FE2F04D2BDE810400820FFF71FBA10BD7E
:10963000C4FD002070B590B001AC05461822002191
:10964000204603F0ABFC6B1E022B2AD8384B1A794C
:109650001968029102F007014FF6FD7242EA0162B9
:10966000344993F87100097842EAC062C81F414248
:10967000414142EA01723049019811402F4A0240AB
:1096800053F8660F1143019159681B8903AA03C25D
:10969000012013800321032D48D8DFE805F00531B0
:1096A0003A4302200F21F6E74FF6FE73ADF804307F
:1096B000234B1B680DF1060203F10C0553F8046BF4
:1096C00042F8046BAB42F9D11B881380102560234C
:1096D0008DF81C308DF82800002307A88DF829107C
:1096E0008DF82A30CDE90845FFF7B8F9612307A8BE
:1096F000CDE908458DF81C30FFF7B0F910B070BD0A
:109700009DF80630042262F303038DF8063012251B
:10971000DDE79DF80630012262F303038DF8063081
:109720000A25D4E79DF806300222F5E70025CEE7AA
:1097300004FE002000FD0020FDFF001F0000FFE0F0
:10974000C4FD002008B50020FFF774FF044B054856
:1097500001221A70BDE808407422002103F01EBCEB
:1097600000FD002004FE002000B58BB0827821238C
:109770008DF80430C2F303038DF80930084B00F173
:1097800008011B788DF8083002F00F020DF10A0075
:1097900001F094F801A8FFF761F90BB05DF804FB44
:1097A00000FD002030B5104C104D23782D789D42DF
:1097B0008BB000D90BB90123237060238DF80430DE
:1097C0000023CDE902018DF8103001A823788DF82F
:1097D00011208DF81230FFF741F910B923780133C9
:1097E00023700BB030BD00BF01FD002078FE0020CB
:1097F00038B502884FF6FC739A4204460ED143886E
:10980000002B14BF032206222046FFF7CBFF05469C
:1098100010B9204601F08AF9284638BD0322F3E743
:1098200038B50546114800244FF6FF730471846172
:109830008460A0F86230A0F8644080F87040C46191
:10984000046045712A466630013D01F037F8EDB2FB
:10985000074B032D4FF002021A7096BF054B2046AE
:10986000585DBDE83840FFF7E5BE00BF04FE0020AC
:1098700000FD0020CCCF07002DE9F04FB64C426828
:1098800023689A42A9B005460F4640F0A08201F035
:1098900037F9824620B10026304629B0BDE8F08F66
:1098A000AE4A1378033B9046052B00F28C81DFE82B
:1098B00013F006008C018A018A014C027B026E883B
:1098C000A74A002E40F06F8163791670022B4DD0AD
:1098D000042B04D0012B4CD1A24B5E6801E0A14BBC
:1098E000DE68AB682361A968481C284608BF316858
:1098F000FFF754FE80B2A4F86200A4F86400A160EF
:10990000EB6899489B00A3612B8AE361AB7C002143
:10991000C3F3C003102284F87030616184F86010D2
:1099200003F03CFB01F016F9E3685A1C27D1637978
:10993000022B22D18B4BDA68D2E900321A444FF065
:10994000102359698A4288BF5A69A169874B23EA63
:1099500001031344E360D4E9020290421FD0A369DB
:10996000194601F005F9D0B10D2010E07D4B9E683D
:10997000B7E7062001F0B7F9B3E7A368EAE74FF0CD
:109980001022A16952690B449342E4D90C20FFF7DD
:109990006DF8FFF7D7FE284601F0C8F87BE7A2680C
:1099A00033689A42C0F0F780A1690A4471680B4499
:1099B0009A4200F2F0800422FF2113A888F80020C8
:1099C00003F0ECFA6379022B1ED0042B17D0012B85
:1099D0001FD19DF84C306FF300038DF84C30D4E963
:1099E00002329A4219D15F4E3369002B40F0C28097
:1099F000042213A91046FFF795FA306151E09DF853
:109A00004C306FF38203E8E79DF84C306FF341036D
:109A1000E3E7072001F067F9E1E72120FFF742FAC9
:109A20000A902220FFF73EFA0B902420FFF73AFA23
:109A30000DF1280A0C904FF0FF364FF000084FF060
:109A4000010B5AF8049BB9F1000F14D0D9E90001B9
:109A5000A369E26801F08CF840B10BFA08F02030FD
:109A600080B2FFF739FA08B101F03DF9D9F80030BA
:109A70009E4228BF1E4608F10108B8F1030FE0D14D
:109A8000384BE268A169D3F80C80D3E901CE01EB31
:109A9000020913464B4501D2B3422AD3A3689A4226
:109AA000A1D0D4E9020194F87030A269304E00F0E0
:109AB00075FD002869D162238DF8080001A88DF892
:109AC0000430FEF7CBFF23238DF8283001238DF8D7
:109AD0002C3063798DF82D303368CDF82E307368D3
:109AE000CDF832303389ADF836300AA8FEF7B6FF2C
:109AF0004FE0186801302CD0DCF8000098420AD200
:109B0000DCF804100844984282BF9DF84C006FF3C3
:109B100000008DF84C00DEF8000098420AD2DEF812
:109B200004100844984282BF9DF84C006FF3410036
:109B30008DF84C00D8F8000098420AD2D8F80410EA
:109B40000844984282BF9DF84C006FF382008DF864
:109B50004C0004339EE700BF04FE002000FD0020FF
:109B6000EEFD0020C4FD0020F0FD002000F0FFFF0E
:109B70006AFE002013A90420FFF799F9002890D06D
:109B800094496079FFF74CFE8BE760793146FFF727
:109B900047FE0026FDE0686800F072FF8D4960799D
:109BA000FFF73EFEF7E613780133DBB2092B01D84D
:109BB000137070E620680023137000F061FF854980
:109BC0006079FFF72DFE082666E66B88002B00F013
:109BD000A580B4F864209A42C0F0A0807E4E3288FE
:109BE0009A4209D10023622213A833808DF84C20B9
:109BF0008DF85030FEF732FFE369B4F864106888DE
:109C00001A09A1EB1313984265D8A16800F0A7FECA
:109C1000072F01D8002682E0A7F1080292B205F1D1
:109C2000080100F0F5FC0028F4D1B4F864306A882B
:109C3000ADF85230242113A88DF84C10ADF8502007
:109C4000FEF70CFFB4F86230B6F800A0013BA4F8B0
:109C50006230BAF1000F3BD16069B5F8029001AAF9
:109C60006946CDE900AA00F0CFFD88B3A168009B4A
:109C700021F00F001B1A6AEB4A021B0943EA027328
:109C8000013309F1FF32934203D3B4F864204A450B
:109C90001ED1ADF82A3023680B9360238DF84C3029
:109CA0000AAB1493082315934FF602734FF6FB7219
:109CB000ADF8583013A80023ADF828208DF85A309D
:109CC000FEF7CCFE20B9009B6361BDF82A303380DB
:109CD0004FF0010A9EE702F1FF39A9EB0109814427
:109CE0004A4597D994F8603043FA09F3DB0791D4D9
:109CF000A7F1080293B2102B8CD804EB091005F1E0
:109D00000801203003F03CF9012000FA09F094F832
:109D1000609049EA000984F8609086E70B26B4F861
:109D200062305BB970228DF84C202C4A13A8CDE923
:109D30001432FEF793FE052388F80030BAF1000FC5
:109D400027D1002E3FF427AEA6E56B8823B928461D
:109D5000FFF724FCA4F864000823002088F80030F2
:109D6000FEF7B9FE23238DF84C3002238DF85030D6
:109D7000184B1A68CDF852205A681B89ADF85A3032
:109D800013A86379CDF856208DF85130FEF766FEA2
:109D9000064639462846FFF72BFD002E7FF47CADA2
:109DA00000283FF478ADF6E56B8823B92846FFF725
:109DB000F5FBA4F864006A88B4F86430ADF850206C
:109DC00024218DF84C10ADF8523013A88EE60B26E6
:109DD00062E500BF6AFE0020ECFD002080C3C901DF
:109DE00038B500240A4B05462146742209481C70E8
:109DF00003F0D4F821460848102203F0CFF8074BAF
:109E00001C70074B1D70BDE83840FFF7DDBB00BF7D
:109E100000FD002004FE0020F0FD002000FE0020D8
:109E200078FE00202DE9F043742291B000212E48E5
:109E300003F0B4F8102200212C4803F0AFF82C4BAB
:109E400000241C702B4B1C80FFF7BEFB2A4B029397
:109E50002423ADF80C304FF48173ADF804300423A3
:109E60008DF80630254B1B689A1CCDE9042304337A
:109E7000069302AF4FF002080DF1040937F8020B08
:109E8000FFF710F80546E8B114F809608DF81C805A
:109E900000F1080132460DF122008DF8206000F03B
:109EA0000DFD04AB0BA853F82410324600F006FD5C
:109EB0002B680E936B680F93AB7C8DF8213007A84D
:109EC000FEF7CCFD0134032CD8D100F043FEFFF7A0
:109ED0005DFB20B9FFF736FC11B0BDE8F083084BFD
:109EE00000221A70F8E700BF04FE0020F0FD0020F9
:109EF00000FE0020ECFD002022002100C4FD002017
:109F000000FD002008B50A4B1B78012B0CD14FF047
:109F100010235B699A4201D3531C07D1054BDA60C9
:109F2000FFF77EFC002008BD0820FCE71020FAE7C0
:109F300000FD002004FE002010B50F4C03462078E1
:109F40000138012815D8072020700C4C2046637179
:109F500040F8662B1A4600F0B1FC6379013BDBB296
:109F6000032B96BF064A0020D05CFFF763FB00205E
:109F700010BD0820FCE700BF00FD002004FE00200B
:109F8000CCCF0700F0B50388A3F57F43FA3B8DB033
:109F90000446042B2CD8DFE813F04201DD006201F7
:109FA0004F000500B04D2E78012E4CD10379407939
:109FB00043EA002000F03FFD98B121238DF80C30DA
:109FC00002238DF8113023798DF8123063798DF8E2
:109FD00013302B788DF8103003A8FEF73FFD0546AF
:109FE000D3E0A11D0846019100F00DFD019908B9CB
:109FF0000B25CAE062882B7890B24FF6FE74A0421F
:10A000000CD09A4C24682488844207D021218DF8F2
:10A010000C108DF81160ADF81220DBE721228DF8CD
:10A020000C2004228DF811200DF112000A228DF867
:10A03000103002F0A5FFCFE78B4F3B78032B04D8FD
:10A04000012B24D87BD008259FE0072BFBD1884D1E
:10A0500082786B7902F00F029A422AD100F108014E
:10A0600005F1660000F039FC18B3E3782A7903F0B3
:10A0700007039A4204D31CD163682A689A4218D213
:10A0800063682B60E378C3F302032B7143E0784EDF
:10A09000717906F1660200F011FD354606F16601A0
:10A0A000002843D0E378327903F00703934206DCBB
:10A0B00001D0002569E0626833689A42F9D9A37833
:10A0C000C3F303026A71224603F00F0352F8080F2C
:10A0D000C5F866005068486012890A8121884FF6E9
:10A0E000FD72914207D1E278520704D0A27802F0C3
:10A0F0000F029A4202D0072000F0F5FD63682B6042
:10A10000E378C3F302032B71E378C3F3C00385F84C
:10A11000713003233B706B79013BDBB2032B96BF9D
:10A12000544A0020D05CFFF785FAC2E7A278737921
:10A1300002F00F029A4206D0E3785B07B9D02046BE
:10A14000FFF712FB4BE704F1080000F0DCFB0028EE
:10A15000AFD1F1E7464A4168136899427FF448AFAE
:10A16000414B1E78082E13D100F0CAFC0028A0D164
:10A1700031462046FFF73CFB6123054603A8CDE9A5
:10A1800004468DF80C30FEF769FC28460DB0F0BD92
:10A19000394E41880023374636F82300884237D1AC
:10A1A00006EB83067388591C072B718081D963885D
:10A1B0009068012B1EBF03F1FF3320F00F0000EB6E
:10A1C0000310102205A900F0E3FA30B34FF6FA733A
:10A1D000ADF80C30E278A37843EA0223ADF80E30F4
:10A1E000636804930322182103A8FFF7DBFA0546EE
:10A1F00058B956B9214B1E78721C1A7006F0030329
:10A20000628827F8232007EB830600237380BCE7CE
:10A210000133042BC0D10026C9E70525F5E7124B11
:10A220001B78082B1BD1019100F06AFC00287FF4F9
:10A2300040AF0F48B0F86420B0F86200ADF81220CB
:10A24000531C1B1A24208DF80C0003A8ADF8103005
:10A25000FEF704FC01992046FFF7CAFABFE6204644
:10A26000FFF70AFBBBE600BF00FD0020C4FD002095
:10A2700004FE0020CCCF0700F0FD002000FE0020EF
:10A2800070B50220FEF70EFE06460420FEF70AFE19
:10A2900005461020FEF706FE04461220FEF702FED9
:10A2A00033882978024633B111F001030DD02068BC
:10A2B0000068013007D0490709D513681B685A1C8C
:10A2C0000CBF04230023184670BD0123FBE70423C1
:10A2D000F9E710B50220FEF7E5FD04461220FEF76F
:10A2E000E1FD74B150B103685A1C0AD01B680133F8
:10A2F00007D0D4F80A0008B100F0B4FB00F0010068
:10A3000010BD0020FAE7000030B54D4D4D4C2968D6
:10A31000ABB00E22684602F033FED4E902329A4214
:10A3200041D05422FF210DEB020002F037FE62798A
:10A3300004F1660117A800F0C1FAA3691693E36857
:10A3400015934FF47F43ADF86630E3699BB140222B
:10A3500004F120011AA802F013FE01238DF86630E3
:10A3600054226379022B17D0042B06D0012B16D16F
:10A3700015A9212003E01422F3E715A92420FEF7F4
:10A38000D1FD314B06221A70FEF7ACFD034638B101
:10A3900000F0A9FC002303E015A92220EFE70B231E
:10A3A00018462BB030BD2B6913B90E2000F09BFC72
:10A3B0000422296915A802F0E3FD6279022A31D04E
:10A3C000042A15D0012A20D00020E3691BB11F49BF
:10A3D0004022FEF7A7FD0E2269460220FEF7A2FDED
:10A3E0000422286015A91046FEF79CFD2861C8E7E5
:10A3F00017490A2201A802F0C3FD9DF8543043F02A
:10A4000004038DF854301C20DFE71149022268460E
:10A4100002F0B6FD9DF8543043F001038DF854303E
:10A420001A20D2E70A490DF1020002F0A9FD9DF8B9
:10A43000543043F002038DF854301B20C5E700BFB1
:10A44000C4FD002004FE002000FD002024FE0020AA
:10A450006AFE002030B5314B1B78013BA7B0072BBB
:10A4600011D8DFE803F00408080A12105959012036
:10A47000FEF7FCFA07E00520FAE7294B587903F1CB
:10A480006601FFF7CDF927B030BD264D6A69002A75
:10A4900032D0234CE369002B3CD00AA801F0EEFE39
:10A4A0000122611D0AA801F019FF042204F1100124
:10A4B0000AA801F013FF042204F118010AA801F010
:10A4C0000DFF002301220DF107010AA88DF80730C6
:10A4D00001F004FF6379022B11D8CBB90AA800F070
:10A4E000D1F9002202A90AA801F01BFF0E4A6869EF
:10A4F00002A901F097FC68B1FFF706FFC3E7042B40
:10A50000ECD10A2204F166010AA801F0E7FEE5E7B2
:10A510000222F7E70420ABE70020A9E700FD0020B6
:10A5200004FE0020C4FD002024FE0020FFF70AB92D
:10A5300000B5114B1B78062B8BB01AD1FEF75CFDD2
:10A54000B8B10E4925234A798DF8043066310123CC
:10A550000DF10A008DF808308DF8092000F0AEF9F1
:10A5600001A8FEF77BFA00F09BF9FFF72DF8FFF743
:10A5700059FC0BB05DF804FB00FD002004FE002038
:10A5800010B5054C30220021204602F007FD4FF6A1
:10A59000FF73238510BD00BF80FE00202DE9F84326
:10A5A00004460D4645EA0409C9F30B0990461F46C7
:10A5B000FFF7E6FFB9F1000F21D11248124E002D2E
:10A5C00008BF254608F6FF71014028407560FEF778
:10A5D0006FFA04EB0801346021F00F0124F00F043E
:10A5E00000230C1B0022C6E904232409074B3481F5
:10A5F000B772C6F80C80B3624846BDE8F8834FF0E6
:10A600001009F9E700F0FFFF80FE00200000FFFFC7
:10A610002DE9F74F92465D4A138D4FF6FF77BB4207
:10A620008346104637D01BF00F0F40F0A880156806
:10A630005D4500F2A480D4680AEB0B062C44A642C8
:10A6400000F29D80BAF1100F00F29B801AF0030C0B
:10A6500040F09780B2F82AE0BE4540F0948025F0A3
:10A660000F04ABEB040424090134A4B2A34214D3B5
:10A670001B1B402B0FD8D2E904C5C3F12007A3F15F
:10A6800020062CFA03F205FA07F73A4325FA06F6F4
:10A690003243D20767D4082036E0E31A9BB2012088
:10A6A000A3F12008C3F1200600FA08F520FA06F607
:10A6B00000FA03F717F1FF3745EA060545F1FF30C9
:10A6C000C3F1400CC3F12009D2E9046507FA09F986
:10A6D000019000FA0CF040EA090027FA08F840EA75
:10A6E000080007FA0CFC0CEA060800EA050958EA1B
:10A6F0000900A3F1200CC3F1200008D00320A2F828
:10A7000028E0FEF7B3F9052003B0BDE8F08F9D40C7
:10A7100006FA0CFC06FA03F31F4345EA0C05019BFD
:10A72000148526FA00F005431D4327F00107C2E90E
:10A730000475164D524605F118006C8502F020FC98
:10A740002946686851F8183BC01A52465844FEF72B
:10A750009AF90028D8D04FF6FF7307202B85FEF713
:10A7600085F90320D0E79BB2012202FA03F3DB4311
:10A77000DF173D4003EA0C03C0E90435D9E7102098
:10A78000C2E70920C0E71120BEE700BF80FE00201D
:10A79000F8B50E461B490C8D03464FF6FF708442F8
:10A7A0000F464FF000002CD00D6825F00F0CA3EBE6
:10A7B0000C031B0901339BB29C4222D3E41A402CA8
:10A7C00010D8D1E9045EC4F1200CA4F120010EFAE6
:10A7D0000CFC25FA04F42EFA01F144EA0C040C43B3
:10A7E000E1070ED466B15AB17968012B1EBF03F19F
:10A7F000FF3321F00F0101EB0311304602F0C0FBE3
:10A800000120F8BD80FE00202DE9F74F1C4B1F8D65
:10A810004FF6FF74A74230D0D3F800C01C69D3F8BC
:10A8200014E001942CF00F083F234FF00009019C25
:10A83000C3F12006A3F12005DC400EFA06F63443EE
:10A840002EFA05F52C4304F0010ACB465AEA0B0414
:10A8500011D0FC1AA4B2012C1ABF04F1FF3408EB8A
:10A8600004146446A04206D810230C600120136033
:10A8700003B0BDE8F08F013BD9D20020F8E700BF5C
:10A8800080FE0020054B198D4FF6FF72914203D0D8
:10A89000DA68596801F022BD0820704780FE002068
:10A8A000FFF76EBE044B03F11802824204BF4FF65D
:10A8B000FF725A85704700BF80FE0020022A30B424
:10A8C00008D0042A05D0012A01D10B88038030BCAE
:10A8D00070470A2230BC02F053BB022A38B506D0BA
:10A8E000042A03D0012A08D0002038BD0A2202F031
:10A8F00039FBB0FA80F04009F7E700880B88C31AEB
:10A9000058425841F1E7022A12D0042A03D0012A02
:10A910000BD00020704782888B889A42F9D100685A
:10A920000B68C31A58425841704700880B88F8E7F3
:10A9300000780B78F5E7022A0ED0042A03D0012A0A
:10A9400007D000207047D0F80600D1F80630C01AB2
:10A95000704700880B88FAE700780B78F7E7012842
:10A960001EBF00F1FF3021F00F0101EB001108467E
:10A97000704770B5054602200E46FEF793FA04466E
:10A980000420FEF78FFA022E03461BD0042E03D0BC
:10A99000012E29D0002313E0A98822899142F9D100
:10A9A000296862689142F5D1D5F80610D4F80A20DA
:10A9B000914217D820B1037883F00403C3F38003D6
:10A9C000184670BD2978A2789142E3D16978E2787F
:10A9D000914207D80028F3D0037883F00203C3F331
:10A9E0004003EDE70123EBE729882288914208D153
:10A9F00020B1037803F00103C3F1010303F0010365
:10AA0000DEE70023FAE710B504460220FEF74AFA13
:10AA1000A28803899A420CD1226843689A4208D1DD
:10AA2000D0F80A00D4F80630834294BF00200120F9
:10AA300010BD0020FCE707B5ADF804000220FEF7CA
:10AA400031FA9DF8042083789A4209D1C0789DF8A4
:10AA50000530834294BF0020012003B05DF804FB61
:10AA60000020FAE708B50420FEF71CFA30B10078A0
:10AA700000F00700C31F5842584108BD0120FCE701
:10AA8000044A1378591C117003F00703024A42F874
:10AA9000230070471CFF0020FCFE0020064A002314
:10AAA00052F8041B814204D00133082BF8D1002056
:10AAB00070470120704700BFFCFE002037B5837847
:10AAC0000D4603F00F03AB420446114600D0A5B972
:10AAD00001916068FFF7E2FF78B9083401992A46CE
:10AAE0002046FFF710FF30B101992A462046FFF7B4
:10AAF00022FFC043C00F03B030BD0020FBE70000C1
:10AB000030B5094B018800221C888C4203D15D8836
:10AB10004488A54206D00132102A03F10403F3D180
:10AB2000002030BD0120FCE7B8FE002030B5074909
:10AB3000074A0B68058803F00F04013322F82450FC
:10AB400002EB8402408850800B6030BDF8FE00208C
:10AB5000B8FE002008B540220348002102F01EFA8A
:10AB6000024B00221A6008BDB8FE0020F8FE00204B
:10AB7000904204D31344834207D8904207D1014442
:10AB8000914234BF0020012070470120704700200F
:10AB90007047000010B5074A10680023012404FA2A
:10ABA00003F1014203F1010318BFC2F88010202B0A
:10ABB000F5D110BD00E100E081682023013B21FABE
:10ABC00003F2D207FAD5012202FA03F383600023CD
:10ABD000C0E90333704770B50446F9B1EFF310854F
:10ABE00072B6D0E9020622690244B24203D105B925
:10ABF00062B604250DE0236862680138304002FB2C
:10AC0000003063693BB19847E3680133E3603DB9C5
:10AC100062B6284670BD02F0B3F9F5E70E25F8E7F5
:10AC20000025F6E738B504460846EFF3108572B6FE
:10AC3000D4E90331994203D105B962B60E250FE07C
:10AC400048B1D4E90123013B0B40216802FB031109
:10AC500063693BB198472369013323612DB962B61B
:10AC6000284638BD02F08CF9F5E70025F8E7F8B57D
:10AC70000446084611B90E252846F8BDEFF31085A5
:10AC800072B6D4E90376BF1BBA4203D3002DF2D1CA
:10AC900062B6F0E7D4E901732168013B1644334002
:10ACA00007FB031163691BB198472DB962B6E3E74F
:10ACB0003A4602F065F9F8E70025DDE70022FFF7E4
:10ACC000D6BFD0E90320101A704703698268C068B4
:10ACD00013441B1A584258417047D0E90302131A13
:10ACE00058425841704772B600BEFEE772B600BEC9
:10ACF000FEE7000008B54FF08043D3F8082442B9BE
:10AD000001221A60D3F80021002AFBD00022C3F8E8
:10AD100000214FF08043D3F8142442B901229A60F5
:10AD2000D3F80421002AFBD00022C3F804214FF0FD
:10AD3000804301221A61D3F80C21002AFBD00022A3
:10AD4000C3F80C210E4B402283F816234FF48002E7
:10AD50001A6062B6FDF750FBFEF718FC70B94FF0B1
:10AD600080431C46D3F81C250AB9FDF709FC0023D3
:10AD7000C4F81C35FDF790FB20BFFDE720BFEBE7D3
:10AD800000E100E00023044A19460133202B02F8B9
:10AD9000011BFAD1704700BF4C0600200D4A30B5A8
:10ADA000014600231546EFF3108472B612F8010B2A
:10ADB00048B9094A0120E854282505FB03230B6004
:10ADC00004B962B630BD04B962B60133202BEAD1B2
:10ADD0000020F7E74C0600204C01002070B50E4C17
:10ADE000001BB0F5A06F15D22824B0FBF4F4EFF3EC
:10ADF000108672B6094D2B5D013BDBB2FD2B02D9EB
:10AE00000420FFF770FF2B5D01332B5506B962B6A6
:10AE1000012000E0002070BD4C0100204C06002005
:10AE2000104BC01AB0F5A06F10B501D3002010BDB3
:10AE30002823B0FBF3F0EFF3108472B60A4B1A5CD0
:10AE400032B90820FFF74FFF002CEFD162B6EDE7D3
:10AE5000013A1A5404B962B6185C003818BF0120D0
:10AE6000E5E700BF4C0100204C060020064BC01A4D
:10AE7000B0F5A06F3FBF2823B0FBF3F0034B185C85
:10AE800028BF0020704700BF4C0100204C06002066
:10AE900010B5084904460622033002F071F84FF05D
:10AEA00080530020D3F8A020237862F38613237008
:10AEB00010BD00BFA400001010B5034660B1427879
:10AEC000D11F1E2908D80332093013444FF6E4611C
:10AED000984201D202780AB9002010BD4478162C9D
:10AEE00005D1141F1B2C02D844888C42F5D00132A6
:10AEF0001044EDE7F0B54FF0805402262369226933
:10AF00009BB2013B0B4492B20021B3FBF2F3104A17
:10AF1000DBB20F46CDB2AB4200D8F0BDC2F804653B
:10AF2000D2F80054002DFBD0C2F80805D2F8005426
:10AF3000002DFBD0C2F80475D2F80054002DFBD0D0
:10AF40002569C5F38D0500EB85000131E2E700BFFF
:10AF500000E0014023F003032DE9F04118440024F0
:10AF6000164F174B0A442646A6464FF00108914259
:10AF700001D1BDE8F08111F801CB07F806C0751CBE
:10AF8000EDB264EA0C04042DE4B215D18CB1C3F81F
:10AF90000485D3F80044002CFBD03C680460D3F84F
:10AFA0000044002CFBD0C3F804E5D3F80044002C87
:10AFB000FBD00024043025462E46D8E76C0600203E
:10AFC00000E00140384B2DE9F04700240F46904641
:10AFD00001210322C3F8FC4FC3F8FC1FC3F80C4542
:10AFE000C3F810250222C3F808252522C3F85425EA
:10AFF0008E22C3F8242506462C4A2D48C3F81C256A
:10B000000568D3F82425280E42EA0022C3F8242537
:10B010002D02284AC3F82055C3F82C45C3F8301533
:10B02000C3F81425244AC3F8182540F25B62C3F81C
:10B03000382540F20312C3F83425204AC3F83C25D2
:10B040001F4D9422C3F844252A78032A08D11D48AD
:10B050001D4A44610823C0E900238360FFF7ACFD6B
:10B06000114BDFF874901748022400222C70C3F8AB
:10B070000C21164D164BC5F880412C601F60154BF6
:10B08000C9F80060C3F80080FFF727FE20B1D9F8A7
:10B090000030BDE8F047184700F028FA08B1C5F8BD
:10B0A0000041BDE8F08700BF0010004000D6BE8917
:10B0B000040000200601020025000302555555003A
:10B0C00008000020740600208C06002000E100E04B
:10B0D000CC060020D00600207006002038B50146BE
:10B0E000C0B1437913B90379012B15D80C48FFF788
:10B0F00072FD044690B9EFF3108572B600F0F6F9D0
:10B1000018B1084B0222C3F800210DB962B62C46D3
:10B11000204638BD0E24FBE71024F9E70424F7E7A6
:10B120007406002000E100E0074B00224FF0FF31E1
:10B13000C3F80022C3F8081301211961C3F80425DC
:10B14000024B02221A7070470010004008000020D5
:10B150002DE9F041624CD4F80C3186B02146002B29
:10B160006DD0D4F80064D4F80C74D4F81C31002BE2
:10B170005FD00023C4F81C31D4F84845E4B2002362
:10B18000C1F80C31574803A9FFF74CFD08B1FFF790
:10B19000AAFD9DF811300398013B012B4BD8524B6F
:10B1A000311E1D683A46234618BF0121A8474F4B60
:10B1B00002221A704B4801A9FFF780FD002840F0D9
:10B1C0008A80474C1323C4F800329DF80A300A2BBA
:10B1D00064D89A1C5200C4F8082503F07F02404B43
:10B1E0004349C3F85425019AC3F804250822C3F83B
:10B1F00004230022C3F80C210968D3F82425080E83
:10B2000042EA0022C3F824250A02C3F820259DF84B
:10B21000094036481A46002C4ED19DF80820C3F844
:10B220002C259DF80B20C3F80C2501221A60027012
:10B2300013E06424A3E72F4B1B689847B7E729481E
:10B24000284F294EFFF73DFDA0460546012D07D8A2
:10B25000264B1B78023B012BACD906B0BDE8F08130
:10B2600003A93846FFF72AFD01460028F0D19DF8D2
:10B270001130022BECD13846FFF7D4FCFFF754FF16
:10B28000D8F850150029FBD1C8F80C110398346880
:10B2900064234FF0FF32A047013DD7E7242B01D8AC
:10B2A000DA1C97E7144A07CA06AD05E9070005EB63
:10B2B000830252F8A02C8EE7104B994218BF03214D
:10B2C0004FF001030CBFC2F83035C2F8301553609F
:10B2D00000230370C1E70A4B1B689847BDE700BF16
:10B2E0000010004074060020CC060020080000205A
:10B2F00004000020D0060020D0CF0700D6BE898EE3
:10B300007006002010B5D0E900238468C168A2EB64
:10B31000731283EAF43303600C4413441144446011
:10B320008160C360184610BD0A4B012210B51A6037
:10B33000002219B901225A60084610BDD3F8004115
:10B34000002CFBD0013989B2D3F808454454C3F826
:10B350000021EEE700D0004037B504210023054668
:10B360000DEB01000193FFF7DFFF044658B9074BCF
:10B370002B60019BEB60C5E9013314242846FFF7DD
:10B38000C1FF013CFAD1204603B030BDED5EEAF1C9
:10B39000F0B5164B1648D3F80425531E23F07F430F
:10B3A00019460024056855B147688D1ABE1A26F063
:10B3B0007F4625F07F45AE4238BF27F07F410134FC
:10B3C000082C00F11000EDD19942084B4FF4803069
:10B3D0001FBFC3F804030020C3F84001C3F84015A1
:10B3E00016BF044BC3F808031A60F0BD00B000405C
:10B3F000880700208407002007B5019061B1084844
:10B4000001A9FFF7E8FB38B9064B4FF48012C3F8E7
:10B41000002103B05DF804FB0198FFF701FDF8E798
:10B42000EC06002000E100E007B5022368468DF835
:10B430000530FFF7B3FC78B100238DF8043068467F
:10B4400025238DF80630FFF749FE10B16846FFF757
:10B45000E7FC03B05DF804FB014B1870F9E700BF8F
:10B46000E4060020024B1B780BB1FFF7DDBF7047ED
:10B47000E4060020F8B5837B8768457B0646C3B9A0
:10B4800040F6CD4303FA05F20135AB409D1A15484D
:10B49000A2F6CD421744FFF735FFC5F35603B0FBC4
:10B4A000F3F202FB13023B44134423F07F43736027
:10B4B000F8BD022B0B480CBF0A240124FFF722FF22
:10B4C00040F6CD4161430F4441F69A136C4303FBB0
:10B4D0000474B0FBF1F303FB11010C4424F07F442E
:10B4E0007460E5E7D4060020FFF732BE0120704704
:10B4F000174B10B500241C70164B1860164B1748DC
:10B500001C802146802201F049FD1548154B03603F
:10B5100004222023C0E901234461FFF74DFBFFF71C
:10B5200031FC1148FFF718FF08B1FFF7DCFB0F4BA8
:10B530000F491048402283F814234FF480121A60F8
:10B54000002283F80123BDE810400B4AFFF73ABD03
:10B55000E4060020E8060020CC090020880700202F
:10B56000EC06002004070020D406002000E100E0E3
:10B57000F9B3070065B40700A1B70700034B1A78B9
:10B580001AB901221A70FFF74FBF7047E406002076
:10B5900073B50F4D0F4E01A92846FFF743FB044634
:10B5A00030B10D4B1B780BB9FFF7E8FF02B070BD4F
:10B5B0000198FFF75BFC012802D02046FFF793FBC0
:10B5C0000198336898470198FFF72AFCE3E700BF2A
:10B5D000EC060020E8060020E40600202DE9F047F4
:10B5E000044617461E460BB90C2A28D83CB3072937
:10B5F00025D8EFF3108872B6124B0D0103EB011939
:10B6000058599A4608B1FFF70BFC2046FFF7E6FBB6
:10B610000AEB050300225A734AF805400A4A1F73D1
:10B62000D2F804259A609E734846FFF723FFFFF780
:10B63000AFFEB8F1000F00D162B6012000E000209B
:10B64000BDE8F0878807002000B0004038B50D4BFA
:10B650004FF4006207280446C3F880200CD8030189
:10B66000094DE858FFF7DCFB1022002105EB041020
:10B6700001F094FCFFF78CFE024B4FF400621A605D
:10B6800038BD00BF00E100E0880700202DE9F74346
:10B690002D4B2E4CD3F80465DFF8B480002502361C
:10B6A0002F464FF02509216849B36368F31A23F048
:10B6B0007F42D8F80030F31A23F07F439A421ED815
:10B6C000E37B0091022BADF804708DF8077020D950
:10B6D000637BE7735A1CD2B2FF2B627307D1A36856
:10B6E00003F5CC1303F5D05323F07F43A360237BF2
:10B6F0009A4201D3FF2B1ED12046FFF7BBFE013536
:10B70000082D04F11004CED1FFF742FE03B0BDE8CE
:10B71000F0838DF806906846FFF7E0FC10B92068CA
:10B72000FFF75CFB9DF806300133DBB2272B8DF869
:10B730000630F0D9CCE72068FFF772FB1022002119
:10B74000204601F02BFCDAE700B00040880700201B
:10B7500084070020A0F57F400123074AF03803FA50
:10B7600000F000B2B2F9003019B1184380B2108075
:10B77000704723EA0000F9E7CC0900204FF6EF7389
:10B78000984281BF054BA0F57F401B88F03886BFEB
:10B7900043FA00F000F0010000207047CC090020BF
:10B7A00010B588B00446FFF787FB88B182884FF652
:10B7B000EF7390B298420BD9FFF7E0FF40B14BF224
:10B7C00003636846ADF80220ADF8003000F0C4FE17
:10B7D0002046FFF725FB08B010BD031F00221C30D8
:10B7E00043F8042F8342FBD17047031F1C3053F8EA
:10B7F000042F1AB98342FAD1012070470020704704
:10B800004A11012350F8220001F01F0103FA01F14F
:10B8100008407047002351F8232040F823200133CB
:10B82000082BF8D1704710B500F12003203153F8F0
:10B83000044D51F8042D944204D805D38342F6D127
:10B84000002010BD0120FCE74FF0FF30F9E700F1C8
:10B8500020030022834200D1704753F8041D42EABE
:10B8600051021A60CA07F5E7002370B5054618466D
:10B8700051F8236052F8234034440444A64202D0D5
:10B880008CBF0120002045F823400133082BEFD165
:10B8900070BD0023F0B50546184651F8236052F8F4
:10B8A0002370341AE41BA64202D034BF01200020CA
:10B8B00045F823400133082BEFD1F0BD01F11C0303
:10B8C00004381A688B4212BA40F8042FA3F104031B
:10B8D000F7D1704770B50646A0B008461446FFF78A
:10B8E00084FF20B13046FFF778FF20B070BD684676
:10B8F000FFF790FF214608A8FFF78CFF10A8FFF77D
:10B900006CFF012318A81093FFF767FF08A968468A
:10B91000FFF789FF20B910A93046FFF77BFFE4E766
:10B92000009BDA0716D46846FFF791FF109810F0D5
:10B93000010505D010A922460846FFF795FF0546E8
:10B9400010A8FFF784FF002DE0D0179B43F00043C1
:10B950001793DBE7089BDB0716D408A8FFF777FFF0
:10B96000189810F0010505D018A922460846FFF7DF
:10B970007BFF054618A8FFF76AFF002DC6D01F9B66
:10B9800043F000431F93C1E700281BDD08AA694666
:10B990006846FFF77EFF6846FFF759FF18A910A811
:10B9A000FFF741FF002804DA10A922460846FFF7F6
:10B9B0005BFF10A918AA0846FFF76BFF109B13F056
:10B9C0000105B6E708A96A460846FFF762FF08A81E
:10B9D000FFF73DFF10A918A8FFF725FF002804DA9C
:10B9E00018A922460846FFF73FFF18A910AA0846E3
:10B9F000FFF74FFF189B13F00105B4E710B504469D
:10BA0000FFF747FF30B121462046034ABDE810400A
:10BA1000FFF72ABF10BD00BF3CD0070010B5044699
:10BA2000FFF722FF28B907492046FFF7FCFE002850
:10BA300006DB21462046034ABDE81040FFF729BF38
:10BA400010BD00BF3CD007000246072352F8230078
:10BA500028B1024600202AB900EB431001E0013B67
:10BA6000F4D2704752080130F5E72DE9F04F002479
:10BA700087B08E462546234602EB8306AA46A1F1EF
:10BA8000040C254601960024CDE902A5019E56F836
:10BA900004790196DDE902AB5CF8046FA7FB066749
:10BAA00016EB0A0857EB0B092CBF01250025E645CC
:10BAB0002C44C2464D46E7D140F823800133082B81
:10BAC0000EF1040ED8D102F12006AE46A3F1070C08
:10BAD00025460196002451F82C600296CDE904E534
:10BAE000019E56F8047D0196DDE904AB029EA6FB9B
:10BAF000076716EB0A0857EB0B090CF1010C2CBF7A
:10BB000001250025BCF1080F2C44C6464D46E2D164
:10BB100040F8238001330F2BD5D1C0F83C9007B0FB
:10BB2000BDE8F08F2DE9304298B0814608A8FFF7B4
:10BB30009CFF08A94846FFF76DFE139B0393149BD7
:10BB40000493159B0593169B06930025179B07935B
:10BB50006A4669466846CDE901550095FFF784FEBF
:10BB60006A46044649464846FFF77EFE149B039307
:10BB7000159B0493169B0593179B04446A466946DC
:10BB80006846CDE90635FFF76FFE494604446A462C
:10BB90004846FFF769FE109B0093119B0193129B8F
:10BBA0000293169B06930444179B07936A464846E4
:10BBB000CDE904550395FFF757FE119B0093129BA7
:10BBC000169A0193139B02930492159B179A039361
:10BBD000CDE905230444109B07936A464846FFF7C6
:10BBE00043FE139B0093149B0193159B0293109BA0
:10BBF00006930444129B07936A464846CDE90455D0
:10BC00000395FFF746FE149B0093159B0193169B2B
:10BC10000293179B0393119B0693241A139B07937C
:10BC20006A464846CDE90455FFF733FE159B00935D
:10BC3000169B0193179B0293109B0393119B0493F4
:10BC4000129B241ACDE905356A46149B0793484692
:10BC5000FFF71FFE169B0093179BCDE90135119B43
:10BC60000393129B0493139B241ACDE905356A466E
:10BC7000159B07934846FFF70CFE241A0ED40C4D73
:10BC80002CB949462846FFF7CEFD01280DD02A469B
:10BC900049464846FFF7FDFD241AF1E7044A4946A4
:10BCA0004846FFF7E1FD2418F9D418B0BDE830820A
:10BCB0003CD0070070B588B006460D466846114670
:10BCC0001446FFF72FFF6A4631463046FFF72AFF3A
:10BCD000224669466846FFF725FF6A4629462846F8
:10BCE000FFF720FF08B070BDF0B5144689B00646D6
:10BCF0000F460246214668461D46FFF77FFE6A460C
:10BD000069466846FFF70EFF6A4631463046FFF740
:10BD100009FF6A4621462046FFF704FF3A462946B6
:10BD20002846FFF76BFE2A4629466846FFF7FAFECB
:10BD3000324669466846FFF761FE22466946684614
:10BD4000FFF75CFE324621462046FFF757FE2246AB
:10BD500039463846FFF7E6FE6A4631462046FFF789
:10BD60004DFE224629462846FFF7DCFE3A46294684
:10BD70002846FFF743FE69462046FFF74BFD09B012
:10BD8000F0BD00002DE9F041B2B022AB054602A89B
:10BD900000930190FFF769FE21491AA8FFF73AFDC9
:10BDA00012A8FFF71AFD40F20116012432AAC4F1CD
:10BDB000010302EB830312A853F8C8CC02EB8403FF
:10BDC000002253F8C8EC13465EF8237050F8048B39
:10BDD000B91AA1EB08018F4202D034BF0122002220
:10BDE0004CF823100133102BEED1131B5C4212A828
:10BDF0005C41FFF72CFDDDE919321AA843EAC27352
:10BE00001993FFF724FD013ED0D132AB03EB84043C
:10BE1000284654F8C81CFFF7FDFC32B0BDE8F0819D
:10BE20001CD007002DE9F047ADF5067D46AF0DF5B6
:10BE3000CC79064600258A46014648461446FD61EF
:10BE40005595FFF73BFD06F120016EA8FFF736FD83
:10BE500021463846FFF732FD04F120014EA8FFF7D6
:10BE60002DFD3846FFF7C1FC0646002840F05E81F4
:10BE70004EA8FFF7BAFC0446002840F05981AD48AF
:10BE80003946FFF7D0FC012840F09C80A9484EA914
:10BE9000FFF7C9FC0128804640F09480A54AA64ED1
:10BEA0004EA916A8FFF716FD514606A80D94FFF7F8
:10BEB00005FD06A9084616AAFFF764FF76AD16AA87
:10BEC00039460EA8FFF75EFF49462846FFF7A2FC59
:10BED0006EA97EA8FFF79EFC31462EA8FFF79AFCBC
:10BEE00006F1200136A8FFF795FC29462EAA16A8D0
:10BEF000FFF784FD7EAB2A4636A92EA8FFF7F4FE95
:10BF000016A908468D4AFFF7E5FC16AA7EA9284621
:10BF1000FFF7D0FE06A8CDE90495CDE90246FFF76C
:10BF200093FD05460EA8FFF78FFD8542B8BF054675
:10BF3000691E06A80191FFF763FC0199DFF8FC91E7
:10BF4000061E0EA818BF0126FFF75AFC002814BFD2
:10BF50000220002002AB06431EA853F82610FFF76C
:10BF600059FC26AE20313046FFF754FC16A8FFF7E7
:10BF700034FC023DCDF85880002D28DA16A9084679
:10BF80006E4A1EADFFF7A6FC16AA26A92846FFF7A3
:10BF900091FE68482946FFF746FC012804D0654A0F
:10BFA00029462846FFF775FC072355F8232057F844
:10BFB0002310013B82EA010244EA0204F5D2B4FAFA
:10BFC00084F4640920460DF5067DBDE8F08716A8C7
:10BFD000FFF70BFC002870D13246314656A8FFF718
:10BFE000A1FD56AA1EA95EA8FFF79CFD56AA114600
:10BFF0001046FFF797FD16AA31463046FFF792FD2F
:10C0000016AA11461046FFF78DFD1EA9084616AA6E
:10C01000FFF704FD16AA11461046FFF7FFFC16AA0B
:10C0200010461EA9FFF7EAFC1EA9084616AAFFF74C
:10C0300079FD1EAA114616A8FFF7F0FC1EA916AA44
:10C040000846FFF7EBFC1E9BDB076BD51EA94A4693
:10C050000846FFF709FC80461EA8FFF7F8FB259B62
:10C0600043EAC87325931EAA114616A8FFF75AFD86
:10C0700016A908465EAAFFF7C1FC16A908465EAAE3
:10C08000FFF7BCFC5EA9084616AAFFF7B7FC1EA97D
:10C0900008465EAAFFF746FD56AA10461EA9FFF7FE
:10C0A000ADFC16A91EA8FFF7B5FB314616A8FFF791
:10C0B000B1FB56A93046FFF7ADFB294606A8FFF7AE
:10C0C0009FFB2946B0F100080EA818BF4FF00108E9
:10C0D000FFF796FB002814BF0220002048EA000862
:10C0E00002AB53F82810D9B12EA8FFF793FB36A85E
:10C0F0002031FFF78FFB16AA36A92EA8FFF7DAFD2D
:10C100002EAA1EA93EA8FFF779FC1EAA36A92EA8C2
:10C110003346FFF7E9FD16A93EAA0846FFF702FDE0
:10C12000013D29E71EA8FFF792FB9CE72C4649E753
:10C13000344647E71CD00700DCCF07003CD007009F
:10C140002DE9F04FC9B008AA01F1400514464B781B
:10C150000E781B0443EA0663CE7833438E780431AD
:10C1600043EA06238D4244F8043BF0D11024916B3E
:10C1700016464FEAF14383EA714383EA9123716AD9
:10C18000366852F8045F31440B444FEAB54181EA06
:10C19000F51181EAD50101340B44402CD363E6D17B
:10C1A000D0E914E30093836D0193C36D0293036E92
:10C1B0000393436E0493836E0593C36E0693DDE988
:10C1C000057BDDE9031CDDE901592B4B009E07933C
:10C1D00074464FF00008079B53F8042B07934FEA6F
:10C1E000F12383EAB11383EA716A08AB53F828306C
:10C1F0001A440AEB020327EA010A01EA0C028AEA5E
:10C2000002021A444FEA743A86EA05035A448AEA5B
:10C21000B40A06EA050B234083EA0B038AEAB45A00
:10C2200008F101089A44B8F1400F02EB0903BB463C
:10C230005244A94619D172440265009A22444265CB
:10C24000019A32448265029A2A44C265039A1A44CA
:10C25000049B02660B444366059B63448366069B0E
:10C260003B44C36649B0BDE8F08F674635468C460F
:10C27000264619461446AEE75CD0070030B5E0B15B
:10C280000F4A104900240025C0E91245C0E91412E4
:10C290000D4C0E4A0E4DC0E916420E4AC0E9185226
:10C2A0000D4A826602F17452A2F523020023A2F61F
:10C2B00092420364C266184630BD0E20FCE700BF00
:10C2C00085AE67BB67E6096A72F36E3C3AF54FA527
:10C2D0007F520E518C68059BABD9831F70B5F0B1AE
:10C2E000DAB900201CE00C468D180026AC42F8D0CC
:10C2F000036C14F8012BC2540133402B0364F5D1B5
:10C300000146FFF71DFFD0E9123213F5007342F129
:10C310000002C0E912320664E8E70029E3D10E20EA
:10C3200070BD70B50D4616460446002875D000292C
:10C3300073D0026C8021372A815402F101034FF03F
:10C34000000240D8382B39D1D4E91201226C0823DD
:10C35000E3FB020103BAE3630B0A84F83A300B0CE7
:10C3600084F839300B0EC4E9120184F83B1084F8CC
:10C37000383021462046FFF7E3FE691E76B30023DE
:10C38000E26EDA4001F8012FA26EDA400A71626EA5
:10C39000DA400A72226EDA400A73E26DDA400A74F9
:10C3A000A26DDA400A75626DDA400A76226DDA40D3
:10C3B0000833202B0A77E3D1002070BDE25401330B
:10C3C000C0E7E25401333F2BFBD921462046FFF75B
:10C3D000B7FE3822002100F0E1FDB5E71823226DF9
:10C3E000DA4001F8012F626DDA400A71A26DDA407D
:10C3F0000A72E26DDA400A73226EDA400A74626EE3
:10C40000DA400A75A26EDA400A76E26EDA40083B3C
:10C4100013F1080F0A77E2D1CEE70E20CDE7000036
:10C42000074B1B7853B9074B1A78022A06D0022211
:10C430001A70054B4FF40012C3F80021704700BF7B
:10C44000BD080020BC08002000E100E010B50A4C47
:10C450000A482146FEF7E6FB60B9094B62781A608C
:10C46000084B0121C3F81C019960074902340C6094
:10C47000C3F81C2510BD00BFBE080020E80800203E
:10C480009C09002000200040A00900202748284BDC
:10C4900070B500240425272603608560466044614A
:10C4A000FEF78AFB2348244B8560C0E900364461CF
:10C4B000FEF782FB214B22491C704FF0A0434FF442
:10C4C0008072C3F81C258022C3F81C250C22C3F8F7
:10C4D0002027C3F81C274022C3F80825C3F81825D5
:10C4E0002022C3F81825174B0622C3F80C25082272
:10C4F000C3F814250722C3F810250522C3F8082520
:10C500000122C3F86C25C3F824158421C3F8005513
:10C51000C3F80413C3F80841C3F81C411A600A4B5E
:10C52000E02283F802231D6070BD00BFE8080020F0
:10C53000000900200808002020080020BD08002075
:10C5400000E0D7010020004000E100E00148FEF7D4
:10C55000B8BB00BF0808002010B504468AB00D48DB
:10C56000FEF7B3FBA0B922788DF800000132214616
:10C570000DF1010000F004FD06486946FEF72BFBB3
:10C58000054B1B780BB9FFF74BFF01200AB010BD1C
:10C590000020FBE7E8080020BC08002070B5334C01
:10C5A00088B0661C324BD3F808219AB9D3F81C1115
:10C5B00071B13049C3F81C210A68501E0860002A76
:10C5C00044D02D490A68501C12780860C3F81C2515
:10C5D00008B070BD294D0022C3F80821D3F8082106
:10C5E0002A68D3F818151170531C62782B60272A1B
:10C5F00001D92E60D6E79B1B262B04D8012BD1D95D
:10C6000001329342CED31E482146FEF7E4FAB8B178
:10C6100048F20343ADF80030A3788DF80230684645
:10C6200086238DF80330FFF797FF1548FEF74DFB83
:10C630000028DED0134A012313700D4A5360D8E757
:10C64000114B4FF48002C3F80021EEE70121D960BD
:10C650000C4B0E481978012918BF1A70FEF73DFBE4
:10C660000028B5D1FFF7DCFEB2E700BFA409002027
:10C67000002000409C090020A00900200C000020A0
:10C6800008080020BC08002000E100E0E8080020C5
:10C6900070B5EFF3108572B6064C074E012222707A
:10C6A00033781BB9237005B962B670BDFFF776FF0A
:10C6B000F6E700BFBD080020BC08002010B58AB016
:10C6C000044669460D48FEF7ADFA90B99DF8012081
:10C6D0002AB101320DF10101204600F051FC084B56
:10C6E0001878012807D100221A70064B18600AB08A
:10C6F00010BD0020FBE70120F9E700BF080800207B
:10C70000BC08002000200040074B0422C3F8802012
:10C71000064B4FF0FF32C3F8082301225A60DA605B
:10C720000022C3F80025704700E100E0002000402F
:10C73000044B602283F815234FF400121A60FFF7B0
:10C74000A5BE00BF00E100E000B589B048F20413C7
:10C75000ADF8003001238DF802304FF08043D3F85C
:10C760000034C3F3C0038DF80330FFF7EFFE8DF8FC
:10C7700004006846FFF7F0FE00280CBF04200020EC
:10C7800009B05DF804FB000030B5564C97B0842525
:10C7900006A8FFF793FF08B917B030BD9DF8193010
:10C7A000762B3CD01BD8022B25D00E2B1BD1FFF7AC
:10C7B0006FFF4FF080434FF0FF32C3F80024012297
:10C7C000C3F81C25BFF34F8F4749484BCA6802F492
:10C7D000E0621343CB60BFF34F8F00BFFDE7772BC1
:10C7E0003ED0782B61D08DF83A3048F20343ADF853
:10C7F000383082232FE09DF818208DF838208223CE
:10C80000012A8DF8393006D9013A0DF11A010DF1DE
:10C810003A0000F0B5FB0EA8FFF79EFEB8E78DF8D2
:10C820003A309DF8183048F20342052BADF8382015
:10C8300002D08DF83B50EEE79DF81C30012B0DD156
:10C840009DF81D10BDF81A00003918BF0121FEF730
:10C8500081FF0023E35C8DF83B30DCE70723F9E739
:10C860008DF83A309DF8183048F20742042BADF8A5
:10C870003820DED19DF81C00A8B101280FD1BDF8E9
:10C880001A00FEF77BFF0023BDF81A20ADF83C200C
:10C890009DF81C208DF83E208DF83F00DAE7032339
:10C8A0008DF8383000200723EEE78DF83A30022368
:10C8B0008DF800300DF11A0301939DF8183048F2FD
:10C8C0000542013B68460293ADF83820FBF755FE60
:10C8D000BDF81A30ADF83C30112894BF235C80239A
:10C8E000B9E700BF5CD1070000ED00E00400FA05E5
:10C8F0000C4B1B78062B10D10B4B1B681A070CD165
:10C900000A4B186800F0F003302B08D000F0E0006C
:10C91000A0F1400358425841704700207047012061
:10C92000704700BFE00F00F0E40F00F0E80F00F0E8
:10C93000094B1B78062B0CD1084B1B681A0708D132
:10C94000074B186800F0F000A0F13003584258413E
:10C9500070470020704700BFE00F00F0E40F00F0C8
:10C96000E80F00F008B5FFF7C3FF28B17D4B7E4A02
:10C970001B68C3F304231360FFF7DAFF10B17B4B8E
:10C980007B4A1A60FFF7B4FF28B17A4B7A4A1B68DA
:10C99000C3F342331360FFF7CBFF20B1774AD3686C
:10C9A00023F08073D360FFF7A3FF40B14FF08043C3
:10C9B0000022C3F80C21C3F81021C3F83825FFF773
:10C9C000B7FF10B16E4B03221A60FFF7B1FF40B101
:10C9D0006C4B05221A6001229A6700229A603F225E
:10C9E0005A60694B1B78062B50D1684B1B6819079E
:10C9F0004CD1674B1B6803F0F003502B46D14FF02E
:10CA00008052644BD2F80414C3F82015D2F80814ED
:10CA1000C3F82415D2F80C14C3F82815D2F8101452
:10CA2000C3F82C15D2F81414C3F83015D2F8181422
:10CA3000C3F83415D2F81C14C3F84015D2F82014EA
:10CA4000C3F84415D2F82414C3F84815D2F82814B2
:10CA5000C3F84C15D2F82C14C3F85015D2F8301482
:10CA6000C3F85415D2F83414C3F86015D2F838144A
:10CA7000C3F86415D2F83C14C3F86815D2F8401412
:10CA8000C3F86C15D2F84424C3F87025FFF730FFC3
:10CA900028B1414B414A1B6803F04F031360FFF775
:10CAA00027FF48B14FF08043D3F80024D20744BF9A
:10CAB0006FF00102C3F80024394B1B68062B08D124
:10CAC000384B1B68062B01BF374A136843F4806359
:10CAD0001360364AD2F8883043F47003C2F88830C5
:10CAE000BFF34F8FBFF36F8F4FF01023D3F80022A7
:10CAF000002A03DBD3F80432002B2FDA2C4B01225F
:10CB0000C3F80425D3F80024002AFBD04FF01022EC
:10CB10001521C2F80012D3F80024002AFBD04FF0F0
:10CB200010231522C3F80422214B1A46D3F800140F
:10CB30000029FBD00021C3F80415D2F80034002BE3
:10CB4000FBD0BFF34F8F19491A4BCA6802F4E06259
:10CB50001343CB60BFF34F8F00BFFDE7164B174A5F
:10CB60001A6008BD240300104035014074C007401E
:10CB70000DF0ADBA440200103C050040F0ED00E0BD
:10CB8000A005004010560040E00F00F0E40F00F058
:10CB9000E80F00F000C0004058020010E40E004012
:10CBA00030010010340100103C17004000ED00E09F
:10CBB00000E001400400FA05100000200090D003BE
:10CBC0000649074A074B9B1A03DD043BC858D0505F
:10CBD000FBDCFFF7C7FEFBF733FB000080D107004B
:10CBE000040000207C000020FEE7FEE7FEE7FEE7F1
:10CBF000FEE7FEE7FEE7FEE7FEE7FEE753B94AB9C8
:10CC0000002908BF00281CBF4FF0FF314FF0FF3054
:10CC100000F06EB9ADF1080C6DE904CE00F006F835
:10CC2000DDF804E0DDE9022304B070472DE9F047A8
:10CC3000089D04468C46002B40F083808A421746AC
:10CC400047D9B2FA82F242B1C2F1200024FA00F0D0
:10CC50009140974040EA010C94404FEA1748230C5A
:10CC6000BCFBF8F61FFA87FE08FB16C143EA014336
:10CC700006FB0EF1994209D9FB1806F1FF3080F04E
:10CC80001981994240F21681023E3B445B1AA4B2DC
:10CC9000B3FBF8F008FB103344EA034400FB0EFE3C
:10CCA000A64509D93C1900F1FF3380F00581A6455E
:10CCB00040F2028102383C4440EA0640A4EB0E04F4
:10CCC00000261DB1D4400023C5E900433146BDE82C
:10CCD000F08702B9FFDEB2FA82F2002A50D1CB1BF4
:10CCE0004FEA174E1FFA87F80126B3FBFEFC210C12
:10CCF0000EFB1C3341EA034108FB0CF38B4207D9BE
:10CD000079180CF1FF3002D28B4200F2E9808446A0
:10CD1000C91AA3B2B1FBFEF00EFB101143EA0144A5
:10CD200008FB00F8A04507D93C1900F1FF3302D2F7
:10CD3000A04500F2D9801846A4EB080440EA0C4054
:10CD4000BFE78B4209D9002D00F0B1800026C5E96C
:10CD5000000130463146BDE8F087B3FA83F6002E75
:10CD60004AD18B4202D3824200F2B880841A61EB2E
:10CD7000030101208C46002DA8D0C5E9004CA5E791
:10CD8000C2F1200320FA03F6974001FA02F04FEABD
:10CD9000174ED9403043030CB1FBFEF61FFA87F85B
:10CDA0000EFB161143EA014306FB08F1994204FA0F
:10CDB00002F409D9FB1806F1FF3C80F08D809942FE
:10CDC00040F28A80023E3B445B1A81B2B3FBFEF024
:10CDD0000EFB103341EA034100FB08F38B4207D9F5
:10CDE000791800F1FF3C73D28B4271D90238394473
:10CDF000CB1A40EA064678E7C6F1200C03FA06F49F
:10CE000022FA0CF31C4320FA0CF701FA06F34FEA5E
:10CE1000144E21FA0CF11F433B0CB1FBFEF91FFA33
:10CE200084F80EFB191143EA014109FB08FA8A450F
:10CE300002FA06F200FA06F308D9611809F1FF3088
:10CE400048D28A4546D9A9F102092144A1EB0A0139
:10CE5000BFB2B1FBFEF00EFB101147EA014700FB29
:10CE600008F8B84507D9E71900F1FF312ED2B845C7
:10CE70002CD90238274440EA0940A7EB0807A0FB59
:10CE800002894F45C64649461AD317D05DB1B3EB68
:10CE90000E0267EB010707FA0CFCF2404CEA0202B3
:10CEA000F740C5E9002700263146BDE8F0872E4649
:10CEB00028460BE70646E9E61846FDE64345E5D277
:10CEC000B8EB020E69EB04010138DFE70846D2E750
:10CED00060468DE78146B9E7664675E730464AE722
:10CEE000ACF1020C394413E702383C4424E700BF9C
:10CEF000704700BF08B5074B044613B10021AFF3DC
:10CF00000080054B1868836A03B19847204600F0FB
:10CF10004DF800BF0000000070D1070070B50D4D46
:10CF20000D4C641BA4100026A64209D10B4D0C4CDD
:10CF300000F03EF8641BA4100026A64205D170BD87
:10CF400055F8043B98470136EEE755F8043B9847FF
:10CF50000136F2E774000020740000207400002005
:10CF60007800002030B501390024A24201D1002010
:10CF700005E0035D01340D5DAB42F6D0581B30BDBA
:10CF80000A44914200F1FF3300D1704710B511F807
:10CF9000014B03F8014F9142F9D110BD0244034601
:10CFA000934200D1704703F8011BF9E7FEE700BF89
:10CFB000F8B500BFF8BC08BC9E467047F8B500BF86
:10CFC000F8BC08BC9E467047FFFF0000020300014A
:10CFD000020000001A0000005000000096C298D81D
:10CFE0004539A1F4A033EB2D817D0377F240A46392
:10CFF000E5E6BCF847422CE1F2D1176BF551BF379B
:10D000006840B6CBCE5E316B5733CE2B169E0F7C6D
:10D010004AEBE78E9B7F1AFEE242E34F512563FC09
:10D02000C2CAB9F3849E17A7ADFAE6BCFFFFFFFFA3
:10D03000FFFFFFFF00000000FFFFFFFFFFFFFFFFFC
:10D04000FFFFFFFFFFFFFFFF0000000000000000E8
:10D050000000000001000000FFFFFFFF982F8A4240
:10D0600091443771CFFBC0B5A5DBB5E95BC256393A
:10D07000F111F159A4823F92D55E1CAB98AA07D852
:10D08000015B8312BE853124C37D0C55745DBE7275
:10D09000FEB1DE80A706DC9B74F19BC1C1699BE4F5
:10D0A0008647BEEFC69DC10FCCA10C246F2CE92D85
:10D0B000AA84744ADCA9B05CDA88F97652513E98A9
:10D0C0006DC631A8C82703B0C77F59BFF30BE0C6B0
:10D0D0004791A7D55163CA0667292914850AB7273E
:10D0E00038211B2EFC6D2C4D130D385354730A65DB
:10D0F000BB0A6A762EC9C281852C7292A1E8BFA2B2
:10D100004B661AA8708B4BC2A3516CC719E892D119
:10D11000240699D685350EF470A06A1016C1A4199C
:10D12000086C371E4C774827B5BCB034B30C1C399B
:10D130004AAAD84E4FCA9C5BF36F2E68EE828F745A
:10D140006F63A5781478C8840802C78CFAFFBE9074
:10D15000EB6C50A4F7A3F9BEF27871C6008383800C
:10D160008690828583848585848085868586000077
:08D17000140000200000000083
:08D17800C8B0FF7F01000000B8
:10D18000D6BE898E03000000A50900200090D003C0
:10D19000000000000000000000000000000000008F
:10D1A000000000000000000000000000000000007F
:10D1B000000000000000000000000000000000006F
:10D1C000000000000000000000000000000000005F
:10D1D000000000000000000000000000000000004F
:10D1E000000000000000000000000000000000003F
:08D1F0002582070001820700FF
:020000020000FC
:020000041000EA
:041014000080070051
:04101800007007005D
:040000037000CBC1FD
:00000001FF
