Archive member included to satisfy reference by file (symbol)

c:/progra~2/gnutoo~1/92019-~1/bin/../lib/gcc/arm-none-eabi/9.2.1/thumb/v7e-m+fp/hard\libgcc.a(_aeabi_ldivmod.o)
                              mesh/bootloader/CMakeFiles/mesh_bootloader_gccarmemb_nrf52832_xxAA.dir/src/bootloader.c.obj (__aeabi_ldivmod)
c:/progra~2/gnutoo~1/92019-~1/bin/../lib/gcc/arm-none-eabi/9.2.1/thumb/v7e-m+fp/hard\libgcc.a(_aeabi_uldivmod.o)
                              mesh/bootloader/CMakeFiles/mesh_bootloader_gccarmemb_nrf52832_xxAA.dir/src/bootloader.c.obj (__aeabi_uldivmod)
c:/progra~2/gnutoo~1/92019-~1/bin/../lib/gcc/arm-none-eabi/9.2.1/thumb/v7e-m+fp/hard\libgcc.a(_udivmoddi4.o)
                              c:/progra~2/gnutoo~1/92019-~1/bin/../lib/gcc/arm-none-eabi/9.2.1/thumb/v7e-m+fp/hard\libgcc.a(_aeabi_ldivmod.o) (__udivmoddi4)
c:/progra~2/gnutoo~1/92019-~1/bin/../lib/gcc/arm-none-eabi/9.2.1/thumb/v7e-m+fp/hard\libgcc.a(_dvmd_tls.o)
                              c:/progra~2/gnutoo~1/92019-~1/bin/../lib/gcc/arm-none-eabi/9.2.1/thumb/v7e-m+fp/hard\libgcc.a(_aeabi_ldivmod.o) (__aeabi_ldiv0)
c:/progra~2/gnutoo~1/92019-~1/bin/../lib/gcc/arm-none-eabi/9.2.1/../../../../arm-none-eabi/lib/thumb/v7e-m+fp/hard\libg_nano.a(lib_a-exit.o)
                              c:/progra~2/gnutoo~1/92019-~1/bin/../lib/gcc/arm-none-eabi/9.2.1/../../../../arm-none-eabi/lib/thumb/v7e-m+fp/hard/crt0.o (exit)
c:/progra~2/gnutoo~1/92019-~1/bin/../lib/gcc/arm-none-eabi/9.2.1/../../../../arm-none-eabi/lib/thumb/v7e-m+fp/hard\libg_nano.a(lib_a-impure.o)
                              c:/progra~2/gnutoo~1/92019-~1/bin/../lib/gcc/arm-none-eabi/9.2.1/../../../../arm-none-eabi/lib/thumb/v7e-m+fp/hard\libg_nano.a(lib_a-exit.o) (_global_impure_ptr)
c:/progra~2/gnutoo~1/92019-~1/bin/../lib/gcc/arm-none-eabi/9.2.1/../../../../arm-none-eabi/lib/thumb/v7e-m+fp/hard\libg_nano.a(lib_a-init.o)
                              c:/progra~2/gnutoo~1/92019-~1/bin/../lib/gcc/arm-none-eabi/9.2.1/../../../../arm-none-eabi/lib/thumb/v7e-m+fp/hard/crt0.o (__libc_init_array)
c:/progra~2/gnutoo~1/92019-~1/bin/../lib/gcc/arm-none-eabi/9.2.1/../../../../arm-none-eabi/lib/thumb/v7e-m+fp/hard\libg_nano.a(lib_a-memcmp.o)
                              mesh/bootloader/CMakeFiles/mesh_bootloader_gccarmemb_nrf52832_xxAA.dir/src/dfu_bank.c.obj (memcmp)
c:/progra~2/gnutoo~1/92019-~1/bin/../lib/gcc/arm-none-eabi/9.2.1/../../../../arm-none-eabi/lib/thumb/v7e-m+fp/hard\libg_nano.a(lib_a-memcpy-stub.o)
                              mesh/bootloader/CMakeFiles/mesh_bootloader_gccarmemb_nrf52832_xxAA.dir/src/bootloader.c.obj (memcpy)
c:/progra~2/gnutoo~1/92019-~1/bin/../lib/gcc/arm-none-eabi/9.2.1/../../../../arm-none-eabi/lib/thumb/v7e-m+fp/hard\libg_nano.a(lib_a-memset.o)
                              c:/progra~2/gnutoo~1/92019-~1/bin/../lib/gcc/arm-none-eabi/9.2.1/../../../../arm-none-eabi/lib/thumb/v7e-m+fp/hard/crt0.o (memset)
c:/progra~2/gnutoo~1/92019-~1/bin/../lib/gcc/arm-none-eabi/9.2.1/../../../../arm-none-eabi/lib/thumb/v7e-m+fp/hard\libnosys.a(_exit.o)
                              c:/progra~2/gnutoo~1/92019-~1/bin/../lib/gcc/arm-none-eabi/9.2.1/../../../../arm-none-eabi/lib/thumb/v7e-m+fp/hard\libg_nano.a(lib_a-exit.o) (_exit)

Allocating common symbols
Common symbol       size              file

m_tx_evt_bitfield   0x2               mesh/bootloader/CMakeFiles/mesh_bootloader_gccarmemb_nrf52832_xxAA.dir/src/transport.c.obj

Discarded input sections

 .text          0x00000000        0x0 c:/progra~2/gnutoo~1/92019-~1/bin/../lib/gcc/arm-none-eabi/9.2.1/thumb/v7e-m+fp/hard/crti.o
 .data          0x00000000        0x0 c:/progra~2/gnutoo~1/92019-~1/bin/../lib/gcc/arm-none-eabi/9.2.1/thumb/v7e-m+fp/hard/crti.o
 .bss           0x00000000        0x0 c:/progra~2/gnutoo~1/92019-~1/bin/../lib/gcc/arm-none-eabi/9.2.1/thumb/v7e-m+fp/hard/crti.o
 .data          0x00000000        0x4 c:/progra~2/gnutoo~1/92019-~1/bin/../lib/gcc/arm-none-eabi/9.2.1/thumb/v7e-m+fp/hard/crtbegin.o
 .data          0x00000000        0x0 c:/progra~2/gnutoo~1/92019-~1/bin/../lib/gcc/arm-none-eabi/9.2.1/../../../../arm-none-eabi/lib/thumb/v7e-m+fp/hard/crt0.o
 .bss           0x00000000        0x0 c:/progra~2/gnutoo~1/92019-~1/bin/../lib/gcc/arm-none-eabi/9.2.1/../../../../arm-none-eabi/lib/thumb/v7e-m+fp/hard/crt0.o
 .ARM.extab     0x00000000        0x0 c:/progra~2/gnutoo~1/92019-~1/bin/../lib/gcc/arm-none-eabi/9.2.1/../../../../arm-none-eabi/lib/thumb/v7e-m+fp/hard/crt0.o
 .text          0x00000000        0x0 mesh/bootloader/CMakeFiles/mesh_bootloader_gccarmemb_nrf52832_xxAA.dir/src/bootloader.c.obj
 .data          0x00000000        0x0 mesh/bootloader/CMakeFiles/mesh_bootloader_gccarmemb_nrf52832_xxAA.dir/src/bootloader.c.obj
 .bss           0x00000000        0x0 mesh/bootloader/CMakeFiles/mesh_bootloader_gccarmemb_nrf52832_xxAA.dir/src/bootloader.c.obj
 .text          0x00000000        0x0 mesh/bootloader/CMakeFiles/mesh_bootloader_gccarmemb_nrf52832_xxAA.dir/src/bootloader_app_bridge.c.obj
 .data          0x00000000        0x0 mesh/bootloader/CMakeFiles/mesh_bootloader_gccarmemb_nrf52832_xxAA.dir/src/bootloader_app_bridge.c.obj
 .bss           0x00000000        0x0 mesh/bootloader/CMakeFiles/mesh_bootloader_gccarmemb_nrf52832_xxAA.dir/src/bootloader_app_bridge.c.obj
 .text.timer_set
                0x00000000       0x1c mesh/bootloader/CMakeFiles/mesh_bootloader_gccarmemb_nrf52832_xxAA.dir/src/bootloader_app_bridge.c.obj
 .text.timer_abort
                0x00000000       0x1a mesh/bootloader/CMakeFiles/mesh_bootloader_gccarmemb_nrf52832_xxAA.dir/src/bootloader_app_bridge.c.obj
 .text.bootloader_error_post
Memory Configuration

Name             Origin             Length             Attributes
FLASH            0x00078000         0x00006000         xr
RAM              0x20000004         0x0000fcfc         rw
CORE_BL_RAM      0x2000fd00         0x00000300         rw
UICR_BOOTADDR    0x10001014         0x00000004         r
UICR_MBRPARAMADDR 0x10001018         0x00000004         r
*default*        0x00000000         0xffffffff

Linker script and memory map

LOAD c:/progra~2/gnutoo~1/92019-~1/bin/../lib/gcc/arm-none-eabi/9.2.1/thumb/v7e-m+fp/hard/crti.o
LOAD c:/progra~2/gnutoo~1/92019-~1/bin/../lib/gcc/arm-none-eabi/9.2.1/thumb/v7e-m+fp/hard/crtbegin.o
LOAD c:/progra~2/gnutoo~1/92019-~1/bin/../lib/gcc/arm-none-eabi/9.2.1/../../../../arm-none-eabi/lib/thumb/v7e-m+fp/hard/crt0.o
LOAD mesh/bootloader/CMakeFiles/mesh_bootloader_gccarmemb_nrf52832_xxAA.dir/src/bootloader.c.obj
LOAD mesh/bootloader/CMakeFiles/mesh_bootloader_gccarmemb_nrf52832_xxAA.dir/src/bootloader_app_bridge.c.obj
LOAD mesh/bootloader/CMakeFiles/mesh_bootloader_gccarmemb_nrf52832_xxAA.dir/src/bootloader_info.c.obj
LOAD mesh/bootloader/CMakeFiles/mesh_bootloader_gccarmemb_nrf52832_xxAA.dir/src/bootloader_rtc.c.obj
LOAD mesh/bootloader/CMakeFiles/mesh_bootloader_gccarmemb_nrf52832_xxAA.dir/src/bootloader_util.c.obj
LOAD mesh/bootloader/CMakeFiles/mesh_bootloader_gccarmemb_nrf52832_xxAA.dir/src/dfu_bank.c.obj
LOAD mesh/bootloader/CMakeFiles/mesh_bootloader_gccarmemb_nrf52832_xxAA.dir/src/dfu_mesh.c.obj
LOAD mesh/bootloader/CMakeFiles/mesh_bootloader_gccarmemb_nrf52832_xxAA.dir/src/dfu_transfer_mesh.c.obj
LOAD mesh/bootloader/CMakeFiles/mesh_bootloader_gccarmemb_nrf52832_xxAA.dir/src/dfu_util.c.obj
LOAD mesh/bootloader/CMakeFiles/mesh_bootloader_gccarmemb_nrf52832_xxAA.dir/src/fifo.c.obj
LOAD mesh/bootloader/CMakeFiles/mesh_bootloader_gccarmemb_nrf52832_xxAA.dir/src/main.c.obj
LOAD mesh/bootloader/CMakeFiles/mesh_bootloader_gccarmemb_nrf52832_xxAA.dir/src/mesh_packet.c.obj
LOAD mesh/bootloader/CMakeFiles/mesh_bootloader_gccarmemb_nrf52832_xxAA.dir/src/nrf_flash.c.obj
LOAD mesh/bootloader/CMakeFiles/mesh_bootloader_gccarmemb_nrf52832_xxAA.dir/src/radio_control.c.obj
LOAD mesh/bootloader/CMakeFiles/mesh_bootloader_gccarmemb_nrf52832_xxAA.dir/src/rand.c.obj
LOAD mesh/bootloader/CMakeFiles/mesh_bootloader_gccarmemb_nrf52832_xxAA.dir/src/transport.c.obj
LOAD mesh/bootloader/CMakeFiles/mesh_bootloader_gccarmemb_nrf52832_xxAA.dir/src/uECC.c.obj
LOAD mesh/bootloader/CMakeFiles/mesh_bootloader_gccarmemb_nrf52832_xxAA.dir/C_/dev/mesh_dep/nRF5_SDK_16.0.0_98a08e2/components/libraries/sha256/sha256.c.obj
LOAD mesh/bootloader/CMakeFiles/mesh_bootloader_gccarmemb_nrf52832_xxAA.dir/C_/dev/mesh_dep/nRF5_SDK_16.0.0_98a08e2/modules/nrfx/mdk/system_nrf52.c.obj
LOAD mesh/bootloader/CMakeFiles/mesh_bootloader_gccarmemb_nrf52832_xxAA.dir/C_/dev/mesh_dep/nRF5_SDK_16.0.0_98a08e2/modules/nrfx/mdk/gcc_startup_nrf52.S.obj
START GROUP
LOAD c:/progra~2/gnutoo~1/92019-~1/bin/../lib/gcc/arm-none-eabi/9.2.1/thumb/v7e-m+fp/hard\libgcc.a
LOAD c:/progra~2/gnutoo~1/92019-~1/bin/../lib/gcc/arm-none-eabi/9.2.1/../../../../arm-none-eabi/lib/thumb/v7e-m+fp/hard\libg_nano.a
LOAD c:/progra~2/gnutoo~1/92019-~1/bin/../lib/gcc/arm-none-eabi/9.2.1/../../../../arm-none-eabi/lib/thumb/v7e-m+fp/hard\libc_nano.a
END GROUP
START GROUP
LOAD c:/progra~2/gnutoo~1/92019-~1/bin/../lib/gcc/arm-none-eabi/9.2.1/thumb/v7e-m+fp/hard\libgcc.a
LOAD c:/progra~2/gnutoo~1/92019-~1/bin/../lib/gcc/arm-none-eabi/9.2.1/../../../../arm-none-eabi/lib/thumb/v7e-m+fp/hard\libc_nano.a
END GROUP
LOAD c:/progra~2/gnutoo~1/92019-~1/bin/../lib/gcc/arm-none-eabi/9.2.1/thumb/v7e-m+fp/hard/crtend.o
LOAD c:/progra~2/gnutoo~1/92019-~1/bin/../lib/gcc/arm-none-eabi/9.2.1/thumb/v7e-m+fp/hard/crtn.o
START GROUP
LOAD c:/progra~2/gnutoo~1/92019-~1/bin/../lib/gcc/arm-none-eabi/9.2.1/thumb/v7e-m+fp/hard\libgcc.a
LOAD c:/progra~2/gnutoo~1/92019-~1/bin/../lib/gcc/arm-none-eabi/9.2.1/../../../../arm-none-eabi/lib/thumb/v7e-m+fp/hard\libc.a
LOAD c:/progra~2/gnutoo~1/92019-~1/bin/../lib/gcc/arm-none-eabi/9.2.1/../../../../arm-none-eabi/lib/thumb/v7e-m+fp/hard\libnosys.a
END GROUP

.core_data      0x2000fd00        0x4
                0x2000fd08                __core_ram_start__ = .
                0x2000fd00                . = ALIGN (0x4)
 *sha256.c.obj(.data*)
 *bootloader_app_bridge.c.obj(.data*)
 *bootloader_info.c.obj(.data*)
 *uECC.c.obj(.data*)
 *dfu_mesh.c.obj(.data*)
 .data.m_state  0x2000fd00        0x1 mesh/bootloader/CMakeFiles/mesh_bootloader_gccarmemb_nrf52832_xxAA.dir/src/dfu_mesh.c.obj
 .data.tx_slot.11586
                0x2000fd01        0x1 mesh/bootloader/CMakeFiles/mesh_bootloader_gccarmemb_nrf52832_xxAA.dir/src/dfu_mesh.c.obj
 *dfu_transfer_mesh.c.obj(.data*)
 *dfu_bank.c.obj(.data*)
 *dfu_util.c.obj(.data*)
                0x2000fd04                . = ALIGN (0x4)
 *fill*         0x2000fd02        0x2 
                0x2000ff20                __core_ram_end__ = .

.core_bss       0x2000fd08      0x218
                0x2000fd08                __core_ram_start__ = .
                0x2000fd08                . = ALIGN (0x4)
 *sha256.c.obj(.bss*)
 *bootloader_app_bridge.c.obj(.bss*)
 .bss.m_evt_handler
                0x2000fd08        0x4 mesh/bootloader/CMakeFiles/mesh_bootloader_gccarmemb_nrf52832_xxAA.dir/src/bootloader_app_bridge.c.obj
 .bss.m_in_bl   0x2000fd0c        0x1 mesh/bootloader/CMakeFiles/mesh_bootloader_gccarmemb_nrf52832_xxAA.dir/src/bootloader_app_bridge.c.obj
 *bootloader_info.c.obj(.bss*)
 *fill*         0x2000fd0d        0x3 
 .bss.m_info_copy
                0x2000fd10       0x1c mesh/bootloader/CMakeFiles/mesh_bootloader_gccarmemb_nrf52832_xxAA.dir/src/bootloader_info.c.obj
 .bss.m_state   0x2000fd2c        0x1 mesh/bootloader/CMakeFiles/mesh_bootloader_gccarmemb_nrf52832_xxAA.dir/src/bootloader_info.c.obj
 .bss.m_write_in_progress
                0x2000fd2d        0x1 mesh/bootloader/CMakeFiles/mesh_bootloader_gccarmemb_nrf52832_xxAA.dir/src/bootloader_info.c.obj
 *fill*         0x2000fd2e        0x2 
 .bss.mp_bl_info_bank_page
                0x2000fd30        0x4 mesh/bootloader/CMakeFiles/mesh_bootloader_gccarmemb_nrf52832_xxAA.dir/src/bootloader_info.c.obj
 .bss.mp_bl_info_page
                0x2000fd34        0x4 mesh/bootloader/CMakeFiles/mesh_bootloader_gccarmemb_nrf52832_xxAA.dir/src/bootloader_info.c.obj
 .bss.mp_info_entry_buffer
                0x2000fd38       0x80 mesh/bootloader/CMakeFiles/mesh_bootloader_gccarmemb_nrf52832_xxAA.dir/src/bootloader_info.c.obj
 .bss.mp_info_entry_head
                0x2000fdb8        0x4 mesh/bootloader/CMakeFiles/mesh_bootloader_gccarmemb_nrf52832_xxAA.dir/src/bootloader_info.c.obj
 .bss.mp_info_entry_tail
                0x2000fdbc        0x4 mesh/bootloader/CMakeFiles/mesh_bootloader_gccarmemb_nrf52832_xxAA.dir/src/bootloader_info.c.obj
 .bss.mp_write_pos
                0x2000fdc0        0x4 mesh/bootloader/CMakeFiles/mesh_bootloader_gccarmemb_nrf52832_xxAA.dir/src/bootloader_info.c.obj
 *uECC.c.obj(.bss*)
 *dfu_mesh.c.obj(.bss*)
 .bss.m_bl_info_pointers
                0x2000fdc4       0x28 mesh/bootloader/CMakeFiles/mesh_bootloader_gccarmemb_nrf52832_xxAA.dir/src/dfu_mesh.c.obj
 .bss.m_data_req_segment
                0x2000fdec        0x2 mesh/bootloader/CMakeFiles/mesh_bootloader_gccarmemb_nrf52832_xxAA.dir/src/dfu_mesh.c.obj
 .bss.m_lost_start_edge
                0x2000fdee        0x1 mesh/bootloader/CMakeFiles/mesh_bootloader_gccarmemb_nrf52832_xxAA.dir/src/dfu_mesh.c.obj
 *fill*         0x2000fdef        0x1 
 .bss.m_req_cache
                0x2000fdf0       0x10 mesh/bootloader/CMakeFiles/mesh_bootloader_gccarmemb_nrf52832_xxAA.dir/src/dfu_mesh.c.obj
 .bss.m_req_index
                0x2000fe00        0x1 mesh/bootloader/CMakeFiles/mesh_bootloader_gccarmemb_nrf52832_xxAA.dir/src/dfu_mesh.c.obj
 *fill*         0x2000fe01        0x3 
 .bss.m_transaction
                0x2000fe04       0x74 mesh/bootloader/CMakeFiles/mesh_bootloader_gccarmemb_nrf52832_xxAA.dir/src/dfu_mesh.c.obj
 .bss.m_tx_slots
                0x2000fe78        0x1 mesh/bootloader/CMakeFiles/mesh_bootloader_gccarmemb_nrf52832_xxAA.dir/src/dfu_mesh.c.obj
 *dfu_transfer_mesh.c.obj(.bss*)
 *fill*         0x2000fe79        0x7 
 .bss.m_transfer
                0x2000fe80       0x30 mesh/bootloader/CMakeFiles/mesh_bootloader_gccarmemb_nrf52832_xxAA.dir/src/dfu_transfer_mesh.c.obj
 *dfu_bank.c.obj(.bss*)
 .bss.m_dfu_type
                0x2000feb0        0x1 mesh/bootloader/CMakeFiles/mesh_bootloader_gccarmemb_nrf52832_xxAA.dir/src/dfu_bank.c.obj
 .bss.m_waiting_for_idle
                0x2000feb1        0x1 mesh/bootloader/CMakeFiles/mesh_bootloader_gccarmemb_nrf52832_xxAA.dir/src/dfu_bank.c.obj
 *fill*         0x2000feb2        0x2 
 .bss.mp_bank_entry
                0x2000feb4        0x4 mesh/bootloader/CMakeFiles/mesh_bootloader_gccarmemb_nrf52832_xxAA.dir/src/dfu_bank.c.obj
 *dfu_util.c.obj(.bss*)
 .bss.m_packet_cache
                0x2000feb8       0x40 mesh/bootloader/CMakeFiles/mesh_bootloader_gccarmemb_nrf52832_xxAA.dir/src/dfu_util.c.obj
 .bss.m_packet_cache_index
                0x2000fef8        0x4 mesh/bootloader/CMakeFiles/mesh_bootloader_gccarmemb_nrf52832_xxAA.dir/src/dfu_util.c.obj
 .bss.m_tid_cache
                0x2000fefc       0x20 mesh/bootloader/CMakeFiles/mesh_bootloader_gccarmemb_nrf52832_xxAA.dir/src/dfu_util.c.obj
 .bss.m_tid_index
                0x2000ff1c        0x1 mesh/bootloader/CMakeFiles/mesh_bootloader_gccarmemb_nrf52832_xxAA.dir/src/dfu_util.c.obj
                0x2000ff20                . = ALIGN (0x4)
 *fill*         0x2000ff1d        0x3 
                0x2000ff20                __core_ram_end__ = .

.uicrBootStartAddress
                0x10001014        0x4
 *(.uicrBootStartAddress)
 .uicrBootStartAddress
                0x10001014        0x4 mesh/bootloader/CMakeFiles/mesh_bootloader_gccarmemb_nrf52832_xxAA.dir/src/main.c.obj
                0x10001014                m_uicr_bootloader_start_address

.uicrBootMBRParamAddress
                0x10001018        0x4
 *(.uicrBootMBRParamAddress)
 .uicrBootMBRParamAddress
                0x10001018        0x4 mesh/bootloader/CMakeFiles/mesh_bootloader_gccarmemb_nrf52832_xxAA.dir/src/main.c.obj
                0x10001018                m_uicr_bootloader_mbrparam_address

.text           0x00078000     0x4b94
 *(.isr_vector)
 .isr_vector    0x00078000      0x200 mesh/bootloader/CMakeFiles/mesh_bootloader_gccarmemb_nrf52832_xxAA.dir/C_/dev/mesh_dep/nRF5_SDK_16.0.0_98a08e2/modules/nrfx/mdk/gcc_startup_nrf52.S.obj
                0x00078000                __isr_vector
 *(.text*)
 .text          0x00078200       0x40 c:/progra~2/gnutoo~1/92019-~1/bin/../lib/gcc/arm-none-eabi/9.2.1/thumb/v7e-m+fp/hard/crtbegin.o
 .text          0x00078240       0x74 c:/progra~2/gnutoo~1/92019-~1/bin/../lib/gcc/arm-none-eabi/9.2.1/../../../../arm-none-eabi/lib/thumb/v7e-m+fp/hard/crt0.o
                0x00078240                _start
                0x00078240                _mainCRTStartup
 .text.sd_softdevice_vector_table_base_set
                0x000782b4        0x4 mesh/bootloader/CMakeFiles/mesh_bootloader_gccarmemb_nrf52832_xxAA.dir/src/bootloader.c.obj
 .text.sd_mbr_command
                0x000782b8        0x4 mesh/bootloader/CMakeFiles/mesh_bootloader_gccarmemb_nrf52832_xxAA.dir/src/bootloader.c.obj
 .text.set_timeout
                0x000782bc       0x2c mesh/bootloader/CMakeFiles/mesh_bootloader_gccarmemb_nrf52832_xxAA.dir/src/bootloader.c.obj
 .text.rx_cb    0x000782e8       0x2e mesh/bootloader/CMakeFiles/mesh_bootloader_gccarmemb_nrf52832_xxAA.dir/src/bootloader.c.obj
 *fill*         0x00078316        0x2 
 .text.SWI3_EGU3_IRQHandler
                0x00078318       0xd4 mesh/bootloader/CMakeFiles/mesh_bootloader_gccarmemb_nrf52832_xxAA.dir/src/bootloader.c.obj
                0x00078318                SWI3_EGU3_IRQHandler
 .text.bootloader_init
                0x000783ec       0x9c mesh/bootloader/CMakeFiles/mesh_bootloader_gccarmemb_nrf52832_xxAA.dir/src/bootloader.c.obj
                0x000783ec                bootloader_init
 .text.bootloader_enable
                0x00078488       0xde mesh/bootloader/CMakeFiles/mesh_bootloader_gccarmemb_nrf52832_xxAA.dir/src/bootloader.c.obj
                0x00078488                bootloader_enable
 .text.bootloader_cmd_send
                0x00078566        0x4 mesh/bootloader/CMakeFiles/mesh_bootloader_gccarmemb_nrf52832_xxAA.dir/src/bootloader.c.obj
                0x00078566                bootloader_cmd_send
 *fill*         0x0007856a        0x2 
 .text.bootloader_abort
                0x0007856c       0x84 mesh/bootloader/CMakeFiles/mesh_bootloader_gccarmemb_nrf52832_xxAA.dir/src/bootloader.c.obj
                0x0007856c                bootloader_abort
 .text.bl_evt_handler
                0x000785f0      0x230 mesh/bootloader/CMakeFiles/mesh_bootloader_gccarmemb_nrf52832_xxAA.dir/src/bootloader.c.obj
 .text.bootloader_timeout
                0x00078820       0x4c mesh/bootloader/CMakeFiles/mesh_bootloader_gccarmemb_nrf52832_xxAA.dir/src/bootloader.c.obj
                0x00078820                bootloader_timeout
 .text.bl_cmd_handler
                0x0007886c      0x188 mesh/bootloader/CMakeFiles/mesh_bootloader_gccarmemb_nrf52832_xxAA.dir/src/bootloader_app_bridge.c.obj
                0x0007886c                bl_cmd_handler
 .text.bootloader_app_bridge_init
                0x000789f4       0x28 mesh/bootloader/CMakeFiles/mesh_bootloader_gccarmemb_nrf52832_xxAA.dir/src/bootloader_app_bridge.c.obj
                0x000789f4                bootloader_app_bridge_init
 .text.bootloader_evt_send
                0x00078a1c       0x10 mesh/bootloader/CMakeFiles/mesh_bootloader_gccarmemb_nrf52832_xxAA.dir/src/bootloader_app_bridge.c.obj
                0x00078a1c                bootloader_evt_send
 .text.send_end_evt
                0x00078a2c       0x1a mesh/bootloader/CMakeFiles/mesh_bootloader_gccarmemb_nrf52832_xxAA.dir/src/bootloader_app_bridge.c.obj
                0x00078a2c                send_end_evt
 .text.flash_write
                0x00078a46       0x2a mesh/bootloader/CMakeFiles/mesh_bootloader_gccarmemb_nrf52832_xxAA.dir/src/bootloader_app_bridge.c.obj
                0x00078a46                flash_write
 .text.flash_erase
                0x00078a70       0x26 mesh/bootloader/CMakeFiles/mesh_bootloader_gccarmemb_nrf52832_xxAA.dir/src/bootloader_app_bridge.c.obj
                0x00078a70                flash_erase
 .text.tx_abort
                0x00078a96       0x1a mesh/bootloader/CMakeFiles/mesh_bootloader_gccarmemb_nrf52832_xxAA.dir/src/bootloader_app_bridge.c.obj
                0x00078a96                tx_abort
 .text.bootloader_is_in_application
                0x00078ab0       0x10 mesh/bootloader/CMakeFiles/mesh_bootloader_gccarmemb_nrf52832_xxAA.dir/src/bootloader_app_bridge.c.obj
                0x00078ab0                bootloader_is_in_application
 .text.info_entry_get
                0x00078ac0       0x40 mesh/bootloader/CMakeFiles/mesh_bootloader_gccarmemb_nrf52832_xxAA.dir/src/bootloader_info.c.obj
 .text.bootloader_info_header_get
                0x00078b00       0x1c mesh/bootloader/CMakeFiles/mesh_bootloader_gccarmemb_nrf52832_xxAA.dir/src/bootloader_info.c.obj
 .text.bootloader_info_first_unused_get
                0x00078b1c       0x16 mesh/bootloader/CMakeFiles/mesh_bootloader_gccarmemb_nrf52832_xxAA.dir/src/bootloader_info.c.obj
 *fill*         0x00078b32        0x2 
 .text.entry_header_invalidate
                0x00078b34       0x20 mesh/bootloader/CMakeFiles/mesh_bootloader_gccarmemb_nrf52832_xxAA.dir/src/bootloader_info.c.obj
 .text.copy_page_write_meta
                0x00078b54       0x20 mesh/bootloader/CMakeFiles/mesh_bootloader_gccarmemb_nrf52832_xxAA.dir/src/bootloader_info.c.obj
 .text.copy_page_write_next_data
                0x00078b74       0x74 mesh/bootloader/CMakeFiles/mesh_bootloader_gccarmemb_nrf52832_xxAA.dir/src/bootloader_info.c.obj
 .text.copy_page
                0x00078be8       0x34 mesh/bootloader/CMakeFiles/mesh_bootloader_gccarmemb_nrf52832_xxAA.dir/src/bootloader_info.c.obj
 .text.place_head_after_entry.constprop.0
                0x00078c1c       0x40 mesh/bootloader/CMakeFiles/mesh_bootloader_gccarmemb_nrf52832_xxAA.dir/src/bootloader_info.c.obj
 .text.entry_invalidate
                0x00078c5c       0x38 mesh/bootloader/CMakeFiles/mesh_bootloader_gccarmemb_nrf52832_xxAA.dir/src/bootloader_info.c.obj
                0x00078c5c                entry_invalidate
 .text.entry_write
                0x00078c94      0x110 mesh/bootloader/CMakeFiles/mesh_bootloader_gccarmemb_nrf52832_xxAA.dir/src/bootloader_info.c.obj
                0x00078c94                entry_write
 .text.bootloader_info_init
                0x00078da4       0xc0 mesh/bootloader/CMakeFiles/mesh_bootloader_gccarmemb_nrf52832_xxAA.dir/src/bootloader_info.c.obj
                0x00078da4                bootloader_info_init
 .text.bootloader_info_entry_get
                0x00078e64        0xa mesh/bootloader/CMakeFiles/mesh_bootloader_gccarmemb_nrf52832_xxAA.dir/src/bootloader_info.c.obj
                0x00078e64                bootloader_info_entry_get
 .text.bootloader_info_entry_overwrite
                0x00078e6e       0x2a mesh/bootloader/CMakeFiles/mesh_bootloader_gccarmemb_nrf52832_xxAA.dir/src/bootloader_info.c.obj
                0x00078e6e                bootloader_info_entry_overwrite
 .text.bootloader_info_entry_invalidate
                0x00078e98        0xa mesh/bootloader/CMakeFiles/mesh_bootloader_gccarmemb_nrf52832_xxAA.dir/src/bootloader_info.c.obj
                0x00078e98                bootloader_info_entry_invalidate
 *fill*         0x00078ea2        0x2 
 .text.bootloader_info_reset
                0x00078ea4       0x40 mesh/bootloader/CMakeFiles/mesh_bootloader_gccarmemb_nrf52832_xxAA.dir/src/bootloader_info.c.obj
                0x00078ea4                bootloader_info_reset
 .text.bootloader_info_entry_put
                0x00078ee4       0xd4 mesh/bootloader/CMakeFiles/mesh_bootloader_gccarmemb_nrf52832_xxAA.dir/src/bootloader_info.c.obj
                0x00078ee4                bootloader_info_entry_put
 .text.bootloader_info_stable
                0x00078fb8       0x20 mesh/bootloader/CMakeFiles/mesh_bootloader_gccarmemb_nrf52832_xxAA.dir/src/bootloader_info.c.obj
                0x00078fb8                bootloader_info_stable
 .text.bootloader_info_on_flash_op_end
                0x00078fd8      0x118 mesh/bootloader/CMakeFiles/mesh_bootloader_gccarmemb_nrf52832_xxAA.dir/src/bootloader_info.c.obj
                0x00078fd8                bootloader_info_on_flash_op_end
 .text.bootloader_info_on_flash_idle
                0x000790f0       0x40 mesh/bootloader/CMakeFiles/mesh_bootloader_gccarmemb_nrf52832_xxAA.dir/src/bootloader_info.c.obj
                0x000790f0                bootloader_info_on_flash_idle
 .text.RTC0_IRQHandler
                0x00079130       0x48 mesh/bootloader/CMakeFiles/mesh_bootloader_gccarmemb_nrf52832_xxAA.dir/src/bootloader_rtc.c.obj
                0x00079130                RTC0_IRQHandler
 .text.rtc_init
                0x00079178       0x30 mesh/bootloader/CMakeFiles/mesh_bootloader_gccarmemb_nrf52832_xxAA.dir/src/bootloader_rtc.c.obj
                0x00079178                rtc_init
 .text.bootloader_util_app_start
                0x000791a8       0x3c mesh/bootloader/CMakeFiles/mesh_bootloader_gccarmemb_nrf52832_xxAA.dir/src/bootloader_util.c.obj
                0x000791a8                bootloader_util_app_start
 .text.sd_mbr_command
                0x000791e4        0x4 mesh/bootloader/CMakeFiles/mesh_bootloader_gccarmemb_nrf52832_xxAA.dir/src/dfu_bank.c.obj
 .text.flash_bank_entry
                0x000791e8      0x2b0 mesh/bootloader/CMakeFiles/mesh_bootloader_gccarmemb_nrf52832_xxAA.dir/src/dfu_bank.c.obj
 .text.dfu_bank_scan
                0x00079498       0x4c mesh/bootloader/CMakeFiles/mesh_bootloader_gccarmemb_nrf52832_xxAA.dir/src/dfu_bank.c.obj
                0x00079498                dfu_bank_scan
 .text.dfu_bank_flash
                0x000794e4       0x48 mesh/bootloader/CMakeFiles/mesh_bootloader_gccarmemb_nrf52832_xxAA.dir/src/dfu_bank.c.obj
                0x000794e4                dfu_bank_flash
 .text.dfu_bank_on_flash_idle
                0x0007952c       0x20 mesh/bootloader/CMakeFiles/mesh_bootloader_gccarmemb_nrf52832_xxAA.dir/src/dfu_bank.c.obj
                0x0007952c                dfu_bank_on_flash_idle
 .text.dfu_bank_transfer_in_progress
                0x0007954c       0x10 mesh/bootloader/CMakeFiles/mesh_bootloader_gccarmemb_nrf52832_xxAA.dir/src/dfu_bank.c.obj
                0x0007954c                dfu_bank_transfer_in_progress
 .text.segment_count_from_start_packet
                0x0007955c       0x2c mesh/bootloader/CMakeFiles/mesh_bootloader_gccarmemb_nrf52832_xxAA.dir/src/dfu_mesh.c.obj
 .text.get_info_pointers
                0x00079588       0x6c mesh/bootloader/CMakeFiles/mesh_bootloader_gccarmemb_nrf52832_xxAA.dir/src/dfu_mesh.c.obj
 .text.beacon_set
                0x000795f4      0x100 mesh/bootloader/CMakeFiles/mesh_bootloader_gccarmemb_nrf52832_xxAA.dir/src/dfu_mesh.c.obj
 .text.start_find_fwid
                0x000796f4       0x24 mesh/bootloader/CMakeFiles/mesh_bootloader_gccarmemb_nrf52832_xxAA.dir/src/dfu_mesh.c.obj
 .text.notify_state_packet
                0x00079718       0x3c mesh/bootloader/CMakeFiles/mesh_bootloader_gccarmemb_nrf52832_xxAA.dir/src/dfu_mesh.c.obj
 .text.packet_tx_dynamic.constprop.0
                0x00079754       0x4c mesh/bootloader/CMakeFiles/mesh_bootloader_gccarmemb_nrf52832_xxAA.dir/src/dfu_mesh.c.obj
 .text.relay_packet
                0x000797a0       0x30 mesh/bootloader/CMakeFiles/mesh_bootloader_gccarmemb_nrf52832_xxAA.dir/src/dfu_mesh.c.obj
 .text.start_req
                0x000797d0       0x58 mesh/bootloader/CMakeFiles/mesh_bootloader_gccarmemb_nrf52832_xxAA.dir/src/dfu_mesh.c.obj
 .text.handle_data_packet
                0x00079828      0x568 mesh/bootloader/CMakeFiles/mesh_bootloader_gccarmemb_nrf52832_xxAA.dir/src/dfu_mesh.c.obj
 .text.dfu_mesh_init
                0x00079d90       0x44 mesh/bootloader/CMakeFiles/mesh_bootloader_gccarmemb_nrf52832_xxAA.dir/src/dfu_mesh.c.obj
                0x00079d90                dfu_mesh_init
 .text.dfu_mesh_start
                0x00079dd4       0xe0 mesh/bootloader/CMakeFiles/mesh_bootloader_gccarmemb_nrf52832_xxAA.dir/src/dfu_mesh.c.obj
                0x00079dd4                dfu_mesh_start
 .text.dfu_mesh_req
                0x00079eb4       0x34 mesh/bootloader/CMakeFiles/mesh_bootloader_gccarmemb_nrf52832_xxAA.dir/src/dfu_mesh.c.obj
                0x00079eb4                dfu_mesh_req
 .text.dfu_mesh_relay
                0x00079ee8       0x4c mesh/bootloader/CMakeFiles/mesh_bootloader_gccarmemb_nrf52832_xxAA.dir/src/dfu_mesh.c.obj
                0x00079ee8                dfu_mesh_relay
 .text.dfu_mesh_rx
                0x00079f34      0x2dc mesh/bootloader/CMakeFiles/mesh_bootloader_gccarmemb_nrf52832_xxAA.dir/src/dfu_mesh.c.obj
                0x00079f34                dfu_mesh_rx
 .text.dfu_mesh_missing_type_get
                0x0007a210       0x52 mesh/bootloader/CMakeFiles/mesh_bootloader_gccarmemb_nrf52832_xxAA.dir/src/dfu_mesh.c.obj
                0x0007a210                dfu_mesh_missing_type_get
 .text.dfu_mesh_app_is_valid
                0x0007a262       0x34 mesh/bootloader/CMakeFiles/mesh_bootloader_gccarmemb_nrf52832_xxAA.dir/src/dfu_mesh.c.obj
                0x0007a262                dfu_mesh_app_is_valid
 *fill*         0x0007a296        0x2 
 .text.dfu_mesh_finalize
                0x0007a298      0x14c mesh/bootloader/CMakeFiles/mesh_bootloader_gccarmemb_nrf52832_xxAA.dir/src/dfu_mesh.c.obj
                0x0007a298                dfu_mesh_finalize
 .text.dfu_mesh_timeout
                0x0007a3e4       0xd8 mesh/bootloader/CMakeFiles/mesh_bootloader_gccarmemb_nrf52832_xxAA.dir/src/dfu_mesh.c.obj
                0x0007a3e4                dfu_mesh_timeout
 .text.dfu_mesh_restart
                0x0007a4bc        0x4 mesh/bootloader/CMakeFiles/mesh_bootloader_gccarmemb_nrf52832_xxAA.dir/src/dfu_mesh.c.obj
                0x0007a4bc                dfu_mesh_restart
 .text.dfu_mesh_on_flash_idle
                0x0007a4c0       0x50 mesh/bootloader/CMakeFiles/mesh_bootloader_gccarmemb_nrf52832_xxAA.dir/src/dfu_mesh.c.obj
                0x0007a4c0                dfu_mesh_on_flash_idle
 .text.dfu_transfer_init
                0x0007a510       0x1c mesh/bootloader/CMakeFiles/mesh_bootloader_gccarmemb_nrf52832_xxAA.dir/src/dfu_transfer_mesh.c.obj
                0x0007a510                dfu_transfer_init
 .text.dfu_transfer_start
                0x0007a52c       0x74 mesh/bootloader/CMakeFiles/mesh_bootloader_gccarmemb_nrf52832_xxAA.dir/src/dfu_transfer_mesh.c.obj
                0x0007a52c                dfu_transfer_start
 .text.dfu_transfer_data
                0x0007a5a0      0x180 mesh/bootloader/CMakeFiles/mesh_bootloader_gccarmemb_nrf52832_xxAA.dir/src/dfu_transfer_mesh.c.obj
                0x0007a5a0                dfu_transfer_data
 .text.dfu_transfer_has_entry
                0x0007a720       0x78 mesh/bootloader/CMakeFiles/mesh_bootloader_gccarmemb_nrf52832_xxAA.dir/src/dfu_transfer_mesh.c.obj
                0x0007a720                dfu_transfer_has_entry
 .text.dfu_transfer_get_oldest_missing_entry
                0x0007a798       0x7c mesh/bootloader/CMakeFiles/mesh_bootloader_gccarmemb_nrf52832_xxAA.dir/src/dfu_transfer_mesh.c.obj
                0x0007a798                dfu_transfer_get_oldest_missing_entry
 .text.dfu_transfer_sha256
                0x0007a814       0x1c mesh/bootloader/CMakeFiles/mesh_bootloader_gccarmemb_nrf52832_xxAA.dir/src/dfu_transfer_mesh.c.obj
                0x0007a814                dfu_transfer_sha256
 .text.dfu_transfer_end
                0x0007a830        0x4 mesh/bootloader/CMakeFiles/mesh_bootloader_gccarmemb_nrf52832_xxAA.dir/src/dfu_transfer_mesh.c.obj
                0x0007a830                dfu_transfer_end
 .text.dfu_transfer_flash_write_complete
                0x0007a834       0x18 mesh/bootloader/CMakeFiles/mesh_bootloader_gccarmemb_nrf52832_xxAA.dir/src/dfu_transfer_mesh.c.obj
                0x0007a834                dfu_transfer_flash_write_complete
 .text.fwid_union_cpy
                0x0007a84c       0x1e mesh/bootloader/CMakeFiles/mesh_bootloader_gccarmemb_nrf52832_xxAA.dir/src/dfu_util.c.obj
                0x0007a84c                fwid_union_cpy
 .text.fwid_union_cmp
                0x0007a86a       0x2c mesh/bootloader/CMakeFiles/mesh_bootloader_gccarmemb_nrf52832_xxAA.dir/src/dfu_util.c.obj
                0x0007a86a                fwid_union_cmp
 .text.fwid_union_id_cmp
                0x0007a896       0x30 mesh/bootloader/CMakeFiles/mesh_bootloader_gccarmemb_nrf52832_xxAA.dir/src/dfu_util.c.obj
                0x0007a896                fwid_union_id_cmp
 .text.fwid_union_version_cmp
                0x0007a8c6       0x28 mesh/bootloader/CMakeFiles/mesh_bootloader_gccarmemb_nrf52832_xxAA.dir/src/dfu_util.c.obj
                0x0007a8c6                fwid_union_version_cmp
 .text.addr_from_seg
                0x0007a8ee       0x14 mesh/bootloader/CMakeFiles/mesh_bootloader_gccarmemb_nrf52832_xxAA.dir/src/dfu_util.c.obj
                0x0007a8ee                addr_from_seg
 .text.is_upgrade
                0x0007a902       0x94 mesh/bootloader/CMakeFiles/mesh_bootloader_gccarmemb_nrf52832_xxAA.dir/src/dfu_util.c.obj
                0x0007a902                is_upgrade
 .text.app_is_newer
                0x0007a996       0x30 mesh/bootloader/CMakeFiles/mesh_bootloader_gccarmemb_nrf52832_xxAA.dir/src/dfu_util.c.obj
                0x0007a996                app_is_newer
 .text.bootloader_is_newer
                0x0007a9c6       0x2e mesh/bootloader/CMakeFiles/mesh_bootloader_gccarmemb_nrf52832_xxAA.dir/src/dfu_util.c.obj
                0x0007a9c6                bootloader_is_newer
 .text.fw_is_verified
                0x0007a9f4       0x1c mesh/bootloader/CMakeFiles/mesh_bootloader_gccarmemb_nrf52832_xxAA.dir/src/dfu_util.c.obj
                0x0007a9f4                fw_is_verified
 .text.tid_cache_entry_put
                0x0007aa10       0x1c mesh/bootloader/CMakeFiles/mesh_bootloader_gccarmemb_nrf52832_xxAA.dir/src/dfu_util.c.obj
                0x0007aa10                tid_cache_entry_put
 .text.tid_cache_has_entry
                0x0007aa2c       0x20 mesh/bootloader/CMakeFiles/mesh_bootloader_gccarmemb_nrf52832_xxAA.dir/src/dfu_util.c.obj
                0x0007aa2c                tid_cache_has_entry
 .text.ready_packet_matches_our_req
                0x0007aa4c       0x42 mesh/bootloader/CMakeFiles/mesh_bootloader_gccarmemb_nrf52832_xxAA.dir/src/dfu_util.c.obj
                0x0007aa4c                ready_packet_matches_our_req
 *fill*         0x0007aa8e        0x2 
 .text.packet_in_cache
                0x0007aa90       0x2c mesh/bootloader/CMakeFiles/mesh_bootloader_gccarmemb_nrf52832_xxAA.dir/src/dfu_util.c.obj
                0x0007aa90                packet_in_cache
 .text.packet_cache_put
                0x0007aabc       0x28 mesh/bootloader/CMakeFiles/mesh_bootloader_gccarmemb_nrf52832_xxAA.dir/src/dfu_util.c.obj
                0x0007aabc                packet_cache_put
 .text.packet_cache_flush
                0x0007aae4       0x1c mesh/bootloader/CMakeFiles/mesh_bootloader_gccarmemb_nrf52832_xxAA.dir/src/dfu_util.c.obj
                0x0007aae4                packet_cache_flush
 .text.section_overlap
                0x0007ab00       0x22 mesh/bootloader/CMakeFiles/mesh_bootloader_gccarmemb_nrf52832_xxAA.dir/src/dfu_util.c.obj
                0x0007ab00                section_overlap
 *fill*         0x0007ab22        0x2 
 .text.interrupts_disable
                0x0007ab24       0x24 mesh/bootloader/CMakeFiles/mesh_bootloader_gccarmemb_nrf52832_xxAA.dir/src/dfu_util.c.obj
                0x0007ab24                interrupts_disable
 .text.fifo_init
                0x0007ab48       0x1e mesh/bootloader/CMakeFiles/mesh_bootloader_gccarmemb_nrf52832_xxAA.dir/src/fifo.c.obj
                0x0007ab48                fifo_init
 .text.fifo_push
                0x0007ab66       0x4e mesh/bootloader/CMakeFiles/mesh_bootloader_gccarmemb_nrf52832_xxAA.dir/src/fifo.c.obj
                0x0007ab66                fifo_push
 .text.fifo_pop
                0x0007abb4       0x4a mesh/bootloader/CMakeFiles/mesh_bootloader_gccarmemb_nrf52832_xxAA.dir/src/fifo.c.obj
                0x0007abb4                fifo_pop
 .text.fifo_peek_at
                0x0007abfe       0x4e mesh/bootloader/CMakeFiles/mesh_bootloader_gccarmemb_nrf52832_xxAA.dir/src/fifo.c.obj
                0x0007abfe                fifo_peek_at
 .text.fifo_peek
                0x0007ac4c        0x6 mesh/bootloader/CMakeFiles/mesh_bootloader_gccarmemb_nrf52832_xxAA.dir/src/fifo.c.obj
                0x0007ac4c                fifo_peek
 .text.fifo_get_len
                0x0007ac52        0x8 mesh/bootloader/CMakeFiles/mesh_bootloader_gccarmemb_nrf52832_xxAA.dir/src/fifo.c.obj
                0x0007ac52                fifo_get_len
 .text.fifo_is_empty
                0x0007ac5a        0xc mesh/bootloader/CMakeFiles/mesh_bootloader_gccarmemb_nrf52832_xxAA.dir/src/fifo.c.obj
                0x0007ac5a                fifo_is_empty
 .text.app_error_handler_bare
                0x0007ac66        0x6 mesh/bootloader/CMakeFiles/mesh_bootloader_gccarmemb_nrf52832_xxAA.dir/src/main.c.obj
                0x0007ac66                app_error_handler_bare
 .text.HardFault_Handler
                0x0007ac6c        0x6 mesh/bootloader/CMakeFiles/mesh_bootloader_gccarmemb_nrf52832_xxAA.dir/src/main.c.obj
                0x0007ac6c                HardFault_Handler
 *fill*         0x0007ac72        0x2 
 .text.startup.main
                0x0007ac74       0x90 mesh/bootloader/CMakeFiles/mesh_bootloader_gccarmemb_nrf52832_xxAA.dir/src/main.c.obj
                0x0007ac74                main
 .text.mesh_packet_init
                0x0007ad04       0x18 mesh/bootloader/CMakeFiles/mesh_bootloader_gccarmemb_nrf52832_xxAA.dir/src/mesh_packet.c.obj
                0x0007ad04                mesh_packet_init
 .text.mesh_packet_acquire
                0x0007ad1c       0x40 mesh/bootloader/CMakeFiles/mesh_bootloader_gccarmemb_nrf52832_xxAA.dir/src/mesh_packet.c.obj
                0x0007ad1c                mesh_packet_acquire
 .text.mesh_packet_ref_count_inc
                0x0007ad5c       0x44 mesh/bootloader/CMakeFiles/mesh_bootloader_gccarmemb_nrf52832_xxAA.dir/src/mesh_packet.c.obj
                0x0007ad5c                mesh_packet_ref_count_inc
 .text.mesh_packet_ref_count_dec
                0x0007ada0       0x4c mesh/bootloader/CMakeFiles/mesh_bootloader_gccarmemb_nrf52832_xxAA.dir/src/mesh_packet.c.obj
                0x0007ada0                mesh_packet_ref_count_dec
 .text.mesh_packet_ref_count_get
                0x0007adec       0x24 mesh/bootloader/CMakeFiles/mesh_bootloader_gccarmemb_nrf52832_xxAA.dir/src/mesh_packet.c.obj
                0x0007adec                mesh_packet_ref_count_get
 .text.mesh_packet_set_local_addr
                0x0007ae10       0x28 mesh/bootloader/CMakeFiles/mesh_bootloader_gccarmemb_nrf52832_xxAA.dir/src/mesh_packet.c.obj
                0x0007ae10                mesh_packet_set_local_addr
 .text.mesh_packet_adv_data_get
                0x0007ae38       0x3c mesh/bootloader/CMakeFiles/mesh_bootloader_gccarmemb_nrf52832_xxAA.dir/src/mesh_packet.c.obj
                0x0007ae38                mesh_packet_adv_data_get
 .text.nrf_flash_erase
                0x0007ae74       0x60 mesh/bootloader/CMakeFiles/mesh_bootloader_gccarmemb_nrf52832_xxAA.dir/src/nrf_flash.c.obj
                0x0007ae74                nrf_flash_erase
 .text.nrf_flash_store
                0x0007aed4       0x70 mesh/bootloader/CMakeFiles/mesh_bootloader_gccarmemb_nrf52832_xxAA.dir/src/nrf_flash.c.obj
                0x0007aed4                nrf_flash_store
 .text.radio_init
                0x0007af44      0x118 mesh/bootloader/CMakeFiles/mesh_bootloader_gccarmemb_nrf52832_xxAA.dir/src/radio_control.c.obj
                0x0007af44                radio_init
 .text.radio_order
                0x0007b05c       0x4c mesh/bootloader/CMakeFiles/mesh_bootloader_gccarmemb_nrf52832_xxAA.dir/src/radio_control.c.obj
                0x0007b05c                radio_order
 .text.radio_disable
                0x0007b0a8       0x28 mesh/bootloader/CMakeFiles/mesh_bootloader_gccarmemb_nrf52832_xxAA.dir/src/radio_control.c.obj
                0x0007b0a8                radio_disable
 .text.radio_event_handler
                0x0007b0d0      0x1b4 mesh/bootloader/CMakeFiles/mesh_bootloader_gccarmemb_nrf52832_xxAA.dir/src/radio_control.c.obj
                0x0007b0d0                radio_event_handler
 .text.rand_prng_get
                0x0007b284       0x24 mesh/bootloader/CMakeFiles/mesh_bootloader_gccarmemb_nrf52832_xxAA.dir/src/rand.c.obj
                0x0007b284                rand_prng_get
 .text.rand_hw_rng_get
                0x0007b2a8       0x30 mesh/bootloader/CMakeFiles/mesh_bootloader_gccarmemb_nrf52832_xxAA.dir/src/rand.c.obj
                0x0007b2a8                rand_hw_rng_get
 .text.rand_prng_seed
                0x0007b2d8       0x38 mesh/bootloader/CMakeFiles/mesh_bootloader_gccarmemb_nrf52832_xxAA.dir/src/rand.c.obj
                0x0007b2d8                rand_prng_seed
 .text.order_next_rtc
                0x0007b310       0x68 mesh/bootloader/CMakeFiles/mesh_bootloader_gccarmemb_nrf52832_xxAA.dir/src/transport.c.obj
 .text.radio_tx_cb
                0x0007b378        0x4 mesh/bootloader/CMakeFiles/mesh_bootloader_gccarmemb_nrf52832_xxAA.dir/src/transport.c.obj
 .text.radio_rx_cb
                0x0007b37c       0x30 mesh/bootloader/CMakeFiles/mesh_bootloader_gccarmemb_nrf52832_xxAA.dir/src/transport.c.obj
 .text.order_scan
                0x0007b3ac       0x3c mesh/bootloader/CMakeFiles/mesh_bootloader_gccarmemb_nrf52832_xxAA.dir/src/transport.c.obj
 .text.radio_idle_cb
                0x0007b3e8       0x10 mesh/bootloader/CMakeFiles/mesh_bootloader_gccarmemb_nrf52832_xxAA.dir/src/transport.c.obj
 .text.set_next_tx
                0x0007b3f8       0x74 mesh/bootloader/CMakeFiles/mesh_bootloader_gccarmemb_nrf52832_xxAA.dir/src/transport.c.obj
 .text.RADIO_IRQHandler
                0x0007b46c        0x4 mesh/bootloader/CMakeFiles/mesh_bootloader_gccarmemb_nrf52832_xxAA.dir/src/transport.c.obj
                0x0007b46c                RADIO_IRQHandler
 .text.timeslot_is_in_ts
                0x0007b470        0x4 mesh/bootloader/CMakeFiles/mesh_bootloader_gccarmemb_nrf52832_xxAA.dir/src/transport.c.obj
                0x0007b470                timeslot_is_in_ts
 .text.transport_init
                0x0007b474       0x8c mesh/bootloader/CMakeFiles/mesh_bootloader_gccarmemb_nrf52832_xxAA.dir/src/transport.c.obj
                0x0007b474                transport_init
 .text.transport_start
                0x0007b500       0x14 mesh/bootloader/CMakeFiles/mesh_bootloader_gccarmemb_nrf52832_xxAA.dir/src/transport.c.obj
                0x0007b500                transport_start
 .text.SWI0_EGU0_IRQHandler
                0x0007b514       0x4c mesh/bootloader/CMakeFiles/mesh_bootloader_gccarmemb_nrf52832_xxAA.dir/src/transport.c.obj
                0x0007b514                SWI0_EGU0_IRQHandler
 .text.transport_tx
                0x0007b560       0x70 mesh/bootloader/CMakeFiles/mesh_bootloader_gccarmemb_nrf52832_xxAA.dir/src/transport.c.obj
                0x0007b560                transport_tx
 .text.transport_tx_abort
                0x0007b5d0       0x40 mesh/bootloader/CMakeFiles/mesh_bootloader_gccarmemb_nrf52832_xxAA.dir/src/transport.c.obj
                0x0007b5d0                transport_tx_abort
 .text.transport_rtc_irq_handler
                0x0007b610       0xc8 mesh/bootloader/CMakeFiles/mesh_bootloader_gccarmemb_nrf52832_xxAA.dir/src/transport.c.obj
                0x0007b610                transport_rtc_irq_handler
 .text.vli_clear
                0x0007b6d8       0x10 mesh/bootloader/CMakeFiles/mesh_bootloader_gccarmemb_nrf52832_xxAA.dir/src/uECC.c.obj
 .text.vli_isZero
                0x0007b6e8       0x16 mesh/bootloader/CMakeFiles/mesh_bootloader_gccarmemb_nrf52832_xxAA.dir/src/uECC.c.obj
 .text.vli_testBit
                0x0007b6fe       0x14 mesh/bootloader/CMakeFiles/mesh_bootloader_gccarmemb_nrf52832_xxAA.dir/src/uECC.c.obj
 .text.vli_set  0x0007b712       0x12 mesh/bootloader/CMakeFiles/mesh_bootloader_gccarmemb_nrf52832_xxAA.dir/src/uECC.c.obj
 .text.vli_cmp  0x0007b724       0x28 mesh/bootloader/CMakeFiles/mesh_bootloader_gccarmemb_nrf52832_xxAA.dir/src/uECC.c.obj
 .text.vli_rshift1
                0x0007b74c       0x1a mesh/bootloader/CMakeFiles/mesh_bootloader_gccarmemb_nrf52832_xxAA.dir/src/uECC.c.obj
 .text.vli_add  0x0007b766       0x2a mesh/bootloader/CMakeFiles/mesh_bootloader_gccarmemb_nrf52832_xxAA.dir/src/uECC.c.obj
 .text.vli_sub  0x0007b790       0x2a mesh/bootloader/CMakeFiles/mesh_bootloader_gccarmemb_nrf52832_xxAA.dir/src/uECC.c.obj
 .text.vli_bytesToNative
                0x0007b7ba       0x18 mesh/bootloader/CMakeFiles/mesh_bootloader_gccarmemb_nrf52832_xxAA.dir/src/uECC.c.obj
 .text.vli_modInv
                0x0007b7d2      0x128 mesh/bootloader/CMakeFiles/mesh_bootloader_gccarmemb_nrf52832_xxAA.dir/src/uECC.c.obj
 *fill*         0x0007b8fa        0x2 
 .text.vli_modSub.constprop.0
                0x0007b8fc       0x20 mesh/bootloader/CMakeFiles/mesh_bootloader_gccarmemb_nrf52832_xxAA.dir/src/uECC.c.obj
 .text.vli_modAdd.constprop.0
                0x0007b91c       0x2c mesh/bootloader/CMakeFiles/mesh_bootloader_gccarmemb_nrf52832_xxAA.dir/src/uECC.c.obj
 .text.vli_numBits.constprop.0
                0x0007b948       0x22 mesh/bootloader/CMakeFiles/mesh_bootloader_gccarmemb_nrf52832_xxAA.dir/src/uECC.c.obj
 .text.vli_mult
                0x0007b96a       0xba mesh/bootloader/CMakeFiles/mesh_bootloader_gccarmemb_nrf52832_xxAA.dir/src/uECC.c.obj
 .text.vli_modMult_fast
                0x0007ba24      0x190 mesh/bootloader/CMakeFiles/mesh_bootloader_gccarmemb_nrf52832_xxAA.dir/src/uECC.c.obj
 .text.apply_z  0x0007bbb4       0x34 mesh/bootloader/CMakeFiles/mesh_bootloader_gccarmemb_nrf52832_xxAA.dir/src/uECC.c.obj
 .text.XYcZ_add
                0x0007bbe8       0x9a mesh/bootloader/CMakeFiles/mesh_bootloader_gccarmemb_nrf52832_xxAA.dir/src/uECC.c.obj
 *fill*         0x0007bc82        0x2 
 .text.vli_modMult_n
                0x0007bc84       0xa0 mesh/bootloader/CMakeFiles/mesh_bootloader_gccarmemb_nrf52832_xxAA.dir/src/uECC.c.obj
 .text.uECC_verify
                0x0007bd24      0x31c mesh/bootloader/CMakeFiles/mesh_bootloader_gccarmemb_nrf52832_xxAA.dir/src/uECC.c.obj
                0x0007bd24                uECC_verify
 .text.sha256_transform
                0x0007c040      0x13c mesh/bootloader/CMakeFiles/mesh_bootloader_gccarmemb_nrf52832_xxAA.dir/C_/dev/mesh_dep/nRF5_SDK_16.0.0_98a08e2/components/libraries/sha256/sha256.c.obj
                0x0007c040                sha256_transform
 .text.sha256_init
                0x0007c17c       0x60 mesh/bootloader/CMakeFiles/mesh_bootloader_gccarmemb_nrf52832_xxAA.dir/C_/dev/mesh_dep/nRF5_SDK_16.0.0_98a08e2/components/libraries/sha256/sha256.c.obj
                0x0007c17c                sha256_init
 .text.sha256_update
                0x0007c1dc       0x46 mesh/bootloader/CMakeFiles/mesh_bootloader_gccarmemb_nrf52832_xxAA.dir/C_/dev/mesh_dep/nRF5_SDK_16.0.0_98a08e2/components/libraries/sha256/sha256.c.obj
                0x0007c1dc                sha256_update
 .text.sha256_final
                0x0007c222       0xfc mesh/bootloader/CMakeFiles/mesh_bootloader_gccarmemb_nrf52832_xxAA.dir/C_/dev/mesh_dep/nRF5_SDK_16.0.0_98a08e2/components/libraries/sha256/sha256.c.obj
                0x0007c222                sha256_final
 *fill*         0x0007c31e        0x2 
 .text.errata_12
                0x0007c320       0x40 mesh/bootloader/CMakeFiles/mesh_bootloader_gccarmemb_nrf52832_xxAA.dir/C_/dev/mesh_dep/nRF5_SDK_16.0.0_98a08e2/modules/nrfx/mdk/system_nrf52.c.obj
 .text.errata_16
                0x0007c360       0x34 mesh/bootloader/CMakeFiles/mesh_bootloader_gccarmemb_nrf52832_xxAA.dir/C_/dev/mesh_dep/nRF5_SDK_16.0.0_98a08e2/modules/nrfx/mdk/system_nrf52.c.obj
 .text.SystemInit
                0x0007c394      0x25c mesh/bootloader/CMakeFiles/mesh_bootloader_gccarmemb_nrf52832_xxAA.dir/C_/dev/mesh_dep/nRF5_SDK_16.0.0_98a08e2/modules/nrfx/mdk/system_nrf52.c.obj
                0x0007c394                SystemInit
 .text          0x0007c5f0       0x3c mesh/bootloader/CMakeFiles/mesh_bootloader_gccarmemb_nrf52832_xxAA.dir/C_/dev/mesh_dep/nRF5_SDK_16.0.0_98a08e2/modules/nrfx/mdk/gcc_startup_nrf52.S.obj
                0x0007c5f0                Reset_Handler
                0x0007c618                NMI_Handler
                0x0007c61c                MemoryManagement_Handler
                0x0007c61e                BusFault_Handler
                0x0007c620                UsageFault_Handler
                0x0007c622                SVC_Handler
                0x0007c624                DebugMon_Handler
                0x0007c626                PendSV_Handler
                0x0007c628                SysTick_Handler
                0x0007c62a                TEMP_IRQHandler
                0x0007c62a                POWER_CLOCK_IRQHandler
                0x0007c62a                TIMER3_IRQHandler
                0x0007c62a                FPU_IRQHandler
                0x0007c62a                SPIM0_SPIS0_TWIM0_TWIS0_SPI0_TWI0_IRQHandler
                0x0007c62a                QDEC_IRQHandler
                0x0007c62a                PDM_IRQHandler
                0x0007c62a                UARTE0_UART0_IRQHandler
                0x0007c62a                TIMER4_IRQHandler
                0x0007c62a                I2S_IRQHandler
                0x0007c62a                SWI4_EGU4_IRQHandler
                0x0007c62a                TIMER0_IRQHandler
                0x0007c62a                PWM1_IRQHandler
                0x0007c62a                TIMER1_IRQHandler
                0x0007c62a                PWM2_IRQHandler
                0x0007c62a                ECB_IRQHandler
                0x0007c62a                SPIM1_SPIS1_TWIM1_TWIS1_SPI1_TWI1_IRQHandler
                0x0007c62a                Default_Handler
                0x0007c62a                SAADC_IRQHandler
                0x0007c62a                CCM_AAR_IRQHandler
                0x0007c62a                WDT_IRQHandler
                0x0007c62a                GPIOTE_IRQHandler
                0x0007c62a                SWI5_EGU5_IRQHandler
                0x0007c62a                RNG_IRQHandler
                0x0007c62a                RTC2_IRQHandler
                0x0007c62a                PWM0_IRQHandler
                0x0007c62a                RTC1_IRQHandler
                0x0007c62a                SWI1_EGU1_IRQHandler
                0x0007c62a                SPIM2_SPIS2_SPI2_IRQHandler
                0x0007c62a                NFCT_IRQHandler
                0x0007c62a                SWI2_EGU2_IRQHandler
                0x0007c62a                MWU_IRQHandler
                0x0007c62a                TIMER2_IRQHandler
                0x0007c62a                COMP_LPCOMP_IRQHandler
 .text          0x0007c62c       0x30 c:/progra~2/gnutoo~1/92019-~1/bin/../lib/gcc/arm-none-eabi/9.2.1/thumb/v7e-m+fp/hard\libgcc.a(_aeabi_uldivmod.o)
                0x0007c62c                __aeabi_uldivmod
 .text          0x0007c65c      0x2c4 c:/progra~2/gnutoo~1/92019-~1/bin/../lib/gcc/arm-none-eabi/9.2.1/thumb/v7e-m+fp/hard\libgcc.a(_udivmoddi4.o)
                0x0007c65c                __udivmoddi4
 .text          0x0007c920        0x4 c:/progra~2/gnutoo~1/92019-~1/bin/../lib/gcc/arm-none-eabi/9.2.1/thumb/v7e-m+fp/hard\libgcc.a(_dvmd_tls.o)
                0x0007c920                __aeabi_idiv0
                0x0007c920                __aeabi_ldiv0
 .text.exit     0x0007c924       0x28 c:/progra~2/gnutoo~1/92019-~1/bin/../lib/gcc/arm-none-eabi/9.2.1/../../../../arm-none-eabi/lib/thumb/v7e-m+fp/hard\libg_nano.a(lib_a-exit.o)
                0x0007c924                exit
 .text.__libc_init_array
                0x0007c94c       0x48 c:/progra~2/gnutoo~1/92019-~1/bin/../lib/gcc/arm-none-eabi/9.2.1/../../../../arm-none-eabi/lib/thumb/v7e-m+fp/hard\libg_nano.a(lib_a-init.o)
                0x0007c94c                __libc_init_array
 .text.memcmp   0x0007c994       0x1c c:/progra~2/gnutoo~1/92019-~1/bin/../lib/gcc/arm-none-eabi/9.2.1/../../../../arm-none-eabi/lib/thumb/v7e-m+fp/hard\libg_nano.a(lib_a-memcmp.o)
                0x0007c994                memcmp
 .text.memcpy   0x0007c9b0       0x1c c:/progra~2/gnutoo~1/92019-~1/bin/../lib/gcc/arm-none-eabi/9.2.1/../../../../arm-none-eabi/lib/thumb/v7e-m+fp/hard\libg_nano.a(lib_a-memcpy-stub.o)
                0x0007c9b0                memcpy
 .text.memset   0x0007c9cc       0x10 c:/progra~2/gnutoo~1/92019-~1/bin/../lib/gcc/arm-none-eabi/9.2.1/../../../../arm-none-eabi/lib/thumb/v7e-m+fp/hard\libg_nano.a(lib_a-memset.o)
                0x0007c9cc                memset
 .text._exit    0x0007c9dc        0x4 c:/progra~2/gnutoo~1/92019-~1/bin/../lib/gcc/arm-none-eabi/9.2.1/../../../../arm-none-eabi/lib/thumb/v7e-m+fp/hard\libnosys.a(_exit.o)
                0x0007c9dc                _exit
 *(.init)
 .init          0x0007c9e0        0x4 c:/progra~2/gnutoo~1/92019-~1/bin/../lib/gcc/arm-none-eabi/9.2.1/thumb/v7e-m+fp/hard/crti.o
                0x0007c9e0                _init
 .init          0x0007c9e4        0x8 c:/progra~2/gnutoo~1/92019-~1/bin/../lib/gcc/arm-none-eabi/9.2.1/thumb/v7e-m+fp/hard/crtn.o
 *(.fini)
 .fini          0x0007c9ec        0x4 c:/progra~2/gnutoo~1/92019-~1/bin/../lib/gcc/arm-none-eabi/9.2.1/thumb/v7e-m+fp/hard/crti.o
                0x0007c9ec                _fini
 .fini          0x0007c9f0        0x8 c:/progra~2/gnutoo~1/92019-~1/bin/../lib/gcc/arm-none-eabi/9.2.1/thumb/v7e-m+fp/hard/crtn.o
 *crtbegin.o(.ctors)
 *crtbegin?.o(.ctors)
 *(EXCLUDE_FILE(*crtend.o *crtend?.o) .ctors)
 *(SORT_BY_NAME(.ctors.*))
 *(.ctors)
 *crtbegin.o(.dtors)
 *crtbegin?.o(.dtors)
 *(EXCLUDE_FILE(*crtend.o *crtend?.o) .dtors)
 *(SORT_BY_NAME(.dtors.*))
 *(.dtors)
 *(.rodata*)
 .rodata.m_invalid_header
                0x0007c9f8        0x4 mesh/bootloader/CMakeFiles/mesh_bootloader_gccarmemb_nrf52832_xxAA.dir/src/bootloader_info.c.obj
 .rodata.CSWTCH.47
                0x0007c9fc        0x4 mesh/bootloader/CMakeFiles/mesh_bootloader_gccarmemb_nrf52832_xxAA.dir/src/dfu_mesh.c.obj
 .rodata        0x0007ca00        0xc mesh/bootloader/CMakeFiles/mesh_bootloader_gccarmemb_nrf52832_xxAA.dir/src/radio_control.c.obj
 .rodata.curve_G
                0x0007ca0c       0x40 mesh/bootloader/CMakeFiles/mesh_bootloader_gccarmemb_nrf52832_xxAA.dir/src/uECC.c.obj
 .rodata.curve_n
                0x0007ca4c       0x20 mesh/bootloader/CMakeFiles/mesh_bootloader_gccarmemb_nrf52832_xxAA.dir/src/uECC.c.obj
 .rodata.curve_p
                0x0007ca6c       0x20 mesh/bootloader/CMakeFiles/mesh_bootloader_gccarmemb_nrf52832_xxAA.dir/src/uECC.c.obj
 .rodata.k      0x0007ca8c      0x100 mesh/bootloader/CMakeFiles/mesh_bootloader_gccarmemb_nrf52832_xxAA.dir/C_/dev/mesh_dep/nRF5_SDK_16.0.0_98a08e2/components/libraries/sha256/sha256.c.obj
 .rodata._global_impure_ptr
                0x0007cb8c        0x4 c:/progra~2/gnutoo~1/92019-~1/bin/../lib/gcc/arm-none-eabi/9.2.1/../../../../arm-none-eabi/lib/thumb/v7e-m+fp/hard\libg_nano.a(lib_a-impure.o)
                0x0007cb8c                _global_impure_ptr
 *(.eh_frame*)
 .eh_frame      0x0007cb90        0x0 c:/progra~2/gnutoo~1/92019-~1/bin/../lib/gcc/arm-none-eabi/9.2.1/thumb/v7e-m+fp/hard/crtbegin.o
 .eh_frame      0x0007cb90        0x4 c:/progra~2/gnutoo~1/92019-~1/bin/../lib/gcc/arm-none-eabi/9.2.1/thumb/v7e-m+fp/hard/crtend.o

.glue_7         0x0007cb94        0x0
 .glue_7        0x0007cb94        0x0 linker stubs

.glue_7t        0x0007cb94        0x0
 .glue_7t       0x0007cb94        0x0 linker stubs

.vfp11_veneer   0x0007cb94        0x0
 .vfp11_veneer  0x0007cb94        0x0 linker stubs

.v4_bx          0x0007cb94        0x0
 .v4_bx         0x0007cb94        0x0 linker stubs

.iplt           0x0007cb94        0x0
 .iplt          0x0007cb94        0x0 c:/progra~2/gnutoo~1/92019-~1/bin/../lib/gcc/arm-none-eabi/9.2.1/thumb/v7e-m+fp/hard/crtbegin.o

.ARM.extab
 *(.ARM.extab* .gnu.linkonce.armextab.*)
                0x0007cb94                __exidx_start = .

.ARM.exidx      0x0007cb94        0x8
 *(.ARM.exidx* .gnu.linkonce.armexidx.*)
 .ARM.exidx     0x0007cb94        0x8 c:/progra~2/gnutoo~1/92019-~1/bin/../lib/gcc/arm-none-eabi/9.2.1/../../../../arm-none-eabi/lib/thumb/v7e-m+fp/hard/crt0.o
 .ARM.exidx     0x0007cb9c        0x0 c:/progra~2/gnutoo~1/92019-~1/bin/../lib/gcc/arm-none-eabi/9.2.1/thumb/v7e-m+fp/hard\libgcc.a(_udivmoddi4.o)
                                  0x8 (size before relaxing)
                0x0007cb9c                __exidx_end = .
                0x0007cb9c                __etext = .

.rel.dyn        0x0007cb9c        0x0
 .rel.iplt      0x0007cb9c        0x0 c:/progra~2/gnutoo~1/92019-~1/bin/../lib/gcc/arm-none-eabi/9.2.1/thumb/v7e-m+fp/hard/crtbegin.o

.data           0x20000004       0x74 load address 0x0007cb9c
                0x20000004                __data_start__ = .
 *(vtable)
 *(.data*)
 .data.m_alt_aa
                0x20000004        0x4 mesh/bootloader/CMakeFiles/mesh_bootloader_gccarmemb_nrf52832_xxAA.dir/src/radio_control.c.obj
 .data.m_radio_state
                0x20000008        0x1 mesh/bootloader/CMakeFiles/mesh_bootloader_gccarmemb_nrf52832_xxAA.dir/src/radio_control.c.obj
 *fill*         0x20000009        0x3 
 .data.SystemCoreClock
                0x2000000c        0x4 mesh/bootloader/CMakeFiles/mesh_bootloader_gccarmemb_nrf52832_xxAA.dir/C_/dev/mesh_dep/nRF5_SDK_16.0.0_98a08e2/modules/nrfx/mdk/system_nrf52.c.obj
                0x2000000c                SystemCoreClock
 .data.impure_data
                0x20000010       0x60 c:/progra~2/gnutoo~1/92019-~1/bin/../lib/gcc/arm-none-eabi/9.2.1/../../../../arm-none-eabi/lib/thumb/v7e-m+fp/hard\libg_nano.a(lib_a-impure.o)
                0x20000070                . = ALIGN (0x4)
                0x20000070                PROVIDE (__preinit_array_start = .)
 *(.preinit_array)
                0x20000070                PROVIDE (__preinit_array_end = .)
                0x20000070                . = ALIGN (0x4)
                0x20000070                PROVIDE (__init_array_start = .)
 *(SORT_BY_NAME(.init_array.*))
 *(.init_array)
 .init_array    0x20000070        0x4 c:/progra~2/gnutoo~1/92019-~1/bin/../lib/gcc/arm-none-eabi/9.2.1/thumb/v7e-m+fp/hard/crtbegin.o
                0x20000074                PROVIDE (__init_array_end = .)
                0x20000074                . = ALIGN (0x4)
                [!provide]                PROVIDE (__fini_array_start = .)
 *(SORT_BY_NAME(.fini_array.*))
 *(.fini_array)
 .fini_array    0x20000074        0x4 c:/progra~2/gnutoo~1/92019-~1/bin/../lib/gcc/arm-none-eabi/9.2.1/thumb/v7e-m+fp/hard/crtbegin.o
                [!provide]                PROVIDE (__fini_array_end = .)
 *(.jcr*)
                0x20000078                . = ALIGN (0x4)
                0x20000078                __data_end__ = .

.igot.plt       0x20000078        0x0 load address 0x0007cc10
 .igot.plt      0x20000078        0x0 c:/progra~2/gnutoo~1/92019-~1/bin/../lib/gcc/arm-none-eabi/9.2.1/thumb/v7e-m+fp/hard/crtbegin.o

.bss            0x20000078      0x790 load address 0x0007cc10
                0x20000078                . = ALIGN (0x4)
                0x20000078                __bss_start__ = .
 *(.bss*)
 .bss           0x20000078       0x1c c:/progra~2/gnutoo~1/92019-~1/bin/../lib/gcc/arm-none-eabi/9.2.1/thumb/v7e-m+fp/hard/crtbegin.o
 .bss.m_flash_fifo
                0x20000094       0x18 mesh/bootloader/CMakeFiles/mesh_bootloader_gccarmemb_nrf52832_xxAA.dir/src/bootloader.c.obj
 .bss.m_flash_fifo_buf
                0x200000ac       0x80 mesh/bootloader/CMakeFiles/mesh_bootloader_gccarmemb_nrf52832_xxAA.dir/src/bootloader.c.obj
 .bss.m_go_to_app
                0x2000012c        0x1 mesh/bootloader/CMakeFiles/mesh_bootloader_gccarmemb_nrf52832_xxAA.dir/src/bootloader.c.obj
 .bss.m_timeout_action
                0x2000012d        0x1 mesh/bootloader/CMakeFiles/mesh_bootloader_gccarmemb_nrf52832_xxAA.dir/src/bootloader.c.obj
 *fill*         0x2000012e        0x2 
 .bss.rsp_cmd.11839
                0x20000130       0x18 mesh/bootloader/CMakeFiles/mesh_bootloader_gccarmemb_nrf52832_xxAA.dir/src/bootloader.c.obj
 .bss.g_packet_pool
                0x20000148      0x500 mesh/bootloader/CMakeFiles/mesh_bootloader_gccarmemb_nrf52832_xxAA.dir/src/mesh_packet.c.obj
 .bss.g_packet_refs
                0x20000648       0x20 mesh/bootloader/CMakeFiles/mesh_bootloader_gccarmemb_nrf52832_xxAA.dir/src/mesh_packet.c.obj
 .bss.buffer.7116
                0x20000668        0x4 mesh/bootloader/CMakeFiles/mesh_bootloader_gccarmemb_nrf52832_xxAA.dir/src/nrf_flash.c.obj
 .bss.m_idle_cb
                0x2000066c        0x4 mesh/bootloader/CMakeFiles/mesh_bootloader_gccarmemb_nrf52832_xxAA.dir/src/radio_control.c.obj
 .bss.m_radio_fifo
                0x20000670       0x18 mesh/bootloader/CMakeFiles/mesh_bootloader_gccarmemb_nrf52832_xxAA.dir/src/radio_control.c.obj
 .bss.m_radio_fifo_queue
                0x20000688       0x40 mesh/bootloader/CMakeFiles/mesh_bootloader_gccarmemb_nrf52832_xxAA.dir/src/radio_control.c.obj
 .bss.m_rx_cb   0x200006c8        0x4 mesh/bootloader/CMakeFiles/mesh_bootloader_gccarmemb_nrf52832_xxAA.dir/src/radio_control.c.obj
 .bss.m_tx_cb   0x200006cc        0x4 mesh/bootloader/CMakeFiles/mesh_bootloader_gccarmemb_nrf52832_xxAA.dir/src/radio_control.c.obj
 .bss.m_prng    0x200006d0       0x10 mesh/bootloader/CMakeFiles/mesh_bootloader_gccarmemb_nrf52832_xxAA.dir/src/transport.c.obj
 .bss.m_running
                0x200006e0        0x1 mesh/bootloader/CMakeFiles/mesh_bootloader_gccarmemb_nrf52832_xxAA.dir/src/transport.c.obj
 *fill*         0x200006e1        0x3 
 .bss.m_rx_cb   0x200006e4        0x4 mesh/bootloader/CMakeFiles/mesh_bootloader_gccarmemb_nrf52832_xxAA.dir/src/transport.c.obj
 .bss.m_rx_fifo
                0x200006e8       0x18 mesh/bootloader/CMakeFiles/mesh_bootloader_gccarmemb_nrf52832_xxAA.dir/src/transport.c.obj
 .bss.m_rx_fifo_buf
                0x20000700       0x80 mesh/bootloader/CMakeFiles/mesh_bootloader_gccarmemb_nrf52832_xxAA.dir/src/transport.c.obj
 .bss.m_ticks_at_order_time
                0x20000780        0x4 mesh/bootloader/CMakeFiles/mesh_bootloader_gccarmemb_nrf52832_xxAA.dir/src/transport.c.obj
 .bss.m_tx      0x20000784       0x80 mesh/bootloader/CMakeFiles/mesh_bootloader_gccarmemb_nrf52832_xxAA.dir/src/transport.c.obj
 *(COMMON)
 COMMON         0x20000804        0x2 mesh/bootloader/CMakeFiles/mesh_bootloader_gccarmemb_nrf52832_xxAA.dir/src/transport.c.obj
                0x20000804                m_tx_evt_bitfield
                0x20000808                . = ALIGN (0x4)
 *fill*         0x20000806        0x2 
                0x20000808                __bss_end__ = .

.heap           0x20000808     0x2000
                0x20000808                __HeapBase = .
                0x20000808                __end__ = .
                [!provide]                PROVIDE (end = .)
 *(.heap*)
 .heap          0x20000808     0x2000 mesh/bootloader/CMakeFiles/mesh_bootloader_gccarmemb_nrf52832_xxAA.dir/C_/dev/mesh_dep/nRF5_SDK_16.0.0_98a08e2/modules/nrfx/mdk/gcc_startup_nrf52.S.obj
                0x20002808                __HeapLimit = .

.stack_dummy    0x20000808     0x2000
 *(.stack*)
 .stack         0x20000808     0x2000 mesh/bootloader/CMakeFiles/mesh_bootloader_gccarmemb_nrf52832_xxAA.dir/C_/dev/mesh_dep/nRF5_SDK_16.0.0_98a08e2/modules/nrfx/mdk/gcc_startup_nrf52.S.obj
                0x2000fd00                __StackTop = (ORIGIN (RAM) + LENGTH (RAM))
                0x2000dd00                __StackLimit = (__StackTop - SIZEOF (.stack_dummy))
                0x2000fd00                PROVIDE (__stack = __StackTop)
                0x00000001                ASSERT ((__StackLimit >= __HeapLimit), region RAM overflowed with stack)
                0x00000074                DataInitFlashUsed = (__bss_start__ - __data_start__)
                0x00004b9c                CodeFlashUsed = (__etext - ORIGIN (FLASH))
                0x00004c10                TotalFlashUsed = (CodeFlashUsed + DataInitFlashUsed)
                0x00000001                ASSERT ((TotalFlashUsed <= LENGTH (FLASH)), region FLASH overflowed with .data and user data)
OUTPUT(mesh\bootloader\mesh_bootloader_gccarmemb_nrf52832_xxAA.elf elf32-littlearm)

.ARM.attributes
                0x00000000       0x30
 .ARM.attributes
                0x00000000       0x1e c:/progra~2/gnutoo~1/92019-~1/bin/../lib/gcc/arm-none-eabi/9.2.1/thumb/v7e-m+fp/hard/crti.o
 .ARM.attributes
                0x0000001e       0x34 c:/progra~2/gnutoo~1/92019-~1/bin/../lib/gcc/arm-none-eabi/9.2.1/thumb/v7e-m+fp/hard/crtbegin.o
 .ARM.attributes
                0x00000052       0x1c c:/progra~2/gnutoo~1/92019-~1/bin/../lib/gcc/arm-none-eabi/9.2.1/../../../../arm-none-eabi/lib/thumb/v7e-m+fp/hard/crt0.o
 .ARM.attributes
                0x0000006e       0x34 mesh/bootloader/CMakeFiles/mesh_bootloader_gccarmemb_nrf52832_xxAA.dir/src/bootloader.c.obj
 .ARM.attributes
                0x000000a2       0x34 mesh/bootloader/CMakeFiles/mesh_bootloader_gccarmemb_nrf52832_xxAA.dir/src/bootloader_app_bridge.c.obj
 .ARM.attributes
                0x000000d6       0x34 mesh/bootloader/CMakeFiles/mesh_bootloader_gccarmemb_nrf52832_xxAA.dir/src/bootloader_info.c.obj
 .ARM.attributes
                0x0000010a       0x34 mesh/bootloader/CMakeFiles/mesh_bootloader_gccarmemb_nrf52832_xxAA.dir/src/bootloader_rtc.c.obj
 .ARM.attributes
                0x0000013e       0x34 mesh/bootloader/CMakeFiles/mesh_bootloader_gccarmemb_nrf52832_xxAA.dir/src/bootloader_util.c.obj
 .ARM.attributes
                0x00000172       0x34 mesh/bootloader/CMakeFiles/mesh_bootloader_gccarmemb_nrf52832_xxAA.dir/src/dfu_bank.c.obj
 .ARM.attributes
                0x000001a6       0x34 mesh/bootloader/CMakeFiles/mesh_bootloader_gccarmemb_nrf52832_xxAA.dir/src/dfu_mesh.c.obj
 .ARM.attributes
                0x000001da       0x34 mesh/bootloader/CMakeFiles/mesh_bootloader_gccarmemb_nrf52832_xxAA.dir/src/dfu_transfer_mesh.c.obj
 .ARM.attributes
                0x0000020e       0x34 mesh/bootloader/CMakeFiles/mesh_bootloader_gccarmemb_nrf52832_xxAA.dir/src/dfu_util.c.obj
 .ARM.attributes
                0x00000242       0x34 mesh/bootloader/CMakeFiles/mesh_bootloader_gccarmemb_nrf52832_xxAA.dir/src/fifo.c.obj
 .ARM.attributes
                0x00000276       0x34 mesh/bootloader/CMakeFiles/mesh_bootloader_gccarmemb_nrf52832_xxAA.dir/src/main.c.obj
 .ARM.attributes
                0x000002aa       0x34 mesh/bootloader/CMakeFiles/mesh_bootloader_gccarmemb_nrf52832_xxAA.dir/src/mesh_packet.c.obj
 .ARM.attributes
                0x000002de       0x34 mesh/bootloader/CMakeFiles/mesh_bootloader_gccarmemb_nrf52832_xxAA.dir/src/nrf_flash.c.obj
 .ARM.attributes
                0x00000312       0x34 mesh/bootloader/CMakeFiles/mesh_bootloader_gccarmemb_nrf52832_xxAA.dir/src/radio_control.c.obj
 .ARM.attributes
                0x00000346       0x34 mesh/bootloader/CMakeFiles/mesh_bootloader_gccarmemb_nrf52832_xxAA.dir/src/rand.c.obj
 .ARM.attributes
                0x0000037a       0x34 mesh/bootloader/CMakeFiles/mesh_bootloader_gccarmemb_nrf52832_xxAA.dir/src/transport.c.obj
 .ARM.attributes
                0x000003ae       0x34 mesh/bootloader/CMakeFiles/mesh_bootloader_gccarmemb_nrf52832_xxAA.dir/src/uECC.c.obj
 .ARM.attributes
                0x000003e2       0x34 mesh/bootloader/CMakeFiles/mesh_bootloader_gccarmemb_nrf52832_xxAA.dir/C_/dev/mesh_dep/nRF5_SDK_16.0.0_98a08e2/components/libraries/sha256/sha256.c.obj
 .ARM.attributes
                0x00000416       0x34 mesh/bootloader/CMakeFiles/mesh_bootloader_gccarmemb_nrf52832_xxAA.dir/C_/dev/mesh_dep/nRF5_SDK_16.0.0_98a08e2/modules/nrfx/mdk/system_nrf52.c.obj
 .ARM.attributes
                0x0000044a       0x20 mesh/bootloader/CMakeFiles/mesh_bootloader_gccarmemb_nrf52832_xxAA.dir/C_/dev/mesh_dep/nRF5_SDK_16.0.0_98a08e2/modules/nrfx/mdk/gcc_startup_nrf52.S.obj
 .ARM.attributes
                0x0000046a       0x1e c:/progra~2/gnutoo~1/92019-~1/bin/../lib/gcc/arm-none-eabi/9.2.1/thumb/v7e-m+fp/hard\libgcc.a(_aeabi_uldivmod.o)
 .ARM.attributes
                0x00000488       0x34 c:/progra~2/gnutoo~1/92019-~1/bin/../lib/gcc/arm-none-eabi/9.2.1/thumb/v7e-m+fp/hard\libgcc.a(_udivmoddi4.o)
 .ARM.attributes
                0x000004bc       0x1e c:/progra~2/gnutoo~1/92019-~1/bin/../lib/gcc/arm-none-eabi/9.2.1/thumb/v7e-m+fp/hard\libgcc.a(_dvmd_tls.o)
 .ARM.attributes
                0x000004da       0x34 c:/progra~2/gnutoo~1/92019-~1/bin/../lib/gcc/arm-none-eabi/9.2.1/../../../../arm-none-eabi/lib/thumb/v7e-m+fp/hard\libg_nano.a(lib_a-exit.o)
 .ARM.attributes
                0x0000050e       0x32 c:/progra~2/gnutoo~1/92019-~1/bin/../lib/gcc/arm-none-eabi/9.2.1/../../../../arm-none-eabi/lib/thumb/v7e-m+fp/hard\libg_nano.a(lib_a-impure.o)
 .ARM.attributes
                0x00000540       0x34 c:/progra~2/gnutoo~1/92019-~1/bin/../lib/gcc/arm-none-eabi/9.2.1/../../../../arm-none-eabi/lib/thumb/v7e-m+fp/hard\libg_nano.a(lib_a-init.o)
 .ARM.attributes
                0x00000574       0x34 c:/progra~2/gnutoo~1/92019-~1/bin/../lib/gcc/arm-none-eabi/9.2.1/../../../../arm-none-eabi/lib/thumb/v7e-m+fp/hard\libg_nano.a(lib_a-memcmp.o)
 .ARM.attributes
                0x000005a8       0x34 c:/progra~2/gnutoo~1/92019-~1/bin/../lib/gcc/arm-none-eabi/9.2.1/../../../../arm-none-eabi/lib/thumb/v7e-m+fp/hard\libg_nano.a(lib_a-memcpy-stub.o)
 .ARM.attributes
                0x000005dc       0x34 c:/progra~2/gnutoo~1/92019-~1/bin/../lib/gcc/arm-none-eabi/9.2.1/../../../../arm-none-eabi/lib/thumb/v7e-m+fp/hard\libg_nano.a(lib_a-memset.o)
 .ARM.attributes
                0x00000610       0x32 c:/progra~2/gnutoo~1/92019-~1/bin/../lib/gcc/arm-none-eabi/9.2.1/thumb/v7e-m+fp/hard/crtend.o
 .ARM.attributes
                0x00000642       0x1e c:/progra~2/gnutoo~1/92019-~1/bin/../lib/gcc/arm-none-eabi/9.2.1/thumb/v7e-m+fp/hard/crtn.o
 .ARM.attributes
                0x00000660       0x34 c:/progra~2/gnutoo~1/92019-~1/bin/../lib/gcc/arm-none-eabi/9.2.1/../../../../arm-none-eabi/lib/thumb/v7e-m+fp/hard\libnosys.a(_exit.o)

.comment        0x00000000       0x79
 .comment       0x00000000       0x79 mesh/bootloader/CMakeFiles/mesh_bootloader_gccarmemb_nrf52832_xxAA.dir/src/bootloader.c.obj
                                 0x7a (size before relaxing)
 .comment       0x00000079       0x7a mesh/bootloader/CMakeFiles/mesh_bootloader_gccarmemb_nrf52832_xxAA.dir/src/bootloader_app_bridge.c.obj
 .comment       0x00000079       0x7a mesh/bootloader/CMakeFiles/mesh_bootloader_gccarmemb_nrf52832_xxAA.dir/src/bootloader_info.c.obj
 .comment       0x00000079       0x7a mesh/bootloader/CMakeFiles/mesh_bootloader_gccarmemb_nrf52832_xxAA.dir/src/bootloader_rtc.c.obj
 .comment       0x00000079       0x7a mesh/bootloader/CMakeFiles/mesh_bootloader_gccarmemb_nrf52832_xxAA.dir/src/bootloader_util.c.obj
 .comment       0x00000079       0x7a mesh/bootloader/CMakeFiles/mesh_bootloader_gccarmemb_nrf52832_xxAA.dir/src/dfu_bank.c.obj
 .comment       0x00000079       0x7a mesh/bootloader/CMakeFiles/mesh_bootloader_gccarmemb_nrf52832_xxAA.dir/src/dfu_mesh.c.obj
 .comment       0x00000079       0x7a mesh/bootloader/CMakeFiles/mesh_bootloader_gccarmemb_nrf52832_xxAA.dir/src/dfu_transfer_mesh.c.obj
 .comment       0x00000079       0x7a mesh/bootloader/CMakeFiles/mesh_bootloader_gccarmemb_nrf52832_xxAA.dir/src/dfu_util.c.obj
 .comment       0x00000079       0x7a mesh/bootloader/CMakeFiles/mesh_bootloader_gccarmemb_nrf52832_xxAA.dir/src/fifo.c.obj
 .comment       0x00000079       0x7a mesh/bootloader/CMakeFiles/mesh_bootloader_gccarmemb_nrf52832_xxAA.dir/src/main.c.obj
 .comment       0x00000079       0x7a mesh/bootloader/CMakeFiles/mesh_bootloader_gccarmemb_nrf52832_xxAA.dir/src/mesh_packet.c.obj
 .comment       0x00000079       0x7a mesh/bootloader/CMakeFiles/mesh_bootloader_gccarmemb_nrf52832_xxAA.dir/src/nrf_flash.c.obj
 .comment       0x00000079       0x7a mesh/bootloader/CMakeFiles/mesh_bootloader_gccarmemb_nrf52832_xxAA.dir/src/radio_control.c.obj
 .comment       0x00000079       0x7a mesh/bootloader/CMakeFiles/mesh_bootloader_gccarmemb_nrf52832_xxAA.dir/src/rand.c.obj
 .comment       0x00000079       0x7a mesh/bootloader/CMakeFiles/mesh_bootloader_gccarmemb_nrf52832_xxAA.dir/src/transport.c.obj
 .comment       0x00000079       0x7a mesh/bootloader/CMakeFiles/mesh_bootloader_gccarmemb_nrf52832_xxAA.dir/src/uECC.c.obj
 .comment       0x00000079       0x7a mesh/bootloader/CMakeFiles/mesh_bootloader_gccarmemb_nrf52832_xxAA.dir/C_/dev/mesh_dep/nRF5_SDK_16.0.0_98a08e2/components/libraries/sha256/sha256.c.obj
 .comment       0x00000079       0x7a mesh/bootloader/CMakeFiles/mesh_bootloader_gccarmemb_nrf52832_xxAA.dir/C_/dev/mesh_dep/nRF5_SDK_16.0.0_98a08e2/modules/nrfx/mdk/system_nrf52.c.obj

.debug_info     0x00000000    0x1d1b3
 .debug_info    0x00000000     0x3856 mesh/bootloader/CMakeFiles/mesh_bootloader_gccarmemb_nrf52832_xxAA.dir/src/bootloader.c.obj
 .debug_info    0x00003856     0x25c7 mesh/bootloader/CMakeFiles/mesh_bootloader_gccarmemb_nrf52832_xxAA.dir/src/bootloader_app_bridge.c.obj
 .debug_info    0x00005e1d     0x1eec mesh/bootloader/CMakeFiles/mesh_bootloader_gccarmemb_nrf52832_xxAA.dir/src/bootloader_info.c.obj
 .debug_info    0x00007d09      0x7e5 mesh/bootloader/CMakeFiles/mesh_bootloader_gccarmemb_nrf52832_xxAA.dir/src/bootloader_rtc.c.obj
 .debug_info    0x000084ee      0x98a mesh/bootloader/CMakeFiles/mesh_bootloader_gccarmemb_nrf52832_xxAA.dir/src/bootloader_util.c.obj
 .debug_info    0x00008e78     0x252a mesh/bootloader/CMakeFiles/mesh_bootloader_gccarmemb_nrf52832_xxAA.dir/src/dfu_bank.c.obj
 .debug_info    0x0000b3a2     0x3b24 mesh/bootloader/CMakeFiles/mesh_bootloader_gccarmemb_nrf52832_xxAA.dir/src/dfu_mesh.c.obj
 .debug_info    0x0000eec6     0x1003 mesh/bootloader/CMakeFiles/mesh_bootloader_gccarmemb_nrf52832_xxAA.dir/src/dfu_transfer_mesh.c.obj
 .debug_info    0x0000fec9     0x18df mesh/bootloader/CMakeFiles/mesh_bootloader_gccarmemb_nrf52832_xxAA.dir/src/dfu_util.c.obj
 .debug_info    0x000117a8      0xda2 mesh/bootloader/CMakeFiles/mesh_bootloader_gccarmemb_nrf52832_xxAA.dir/src/fifo.c.obj
 .debug_info    0x0001254a     0x168b mesh/bootloader/CMakeFiles/mesh_bootloader_gccarmemb_nrf52832_xxAA.dir/src/main.c.obj
 .debug_info    0x00013bd5     0x150e mesh/bootloader/CMakeFiles/mesh_bootloader_gccarmemb_nrf52832_xxAA.dir/src/mesh_packet.c.obj
 .debug_info    0x000150e3      0x6d5 mesh/bootloader/CMakeFiles/mesh_bootloader_gccarmemb_nrf52832_xxAA.dir/src/nrf_flash.c.obj
 .debug_info    0x000157b8     0x182a mesh/bootloader/CMakeFiles/mesh_bootloader_gccarmemb_nrf52832_xxAA.dir/src/radio_control.c.obj
 .debug_info    0x00016fe2      0x387 mesh/bootloader/CMakeFiles/mesh_bootloader_gccarmemb_nrf52832_xxAA.dir/src/rand.c.obj
 .debug_info    0x00017369     0x1dc6 mesh/bootloader/CMakeFiles/mesh_bootloader_gccarmemb_nrf52832_xxAA.dir/src/transport.c.obj
 .debug_info    0x0001912f     0x212d mesh/bootloader/CMakeFiles/mesh_bootloader_gccarmemb_nrf52832_xxAA.dir/src/uECC.c.obj
 .debug_info    0x0001b25c      0xd27 mesh/bootloader/CMakeFiles/mesh_bootloader_gccarmemb_nrf52832_xxAA.dir/C_/dev/mesh_dep/nRF5_SDK_16.0.0_98a08e2/components/libraries/sha256/sha256.c.obj
 .debug_info    0x0001bf83     0x1230 mesh/bootloader/CMakeFiles/mesh_bootloader_gccarmemb_nrf52832_xxAA.dir/C_/dev/mesh_dep/nRF5_SDK_16.0.0_98a08e2/modules/nrfx/mdk/system_nrf52.c.obj

.debug_abbrev   0x00000000     0x44f3
 .debug_abbrev  0x00000000      0x4dd mesh/bootloader/CMakeFiles/mesh_bootloader_gccarmemb_nrf52832_xxAA.dir/src/bootloader.c.obj
 .debug_abbrev  0x000004dd      0x404 mesh/bootloader/CMakeFiles/mesh_bootloader_gccarmemb_nrf52832_xxAA.dir/src/bootloader_app_bridge.c.obj
 .debug_abbrev  0x000008e1      0x5a0 mesh/bootloader/CMakeFiles/mesh_bootloader_gccarmemb_nrf52832_xxAA.dir/src/bootloader_info.c.obj
 .debug_abbrev  0x00000e81      0x1c2 mesh/bootloader/CMakeFiles/mesh_bootloader_gccarmemb_nrf52832_xxAA.dir/src/bootloader_rtc.c.obj
 .debug_abbrev  0x00001043      0x214 mesh/bootloader/CMakeFiles/mesh_bootloader_gccarmemb_nrf52832_xxAA.dir/src/bootloader_util.c.obj
 .debug_abbrev  0x00001257      0x4d9 mesh/bootloader/CMakeFiles/mesh_bootloader_gccarmemb_nrf52832_xxAA.dir/src/dfu_bank.c.obj
 .debug_abbrev  0x00001730      0x547 mesh/bootloader/CMakeFiles/mesh_bootloader_gccarmemb_nrf52832_xxAA.dir/src/dfu_mesh.c.obj
 .debug_abbrev  0x00001c77      0x3e3 mesh/bootloader/CMakeFiles/mesh_bootloader_gccarmemb_nrf52832_xxAA.dir/src/dfu_transfer_mesh.c.obj
 .debug_abbrev  0x0000205a      0x4a6 mesh/bootloader/CMakeFiles/mesh_bootloader_gccarmemb_nrf52832_xxAA.dir/src/dfu_util.c.obj
 .debug_abbrev  0x00002500      0x335 mesh/bootloader/CMakeFiles/mesh_bootloader_gccarmemb_nrf52832_xxAA.dir/src/fifo.c.obj
 .debug_abbrev  0x00002835      0x38f mesh/bootloader/CMakeFiles/mesh_bootloader_gccarmemb_nrf52832_xxAA.dir/src/main.c.obj
 .debug_abbrev  0x00002bc4      0x3d3 mesh/bootloader/CMakeFiles/mesh_bootloader_gccarmemb_nrf52832_xxAA.dir/src/mesh_packet.c.obj
 .debug_abbrev  0x00002f97      0x1e0 mesh/bootloader/CMakeFiles/mesh_bootloader_gccarmemb_nrf52832_xxAA.dir/src/nrf_flash.c.obj
 .debug_abbrev  0x00003177      0x4dc mesh/bootloader/CMakeFiles/mesh_bootloader_gccarmemb_nrf52832_xxAA.dir/src/radio_control.c.obj
 .debug_abbrev  0x00003653      0x1a3 mesh/bootloader/CMakeFiles/mesh_bootloader_gccarmemb_nrf52832_xxAA.dir/src/rand.c.obj
 .debug_abbrev  0x000037f6      0x550 mesh/bootloader/CMakeFiles/mesh_bootloader_gccarmemb_nrf52832_xxAA.dir/src/transport.c.obj
 .debug_abbrev  0x00003d46      0x2dd mesh/bootloader/CMakeFiles/mesh_bootloader_gccarmemb_nrf52832_xxAA.dir/src/uECC.c.obj
 .debug_abbrev  0x00004023      0x28b mesh/bootloader/CMakeFiles/mesh_bootloader_gccarmemb_nrf52832_xxAA.dir/C_/dev/mesh_dep/nRF5_SDK_16.0.0_98a08e2/components/libraries/sha256/sha256.c.obj
 .debug_abbrev  0x000042ae      0x245 mesh/bootloader/CMakeFiles/mesh_bootloader_gccarmemb_nrf52832_xxAA.dir/C_/dev/mesh_dep/nRF5_SDK_16.0.0_98a08e2/modules/nrfx/mdk/system_nrf52.c.obj

.debug_loc      0x00000000     0x7016
 .debug_loc     0x00000000      0x643 mesh/bootloader/CMakeFiles/mesh_bootloader_gccarmemb_nrf52832_xxAA.dir/src/bootloader.c.obj
 .debug_loc     0x00000643      0x41b mesh/bootloader/CMakeFiles/mesh_bootloader_gccarmemb_nrf52832_xxAA.dir/src/bootloader_app_bridge.c.obj
 .debug_loc     0x00000a5e      0xce4 mesh/bootloader/CMakeFiles/mesh_bootloader_gccarmemb_nrf52832_xxAA.dir/src/bootloader_info.c.obj
 .debug_loc     0x00001742       0x42 mesh/bootloader/CMakeFiles/mesh_bootloader_gccarmemb_nrf52832_xxAA.dir/src/bootloader_rtc.c.obj
 .debug_loc     0x00001784       0x37 mesh/bootloader/CMakeFiles/mesh_bootloader_gccarmemb_nrf52832_xxAA.dir/src/bootloader_util.c.obj
 .debug_loc     0x000017bb      0x37e mesh/bootloader/CMakeFiles/mesh_bootloader_gccarmemb_nrf52832_xxAA.dir/src/dfu_bank.c.obj
 .debug_loc     0x00001b39     0x137b mesh/bootloader/CMakeFiles/mesh_bootloader_gccarmemb_nrf52832_xxAA.dir/src/dfu_mesh.c.obj
 .debug_loc     0x00002eb4      0x52a mesh/bootloader/CMakeFiles/mesh_bootloader_gccarmemb_nrf52832_xxAA.dir/src/dfu_transfer_mesh.c.obj
 .debug_loc     0x000033de      0x72f mesh/bootloader/CMakeFiles/mesh_bootloader_gccarmemb_nrf52832_xxAA.dir/src/dfu_util.c.obj
 .debug_loc     0x00003b0d      0x3c4 mesh/bootloader/CMakeFiles/mesh_bootloader_gccarmemb_nrf52832_xxAA.dir/src/fifo.c.obj
 .debug_loc     0x00003ed1       0x57 mesh/bootloader/CMakeFiles/mesh_bootloader_gccarmemb_nrf52832_xxAA.dir/src/main.c.obj
 .debug_loc     0x00003f28      0x6c6 mesh/bootloader/CMakeFiles/mesh_bootloader_gccarmemb_nrf52832_xxAA.dir/src/mesh_packet.c.obj
 .debug_loc     0x000045ee      0x1c1 mesh/bootloader/CMakeFiles/mesh_bootloader_gccarmemb_nrf52832_xxAA.dir/src/nrf_flash.c.obj
 .debug_loc     0x000047af      0x2d6 mesh/bootloader/CMakeFiles/mesh_bootloader_gccarmemb_nrf52832_xxAA.dir/src/radio_control.c.obj
 .debug_loc     0x00004a85      0x11e mesh/bootloader/CMakeFiles/mesh_bootloader_gccarmemb_nrf52832_xxAA.dir/src/rand.c.obj
 .debug_loc     0x00004ba3      0x6a8 mesh/bootloader/CMakeFiles/mesh_bootloader_gccarmemb_nrf52832_xxAA.dir/src/transport.c.obj
 .debug_loc     0x0000524b     0x1733 mesh/bootloader/CMakeFiles/mesh_bootloader_gccarmemb_nrf52832_xxAA.dir/src/uECC.c.obj
 .debug_loc     0x0000697e      0x698 mesh/bootloader/CMakeFiles/mesh_bootloader_gccarmemb_nrf52832_xxAA.dir/C_/dev/mesh_dep/nRF5_SDK_16.0.0_98a08e2/components/libraries/sha256/sha256.c.obj

.debug_aranges  0x00000000      0x760
 .debug_aranges
                0x00000000       0x70 mesh/bootloader/CMakeFiles/mesh_bootloader_gccarmemb_nrf52832_xxAA.dir/src/bootloader.c.obj
 .debug_aranges
                0x00000070       0x70 mesh/bootloader/CMakeFiles/mesh_bootloader_gccarmemb_nrf52832_xxAA.dir/src/bootloader_app_bridge.c.obj
 .debug_aranges
                0x000000e0       0xc0 mesh/bootloader/CMakeFiles/mesh_bootloader_gccarmemb_nrf52832_xxAA.dir/src/bootloader_info.c.obj
 .debug_aranges
                0x000001a0       0x28 mesh/bootloader/CMakeFiles/mesh_bootloader_gccarmemb_nrf52832_xxAA.dir/src/bootloader_rtc.c.obj
 .debug_aranges
                0x000001c8       0x20 mesh/bootloader/CMakeFiles/mesh_bootloader_gccarmemb_nrf52832_xxAA.dir/src/bootloader_util.c.obj
 .debug_aranges
                0x000001e8       0x50 mesh/bootloader/CMakeFiles/mesh_bootloader_gccarmemb_nrf52832_xxAA.dir/src/dfu_bank.c.obj
 .debug_aranges
                0x00000238       0xb8 mesh/bootloader/CMakeFiles/mesh_bootloader_gccarmemb_nrf52832_xxAA.dir/src/dfu_mesh.c.obj
 .debug_aranges
                0x000002f0       0x58 mesh/bootloader/CMakeFiles/mesh_bootloader_gccarmemb_nrf52832_xxAA.dir/src/dfu_transfer_mesh.c.obj
 .debug_aranges
                0x00000348       0xa0 mesh/bootloader/CMakeFiles/mesh_bootloader_gccarmemb_nrf52832_xxAA.dir/src/dfu_util.c.obj
 .debug_aranges
                0x000003e8       0x60 mesh/bootloader/CMakeFiles/mesh_bootloader_gccarmemb_nrf52832_xxAA.dir/src/fifo.c.obj
 .debug_aranges
                0x00000448       0x38 mesh/bootloader/CMakeFiles/mesh_bootloader_gccarmemb_nrf52832_xxAA.dir/src/main.c.obj
 .debug_aranges
                0x00000480       0x80 mesh/bootloader/CMakeFiles/mesh_bootloader_gccarmemb_nrf52832_xxAA.dir/src/mesh_packet.c.obj
 .debug_aranges
                0x00000500       0x28 mesh/bootloader/CMakeFiles/mesh_bootloader_gccarmemb_nrf52832_xxAA.dir/src/nrf_flash.c.obj
 .debug_aranges
                0x00000528       0x40 mesh/bootloader/CMakeFiles/mesh_bootloader_gccarmemb_nrf52832_xxAA.dir/src/radio_control.c.obj
 .debug_aranges
                0x00000568       0x30 mesh/bootloader/CMakeFiles/mesh_bootloader_gccarmemb_nrf52832_xxAA.dir/src/rand.c.obj
 .debug_aranges
                0x00000598       0xa8 mesh/bootloader/CMakeFiles/mesh_bootloader_gccarmemb_nrf52832_xxAA.dir/src/transport.c.obj
 .debug_aranges
                0x00000640       0xb0 mesh/bootloader/CMakeFiles/mesh_bootloader_gccarmemb_nrf52832_xxAA.dir/src/uECC.c.obj
 .debug_aranges
                0x000006f0       0x38 mesh/bootloader/CMakeFiles/mesh_bootloader_gccarmemb_nrf52832_xxAA.dir/C_/dev/mesh_dep/nRF5_SDK_16.0.0_98a08e2/components/libraries/sha256/sha256.c.obj
 .debug_aranges
                0x00000728       0x38 mesh/bootloader/CMakeFiles/mesh_bootloader_gccarmemb_nrf52832_xxAA.dir/C_/dev/mesh_dep/nRF5_SDK_16.0.0_98a08e2/modules/nrfx/mdk/system_nrf52.c.obj

.debug_ranges   0x00000000     0x1028
 .debug_ranges  0x00000000      0x108 mesh/bootloader/CMakeFiles/mesh_bootloader_gccarmemb_nrf52832_xxAA.dir/src/bootloader.c.obj
 .debug_ranges  0x00000108       0x60 mesh/bootloader/CMakeFiles/mesh_bootloader_gccarmemb_nrf52832_xxAA.dir/src/bootloader_app_bridge.c.obj
 .debug_ranges  0x00000168      0x1f0 mesh/bootloader/CMakeFiles/mesh_bootloader_gccarmemb_nrf52832_xxAA.dir/src/bootloader_info.c.obj
 .debug_ranges  0x00000358       0x18 mesh/bootloader/CMakeFiles/mesh_bootloader_gccarmemb_nrf52832_xxAA.dir/src/bootloader_rtc.c.obj
 .debug_ranges  0x00000370       0x10 mesh/bootloader/CMakeFiles/mesh_bootloader_gccarmemb_nrf52832_xxAA.dir/src/bootloader_util.c.obj
 .debug_ranges  0x00000380       0xf0 mesh/bootloader/CMakeFiles/mesh_bootloader_gccarmemb_nrf52832_xxAA.dir/src/dfu_bank.c.obj
 .debug_ranges  0x00000470      0x3b8 mesh/bootloader/CMakeFiles/mesh_bootloader_gccarmemb_nrf52832_xxAA.dir/src/dfu_mesh.c.obj
 .debug_ranges  0x00000828       0xb0 mesh/bootloader/CMakeFiles/mesh_bootloader_gccarmemb_nrf52832_xxAA.dir/src/dfu_transfer_mesh.c.obj
 .debug_ranges  0x000008d8       0xe0 mesh/bootloader/CMakeFiles/mesh_bootloader_gccarmemb_nrf52832_xxAA.dir/src/dfu_util.c.obj
 .debug_ranges  0x000009b8       0x68 mesh/bootloader/CMakeFiles/mesh_bootloader_gccarmemb_nrf52832_xxAA.dir/src/fifo.c.obj
 .debug_ranges  0x00000a20       0x40 mesh/bootloader/CMakeFiles/mesh_bootloader_gccarmemb_nrf52832_xxAA.dir/src/main.c.obj
 .debug_ranges  0x00000a60       0xe0 mesh/bootloader/CMakeFiles/mesh_bootloader_gccarmemb_nrf52832_xxAA.dir/src/mesh_packet.c.obj
 .debug_ranges  0x00000b40       0x70 mesh/bootloader/CMakeFiles/mesh_bootloader_gccarmemb_nrf52832_xxAA.dir/src/nrf_flash.c.obj
 .debug_ranges  0x00000bb0      0x100 mesh/bootloader/CMakeFiles/mesh_bootloader_gccarmemb_nrf52832_xxAA.dir/src/radio_control.c.obj
 .debug_ranges  0x00000cb0       0x38 mesh/bootloader/CMakeFiles/mesh_bootloader_gccarmemb_nrf52832_xxAA.dir/src/rand.c.obj
 .debug_ranges  0x00000ce8      0x158 mesh/bootloader/CMakeFiles/mesh_bootloader_gccarmemb_nrf52832_xxAA.dir/src/transport.c.obj
 .debug_ranges  0x00000e40      0x198 mesh/bootloader/CMakeFiles/mesh_bootloader_gccarmemb_nrf52832_xxAA.dir/src/uECC.c.obj
 .debug_ranges  0x00000fd8       0x28 mesh/bootloader/CMakeFiles/mesh_bootloader_gccarmemb_nrf52832_xxAA.dir/C_/dev/mesh_dep/nRF5_SDK_16.0.0_98a08e2/components/libraries/sha256/sha256.c.obj
 .debug_ranges  0x00001000       0x28 mesh/bootloader/CMakeFiles/mesh_bootloader_gccarmemb_nrf52832_xxAA.dir/C_/dev/mesh_dep/nRF5_SDK_16.0.0_98a08e2/modules/nrfx/mdk/system_nrf52.c.obj

.debug_line     0x00000000     0x9d0a
 .debug_line    0x00000000      0xdc9 mesh/bootloader/CMakeFiles/mesh_bootloader_gccarmemb_nrf52832_xxAA.dir/src/bootloader.c.obj
 .debug_line    0x00000dc9      0x69a mesh/bootloader/CMakeFiles/mesh_bootloader_gccarmemb_nrf52832_xxAA.dir/src/bootloader_app_bridge.c.obj
 .debug_line    0x00001463      0xe44 mesh/bootloader/CMakeFiles/mesh_bootloader_gccarmemb_nrf52832_xxAA.dir/src/bootloader_info.c.obj
 .debug_line    0x000022a7      0x29a mesh/bootloader/CMakeFiles/mesh_bootloader_gccarmemb_nrf52832_xxAA.dir/src/bootloader_rtc.c.obj
 .debug_line    0x00002541      0x17a mesh/bootloader/CMakeFiles/mesh_bootloader_gccarmemb_nrf52832_xxAA.dir/src/bootloader_util.c.obj
 .debug_line    0x000026bb      0x976 mesh/bootloader/CMakeFiles/mesh_bootloader_gccarmemb_nrf52832_xxAA.dir/src/dfu_bank.c.obj
 .debug_line    0x00003031     0x183e mesh/bootloader/CMakeFiles/mesh_bootloader_gccarmemb_nrf52832_xxAA.dir/src/dfu_mesh.c.obj
 .debug_line    0x0000486f      0x67e mesh/bootloader/CMakeFiles/mesh_bootloader_gccarmemb_nrf52832_xxAA.dir/src/dfu_transfer_mesh.c.obj
 .debug_line    0x00004eed      0x746 mesh/bootloader/CMakeFiles/mesh_bootloader_gccarmemb_nrf52832_xxAA.dir/src/dfu_util.c.obj
 .debug_line    0x00005633      0x4e3 mesh/bootloader/CMakeFiles/mesh_bootloader_gccarmemb_nrf52832_xxAA.dir/src/fifo.c.obj
 .debug_line    0x00005b16      0x492 mesh/bootloader/CMakeFiles/mesh_bootloader_gccarmemb_nrf52832_xxAA.dir/src/main.c.obj
 .debug_line    0x00005fa8      0x7e3 mesh/bootloader/CMakeFiles/mesh_bootloader_gccarmemb_nrf52832_xxAA.dir/src/mesh_packet.c.obj
 .debug_line    0x0000678b      0x3ba mesh/bootloader/CMakeFiles/mesh_bootloader_gccarmemb_nrf52832_xxAA.dir/src/nrf_flash.c.obj
 .debug_line    0x00006b45      0x77a mesh/bootloader/CMakeFiles/mesh_bootloader_gccarmemb_nrf52832_xxAA.dir/src/radio_control.c.obj
 .debug_line    0x000072bf      0x304 mesh/bootloader/CMakeFiles/mesh_bootloader_gccarmemb_nrf52832_xxAA.dir/src/rand.c.obj
 .debug_line    0x000075c3      0xac5 mesh/bootloader/CMakeFiles/mesh_bootloader_gccarmemb_nrf52832_xxAA.dir/src/transport.c.obj
 .debug_line    0x00008088      0xda3 mesh/bootloader/CMakeFiles/mesh_bootloader_gccarmemb_nrf52832_xxAA.dir/src/uECC.c.obj
 .debug_line    0x00008e2b      0x916 mesh/bootloader/CMakeFiles/mesh_bootloader_gccarmemb_nrf52832_xxAA.dir/C_/dev/mesh_dep/nRF5_SDK_16.0.0_98a08e2/components/libraries/sha256/sha256.c.obj
 .debug_line    0x00009741      0x5c9 mesh/bootloader/CMakeFiles/mesh_bootloader_gccarmemb_nrf52832_xxAA.dir/C_/dev/mesh_dep/nRF5_SDK_16.0.0_98a08e2/modules/nrfx/mdk/system_nrf52.c.obj

.debug_str      0x00000000     0x45de
 .debug_str     0x00000000     0x227a mesh/bootloader/CMakeFiles/mesh_bootloader_gccarmemb_nrf52832_xxAA.dir/src/bootloader.c.obj
                               0x24cd (size before relaxing)
 .debug_str     0x0000227a      0x2eb mesh/bootloader/CMakeFiles/mesh_bootloader_gccarmemb_nrf52832_xxAA.dir/src/bootloader_app_bridge.c.obj
                               0x1977 (size before relaxing)
 .debug_str     0x00002565      0x51d mesh/bootloader/CMakeFiles/mesh_bootloader_gccarmemb_nrf52832_xxAA.dir/src/bootloader_info.c.obj
                               0x1090 (size before relaxing)
 .debug_str     0x00002a82       0x52 mesh/bootloader/CMakeFiles/mesh_bootloader_gccarmemb_nrf52832_xxAA.dir/src/bootloader_rtc.c.obj
                                0x6a8 (size before relaxing)
 .debug_str     0x00002ad4       0x3f mesh/bootloader/CMakeFiles/mesh_bootloader_gccarmemb_nrf52832_xxAA.dir/src/bootloader_util.c.obj
                                0x5fc (size before relaxing)
 .debug_str     0x00002b13      0x182 mesh/bootloader/CMakeFiles/mesh_bootloader_gccarmemb_nrf52832_xxAA.dir/src/dfu_bank.c.obj
                               0x179d (size before relaxing)
 .debug_str     0x00002c95      0x7f4 mesh/bootloader/CMakeFiles/mesh_bootloader_gccarmemb_nrf52832_xxAA.dir/src/dfu_mesh.c.obj
                               0x1b94 (size before relaxing)
 .debug_str     0x00003489      0x114 mesh/bootloader/CMakeFiles/mesh_bootloader_gccarmemb_nrf52832_xxAA.dir/src/dfu_transfer_mesh.c.obj
                                0xa2c (size before relaxing)
 .debug_str     0x0000359d      0x140 mesh/bootloader/CMakeFiles/mesh_bootloader_gccarmemb_nrf52832_xxAA.dir/src/dfu_util.c.obj
                               0x10ff (size before relaxing)
 .debug_str     0x000036dd       0x68 mesh/bootloader/CMakeFiles/mesh_bootloader_gccarmemb_nrf52832_xxAA.dir/src/fifo.c.obj
                                0x6eb (size before relaxing)
 .debug_str     0x00003745      0x1bd mesh/bootloader/CMakeFiles/mesh_bootloader_gccarmemb_nrf52832_xxAA.dir/src/main.c.obj
                                0xe8b (size before relaxing)
 .debug_str     0x00003902      0x17a mesh/bootloader/CMakeFiles/mesh_bootloader_gccarmemb_nrf52832_xxAA.dir/src/mesh_packet.c.obj
                                0xac3 (size before relaxing)
 .debug_str     0x00003a7c       0x9a mesh/bootloader/CMakeFiles/mesh_bootloader_gccarmemb_nrf52832_xxAA.dir/src/nrf_flash.c.obj
                                0x3fa (size before relaxing)
 .debug_str     0x00003b16      0x453 mesh/bootloader/CMakeFiles/mesh_bootloader_gccarmemb_nrf52832_xxAA.dir/src/radio_control.c.obj
                                0xede (size before relaxing)
 .debug_str     0x00003f69       0x7d mesh/bootloader/CMakeFiles/mesh_bootloader_gccarmemb_nrf52832_xxAA.dir/src/rand.c.obj
                                0x2fd (size before relaxing)
 .debug_str     0x00003fe6      0x1b7 mesh/bootloader/CMakeFiles/mesh_bootloader_gccarmemb_nrf52832_xxAA.dir/src/transport.c.obj
                                0xfdf (size before relaxing)
 .debug_str     0x0000419d      0x2a3 mesh/bootloader/CMakeFiles/mesh_bootloader_gccarmemb_nrf52832_xxAA.dir/src/uECC.c.obj
                                0x4c1 (size before relaxing)
 .debug_str     0x00004440       0x7a mesh/bootloader/CMakeFiles/mesh_bootloader_gccarmemb_nrf52832_xxAA.dir/C_/dev/mesh_dep/nRF5_SDK_16.0.0_98a08e2/components/libraries/sha256/sha256.c.obj
                                0x6f2 (size before relaxing)
 .debug_str     0x000044ba      0x124 mesh/bootloader/CMakeFiles/mesh_bootloader_gccarmemb_nrf52832_xxAA.dir/C_/dev/mesh_dep/nRF5_SDK_16.0.0_98a08e2/modules/nrfx/mdk/system_nrf52.c.obj
                                0x796 (size before relaxing)

.debug_frame    0x00000000     0x14d4
 .debug_frame   0x00000000      0x13c mesh/bootloader/CMakeFiles/mesh_bootloader_gccarmemb_nrf52832_xxAA.dir/src/bootloader.c.obj
 .debug_frame   0x0000013c      0x130 mesh/bootloader/CMakeFiles/mesh_bootloader_gccarmemb_nrf52832_xxAA.dir/src/bootloader_app_bridge.c.obj
 .debug_frame   0x0000026c      0x230 mesh/bootloader/CMakeFiles/mesh_bootloader_gccarmemb_nrf52832_xxAA.dir/src/bootloader_info.c.obj
 .debug_frame   0x0000049c       0x40 mesh/bootloader/CMakeFiles/mesh_bootloader_gccarmemb_nrf52832_xxAA.dir/src/bootloader_rtc.c.obj
 .debug_frame   0x000004dc       0x30 mesh/bootloader/CMakeFiles/mesh_bootloader_gccarmemb_nrf52832_xxAA.dir/src/bootloader_util.c.obj
 .debug_frame   0x0000050c       0xbc mesh/bootloader/CMakeFiles/mesh_bootloader_gccarmemb_nrf52832_xxAA.dir/src/dfu_bank.c.obj
 .debug_frame   0x000005c8      0x280 mesh/bootloader/CMakeFiles/mesh_bootloader_gccarmemb_nrf52832_xxAA.dir/src/dfu_mesh.c.obj
 .debug_frame   0x00000848       0xf4 mesh/bootloader/CMakeFiles/mesh_bootloader_gccarmemb_nrf52832_xxAA.dir/src/dfu_transfer_mesh.c.obj
 .debug_frame   0x0000093c      0x1a0 mesh/bootloader/CMakeFiles/mesh_bootloader_gccarmemb_nrf52832_xxAA.dir/src/dfu_util.c.obj
 .debug_frame   0x00000adc       0xc8 mesh/bootloader/CMakeFiles/mesh_bootloader_gccarmemb_nrf52832_xxAA.dir/src/fifo.c.obj
 .debug_frame   0x00000ba4       0x58 mesh/bootloader/CMakeFiles/mesh_bootloader_gccarmemb_nrf52832_xxAA.dir/src/main.c.obj
 .debug_frame   0x00000bfc      0x150 mesh/bootloader/CMakeFiles/mesh_bootloader_gccarmemb_nrf52832_xxAA.dir/src/mesh_packet.c.obj
 .debug_frame   0x00000d4c       0x50 mesh/bootloader/CMakeFiles/mesh_bootloader_gccarmemb_nrf52832_xxAA.dir/src/nrf_flash.c.obj
 .debug_frame   0x00000d9c       0xac mesh/bootloader/CMakeFiles/mesh_bootloader_gccarmemb_nrf52832_xxAA.dir/src/radio_control.c.obj
 .debug_frame   0x00000e48       0x5c mesh/bootloader/CMakeFiles/mesh_bootloader_gccarmemb_nrf52832_xxAA.dir/src/rand.c.obj
 .debug_frame   0x00000ea4      0x1d0 mesh/bootloader/CMakeFiles/mesh_bootloader_gccarmemb_nrf52832_xxAA.dir/src/transport.c.obj
 .debug_frame   0x00001074      0x22c mesh/bootloader/CMakeFiles/mesh_bootloader_gccarmemb_nrf52832_xxAA.dir/src/uECC.c.obj
 .debug_frame   0x000012a0       0x94 mesh/bootloader/CMakeFiles/mesh_bootloader_gccarmemb_nrf52832_xxAA.dir/C_/dev/mesh_dep/nRF5_SDK_16.0.0_98a08e2/components/libraries/sha256/sha256.c.obj
 .debug_frame   0x00001334       0x58 mesh/bootloader/CMakeFiles/mesh_bootloader_gccarmemb_nrf52832_xxAA.dir/C_/dev/mesh_dep/nRF5_SDK_16.0.0_98a08e2/modules/nrfx/mdk/system_nrf52.c.obj
 .debug_frame   0x0000138c       0x2c c:/progra~2/gnutoo~1/92019-~1/bin/../lib/gcc/arm-none-eabi/9.2.1/thumb/v7e-m+fp/hard\libgcc.a(_aeabi_uldivmod.o)
 .debug_frame   0x000013b8       0x34 c:/progra~2/gnutoo~1/92019-~1/bin/../lib/gcc/arm-none-eabi/9.2.1/thumb/v7e-m+fp/hard\libgcc.a(_udivmoddi4.o)
 .debug_frame   0x000013ec       0x28 c:/progra~2/gnutoo~1/92019-~1/bin/../lib/gcc/arm-none-eabi/9.2.1/../../../../arm-none-eabi/lib/thumb/v7e-m+fp/hard\libg_nano.a(lib_a-exit.o)
 .debug_frame   0x00001414       0x2c c:/progra~2/gnutoo~1/92019-~1/bin/../lib/gcc/arm-none-eabi/9.2.1/../../../../arm-none-eabi/lib/thumb/v7e-m+fp/hard\libg_nano.a(lib_a-init.o)
 .debug_frame   0x00001440       0x2c c:/progra~2/gnutoo~1/92019-~1/bin/../lib/gcc/arm-none-eabi/9.2.1/../../../../arm-none-eabi/lib/thumb/v7e-m+fp/hard\libg_nano.a(lib_a-memcmp.o)
 .debug_frame   0x0000146c       0x28 c:/progra~2/gnutoo~1/92019-~1/bin/../lib/gcc/arm-none-eabi/9.2.1/../../../../arm-none-eabi/lib/thumb/v7e-m+fp/hard\libg_nano.a(lib_a-memcpy-stub.o)
 .debug_frame   0x00001494       0x20 c:/progra~2/gnutoo~1/92019-~1/bin/../lib/gcc/arm-none-eabi/9.2.1/../../../../arm-none-eabi/lib/thumb/v7e-m+fp/hard\libg_nano.a(lib_a-memset.o)
 .debug_frame   0x000014b4       0x20 c:/progra~2/gnutoo~1/92019-~1/bin/../lib/gcc/arm-none-eabi/9.2.1/../../../../arm-none-eabi/lib/thumb/v7e-m+fp/hard\libnosys.a(_exit.o)
