Archive member included to satisfy reference by file (symbol)

c:/progra~2/gnutoo~1/72018-~1/bin/../lib/gcc/arm-none-eabi/7.3.1/thumb/v7e-m/fpv4-sp/hard\libgcc.a(_aeabi_ldivmod.o)
                              mesh/bootloader/CMakeFiles/mesh_bootloader_serial_gccarmemb_nrf52840_xxAA.dir/src/bootloader.c.obj (__aeabi_ldivmod)
c:/progra~2/gnutoo~1/72018-~1/bin/../lib/gcc/arm-none-eabi/7.3.1/thumb/v7e-m/fpv4-sp/hard\libgcc.a(_aeabi_uldivmod.o)
                              mesh/bootloader/CMakeFiles/mesh_bootloader_serial_gccarmemb_nrf52840_xxAA.dir/src/bootloader.c.obj (__aeabi_uldivmod)
c:/progra~2/gnutoo~1/72018-~1/bin/../lib/gcc/arm-none-eabi/7.3.1/thumb/v7e-m/fpv4-sp/hard\libgcc.a(_udivmoddi4.o)
                              c:/progra~2/gnutoo~1/72018-~1/bin/../lib/gcc/arm-none-eabi/7.3.1/thumb/v7e-m/fpv4-sp/hard\libgcc.a(_aeabi_ldivmod.o) (__udivmoddi4)
c:/progra~2/gnutoo~1/72018-~1/bin/../lib/gcc/arm-none-eabi/7.3.1/thumb/v7e-m/fpv4-sp/hard\libgcc.a(_dvmd_tls.o)
                              c:/progra~2/gnutoo~1/72018-~1/bin/../lib/gcc/arm-none-eabi/7.3.1/thumb/v7e-m/fpv4-sp/hard\libgcc.a(_aeabi_ldivmod.o) (__aeabi_ldiv0)
c:/progra~2/gnutoo~1/72018-~1/bin/../lib/gcc/arm-none-eabi/7.3.1/../../../../arm-none-eabi/lib/thumb/v7e-m/fpv4-sp/hard\libg_nano.a(lib_a-exit.o)
                              c:/progra~2/gnutoo~1/72018-~1/bin/../lib/gcc/arm-none-eabi/7.3.1/../../../../arm-none-eabi/lib/thumb/v7e-m/fpv4-sp/hard/crt0.o (exit)
c:/progra~2/gnutoo~1/72018-~1/bin/../lib/gcc/arm-none-eabi/7.3.1/../../../../arm-none-eabi/lib/thumb/v7e-m/fpv4-sp/hard\libg_nano.a(lib_a-impure.o)
                              c:/progra~2/gnutoo~1/72018-~1/bin/../lib/gcc/arm-none-eabi/7.3.1/../../../../arm-none-eabi/lib/thumb/v7e-m/fpv4-sp/hard\libg_nano.a(lib_a-exit.o) (_global_impure_ptr)
c:/progra~2/gnutoo~1/72018-~1/bin/../lib/gcc/arm-none-eabi/7.3.1/../../../../arm-none-eabi/lib/thumb/v7e-m/fpv4-sp/hard\libg_nano.a(lib_a-init.o)
                              c:/progra~2/gnutoo~1/72018-~1/bin/../lib/gcc/arm-none-eabi/7.3.1/../../../../arm-none-eabi/lib/thumb/v7e-m/fpv4-sp/hard/crt0.o (__libc_init_array)
c:/progra~2/gnutoo~1/72018-~1/bin/../lib/gcc/arm-none-eabi/7.3.1/../../../../arm-none-eabi/lib/thumb/v7e-m/fpv4-sp/hard\libg_nano.a(lib_a-memcmp.o)
                              mesh/bootloader/CMakeFiles/mesh_bootloader_serial_gccarmemb_nrf52840_xxAA.dir/src/dfu_bank.c.obj (memcmp)
c:/progra~2/gnutoo~1/72018-~1/bin/../lib/gcc/arm-none-eabi/7.3.1/../../../../arm-none-eabi/lib/thumb/v7e-m/fpv4-sp/hard\libg_nano.a(lib_a-memcpy-stub.o)
                              mesh/bootloader/CMakeFiles/mesh_bootloader_serial_gccarmemb_nrf52840_xxAA.dir/src/bootloader.c.obj (memcpy)
c:/progra~2/gnutoo~1/72018-~1/bin/../lib/gcc/arm-none-eabi/7.3.1/../../../../arm-none-eabi/lib/thumb/v7e-m/fpv4-sp/hard\libg_nano.a(lib_a-memset.o)
                              c:/progra~2/gnutoo~1/72018-~1/bin/../lib/gcc/arm-none-eabi/7.3.1/../../../../arm-none-eabi/lib/thumb/v7e-m/fpv4-sp/hard/crt0.o (memset)
c:/progra~2/gnutoo~1/72018-~1/bin/../lib/gcc/arm-none-eabi/7.3.1/../../../../arm-none-eabi/lib/thumb/v7e-m/fpv4-sp/hard\libnosys.a(_exit.o)
                              c:/progra~2/gnutoo~1/72018-~1/bin/../lib/gcc/arm-none-eabi/7.3.1/../../../../arm-none-eabi/lib/thumb/v7e-m/fpv4-sp/hard\libg_nano.a(lib_a-exit.o) (_exit)

Allocating common symbols
Common symbol       size              file

m_tx_evt_bitfield   0x2               mesh/bootloader/CMakeFiles/mesh_bootloader_serial_gccarmemb_nrf52840_xxAA.dir/src/transport.c.obj

Discarded input sections

 .text          0x00000000        0x0 c:/progra~2/gnutoo~1/72018-~1/bin/../lib/gcc/arm-none-eabi/7.3.1/thumb/v7e-m/fpv4-sp/hard/crti.o
 .data          0x00000000        0x0 c:/progra~2/gnutoo~1/72018-~1/bin/../lib/gcc/arm-none-eabi/7.3.1/thumb/v7e-m/fpv4-sp/hard/crti.o
 .bss           0x00000000        0x0 c:/progra~2/gnutoo~1/72018-~1/bin/../lib/gcc/arm-none-eabi/7.3.1/thumb/v7e-m/fpv4-sp/hard/crti.o
 .data          0x00000000        0x4 c:/progra~2/gnutoo~1/72018-~1/bin/../lib/gcc/arm-none-eabi/7.3.1/thumb/v7e-m/fpv4-sp/hard/crtbegin.o
 .data          0x00000000        0x0 c:/progra~2/gnutoo~1/72018-~1/bin/../lib/gcc/arm-none-eabi/7.3.1/../../../../arm-none-eabi/lib/thumb/v7e-m/fpv4-sp/hard/crt0.o
 .bss           0x00000000        0x0 c:/progra~2/gnutoo~1/72018-~1/bin/../lib/gcc/arm-none-eabi/7.3.1/../../../../arm-none-eabi/lib/thumb/v7e-m/fpv4-sp/hard/crt0.o
 .ARM.extab     0x00000000        0x0 c:/progra~2/gnutoo~1/72018-~1/bin/../lib/gcc/arm-none-eabi/7.3.1/../../../../arm-none-eabi/lib/thumb/v7e-m/fpv4-sp/hard/crt0.o
 .text          0x00000000        0x0 mesh/bootloader/CMakeFiles/mesh_bootloader_serial_gccarmemb_nrf52840_xxAA.dir/src/bootloader.c.obj
 .data          0x00000000        0x0 mesh/bootloader/CMakeFiles/mesh_bootloader_serial_gccarmemb_nrf52840_xxAA.dir/src/bootloader.c.obj
 .bss           0x00000000        0x0 mesh/bootloader/CMakeFiles/mesh_bootloader_serial_gccarmemb_nrf52840_xxAA.dir/src/bootloader.c.obj
 .text          0x00000000        0x0 mesh/bootloader/CMakeFiles/mesh_bootloader_serial_gccarmemb_nrf52840_xxAA.dir/src/bootloader_app_bridge.c.obj
 .data          0x00000000        0x0 mesh/bootloader/CMakeFiles/mesh_bootloader_serial_gccarmemb_nrf52840_xxAA.dir/src/bootloader_app_bridge.c.obj
 .bss           0x00000000        0x0 mesh/bootloader/CMakeFiles/mesh_bootloader_serial_gccarmemb_nrf52840_xxAA.dir/src/bootloader_app_bridge.c.obj
 .text.timer_set
                0x00000000       0x1c mesh/bootloader/CMakeFiles/mesh_bootloader_serial_gccarmemb_nrf52840_xxAA.dir/src/bootloader_app_bridge.c.obj
 .text.timer_abort
                0x00000000       0x1a mesh/bootloader/CMakeFiles/mesh_bootloader_serial_gccarmemb_nrf52840_xxAA.dir/src/bootloader_app_bridge.c.obj
 .text.bootloader_error_post
Memory Configuration

Name             Origin             Length             Attributes
FLASH            0x000f8000         0x00006000         xr
RAM              0x20000004         0x0003fcfc         rw
CORE_BL_RAM      0x2003fd00         0x00000300         rw
UICR_BOOTADDR    0x10001014         0x00000004         r
UICR_MBRPARAMADDR 0x10001018         0x00000004         r
*default*        0x00000000         0xffffffff

Linker script and memory map

LOAD c:/progra~2/gnutoo~1/72018-~1/bin/../lib/gcc/arm-none-eabi/7.3.1/thumb/v7e-m/fpv4-sp/hard/crti.o
LOAD c:/progra~2/gnutoo~1/72018-~1/bin/../lib/gcc/arm-none-eabi/7.3.1/thumb/v7e-m/fpv4-sp/hard/crtbegin.o
LOAD c:/progra~2/gnutoo~1/72018-~1/bin/../lib/gcc/arm-none-eabi/7.3.1/../../../../arm-none-eabi/lib/thumb/v7e-m/fpv4-sp/hard/crt0.o
LOAD mesh/bootloader/CMakeFiles/mesh_bootloader_serial_gccarmemb_nrf52840_xxAA.dir/src/bootloader.c.obj
LOAD mesh/bootloader/CMakeFiles/mesh_bootloader_serial_gccarmemb_nrf52840_xxAA.dir/src/bootloader_app_bridge.c.obj
LOAD mesh/bootloader/CMakeFiles/mesh_bootloader_serial_gccarmemb_nrf52840_xxAA.dir/src/bootloader_info.c.obj
LOAD mesh/bootloader/CMakeFiles/mesh_bootloader_serial_gccarmemb_nrf52840_xxAA.dir/src/bootloader_rtc.c.obj
LOAD mesh/bootloader/CMakeFiles/mesh_bootloader_serial_gccarmemb_nrf52840_xxAA.dir/src/bootloader_util.c.obj
LOAD mesh/bootloader/CMakeFiles/mesh_bootloader_serial_gccarmemb_nrf52840_xxAA.dir/src/dfu_bank.c.obj
LOAD mesh/bootloader/CMakeFiles/mesh_bootloader_serial_gccarmemb_nrf52840_xxAA.dir/src/dfu_mesh.c.obj
LOAD mesh/bootloader/CMakeFiles/mesh_bootloader_serial_gccarmemb_nrf52840_xxAA.dir/src/dfu_transfer_mesh.c.obj
LOAD mesh/bootloader/CMakeFiles/mesh_bootloader_serial_gccarmemb_nrf52840_xxAA.dir/src/dfu_util.c.obj
LOAD mesh/bootloader/CMakeFiles/mesh_bootloader_serial_gccarmemb_nrf52840_xxAA.dir/src/fifo.c.obj
LOAD mesh/bootloader/CMakeFiles/mesh_bootloader_serial_gccarmemb_nrf52840_xxAA.dir/src/main.c.obj
LOAD mesh/bootloader/CMakeFiles/mesh_bootloader_serial_gccarmemb_nrf52840_xxAA.dir/src/mesh_packet.c.obj
LOAD mesh/bootloader/CMakeFiles/mesh_bootloader_serial_gccarmemb_nrf52840_xxAA.dir/src/nrf_flash.c.obj
LOAD mesh/bootloader/CMakeFiles/mesh_bootloader_serial_gccarmemb_nrf52840_xxAA.dir/src/radio_control.c.obj
LOAD mesh/bootloader/CMakeFiles/mesh_bootloader_serial_gccarmemb_nrf52840_xxAA.dir/src/rand.c.obj
LOAD mesh/bootloader/CMakeFiles/mesh_bootloader_serial_gccarmemb_nrf52840_xxAA.dir/src/transport.c.obj
LOAD mesh/bootloader/CMakeFiles/mesh_bootloader_serial_gccarmemb_nrf52840_xxAA.dir/src/uECC.c.obj
LOAD mesh/bootloader/CMakeFiles/mesh_bootloader_serial_gccarmemb_nrf52840_xxAA.dir/C_/dev/mesh_dep/nRF5_SDK_16.0.0_98a08e2/components/libraries/sha256/sha256.c.obj
LOAD mesh/bootloader/CMakeFiles/mesh_bootloader_serial_gccarmemb_nrf52840_xxAA.dir/src/serial_handler_uart.c.obj
LOAD mesh/bootloader/CMakeFiles/mesh_bootloader_serial_gccarmemb_nrf52840_xxAA.dir/src/mesh_aci.c.obj
LOAD mesh/bootloader/CMakeFiles/mesh_bootloader_serial_gccarmemb_nrf52840_xxAA.dir/C_/dev/mesh_dep/nRF5_SDK_16.0.0_98a08e2/modules/nrfx/mdk/system_nrf52840.c.obj
LOAD mesh/bootloader/CMakeFiles/mesh_bootloader_serial_gccarmemb_nrf52840_xxAA.dir/C_/dev/mesh_dep/nRF5_SDK_16.0.0_98a08e2/modules/nrfx/mdk/gcc_startup_nrf52840.S.obj
LOAD external/rtt/librtt_nrf52840_xxAA.a
START GROUP
LOAD c:/progra~2/gnutoo~1/72018-~1/bin/../lib/gcc/arm-none-eabi/7.3.1/thumb/v7e-m/fpv4-sp/hard\libgcc.a
LOAD c:/progra~2/gnutoo~1/72018-~1/bin/../lib/gcc/arm-none-eabi/7.3.1/../../../../arm-none-eabi/lib/thumb/v7e-m/fpv4-sp/hard\libg_nano.a
LOAD c:/progra~2/gnutoo~1/72018-~1/bin/../lib/gcc/arm-none-eabi/7.3.1/../../../../arm-none-eabi/lib/thumb/v7e-m/fpv4-sp/hard\libc_nano.a
END GROUP
START GROUP
LOAD c:/progra~2/gnutoo~1/72018-~1/bin/../lib/gcc/arm-none-eabi/7.3.1/thumb/v7e-m/fpv4-sp/hard\libgcc.a
LOAD c:/progra~2/gnutoo~1/72018-~1/bin/../lib/gcc/arm-none-eabi/7.3.1/../../../../arm-none-eabi/lib/thumb/v7e-m/fpv4-sp/hard\libc_nano.a
END GROUP
LOAD c:/progra~2/gnutoo~1/72018-~1/bin/../lib/gcc/arm-none-eabi/7.3.1/thumb/v7e-m/fpv4-sp/hard/crtend.o
LOAD c:/progra~2/gnutoo~1/72018-~1/bin/../lib/gcc/arm-none-eabi/7.3.1/thumb/v7e-m/fpv4-sp/hard/crtn.o
START GROUP
LOAD c:/progra~2/gnutoo~1/72018-~1/bin/../lib/gcc/arm-none-eabi/7.3.1/thumb/v7e-m/fpv4-sp/hard\libgcc.a
LOAD c:/progra~2/gnutoo~1/72018-~1/bin/../lib/gcc/arm-none-eabi/7.3.1/../../../../arm-none-eabi/lib/thumb/v7e-m/fpv4-sp/hard\libc.a
LOAD c:/progra~2/gnutoo~1/72018-~1/bin/../lib/gcc/arm-none-eabi/7.3.1/../../../../arm-none-eabi/lib/thumb/v7e-m/fpv4-sp/hard\libnosys.a
END GROUP

.core_data      0x2003fd00        0x4
                0x2003fd00                __core_ram_start__ = .
                0x2003fd00                . = ALIGN (0x4)
 *sha256.c.obj(.data*)
 *bootloader_app_bridge.c.obj(.data*)
 *bootloader_info.c.obj(.data*)
 *uECC.c.obj(.data*)
 *dfu_mesh.c.obj(.data*)
 .data.m_state  0x2003fd00        0x1 mesh/bootloader/CMakeFiles/mesh_bootloader_serial_gccarmemb_nrf52840_xxAA.dir/src/dfu_mesh.c.obj
 .data.tx_slot.11765
                0x2003fd01        0x1 mesh/bootloader/CMakeFiles/mesh_bootloader_serial_gccarmemb_nrf52840_xxAA.dir/src/dfu_mesh.c.obj
 *dfu_transfer_mesh.c.obj(.data*)
 *dfu_bank.c.obj(.data*)
 *dfu_util.c.obj(.data*)
                0x2003fd04                . = ALIGN (0x4)
 *fill*         0x2003fd02        0x2 
                0x2003fd04                __core_ram_end__ = .

.core_bss       0x2003fd08      0x218
                0x2003fd08                __core_ram_start__ = .
                0x2003fd08                . = ALIGN (0x4)
 *sha256.c.obj(.bss*)
 *bootloader_app_bridge.c.obj(.bss*)
 .bss.m_evt_handler
                0x2003fd08        0x4 mesh/bootloader/CMakeFiles/mesh_bootloader_serial_gccarmemb_nrf52840_xxAA.dir/src/bootloader_app_bridge.c.obj
 .bss.m_in_bl   0x2003fd0c        0x1 mesh/bootloader/CMakeFiles/mesh_bootloader_serial_gccarmemb_nrf52840_xxAA.dir/src/bootloader_app_bridge.c.obj
 *bootloader_info.c.obj(.bss*)
 *fill*         0x2003fd0d        0x3 
 .bss.m_info_copy
                0x2003fd10       0x1c mesh/bootloader/CMakeFiles/mesh_bootloader_serial_gccarmemb_nrf52840_xxAA.dir/src/bootloader_info.c.obj
 .bss.m_state   0x2003fd2c        0x1 mesh/bootloader/CMakeFiles/mesh_bootloader_serial_gccarmemb_nrf52840_xxAA.dir/src/bootloader_info.c.obj
 .bss.m_write_in_progress
                0x2003fd2d        0x1 mesh/bootloader/CMakeFiles/mesh_bootloader_serial_gccarmemb_nrf52840_xxAA.dir/src/bootloader_info.c.obj
 *fill*         0x2003fd2e        0x2 
 .bss.mp_bl_info_bank_page
                0x2003fd30        0x4 mesh/bootloader/CMakeFiles/mesh_bootloader_serial_gccarmemb_nrf52840_xxAA.dir/src/bootloader_info.c.obj
 .bss.mp_bl_info_page
                0x2003fd34        0x4 mesh/bootloader/CMakeFiles/mesh_bootloader_serial_gccarmemb_nrf52840_xxAA.dir/src/bootloader_info.c.obj
 .bss.mp_info_entry_buffer
                0x2003fd38       0x80 mesh/bootloader/CMakeFiles/mesh_bootloader_serial_gccarmemb_nrf52840_xxAA.dir/src/bootloader_info.c.obj
 .bss.mp_info_entry_head
                0x2003fdb8        0x4 mesh/bootloader/CMakeFiles/mesh_bootloader_serial_gccarmemb_nrf52840_xxAA.dir/src/bootloader_info.c.obj
 .bss.mp_info_entry_tail
                0x2003fdbc        0x4 mesh/bootloader/CMakeFiles/mesh_bootloader_serial_gccarmemb_nrf52840_xxAA.dir/src/bootloader_info.c.obj
 .bss.mp_write_pos
                0x2003fdc0        0x4 mesh/bootloader/CMakeFiles/mesh_bootloader_serial_gccarmemb_nrf52840_xxAA.dir/src/bootloader_info.c.obj
 *uECC.c.obj(.bss*)
 *dfu_mesh.c.obj(.bss*)
 .bss.m_bl_info_pointers
                0x2003fdc4       0x28 mesh/bootloader/CMakeFiles/mesh_bootloader_serial_gccarmemb_nrf52840_xxAA.dir/src/dfu_mesh.c.obj
 .bss.m_data_req_segment
                0x2003fdec        0x2 mesh/bootloader/CMakeFiles/mesh_bootloader_serial_gccarmemb_nrf52840_xxAA.dir/src/dfu_mesh.c.obj
 .bss.m_lost_start_edge
                0x2003fdee        0x1 mesh/bootloader/CMakeFiles/mesh_bootloader_serial_gccarmemb_nrf52840_xxAA.dir/src/dfu_mesh.c.obj
 *fill*         0x2003fdef        0x1 
 .bss.m_req_cache
                0x2003fdf0       0x10 mesh/bootloader/CMakeFiles/mesh_bootloader_serial_gccarmemb_nrf52840_xxAA.dir/src/dfu_mesh.c.obj
 .bss.m_req_index
                0x2003fe00        0x1 mesh/bootloader/CMakeFiles/mesh_bootloader_serial_gccarmemb_nrf52840_xxAA.dir/src/dfu_mesh.c.obj
 *fill*         0x2003fe01        0x3 
 .bss.m_transaction
                0x2003fe04       0x74 mesh/bootloader/CMakeFiles/mesh_bootloader_serial_gccarmemb_nrf52840_xxAA.dir/src/dfu_mesh.c.obj
 .bss.m_tx_slots
                0x2003fe78        0x1 mesh/bootloader/CMakeFiles/mesh_bootloader_serial_gccarmemb_nrf52840_xxAA.dir/src/dfu_mesh.c.obj
 *dfu_transfer_mesh.c.obj(.bss*)
 *fill*         0x2003fe79        0x7 
 .bss.m_transfer
                0x2003fe80       0x30 mesh/bootloader/CMakeFiles/mesh_bootloader_serial_gccarmemb_nrf52840_xxAA.dir/src/dfu_transfer_mesh.c.obj
 *dfu_bank.c.obj(.bss*)
 .bss.m_dfu_type
                0x2003feb0        0x1 mesh/bootloader/CMakeFiles/mesh_bootloader_serial_gccarmemb_nrf52840_xxAA.dir/src/dfu_bank.c.obj
 .bss.m_waiting_for_idle
                0x2003feb1        0x1 mesh/bootloader/CMakeFiles/mesh_bootloader_serial_gccarmemb_nrf52840_xxAA.dir/src/dfu_bank.c.obj
 *fill*         0x2003feb2        0x2 
 .bss.mp_bank_entry
                0x2003feb4        0x4 mesh/bootloader/CMakeFiles/mesh_bootloader_serial_gccarmemb_nrf52840_xxAA.dir/src/dfu_bank.c.obj
 *dfu_util.c.obj(.bss*)
 .bss.m_packet_cache
                0x2003feb8       0x40 mesh/bootloader/CMakeFiles/mesh_bootloader_serial_gccarmemb_nrf52840_xxAA.dir/src/dfu_util.c.obj
 .bss.m_packet_cache_index
                0x2003fef8        0x4 mesh/bootloader/CMakeFiles/mesh_bootloader_serial_gccarmemb_nrf52840_xxAA.dir/src/dfu_util.c.obj
 .bss.m_tid_cache
                0x2003fefc       0x20 mesh/bootloader/CMakeFiles/mesh_bootloader_serial_gccarmemb_nrf52840_xxAA.dir/src/dfu_util.c.obj
 .bss.m_tid_index
                0x2003ff1c        0x1 mesh/bootloader/CMakeFiles/mesh_bootloader_serial_gccarmemb_nrf52840_xxAA.dir/src/dfu_util.c.obj
                0x2003ff20                . = ALIGN (0x4)
 *fill*         0x2003ff1d        0x3 
                0x2003ff20                __core_ram_end__ = .

.uicrBootStartAddress
                0x10001014        0x4
 *(.uicrBootStartAddress)
 .uicrBootStartAddress
                0x10001014        0x4 mesh/bootloader/CMakeFiles/mesh_bootloader_serial_gccarmemb_nrf52840_xxAA.dir/src/main.c.obj
                0x10001014                m_uicr_bootloader_start_address

.uicrBootMBRParamAddress
                0x10001018        0x4
 *(.uicrBootMBRParamAddress)
 .uicrBootMBRParamAddress
                0x10001018        0x4 mesh/bootloader/CMakeFiles/mesh_bootloader_serial_gccarmemb_nrf52840_xxAA.dir/src/main.c.obj
                0x10001018                m_uicr_bootloader_mbrparam_address

.text           0x000f8000     0x503c
 *(.isr_vector)
 .isr_vector    0x000f8000      0x200 mesh/bootloader/CMakeFiles/mesh_bootloader_serial_gccarmemb_nrf52840_xxAA.dir/C_/dev/mesh_dep/nRF5_SDK_16.0.0_98a08e2/modules/nrfx/mdk/gcc_startup_nrf52840.S.obj
                0x000f8000                __isr_vector
 *(.text*)
 .text          0x000f8200       0x40 c:/progra~2/gnutoo~1/72018-~1/bin/../lib/gcc/arm-none-eabi/7.3.1/thumb/v7e-m/fpv4-sp/hard/crtbegin.o
 .text          0x000f8240       0x74 c:/progra~2/gnutoo~1/72018-~1/bin/../lib/gcc/arm-none-eabi/7.3.1/../../../../arm-none-eabi/lib/thumb/v7e-m/fpv4-sp/hard/crt0.o
                0x000f8240                _start
                0x000f8240                _mainCRTStartup
 .text.unlikely.sd_softdevice_vector_table_base_set
                0x000f82b4        0x4 mesh/bootloader/CMakeFiles/mesh_bootloader_serial_gccarmemb_nrf52840_xxAA.dir/src/bootloader.c.obj
 .text.unlikely.sd_mbr_command
                0x000f82b8        0x4 mesh/bootloader/CMakeFiles/mesh_bootloader_serial_gccarmemb_nrf52840_xxAA.dir/src/bootloader.c.obj
 .text.set_timeout
                0x000f82bc       0x2c mesh/bootloader/CMakeFiles/mesh_bootloader_serial_gccarmemb_nrf52840_xxAA.dir/src/bootloader.c.obj
 .text.rx_cb    0x000f82e8       0x2e mesh/bootloader/CMakeFiles/mesh_bootloader_serial_gccarmemb_nrf52840_xxAA.dir/src/bootloader.c.obj
 .text.SWI2_EGU2_IRQHandler
                0x000f8316        0x4 mesh/bootloader/CMakeFiles/mesh_bootloader_serial_gccarmemb_nrf52840_xxAA.dir/src/bootloader.c.obj
                0x000f8316                SWI2_EGU2_IRQHandler
 *fill*         0x000f831a        0x2 
 .text.SWI3_EGU3_IRQHandler
                0x000f831c       0xd8 mesh/bootloader/CMakeFiles/mesh_bootloader_serial_gccarmemb_nrf52840_xxAA.dir/src/bootloader.c.obj
                0x000f831c                SWI3_EGU3_IRQHandler
 .text.bootloader_init
                0x000f83f4       0xa0 mesh/bootloader/CMakeFiles/mesh_bootloader_serial_gccarmemb_nrf52840_xxAA.dir/src/bootloader.c.obj
                0x000f83f4                bootloader_init
 .text.bootloader_enable
                0x000f8494       0xe0 mesh/bootloader/CMakeFiles/mesh_bootloader_serial_gccarmemb_nrf52840_xxAA.dir/src/bootloader.c.obj
                0x000f8494                bootloader_enable
 .text.bootloader_cmd_send
                0x000f8574        0x4 mesh/bootloader/CMakeFiles/mesh_bootloader_serial_gccarmemb_nrf52840_xxAA.dir/src/bootloader.c.obj
                0x000f8574                bootloader_cmd_send
 .text.bootloader_abort
                0x000f8578       0x84 mesh/bootloader/CMakeFiles/mesh_bootloader_serial_gccarmemb_nrf52840_xxAA.dir/src/bootloader.c.obj
                0x000f8578                bootloader_abort
 .text.bl_evt_handler
                0x000f85fc      0x264 mesh/bootloader/CMakeFiles/mesh_bootloader_serial_gccarmemb_nrf52840_xxAA.dir/src/bootloader.c.obj
 .text.bootloader_timeout
                0x000f8860       0x4c mesh/bootloader/CMakeFiles/mesh_bootloader_serial_gccarmemb_nrf52840_xxAA.dir/src/bootloader.c.obj
                0x000f8860                bootloader_timeout
 .text.bl_cmd_handler
                0x000f88ac      0x148 mesh/bootloader/CMakeFiles/mesh_bootloader_serial_gccarmemb_nrf52840_xxAA.dir/src/bootloader_app_bridge.c.obj
                0x000f88ac                bl_cmd_handler
 .text.bootloader_app_bridge_init
                0x000f89f4       0x28 mesh/bootloader/CMakeFiles/mesh_bootloader_serial_gccarmemb_nrf52840_xxAA.dir/src/bootloader_app_bridge.c.obj
                0x000f89f4                bootloader_app_bridge_init
 .text.bootloader_evt_send
                0x000f8a1c       0x10 mesh/bootloader/CMakeFiles/mesh_bootloader_serial_gccarmemb_nrf52840_xxAA.dir/src/bootloader_app_bridge.c.obj
                0x000f8a1c                bootloader_evt_send
 .text.send_end_evt
                0x000f8a2c       0x1a mesh/bootloader/CMakeFiles/mesh_bootloader_serial_gccarmemb_nrf52840_xxAA.dir/src/bootloader_app_bridge.c.obj
                0x000f8a2c                send_end_evt
 .text.flash_write
                0x000f8a46       0x2a mesh/bootloader/CMakeFiles/mesh_bootloader_serial_gccarmemb_nrf52840_xxAA.dir/src/bootloader_app_bridge.c.obj
                0x000f8a46                flash_write
 .text.flash_erase
                0x000f8a70       0x26 mesh/bootloader/CMakeFiles/mesh_bootloader_serial_gccarmemb_nrf52840_xxAA.dir/src/bootloader_app_bridge.c.obj
                0x000f8a70                flash_erase
 .text.tx_abort
                0x000f8a96       0x1a mesh/bootloader/CMakeFiles/mesh_bootloader_serial_gccarmemb_nrf52840_xxAA.dir/src/bootloader_app_bridge.c.obj
                0x000f8a96                tx_abort
 .text.bootloader_is_in_application
                0x000f8ab0       0x10 mesh/bootloader/CMakeFiles/mesh_bootloader_serial_gccarmemb_nrf52840_xxAA.dir/src/bootloader_app_bridge.c.obj
                0x000f8ab0                bootloader_is_in_application
 .text.info_entry_get
                0x000f8ac0       0x40 mesh/bootloader/CMakeFiles/mesh_bootloader_serial_gccarmemb_nrf52840_xxAA.dir/src/bootloader_info.c.obj
 .text.bootloader_info_header_get
                0x000f8b00       0x1c mesh/bootloader/CMakeFiles/mesh_bootloader_serial_gccarmemb_nrf52840_xxAA.dir/src/bootloader_info.c.obj
 .text.bootloader_info_first_unused_get
                0x000f8b1c       0x16 mesh/bootloader/CMakeFiles/mesh_bootloader_serial_gccarmemb_nrf52840_xxAA.dir/src/bootloader_info.c.obj
 *fill*         0x000f8b32        0x2 
 .text.entry_header_invalidate
                0x000f8b34       0x20 mesh/bootloader/CMakeFiles/mesh_bootloader_serial_gccarmemb_nrf52840_xxAA.dir/src/bootloader_info.c.obj
 .text.copy_page_write_meta
                0x000f8b54       0x20 mesh/bootloader/CMakeFiles/mesh_bootloader_serial_gccarmemb_nrf52840_xxAA.dir/src/bootloader_info.c.obj
 .text.copy_page_write_next_data
                0x000f8b74       0x74 mesh/bootloader/CMakeFiles/mesh_bootloader_serial_gccarmemb_nrf52840_xxAA.dir/src/bootloader_info.c.obj
 .text.copy_page
                0x000f8be8       0x34 mesh/bootloader/CMakeFiles/mesh_bootloader_serial_gccarmemb_nrf52840_xxAA.dir/src/bootloader_info.c.obj
 .text.place_head_after_entry.constprop.1
                0x000f8c1c       0x40 mesh/bootloader/CMakeFiles/mesh_bootloader_serial_gccarmemb_nrf52840_xxAA.dir/src/bootloader_info.c.obj
 .text.entry_invalidate
                0x000f8c5c       0x34 mesh/bootloader/CMakeFiles/mesh_bootloader_serial_gccarmemb_nrf52840_xxAA.dir/src/bootloader_info.c.obj
                0x000f8c5c                entry_invalidate
 .text.entry_write
                0x000f8c90       0xf8 mesh/bootloader/CMakeFiles/mesh_bootloader_serial_gccarmemb_nrf52840_xxAA.dir/src/bootloader_info.c.obj
                0x000f8c90                entry_write
 .text.bootloader_info_init
                0x000f8d88       0xc8 mesh/bootloader/CMakeFiles/mesh_bootloader_serial_gccarmemb_nrf52840_xxAA.dir/src/bootloader_info.c.obj
                0x000f8d88                bootloader_info_init
 .text.bootloader_info_entry_get
                0x000f8e50        0xa mesh/bootloader/CMakeFiles/mesh_bootloader_serial_gccarmemb_nrf52840_xxAA.dir/src/bootloader_info.c.obj
                0x000f8e50                bootloader_info_entry_get
 .text.bootloader_info_entry_overwrite
                0x000f8e5a       0x2a mesh/bootloader/CMakeFiles/mesh_bootloader_serial_gccarmemb_nrf52840_xxAA.dir/src/bootloader_info.c.obj
                0x000f8e5a                bootloader_info_entry_overwrite
 .text.bootloader_info_entry_invalidate
                0x000f8e84        0xa mesh/bootloader/CMakeFiles/mesh_bootloader_serial_gccarmemb_nrf52840_xxAA.dir/src/bootloader_info.c.obj
                0x000f8e84                bootloader_info_entry_invalidate
 *fill*         0x000f8e8e        0x2 
 .text.bootloader_info_reset
                0x000f8e90       0x40 mesh/bootloader/CMakeFiles/mesh_bootloader_serial_gccarmemb_nrf52840_xxAA.dir/src/bootloader_info.c.obj
                0x000f8e90                bootloader_info_reset
 .text.bootloader_info_entry_put
                0x000f8ed0       0xd0 mesh/bootloader/CMakeFiles/mesh_bootloader_serial_gccarmemb_nrf52840_xxAA.dir/src/bootloader_info.c.obj
                0x000f8ed0                bootloader_info_entry_put
 .text.bootloader_info_stable
                0x000f8fa0       0x20 mesh/bootloader/CMakeFiles/mesh_bootloader_serial_gccarmemb_nrf52840_xxAA.dir/src/bootloader_info.c.obj
                0x000f8fa0                bootloader_info_stable
 .text.bootloader_info_on_flash_op_end
                0x000f8fc0      0x118 mesh/bootloader/CMakeFiles/mesh_bootloader_serial_gccarmemb_nrf52840_xxAA.dir/src/bootloader_info.c.obj
                0x000f8fc0                bootloader_info_on_flash_op_end
 .text.bootloader_info_on_flash_idle
                0x000f90d8       0x40 mesh/bootloader/CMakeFiles/mesh_bootloader_serial_gccarmemb_nrf52840_xxAA.dir/src/bootloader_info.c.obj
                0x000f90d8                bootloader_info_on_flash_idle
 .text.RTC0_IRQHandler
                0x000f9118       0x48 mesh/bootloader/CMakeFiles/mesh_bootloader_serial_gccarmemb_nrf52840_xxAA.dir/src/bootloader_rtc.c.obj
                0x000f9118                RTC0_IRQHandler
 .text.rtc_init
                0x000f9160       0x30 mesh/bootloader/CMakeFiles/mesh_bootloader_serial_gccarmemb_nrf52840_xxAA.dir/src/bootloader_rtc.c.obj
                0x000f9160                rtc_init
 .text.bootloader_util_app_start
                0x000f9190       0x3c mesh/bootloader/CMakeFiles/mesh_bootloader_serial_gccarmemb_nrf52840_xxAA.dir/src/bootloader_util.c.obj
                0x000f9190                bootloader_util_app_start
 .text.sd_mbr_command
                0x000f91cc        0x4 mesh/bootloader/CMakeFiles/mesh_bootloader_serial_gccarmemb_nrf52840_xxAA.dir/src/dfu_bank.c.obj
 .text.flash_bank_entry
                0x000f91d0      0x2c0 mesh/bootloader/CMakeFiles/mesh_bootloader_serial_gccarmemb_nrf52840_xxAA.dir/src/dfu_bank.c.obj
 .text.dfu_bank_scan
                0x000f9490       0x4c mesh/bootloader/CMakeFiles/mesh_bootloader_serial_gccarmemb_nrf52840_xxAA.dir/src/dfu_bank.c.obj
                0x000f9490                dfu_bank_scan
 .text.dfu_bank_flash
                0x000f94dc       0x48 mesh/bootloader/CMakeFiles/mesh_bootloader_serial_gccarmemb_nrf52840_xxAA.dir/src/dfu_bank.c.obj
                0x000f94dc                dfu_bank_flash
 .text.dfu_bank_on_flash_idle
                0x000f9524       0x20 mesh/bootloader/CMakeFiles/mesh_bootloader_serial_gccarmemb_nrf52840_xxAA.dir/src/dfu_bank.c.obj
                0x000f9524                dfu_bank_on_flash_idle
 .text.dfu_bank_transfer_in_progress
                0x000f9544       0x10 mesh/bootloader/CMakeFiles/mesh_bootloader_serial_gccarmemb_nrf52840_xxAA.dir/src/dfu_bank.c.obj
                0x000f9544                dfu_bank_transfer_in_progress
 .text.segment_count_from_start_packet
                0x000f9554       0x2c mesh/bootloader/CMakeFiles/mesh_bootloader_serial_gccarmemb_nrf52840_xxAA.dir/src/dfu_mesh.c.obj
 .text.get_info_pointers
                0x000f9580       0x68 mesh/bootloader/CMakeFiles/mesh_bootloader_serial_gccarmemb_nrf52840_xxAA.dir/src/dfu_mesh.c.obj
 .text.beacon_set
                0x000f95e8      0x104 mesh/bootloader/CMakeFiles/mesh_bootloader_serial_gccarmemb_nrf52840_xxAA.dir/src/dfu_mesh.c.obj
 .text.start_find_fwid
                0x000f96ec       0x24 mesh/bootloader/CMakeFiles/mesh_bootloader_serial_gccarmemb_nrf52840_xxAA.dir/src/dfu_mesh.c.obj
 .text.notify_state_packet
                0x000f9710       0x38 mesh/bootloader/CMakeFiles/mesh_bootloader_serial_gccarmemb_nrf52840_xxAA.dir/src/dfu_mesh.c.obj
 .text.packet_tx_dynamic.constprop.3
                0x000f9748       0x4c mesh/bootloader/CMakeFiles/mesh_bootloader_serial_gccarmemb_nrf52840_xxAA.dir/src/dfu_mesh.c.obj
 .text.relay_packet
                0x000f9794       0x30 mesh/bootloader/CMakeFiles/mesh_bootloader_serial_gccarmemb_nrf52840_xxAA.dir/src/dfu_mesh.c.obj
 .text.start_req
                0x000f97c4       0x58 mesh/bootloader/CMakeFiles/mesh_bootloader_serial_gccarmemb_nrf52840_xxAA.dir/src/dfu_mesh.c.obj
 .text.handle_data_packet
                0x000f981c      0x550 mesh/bootloader/CMakeFiles/mesh_bootloader_serial_gccarmemb_nrf52840_xxAA.dir/src/dfu_mesh.c.obj
 .text.dfu_mesh_init
                0x000f9d6c       0x44 mesh/bootloader/CMakeFiles/mesh_bootloader_serial_gccarmemb_nrf52840_xxAA.dir/src/dfu_mesh.c.obj
                0x000f9d6c                dfu_mesh_init
 .text.dfu_mesh_start
                0x000f9db0       0xe8 mesh/bootloader/CMakeFiles/mesh_bootloader_serial_gccarmemb_nrf52840_xxAA.dir/src/dfu_mesh.c.obj
                0x000f9db0                dfu_mesh_start
 .text.dfu_mesh_req
                0x000f9e98       0x34 mesh/bootloader/CMakeFiles/mesh_bootloader_serial_gccarmemb_nrf52840_xxAA.dir/src/dfu_mesh.c.obj
                0x000f9e98                dfu_mesh_req
 .text.dfu_mesh_relay
                0x000f9ecc       0x4c mesh/bootloader/CMakeFiles/mesh_bootloader_serial_gccarmemb_nrf52840_xxAA.dir/src/dfu_mesh.c.obj
                0x000f9ecc                dfu_mesh_relay
 .text.dfu_mesh_rx
                0x000f9f18      0x30c mesh/bootloader/CMakeFiles/mesh_bootloader_serial_gccarmemb_nrf52840_xxAA.dir/src/dfu_mesh.c.obj
                0x000f9f18                dfu_mesh_rx
 .text.dfu_mesh_missing_type_get
                0x000fa224       0x4c mesh/bootloader/CMakeFiles/mesh_bootloader_serial_gccarmemb_nrf52840_xxAA.dir/src/dfu_mesh.c.obj
                0x000fa224                dfu_mesh_missing_type_get
 .text.dfu_mesh_app_is_valid
                0x000fa270       0x34 mesh/bootloader/CMakeFiles/mesh_bootloader_serial_gccarmemb_nrf52840_xxAA.dir/src/dfu_mesh.c.obj
                0x000fa270                dfu_mesh_app_is_valid
 .text.dfu_mesh_finalize
                0x000fa2a4      0x14c mesh/bootloader/CMakeFiles/mesh_bootloader_serial_gccarmemb_nrf52840_xxAA.dir/src/dfu_mesh.c.obj
                0x000fa2a4                dfu_mesh_finalize
 .text.dfu_mesh_timeout
                0x000fa3f0       0xd4 mesh/bootloader/CMakeFiles/mesh_bootloader_serial_gccarmemb_nrf52840_xxAA.dir/src/dfu_mesh.c.obj
                0x000fa3f0                dfu_mesh_timeout
 .text.dfu_mesh_restart
                0x000fa4c4        0x4 mesh/bootloader/CMakeFiles/mesh_bootloader_serial_gccarmemb_nrf52840_xxAA.dir/src/dfu_mesh.c.obj
                0x000fa4c4                dfu_mesh_restart
 .text.dfu_mesh_on_flash_idle
                0x000fa4c8       0x50 mesh/bootloader/CMakeFiles/mesh_bootloader_serial_gccarmemb_nrf52840_xxAA.dir/src/dfu_mesh.c.obj
                0x000fa4c8                dfu_mesh_on_flash_idle
 .text.segment_is_missing
                0x000fa518       0x3c mesh/bootloader/CMakeFiles/mesh_bootloader_serial_gccarmemb_nrf52840_xxAA.dir/src/dfu_transfer_mesh.c.obj
 .text.dfu_transfer_init
                0x000fa554       0x1c mesh/bootloader/CMakeFiles/mesh_bootloader_serial_gccarmemb_nrf52840_xxAA.dir/src/dfu_transfer_mesh.c.obj
                0x000fa554                dfu_transfer_init
 .text.dfu_transfer_start
                0x000fa570       0x74 mesh/bootloader/CMakeFiles/mesh_bootloader_serial_gccarmemb_nrf52840_xxAA.dir/src/dfu_transfer_mesh.c.obj
                0x000fa570                dfu_transfer_start
 .text.dfu_transfer_data
                0x000fa5e4      0x184 mesh/bootloader/CMakeFiles/mesh_bootloader_serial_gccarmemb_nrf52840_xxAA.dir/src/dfu_transfer_mesh.c.obj
                0x000fa5e4                dfu_transfer_data
 .text.dfu_transfer_has_entry
                0x000fa768       0x58 mesh/bootloader/CMakeFiles/mesh_bootloader_serial_gccarmemb_nrf52840_xxAA.dir/src/dfu_transfer_mesh.c.obj
                0x000fa768                dfu_transfer_has_entry
 .text.dfu_transfer_get_oldest_missing_entry
                0x000fa7c0       0x7c mesh/bootloader/CMakeFiles/mesh_bootloader_serial_gccarmemb_nrf52840_xxAA.dir/src/dfu_transfer_mesh.c.obj
                0x000fa7c0                dfu_transfer_get_oldest_missing_entry
 .text.dfu_transfer_sha256
                0x000fa83c       0x1c mesh/bootloader/CMakeFiles/mesh_bootloader_serial_gccarmemb_nrf52840_xxAA.dir/src/dfu_transfer_mesh.c.obj
                0x000fa83c                dfu_transfer_sha256
 .text.dfu_transfer_end
                0x000fa858        0x4 mesh/bootloader/CMakeFiles/mesh_bootloader_serial_gccarmemb_nrf52840_xxAA.dir/src/dfu_transfer_mesh.c.obj
                0x000fa858                dfu_transfer_end
 .text.dfu_transfer_flash_write_complete
                0x000fa85c       0x18 mesh/bootloader/CMakeFiles/mesh_bootloader_serial_gccarmemb_nrf52840_xxAA.dir/src/dfu_transfer_mesh.c.obj
                0x000fa85c                dfu_transfer_flash_write_complete
 .text.fwid_union_cpy
                0x000fa874       0x1e mesh/bootloader/CMakeFiles/mesh_bootloader_serial_gccarmemb_nrf52840_xxAA.dir/src/dfu_util.c.obj
                0x000fa874                fwid_union_cpy
 .text.fwid_union_cmp
                0x000fa892       0x2c mesh/bootloader/CMakeFiles/mesh_bootloader_serial_gccarmemb_nrf52840_xxAA.dir/src/dfu_util.c.obj
                0x000fa892                fwid_union_cmp
 .text.fwid_union_id_cmp
                0x000fa8be       0x30 mesh/bootloader/CMakeFiles/mesh_bootloader_serial_gccarmemb_nrf52840_xxAA.dir/src/dfu_util.c.obj
                0x000fa8be                fwid_union_id_cmp
 .text.fwid_union_version_cmp
                0x000fa8ee       0x28 mesh/bootloader/CMakeFiles/mesh_bootloader_serial_gccarmemb_nrf52840_xxAA.dir/src/dfu_util.c.obj
                0x000fa8ee                fwid_union_version_cmp
 .text.addr_from_seg
                0x000fa916       0x14 mesh/bootloader/CMakeFiles/mesh_bootloader_serial_gccarmemb_nrf52840_xxAA.dir/src/dfu_util.c.obj
                0x000fa916                addr_from_seg
 .text.is_upgrade
                0x000fa92a       0x88 mesh/bootloader/CMakeFiles/mesh_bootloader_serial_gccarmemb_nrf52840_xxAA.dir/src/dfu_util.c.obj
                0x000fa92a                is_upgrade
 .text.app_is_newer
                0x000fa9b2       0x30 mesh/bootloader/CMakeFiles/mesh_bootloader_serial_gccarmemb_nrf52840_xxAA.dir/src/dfu_util.c.obj
                0x000fa9b2                app_is_newer
 .text.bootloader_is_newer
                0x000fa9e2       0x2e mesh/bootloader/CMakeFiles/mesh_bootloader_serial_gccarmemb_nrf52840_xxAA.dir/src/dfu_util.c.obj
                0x000fa9e2                bootloader_is_newer
 .text.fw_is_verified
                0x000faa10       0x1c mesh/bootloader/CMakeFiles/mesh_bootloader_serial_gccarmemb_nrf52840_xxAA.dir/src/dfu_util.c.obj
                0x000faa10                fw_is_verified
 .text.tid_cache_entry_put
                0x000faa2c       0x1c mesh/bootloader/CMakeFiles/mesh_bootloader_serial_gccarmemb_nrf52840_xxAA.dir/src/dfu_util.c.obj
                0x000faa2c                tid_cache_entry_put
 .text.tid_cache_has_entry
                0x000faa48       0x20 mesh/bootloader/CMakeFiles/mesh_bootloader_serial_gccarmemb_nrf52840_xxAA.dir/src/dfu_util.c.obj
                0x000faa48                tid_cache_has_entry
 .text.ready_packet_matches_our_req
                0x000faa68       0x3c mesh/bootloader/CMakeFiles/mesh_bootloader_serial_gccarmemb_nrf52840_xxAA.dir/src/dfu_util.c.obj
                0x000faa68                ready_packet_matches_our_req
 .text.packet_in_cache
                0x000faaa4       0x30 mesh/bootloader/CMakeFiles/mesh_bootloader_serial_gccarmemb_nrf52840_xxAA.dir/src/dfu_util.c.obj
                0x000faaa4                packet_in_cache
 .text.packet_cache_put
                0x000faad4       0x28 mesh/bootloader/CMakeFiles/mesh_bootloader_serial_gccarmemb_nrf52840_xxAA.dir/src/dfu_util.c.obj
                0x000faad4                packet_cache_put
 .text.packet_cache_flush
                0x000faafc       0x1c mesh/bootloader/CMakeFiles/mesh_bootloader_serial_gccarmemb_nrf52840_xxAA.dir/src/dfu_util.c.obj
                0x000faafc                packet_cache_flush
 .text.section_overlap
                0x000fab18       0x22 mesh/bootloader/CMakeFiles/mesh_bootloader_serial_gccarmemb_nrf52840_xxAA.dir/src/dfu_util.c.obj
                0x000fab18                section_overlap
 *fill*         0x000fab3a        0x2 
 .text.interrupts_disable
                0x000fab3c       0x24 mesh/bootloader/CMakeFiles/mesh_bootloader_serial_gccarmemb_nrf52840_xxAA.dir/src/dfu_util.c.obj
                0x000fab3c                interrupts_disable
 .text.fifo_init
                0x000fab60       0x1e mesh/bootloader/CMakeFiles/mesh_bootloader_serial_gccarmemb_nrf52840_xxAA.dir/src/fifo.c.obj
                0x000fab60                fifo_init
 .text.fifo_push
                0x000fab7e       0x4e mesh/bootloader/CMakeFiles/mesh_bootloader_serial_gccarmemb_nrf52840_xxAA.dir/src/fifo.c.obj
                0x000fab7e                fifo_push
 .text.fifo_pop
                0x000fabcc       0x4a mesh/bootloader/CMakeFiles/mesh_bootloader_serial_gccarmemb_nrf52840_xxAA.dir/src/fifo.c.obj
                0x000fabcc                fifo_pop
 .text.fifo_peek_at
                0x000fac16       0x4e mesh/bootloader/CMakeFiles/mesh_bootloader_serial_gccarmemb_nrf52840_xxAA.dir/src/fifo.c.obj
                0x000fac16                fifo_peek_at
 .text.fifo_peek
                0x000fac64        0x6 mesh/bootloader/CMakeFiles/mesh_bootloader_serial_gccarmemb_nrf52840_xxAA.dir/src/fifo.c.obj
                0x000fac64                fifo_peek
 .text.fifo_get_len
                0x000fac6a        0x8 mesh/bootloader/CMakeFiles/mesh_bootloader_serial_gccarmemb_nrf52840_xxAA.dir/src/fifo.c.obj
                0x000fac6a                fifo_get_len
 .text.fifo_is_full
                0x000fac72       0x10 mesh/bootloader/CMakeFiles/mesh_bootloader_serial_gccarmemb_nrf52840_xxAA.dir/src/fifo.c.obj
                0x000fac72                fifo_is_full
 .text.fifo_is_empty
                0x000fac82        0xc mesh/bootloader/CMakeFiles/mesh_bootloader_serial_gccarmemb_nrf52840_xxAA.dir/src/fifo.c.obj
                0x000fac82                fifo_is_empty
 .text.app_error_handler_bare
                0x000fac8e        0x6 mesh/bootloader/CMakeFiles/mesh_bootloader_serial_gccarmemb_nrf52840_xxAA.dir/src/main.c.obj
                0x000fac8e                app_error_handler_bare
 .text.HardFault_Handler
                0x000fac94        0x6 mesh/bootloader/CMakeFiles/mesh_bootloader_serial_gccarmemb_nrf52840_xxAA.dir/src/main.c.obj
                0x000fac94                HardFault_Handler
 *fill*         0x000fac9a        0x2 
 .text.startup.main
                0x000fac9c       0x90 mesh/bootloader/CMakeFiles/mesh_bootloader_serial_gccarmemb_nrf52840_xxAA.dir/src/main.c.obj
                0x000fac9c                main
 .text.mesh_packet_init
                0x000fad2c       0x14 mesh/bootloader/CMakeFiles/mesh_bootloader_serial_gccarmemb_nrf52840_xxAA.dir/src/mesh_packet.c.obj
                0x000fad2c                mesh_packet_init
 .text.mesh_packet_acquire
                0x000fad40       0x3c mesh/bootloader/CMakeFiles/mesh_bootloader_serial_gccarmemb_nrf52840_xxAA.dir/src/mesh_packet.c.obj
                0x000fad40                mesh_packet_acquire
 .text.mesh_packet_ref_count_inc
                0x000fad7c       0x44 mesh/bootloader/CMakeFiles/mesh_bootloader_serial_gccarmemb_nrf52840_xxAA.dir/src/mesh_packet.c.obj
                0x000fad7c                mesh_packet_ref_count_inc
 .text.mesh_packet_ref_count_dec
                0x000fadc0       0x48 mesh/bootloader/CMakeFiles/mesh_bootloader_serial_gccarmemb_nrf52840_xxAA.dir/src/mesh_packet.c.obj
                0x000fadc0                mesh_packet_ref_count_dec
 .text.mesh_packet_ref_count_get
                0x000fae08       0x20 mesh/bootloader/CMakeFiles/mesh_bootloader_serial_gccarmemb_nrf52840_xxAA.dir/src/mesh_packet.c.obj
                0x000fae08                mesh_packet_ref_count_get
 .text.mesh_packet_set_local_addr
                0x000fae28       0x28 mesh/bootloader/CMakeFiles/mesh_bootloader_serial_gccarmemb_nrf52840_xxAA.dir/src/mesh_packet.c.obj
                0x000fae28                mesh_packet_set_local_addr
 .text.mesh_packet_adv_data_get
                0x000fae50       0x3e mesh/bootloader/CMakeFiles/mesh_bootloader_serial_gccarmemb_nrf52840_xxAA.dir/src/mesh_packet.c.obj
                0x000fae50                mesh_packet_adv_data_get
 *fill*         0x000fae8e        0x2 
 .text.nrf_flash_erase
                0x000fae90       0x60 mesh/bootloader/CMakeFiles/mesh_bootloader_serial_gccarmemb_nrf52840_xxAA.dir/src/nrf_flash.c.obj
                0x000fae90                nrf_flash_erase
 .text.nrf_flash_store
                0x000faef0       0x70 mesh/bootloader/CMakeFiles/mesh_bootloader_serial_gccarmemb_nrf52840_xxAA.dir/src/nrf_flash.c.obj
                0x000faef0                nrf_flash_store
 .text.radio_init
                0x000faf60      0x118 mesh/bootloader/CMakeFiles/mesh_bootloader_serial_gccarmemb_nrf52840_xxAA.dir/src/radio_control.c.obj
                0x000faf60                radio_init
 .text.radio_order
                0x000fb078       0x4c mesh/bootloader/CMakeFiles/mesh_bootloader_serial_gccarmemb_nrf52840_xxAA.dir/src/radio_control.c.obj
                0x000fb078                radio_order
 .text.radio_disable
                0x000fb0c4       0x28 mesh/bootloader/CMakeFiles/mesh_bootloader_serial_gccarmemb_nrf52840_xxAA.dir/src/radio_control.c.obj
                0x000fb0c4                radio_disable
 .text.radio_event_handler
                0x000fb0ec      0x1b0 mesh/bootloader/CMakeFiles/mesh_bootloader_serial_gccarmemb_nrf52840_xxAA.dir/src/radio_control.c.obj
                0x000fb0ec                radio_event_handler
 .text.rand_prng_get
                0x000fb29c       0x24 mesh/bootloader/CMakeFiles/mesh_bootloader_serial_gccarmemb_nrf52840_xxAA.dir/src/rand.c.obj
                0x000fb29c                rand_prng_get
 .text.rand_hw_rng_get
                0x000fb2c0       0x30 mesh/bootloader/CMakeFiles/mesh_bootloader_serial_gccarmemb_nrf52840_xxAA.dir/src/rand.c.obj
                0x000fb2c0                rand_hw_rng_get
 .text.rand_prng_seed
                0x000fb2f0       0x38 mesh/bootloader/CMakeFiles/mesh_bootloader_serial_gccarmemb_nrf52840_xxAA.dir/src/rand.c.obj
                0x000fb2f0                rand_prng_seed
 .text.order_next_rtc
                0x000fb328       0x68 mesh/bootloader/CMakeFiles/mesh_bootloader_serial_gccarmemb_nrf52840_xxAA.dir/src/transport.c.obj
 .text.radio_rx_cb
                0x000fb390       0x30 mesh/bootloader/CMakeFiles/mesh_bootloader_serial_gccarmemb_nrf52840_xxAA.dir/src/transport.c.obj
 .text.order_scan
                0x000fb3c0       0x3c mesh/bootloader/CMakeFiles/mesh_bootloader_serial_gccarmemb_nrf52840_xxAA.dir/src/transport.c.obj
 .text.radio_idle_cb
                0x000fb3fc       0x10 mesh/bootloader/CMakeFiles/mesh_bootloader_serial_gccarmemb_nrf52840_xxAA.dir/src/transport.c.obj
 .text.set_next_tx
                0x000fb40c       0x80 mesh/bootloader/CMakeFiles/mesh_bootloader_serial_gccarmemb_nrf52840_xxAA.dir/src/transport.c.obj
 .text.RADIO_IRQHandler
                0x000fb48c        0x4 mesh/bootloader/CMakeFiles/mesh_bootloader_serial_gccarmemb_nrf52840_xxAA.dir/src/transport.c.obj
                0x000fb48c                RADIO_IRQHandler
 .text.timeslot_is_in_ts
                0x000fb490        0x4 mesh/bootloader/CMakeFiles/mesh_bootloader_serial_gccarmemb_nrf52840_xxAA.dir/src/transport.c.obj
                0x000fb490                timeslot_is_in_ts
 .text.transport_init
                0x000fb494       0x8c mesh/bootloader/CMakeFiles/mesh_bootloader_serial_gccarmemb_nrf52840_xxAA.dir/src/transport.c.obj
                0x000fb494                transport_init
 .text.transport_start
                0x000fb520       0x14 mesh/bootloader/CMakeFiles/mesh_bootloader_serial_gccarmemb_nrf52840_xxAA.dir/src/transport.c.obj
                0x000fb520                transport_start
 .text.SWI0_EGU0_IRQHandler
                0x000fb534       0x4c mesh/bootloader/CMakeFiles/mesh_bootloader_serial_gccarmemb_nrf52840_xxAA.dir/src/transport.c.obj
                0x000fb534                SWI0_EGU0_IRQHandler
 .text.transport_tx
                0x000fb580       0x70 mesh/bootloader/CMakeFiles/mesh_bootloader_serial_gccarmemb_nrf52840_xxAA.dir/src/transport.c.obj
                0x000fb580                transport_tx
 .text.transport_tx_abort
                0x000fb5f0       0x40 mesh/bootloader/CMakeFiles/mesh_bootloader_serial_gccarmemb_nrf52840_xxAA.dir/src/transport.c.obj
                0x000fb5f0                transport_tx_abort
 .text.transport_rtc_irq_handler
                0x000fb630       0xc0 mesh/bootloader/CMakeFiles/mesh_bootloader_serial_gccarmemb_nrf52840_xxAA.dir/src/transport.c.obj
                0x000fb630                transport_rtc_irq_handler
 .text.transport_tx_evt_set
                0x000fb6f0       0x24 mesh/bootloader/CMakeFiles/mesh_bootloader_serial_gccarmemb_nrf52840_xxAA.dir/src/transport.c.obj
                0x000fb6f0                transport_tx_evt_set
 .text.transport_tx_evt_get
                0x000fb714       0x24 mesh/bootloader/CMakeFiles/mesh_bootloader_serial_gccarmemb_nrf52840_xxAA.dir/src/transport.c.obj
                0x000fb714                transport_tx_evt_get
 .text.radio_tx_cb
                0x000fb738       0x3a mesh/bootloader/CMakeFiles/mesh_bootloader_serial_gccarmemb_nrf52840_xxAA.dir/src/transport.c.obj
 .text.vli_clear
                0x000fb772       0x10 mesh/bootloader/CMakeFiles/mesh_bootloader_serial_gccarmemb_nrf52840_xxAA.dir/src/uECC.c.obj
 .text.vli_isZero
                0x000fb782       0x16 mesh/bootloader/CMakeFiles/mesh_bootloader_serial_gccarmemb_nrf52840_xxAA.dir/src/uECC.c.obj
 .text.vli_testBit
                0x000fb798       0x14 mesh/bootloader/CMakeFiles/mesh_bootloader_serial_gccarmemb_nrf52840_xxAA.dir/src/uECC.c.obj
 .text.vli_set  0x000fb7ac       0x14 mesh/bootloader/CMakeFiles/mesh_bootloader_serial_gccarmemb_nrf52840_xxAA.dir/src/uECC.c.obj
 .text.vli_cmp  0x000fb7c0       0x28 mesh/bootloader/CMakeFiles/mesh_bootloader_serial_gccarmemb_nrf52840_xxAA.dir/src/uECC.c.obj
 .text.vli_rshift1
                0x000fb7e8       0x1a mesh/bootloader/CMakeFiles/mesh_bootloader_serial_gccarmemb_nrf52840_xxAA.dir/src/uECC.c.obj
 .text.vli_add  0x000fb802       0x2a mesh/bootloader/CMakeFiles/mesh_bootloader_serial_gccarmemb_nrf52840_xxAA.dir/src/uECC.c.obj
 .text.vli_sub  0x000fb82c       0x2a mesh/bootloader/CMakeFiles/mesh_bootloader_serial_gccarmemb_nrf52840_xxAA.dir/src/uECC.c.obj
 .text.vli_bytesToNative
                0x000fb856       0x18 mesh/bootloader/CMakeFiles/mesh_bootloader_serial_gccarmemb_nrf52840_xxAA.dir/src/uECC.c.obj
 .text.vli_modInv
                0x000fb86e      0x11c mesh/bootloader/CMakeFiles/mesh_bootloader_serial_gccarmemb_nrf52840_xxAA.dir/src/uECC.c.obj
 *fill*         0x000fb98a        0x2 
 .text.vli_modSub.constprop.1
                0x000fb98c       0x20 mesh/bootloader/CMakeFiles/mesh_bootloader_serial_gccarmemb_nrf52840_xxAA.dir/src/uECC.c.obj
 .text.vli_modAdd.constprop.2
                0x000fb9ac       0x2c mesh/bootloader/CMakeFiles/mesh_bootloader_serial_gccarmemb_nrf52840_xxAA.dir/src/uECC.c.obj
 .text.vli_numBits.constprop.3
                0x000fb9d8       0x2c mesh/bootloader/CMakeFiles/mesh_bootloader_serial_gccarmemb_nrf52840_xxAA.dir/src/uECC.c.obj
 .text.vli_mult
                0x000fba04       0xbc mesh/bootloader/CMakeFiles/mesh_bootloader_serial_gccarmemb_nrf52840_xxAA.dir/src/uECC.c.obj
 .text.vli_modMult_fast
                0x000fbac0      0x18c mesh/bootloader/CMakeFiles/mesh_bootloader_serial_gccarmemb_nrf52840_xxAA.dir/src/uECC.c.obj
 .text.apply_z  0x000fbc4c       0x34 mesh/bootloader/CMakeFiles/mesh_bootloader_serial_gccarmemb_nrf52840_xxAA.dir/src/uECC.c.obj
 .text.XYcZ_add
                0x000fbc80       0x9a mesh/bootloader/CMakeFiles/mesh_bootloader_serial_gccarmemb_nrf52840_xxAA.dir/src/uECC.c.obj
 *fill*         0x000fbd1a        0x2 
 .text.vli_modMult_n
                0x000fbd1c       0x9c mesh/bootloader/CMakeFiles/mesh_bootloader_serial_gccarmemb_nrf52840_xxAA.dir/src/uECC.c.obj
 .text.uECC_verify
                0x000fbdb8      0x324 mesh/bootloader/CMakeFiles/mesh_bootloader_serial_gccarmemb_nrf52840_xxAA.dir/src/uECC.c.obj
                0x000fbdb8                uECC_verify
 .text.sha256_transform
                0x000fc0dc      0x134 mesh/bootloader/CMakeFiles/mesh_bootloader_serial_gccarmemb_nrf52840_xxAA.dir/C_/dev/mesh_dep/nRF5_SDK_16.0.0_98a08e2/components/libraries/sha256/sha256.c.obj
                0x000fc0dc                sha256_transform
 .text.sha256_init
                0x000fc210       0x60 mesh/bootloader/CMakeFiles/mesh_bootloader_serial_gccarmemb_nrf52840_xxAA.dir/C_/dev/mesh_dep/nRF5_SDK_16.0.0_98a08e2/components/libraries/sha256/sha256.c.obj
                0x000fc210                sha256_init
 .text.sha256_update
                0x000fc270       0x48 mesh/bootloader/CMakeFiles/mesh_bootloader_serial_gccarmemb_nrf52840_xxAA.dir/C_/dev/mesh_dep/nRF5_SDK_16.0.0_98a08e2/components/libraries/sha256/sha256.c.obj
                0x000fc270                sha256_update
 .text.sha256_final
                0x000fc2b8      0x11c mesh/bootloader/CMakeFiles/mesh_bootloader_serial_gccarmemb_nrf52840_xxAA.dir/C_/dev/mesh_dep/nRF5_SDK_16.0.0_98a08e2/components/libraries/sha256/sha256.c.obj
                0x000fc2b8                sha256_final
 .text.schedule_transmit
                0x000fc3d4       0x2c mesh/bootloader/CMakeFiles/mesh_bootloader_serial_gccarmemb_nrf52840_xxAA.dir/src/serial_handler_uart.c.obj
 .text.SWI1_EGU1_IRQHandler
                0x000fc400       0x40 mesh/bootloader/CMakeFiles/mesh_bootloader_serial_gccarmemb_nrf52840_xxAA.dir/src/serial_handler_uart.c.obj
                0x000fc400                SWI1_EGU1_IRQHandler
 .text.serial_handler_init
                0x000fc440       0xc0 mesh/bootloader/CMakeFiles/mesh_bootloader_serial_gccarmemb_nrf52840_xxAA.dir/src/serial_handler_uart.c.obj
                0x000fc440                serial_handler_init
 .text.serial_handler_credit_available
                0x000fc500        0xc mesh/bootloader/CMakeFiles/mesh_bootloader_serial_gccarmemb_nrf52840_xxAA.dir/src/serial_handler_uart.c.obj
                0x000fc500                serial_handler_credit_available
 .text.serial_handler_event_send
                0x000fc50c       0x48 mesh/bootloader/CMakeFiles/mesh_bootloader_serial_gccarmemb_nrf52840_xxAA.dir/src/serial_handler_uart.c.obj
                0x000fc50c                serial_handler_event_send
 .text.UARTE0_UART0_IRQHandler
                0x000fc554       0xf4 mesh/bootloader/CMakeFiles/mesh_bootloader_serial_gccarmemb_nrf52840_xxAA.dir/src/serial_handler_uart.c.obj
                0x000fc554                UARTE0_UART0_IRQHandler
 .text.serial_wait_for_completion
                0x000fc648       0x2c mesh/bootloader/CMakeFiles/mesh_bootloader_serial_gccarmemb_nrf52840_xxAA.dir/src/serial_handler_uart.c.obj
                0x000fc648                serial_wait_for_completion
 .text.serial_handler_command_get
                0x000fc674       0x4c mesh/bootloader/CMakeFiles/mesh_bootloader_serial_gccarmemb_nrf52840_xxAA.dir/src/serial_handler_uart.c.obj
                0x000fc674                serial_handler_command_get
 .text.serial_handler_uart_disable
                0x000fc6c0       0x28 mesh/bootloader/CMakeFiles/mesh_bootloader_serial_gccarmemb_nrf52840_xxAA.dir/src/serial_handler_uart.c.obj
                0x000fc6c0                serial_handler_uart_disable
 .text.mesh_aci_init
                0x000fc6e8       0x18 mesh/bootloader/CMakeFiles/mesh_bootloader_serial_gccarmemb_nrf52840_xxAA.dir/src/mesh_aci.c.obj
                0x000fc6e8                mesh_aci_init
 .text.mesh_aci_start
                0x000fc700       0x3e mesh/bootloader/CMakeFiles/mesh_bootloader_serial_gccarmemb_nrf52840_xxAA.dir/src/mesh_aci.c.obj
                0x000fc700                mesh_aci_start
 *fill*         0x000fc73e        0x2 
 .text.mesh_aci_command_check
                0x000fc740      0x168 mesh/bootloader/CMakeFiles/mesh_bootloader_serial_gccarmemb_nrf52840_xxAA.dir/src/mesh_aci.c.obj
                0x000fc740                mesh_aci_command_check
 .text.errata_98
                0x000fc8a8       0x20 mesh/bootloader/CMakeFiles/mesh_bootloader_serial_gccarmemb_nrf52840_xxAA.dir/C_/dev/mesh_dep/nRF5_SDK_16.0.0_98a08e2/modules/nrfx/mdk/system_nrf52840.c.obj
 .text.SystemInit
                0x000fc8c8      0x1b8 mesh/bootloader/CMakeFiles/mesh_bootloader_serial_gccarmemb_nrf52840_xxAA.dir/C_/dev/mesh_dep/nRF5_SDK_16.0.0_98a08e2/modules/nrfx/mdk/system_nrf52840.c.obj
                0x000fc8c8                SystemInit
 .text          0x000fca80       0x3c mesh/bootloader/CMakeFiles/mesh_bootloader_serial_gccarmemb_nrf52840_xxAA.dir/C_/dev/mesh_dep/nRF5_SDK_16.0.0_98a08e2/modules/nrfx/mdk/gcc_startup_nrf52840.S.obj
                0x000fca80                Reset_Handler
                0x000fcaa8                NMI_Handler
                0x000fcaac                MemoryManagement_Handler
                0x000fcaae                BusFault_Handler
                0x000fcab0                UsageFault_Handler
                0x000fcab2                SVC_Handler
                0x000fcab4                DebugMon_Handler
                0x000fcab6                PendSV_Handler
                0x000fcab8                SysTick_Handler
                0x000fcaba                QDEC_IRQHandler
                0x000fcaba                TIMER3_IRQHandler
                0x000fcaba                PDM_IRQHandler
                0x000fcaba                FPU_IRQHandler
                0x000fcaba                USBD_IRQHandler
                0x000fcaba                SPIM0_SPIS0_TWIM0_TWIS0_SPI0_TWI0_IRQHandler
                0x000fcaba                PWM3_IRQHandler
                0x000fcaba                TEMP_IRQHandler
                0x000fcaba                TIMER4_IRQHandler
                0x000fcaba                CRYPTOCELL_IRQHandler
                0x000fcaba                I2S_IRQHandler
                0x000fcaba                SWI4_EGU4_IRQHandler
                0x000fcaba                TIMER0_IRQHandler
                0x000fcaba                POWER_CLOCK_IRQHandler
                0x000fcaba                UARTE1_IRQHandler
                0x000fcaba                TIMER1_IRQHandler
                0x000fcaba                SPIM3_IRQHandler
                0x000fcaba                PWM2_IRQHandler
                0x000fcaba                ECB_IRQHandler
                0x000fcaba                SPIM1_SPIS1_TWIM1_TWIS1_SPI1_TWI1_IRQHandler
                0x000fcaba                Default_Handler
                0x000fcaba                SAADC_IRQHandler
                0x000fcaba                CCM_AAR_IRQHandler
                0x000fcaba                WDT_IRQHandler
                0x000fcaba                PWM1_IRQHandler
                0x000fcaba                SWI5_EGU5_IRQHandler
                0x000fcaba                RNG_IRQHandler
                0x000fcaba                RTC2_IRQHandler
                0x000fcaba                PWM0_IRQHandler
                0x000fcaba                RTC1_IRQHandler
                0x000fcaba                SPIM2_SPIS2_SPI2_IRQHandler
                0x000fcaba                NFCT_IRQHandler
                0x000fcaba                GPIOTE_IRQHandler
                0x000fcaba                MWU_IRQHandler
                0x000fcaba                TIMER2_IRQHandler
                0x000fcaba                QSPI_IRQHandler
                0x000fcaba                COMP_LPCOMP_IRQHandler
 .text          0x000fcabc       0x30 c:/progra~2/gnutoo~1/72018-~1/bin/../lib/gcc/arm-none-eabi/7.3.1/thumb/v7e-m/fpv4-sp/hard\libgcc.a(_aeabi_uldivmod.o)
                0x000fcabc                __aeabi_uldivmod
 .text          0x000fcaec      0x2cc c:/progra~2/gnutoo~1/72018-~1/bin/../lib/gcc/arm-none-eabi/7.3.1/thumb/v7e-m/fpv4-sp/hard\libgcc.a(_udivmoddi4.o)
                0x000fcaec                __udivmoddi4
 .text          0x000fcdb8        0x4 c:/progra~2/gnutoo~1/72018-~1/bin/../lib/gcc/arm-none-eabi/7.3.1/thumb/v7e-m/fpv4-sp/hard\libgcc.a(_dvmd_tls.o)
                0x000fcdb8                __aeabi_idiv0
                0x000fcdb8                __aeabi_ldiv0
 .text.exit     0x000fcdbc       0x28 c:/progra~2/gnutoo~1/72018-~1/bin/../lib/gcc/arm-none-eabi/7.3.1/../../../../arm-none-eabi/lib/thumb/v7e-m/fpv4-sp/hard\libg_nano.a(lib_a-exit.o)
                0x000fcdbc                exit
 .text.__libc_init_array
                0x000fcde4       0x48 c:/progra~2/gnutoo~1/72018-~1/bin/../lib/gcc/arm-none-eabi/7.3.1/../../../../arm-none-eabi/lib/thumb/v7e-m/fpv4-sp/hard\libg_nano.a(lib_a-init.o)
                0x000fcde4                __libc_init_array
 .text.memcmp   0x000fce2c       0x1e c:/progra~2/gnutoo~1/72018-~1/bin/../lib/gcc/arm-none-eabi/7.3.1/../../../../arm-none-eabi/lib/thumb/v7e-m/fpv4-sp/hard\libg_nano.a(lib_a-memcmp.o)
                0x000fce2c                memcmp
 .text.memcpy   0x000fce4a       0x16 c:/progra~2/gnutoo~1/72018-~1/bin/../lib/gcc/arm-none-eabi/7.3.1/../../../../arm-none-eabi/lib/thumb/v7e-m/fpv4-sp/hard\libg_nano.a(lib_a-memcpy-stub.o)
                0x000fce4a                memcpy
 .text.memset   0x000fce60       0x10 c:/progra~2/gnutoo~1/72018-~1/bin/../lib/gcc/arm-none-eabi/7.3.1/../../../../arm-none-eabi/lib/thumb/v7e-m/fpv4-sp/hard\libg_nano.a(lib_a-memset.o)
                0x000fce60                memset
 .text._exit    0x000fce70        0x4 c:/progra~2/gnutoo~1/72018-~1/bin/../lib/gcc/arm-none-eabi/7.3.1/../../../../arm-none-eabi/lib/thumb/v7e-m/fpv4-sp/hard\libnosys.a(_exit.o)
                0x000fce70                _exit
 *(.init)
 .init          0x000fce74        0x4 c:/progra~2/gnutoo~1/72018-~1/bin/../lib/gcc/arm-none-eabi/7.3.1/thumb/v7e-m/fpv4-sp/hard/crti.o
                0x000fce74                _init
 .init          0x000fce78        0x8 c:/progra~2/gnutoo~1/72018-~1/bin/../lib/gcc/arm-none-eabi/7.3.1/thumb/v7e-m/fpv4-sp/hard/crtn.o
 *(.fini)
 .fini          0x000fce80        0x4 c:/progra~2/gnutoo~1/72018-~1/bin/../lib/gcc/arm-none-eabi/7.3.1/thumb/v7e-m/fpv4-sp/hard/crti.o
                0x000fce80                _fini
 .fini          0x000fce84        0x8 c:/progra~2/gnutoo~1/72018-~1/bin/../lib/gcc/arm-none-eabi/7.3.1/thumb/v7e-m/fpv4-sp/hard/crtn.o
 *crtbegin.o(.ctors)
 *crtbegin?.o(.ctors)
 *(EXCLUDE_FILE(*crtend.o *crtend?.o) .ctors)
 *(SORT_BY_NAME(.ctors.*))
 *(.ctors)
 *crtbegin.o(.dtors)
 *crtbegin?.o(.dtors)
 *(EXCLUDE_FILE(*crtend.o *crtend?.o) .dtors)
 *(SORT_BY_NAME(.dtors.*))
 *(.dtors)
 *(.rodata*)
 .rodata.m_invalid_header
                0x000fce8c        0x4 mesh/bootloader/CMakeFiles/mesh_bootloader_serial_gccarmemb_nrf52840_xxAA.dir/src/bootloader_info.c.obj
 .rodata.CSWTCH.47
                0x000fce90        0x4 mesh/bootloader/CMakeFiles/mesh_bootloader_serial_gccarmemb_nrf52840_xxAA.dir/src/dfu_mesh.c.obj
 .rodata        0x000fce94        0xc mesh/bootloader/CMakeFiles/mesh_bootloader_serial_gccarmemb_nrf52840_xxAA.dir/src/radio_control.c.obj
 .rodata.curve_G
                0x000fcea0       0x40 mesh/bootloader/CMakeFiles/mesh_bootloader_serial_gccarmemb_nrf52840_xxAA.dir/src/uECC.c.obj
 .rodata.curve_n
                0x000fcee0       0x20 mesh/bootloader/CMakeFiles/mesh_bootloader_serial_gccarmemb_nrf52840_xxAA.dir/src/uECC.c.obj
 .rodata.curve_p
                0x000fcf00       0x20 mesh/bootloader/CMakeFiles/mesh_bootloader_serial_gccarmemb_nrf52840_xxAA.dir/src/uECC.c.obj
 .rodata.k      0x000fcf20      0x100 mesh/bootloader/CMakeFiles/mesh_bootloader_serial_gccarmemb_nrf52840_xxAA.dir/C_/dev/mesh_dep/nRF5_SDK_16.0.0_98a08e2/components/libraries/sha256/sha256.c.obj
 .rodata.CSWTCH.8
                0x000fd020       0x12 mesh/bootloader/CMakeFiles/mesh_bootloader_serial_gccarmemb_nrf52840_xxAA.dir/src/mesh_aci.c.obj
 *fill*         0x000fd032        0x2 
 .rodata._global_impure_ptr
                0x000fd034        0x4 c:/progra~2/gnutoo~1/72018-~1/bin/../lib/gcc/arm-none-eabi/7.3.1/../../../../arm-none-eabi/lib/thumb/v7e-m/fpv4-sp/hard\libg_nano.a(lib_a-impure.o)
                0x000fd034                _global_impure_ptr
 *(.eh_frame*)
 .eh_frame      0x000fd038        0x0 c:/progra~2/gnutoo~1/72018-~1/bin/../lib/gcc/arm-none-eabi/7.3.1/thumb/v7e-m/fpv4-sp/hard/crtbegin.o
 .eh_frame      0x000fd038        0x4 c:/progra~2/gnutoo~1/72018-~1/bin/../lib/gcc/arm-none-eabi/7.3.1/thumb/v7e-m/fpv4-sp/hard/crtend.o

.glue_7         0x000fd03c        0x0
 .glue_7        0x000fd03c        0x0 linker stubs

.glue_7t        0x000fd03c        0x0
 .glue_7t       0x000fd03c        0x0 linker stubs

.vfp11_veneer   0x000fd03c        0x0
 .vfp11_veneer  0x000fd03c        0x0 linker stubs

.v4_bx          0x000fd03c        0x0
 .v4_bx         0x000fd03c        0x0 linker stubs

.iplt           0x000fd03c        0x0
 .iplt          0x000fd03c        0x0 c:/progra~2/gnutoo~1/72018-~1/bin/../lib/gcc/arm-none-eabi/7.3.1/thumb/v7e-m/fpv4-sp/hard/crtbegin.o

.ARM.extab
 *(.ARM.extab* .gnu.linkonce.armextab.*)
                0x000fd03c                __exidx_start = .

.ARM.exidx      0x000fd03c        0x8
 *(.ARM.exidx* .gnu.linkonce.armexidx.*)
 .ARM.exidx     0x000fd03c        0x8 c:/progra~2/gnutoo~1/72018-~1/bin/../lib/gcc/arm-none-eabi/7.3.1/../../../../arm-none-eabi/lib/thumb/v7e-m/fpv4-sp/hard/crt0.o
 .ARM.exidx     0x000fd044        0x0 c:/progra~2/gnutoo~1/72018-~1/bin/../lib/gcc/arm-none-eabi/7.3.1/thumb/v7e-m/fpv4-sp/hard\libgcc.a(_udivmoddi4.o)
                                  0x8 (size before relaxing)
                0x000fd044                __exidx_end = .
                0x000fd044                __etext = .

.rel.dyn        0x000fd044        0x0
 .rel.iplt      0x000fd044        0x0 c:/progra~2/gnutoo~1/72018-~1/bin/../lib/gcc/arm-none-eabi/7.3.1/thumb/v7e-m/fpv4-sp/hard/crtbegin.o

.data           0x20000004       0x78 load address 0x000fd044
                0x20000004                __data_start__ = .
 *(vtable)
 *(.data*)
 .data.m_alt_aa
                0x20000004        0x4 mesh/bootloader/CMakeFiles/mesh_bootloader_serial_gccarmemb_nrf52840_xxAA.dir/src/radio_control.c.obj
 .data.m_radio_state
                0x20000008        0x1 mesh/bootloader/CMakeFiles/mesh_bootloader_serial_gccarmemb_nrf52840_xxAA.dir/src/radio_control.c.obj
 *fill*         0x20000009        0x3 
 .data.pp.11495
                0x2000000c        0x4 mesh/bootloader/CMakeFiles/mesh_bootloader_serial_gccarmemb_nrf52840_xxAA.dir/src/serial_handler_uart.c.obj
 .data.SystemCoreClock
                0x20000010        0x4 mesh/bootloader/CMakeFiles/mesh_bootloader_serial_gccarmemb_nrf52840_xxAA.dir/C_/dev/mesh_dep/nRF5_SDK_16.0.0_98a08e2/modules/nrfx/mdk/system_nrf52840.c.obj
                0x20000010                SystemCoreClock
 .data.impure_data
                0x20000014       0x60 c:/progra~2/gnutoo~1/72018-~1/bin/../lib/gcc/arm-none-eabi/7.3.1/../../../../arm-none-eabi/lib/thumb/v7e-m/fpv4-sp/hard\libg_nano.a(lib_a-impure.o)
                0x20000074                . = ALIGN (0x4)
                0x20000074                PROVIDE (__preinit_array_start = .)
 *(.preinit_array)
                0x20000074                PROVIDE (__preinit_array_end = .)
                0x20000074                . = ALIGN (0x4)
                0x20000074                PROVIDE (__init_array_start = .)
 *(SORT_BY_NAME(.init_array.*))
 *(.init_array)
 .init_array    0x20000074        0x4 c:/progra~2/gnutoo~1/72018-~1/bin/../lib/gcc/arm-none-eabi/7.3.1/thumb/v7e-m/fpv4-sp/hard/crtbegin.o
                0x20000078                PROVIDE (__init_array_end = .)
                0x20000078                . = ALIGN (0x4)
                [!provide]                PROVIDE (__fini_array_start = .)
 *(SORT_BY_NAME(.fini_array.*))
 *(.fini_array)
 .fini_array    0x20000078        0x4 c:/progra~2/gnutoo~1/72018-~1/bin/../lib/gcc/arm-none-eabi/7.3.1/thumb/v7e-m/fpv4-sp/hard/crtbegin.o
                [!provide]                PROVIDE (__fini_array_end = .)
 *(.jcr*)
                0x2000007c                . = ALIGN (0x4)
                0x2000007c                __data_end__ = .

.igot.plt       0x2000007c        0x0 load address 0x000fd0bc
 .igot.plt      0x2000007c        0x0 c:/progra~2/gnutoo~1/72018-~1/bin/../lib/gcc/arm-none-eabi/7.3.1/thumb/v7e-m/fpv4-sp/hard/crtbegin.o

.bss            0x2000007c      0x954 load address 0x000fd0bc
                0x2000007c                . = ALIGN (0x4)
                0x2000007c                __bss_start__ = .
 *(.bss*)
 .bss           0x2000007c       0x1c c:/progra~2/gnutoo~1/72018-~1/bin/../lib/gcc/arm-none-eabi/7.3.1/thumb/v7e-m/fpv4-sp/hard/crtbegin.o
 .bss.m_flash_fifo
                0x20000098       0x18 mesh/bootloader/CMakeFiles/mesh_bootloader_serial_gccarmemb_nrf52840_xxAA.dir/src/bootloader.c.obj
 .bss.m_flash_fifo_buf
                0x200000b0       0x80 mesh/bootloader/CMakeFiles/mesh_bootloader_serial_gccarmemb_nrf52840_xxAA.dir/src/bootloader.c.obj
 .bss.m_go_to_app
                0x20000130        0x1 mesh/bootloader/CMakeFiles/mesh_bootloader_serial_gccarmemb_nrf52840_xxAA.dir/src/bootloader.c.obj
 .bss.m_timeout_action
                0x20000131        0x1 mesh/bootloader/CMakeFiles/mesh_bootloader_serial_gccarmemb_nrf52840_xxAA.dir/src/bootloader.c.obj
 *fill*         0x20000132        0x2 
 .bss.rsp_cmd.12021
                0x20000134       0x18 mesh/bootloader/CMakeFiles/mesh_bootloader_serial_gccarmemb_nrf52840_xxAA.dir/src/bootloader.c.obj
 .bss.g_packet_pool
                0x2000014c      0x500 mesh/bootloader/CMakeFiles/mesh_bootloader_serial_gccarmemb_nrf52840_xxAA.dir/src/mesh_packet.c.obj
 .bss.g_packet_refs
                0x2000064c       0x20 mesh/bootloader/CMakeFiles/mesh_bootloader_serial_gccarmemb_nrf52840_xxAA.dir/src/mesh_packet.c.obj
 .bss.buffer.7259
                0x2000066c        0x4 mesh/bootloader/CMakeFiles/mesh_bootloader_serial_gccarmemb_nrf52840_xxAA.dir/src/nrf_flash.c.obj
 .bss.m_idle_cb
                0x20000670        0x4 mesh/bootloader/CMakeFiles/mesh_bootloader_serial_gccarmemb_nrf52840_xxAA.dir/src/radio_control.c.obj
 .bss.m_radio_fifo
                0x20000674       0x18 mesh/bootloader/CMakeFiles/mesh_bootloader_serial_gccarmemb_nrf52840_xxAA.dir/src/radio_control.c.obj
 .bss.m_radio_fifo_queue
                0x2000068c       0x40 mesh/bootloader/CMakeFiles/mesh_bootloader_serial_gccarmemb_nrf52840_xxAA.dir/src/radio_control.c.obj
 .bss.m_rx_cb   0x200006cc        0x4 mesh/bootloader/CMakeFiles/mesh_bootloader_serial_gccarmemb_nrf52840_xxAA.dir/src/radio_control.c.obj
 .bss.m_tx_cb   0x200006d0        0x4 mesh/bootloader/CMakeFiles/mesh_bootloader_serial_gccarmemb_nrf52840_xxAA.dir/src/radio_control.c.obj
 .bss.m_prng    0x200006d4       0x10 mesh/bootloader/CMakeFiles/mesh_bootloader_serial_gccarmemb_nrf52840_xxAA.dir/src/transport.c.obj
 .bss.m_running
                0x200006e4        0x1 mesh/bootloader/CMakeFiles/mesh_bootloader_serial_gccarmemb_nrf52840_xxAA.dir/src/transport.c.obj
 *fill*         0x200006e5        0x3 
 .bss.m_rx_cb   0x200006e8        0x4 mesh/bootloader/CMakeFiles/mesh_bootloader_serial_gccarmemb_nrf52840_xxAA.dir/src/transport.c.obj
 .bss.m_rx_fifo
                0x200006ec       0x18 mesh/bootloader/CMakeFiles/mesh_bootloader_serial_gccarmemb_nrf52840_xxAA.dir/src/transport.c.obj
 .bss.m_rx_fifo_buf
                0x20000704       0x80 mesh/bootloader/CMakeFiles/mesh_bootloader_serial_gccarmemb_nrf52840_xxAA.dir/src/transport.c.obj
 .bss.m_ticks_at_order_time
                0x20000784        0x4 mesh/bootloader/CMakeFiles/mesh_bootloader_serial_gccarmemb_nrf52840_xxAA.dir/src/transport.c.obj
 .bss.m_tx      0x20000788       0x80 mesh/bootloader/CMakeFiles/mesh_bootloader_serial_gccarmemb_nrf52840_xxAA.dir/src/transport.c.obj
 .bss.m_rx_fifo
                0x20000808       0x18 mesh/bootloader/CMakeFiles/mesh_bootloader_serial_gccarmemb_nrf52840_xxAA.dir/src/serial_handler_uart.c.obj
 .bss.m_rx_fifo_buffer
                0x20000820       0x9c mesh/bootloader/CMakeFiles/mesh_bootloader_serial_gccarmemb_nrf52840_xxAA.dir/src/serial_handler_uart.c.obj
 .bss.m_serial_state
                0x200008bc        0x1 mesh/bootloader/CMakeFiles/mesh_bootloader_serial_gccarmemb_nrf52840_xxAA.dir/src/serial_handler_uart.c.obj
 .bss.m_suspend
                0x200008bd        0x1 mesh/bootloader/CMakeFiles/mesh_bootloader_serial_gccarmemb_nrf52840_xxAA.dir/src/serial_handler_uart.c.obj
 .bss.m_tx_buffer
                0x200008be       0x27 mesh/bootloader/CMakeFiles/mesh_bootloader_serial_gccarmemb_nrf52840_xxAA.dir/src/serial_handler_uart.c.obj
 *fill*         0x200008e5        0x3 
 .bss.m_tx_fifo
                0x200008e8       0x18 mesh/bootloader/CMakeFiles/mesh_bootloader_serial_gccarmemb_nrf52840_xxAA.dir/src/serial_handler_uart.c.obj
 .bss.m_tx_fifo_buffer
                0x20000900       0x9c mesh/bootloader/CMakeFiles/mesh_bootloader_serial_gccarmemb_nrf52840_xxAA.dir/src/serial_handler_uart.c.obj
 .bss.m_tx_len  0x2000099c        0x4 mesh/bootloader/CMakeFiles/mesh_bootloader_serial_gccarmemb_nrf52840_xxAA.dir/src/serial_handler_uart.c.obj
 .bss.mp_tx_ptr
                0x200009a0        0x4 mesh/bootloader/CMakeFiles/mesh_bootloader_serial_gccarmemb_nrf52840_xxAA.dir/src/serial_handler_uart.c.obj
 .bss.rx_buf.11494
                0x200009a4       0x27 mesh/bootloader/CMakeFiles/mesh_bootloader_serial_gccarmemb_nrf52840_xxAA.dir/src/serial_handler_uart.c.obj
 *(COMMON)
 *fill*         0x200009cb        0x1 
 COMMON         0x200009cc        0x2 mesh/bootloader/CMakeFiles/mesh_bootloader_serial_gccarmemb_nrf52840_xxAA.dir/src/transport.c.obj
                0x200009cc                m_tx_evt_bitfield
                0x200009d0                . = ALIGN (0x4)
 *fill*         0x200009ce        0x2 
                0x200009d0                __bss_end__ = .

.heap           0x200009d0     0x2000
                0x200009d0                __HeapBase = .
                0x200009d0                __end__ = .
                [!provide]                PROVIDE (end = .)
 *(.heap*)
 .heap          0x200009d0     0x2000 mesh/bootloader/CMakeFiles/mesh_bootloader_serial_gccarmemb_nrf52840_xxAA.dir/C_/dev/mesh_dep/nRF5_SDK_16.0.0_98a08e2/modules/nrfx/mdk/gcc_startup_nrf52840.S.obj
                0x200029d0                __HeapLimit = .

.stack_dummy    0x200009d0     0x2000
 *(.stack*)
 .stack         0x200009d0     0x2000 mesh/bootloader/CMakeFiles/mesh_bootloader_serial_gccarmemb_nrf52840_xxAA.dir/C_/dev/mesh_dep/nRF5_SDK_16.0.0_98a08e2/modules/nrfx/mdk/gcc_startup_nrf52840.S.obj
                0x2003fd00                __StackTop = (ORIGIN (RAM) + LENGTH (RAM))
                0x2003dd00                __StackLimit = (__StackTop - SIZEOF (.stack_dummy))
                0x2003fd00                PROVIDE (__stack = __StackTop)
                0x00000001                ASSERT ((__StackLimit >= __HeapLimit), region RAM overflowed with stack)
                0x00000078                DataInitFlashUsed = (__bss_start__ - __data_start__)
                0x00005044                CodeFlashUsed = (__etext - ORIGIN (FLASH))
                0x000050bc                TotalFlashUsed = (CodeFlashUsed + DataInitFlashUsed)
                0x00000001                ASSERT ((TotalFlashUsed <= LENGTH (FLASH)), region FLASH overflowed with .data and user data)
OUTPUT(mesh\bootloader\mesh_bootloader_serial_gccarmemb_nrf52840_xxAA.elf elf32-littlearm)

.ARM.attributes
                0x00000000       0x30
 .ARM.attributes
                0x00000000       0x22 c:/progra~2/gnutoo~1/72018-~1/bin/../lib/gcc/arm-none-eabi/7.3.1/thumb/v7e-m/fpv4-sp/hard/crti.o
 .ARM.attributes
                0x00000022       0x34 c:/progra~2/gnutoo~1/72018-~1/bin/../lib/gcc/arm-none-eabi/7.3.1/thumb/v7e-m/fpv4-sp/hard/crtbegin.o
 .ARM.attributes
                0x00000056       0x20 c:/progra~2/gnutoo~1/72018-~1/bin/../lib/gcc/arm-none-eabi/7.3.1/../../../../arm-none-eabi/lib/thumb/v7e-m/fpv4-sp/hard/crt0.o
 .ARM.attributes
                0x00000076       0x39 mesh/bootloader/CMakeFiles/mesh_bootloader_serial_gccarmemb_nrf52840_xxAA.dir/src/bootloader.c.obj
 .ARM.attributes
                0x000000af       0x39 mesh/bootloader/CMakeFiles/mesh_bootloader_serial_gccarmemb_nrf52840_xxAA.dir/src/bootloader_app_bridge.c.obj
 .ARM.attributes
                0x000000e8       0x39 mesh/bootloader/CMakeFiles/mesh_bootloader_serial_gccarmemb_nrf52840_xxAA.dir/src/bootloader_info.c.obj
 .ARM.attributes
                0x00000121       0x39 mesh/bootloader/CMakeFiles/mesh_bootloader_serial_gccarmemb_nrf52840_xxAA.dir/src/bootloader_rtc.c.obj
 .ARM.attributes
                0x0000015a       0x39 mesh/bootloader/CMakeFiles/mesh_bootloader_serial_gccarmemb_nrf52840_xxAA.dir/src/bootloader_util.c.obj
 .ARM.attributes
                0x00000193       0x39 mesh/bootloader/CMakeFiles/mesh_bootloader_serial_gccarmemb_nrf52840_xxAA.dir/src/dfu_bank.c.obj
 .ARM.attributes
                0x000001cc       0x39 mesh/bootloader/CMakeFiles/mesh_bootloader_serial_gccarmemb_nrf52840_xxAA.dir/src/dfu_mesh.c.obj
 .ARM.attributes
                0x00000205       0x39 mesh/bootloader/CMakeFiles/mesh_bootloader_serial_gccarmemb_nrf52840_xxAA.dir/src/dfu_transfer_mesh.c.obj
 .ARM.attributes
                0x0000023e       0x39 mesh/bootloader/CMakeFiles/mesh_bootloader_serial_gccarmemb_nrf52840_xxAA.dir/src/dfu_util.c.obj
 .ARM.attributes
                0x00000277       0x39 mesh/bootloader/CMakeFiles/mesh_bootloader_serial_gccarmemb_nrf52840_xxAA.dir/src/fifo.c.obj
 .ARM.attributes
                0x000002b0       0x39 mesh/bootloader/CMakeFiles/mesh_bootloader_serial_gccarmemb_nrf52840_xxAA.dir/src/main.c.obj
 .ARM.attributes
                0x000002e9       0x39 mesh/bootloader/CMakeFiles/mesh_bootloader_serial_gccarmemb_nrf52840_xxAA.dir/src/mesh_packet.c.obj
 .ARM.attributes
                0x00000322       0x39 mesh/bootloader/CMakeFiles/mesh_bootloader_serial_gccarmemb_nrf52840_xxAA.dir/src/nrf_flash.c.obj
 .ARM.attributes
                0x0000035b       0x39 mesh/bootloader/CMakeFiles/mesh_bootloader_serial_gccarmemb_nrf52840_xxAA.dir/src/radio_control.c.obj
 .ARM.attributes
                0x00000394       0x39 mesh/bootloader/CMakeFiles/mesh_bootloader_serial_gccarmemb_nrf52840_xxAA.dir/src/rand.c.obj
 .ARM.attributes
                0x000003cd       0x39 mesh/bootloader/CMakeFiles/mesh_bootloader_serial_gccarmemb_nrf52840_xxAA.dir/src/transport.c.obj
 .ARM.attributes
                0x00000406       0x39 mesh/bootloader/CMakeFiles/mesh_bootloader_serial_gccarmemb_nrf52840_xxAA.dir/src/uECC.c.obj
 .ARM.attributes
                0x0000043f       0x39 mesh/bootloader/CMakeFiles/mesh_bootloader_serial_gccarmemb_nrf52840_xxAA.dir/C_/dev/mesh_dep/nRF5_SDK_16.0.0_98a08e2/components/libraries/sha256/sha256.c.obj
 .ARM.attributes
                0x00000478       0x39 mesh/bootloader/CMakeFiles/mesh_bootloader_serial_gccarmemb_nrf52840_xxAA.dir/src/serial_handler_uart.c.obj
 .ARM.attributes
                0x000004b1       0x39 mesh/bootloader/CMakeFiles/mesh_bootloader_serial_gccarmemb_nrf52840_xxAA.dir/src/mesh_aci.c.obj
 .ARM.attributes
                0x000004ea       0x39 mesh/bootloader/CMakeFiles/mesh_bootloader_serial_gccarmemb_nrf52840_xxAA.dir/C_/dev/mesh_dep/nRF5_SDK_16.0.0_98a08e2/modules/nrfx/mdk/system_nrf52840.c.obj
 .ARM.attributes
                0x00000523       0x20 mesh/bootloader/CMakeFiles/mesh_bootloader_serial_gccarmemb_nrf52840_xxAA.dir/C_/dev/mesh_dep/nRF5_SDK_16.0.0_98a08e2/modules/nrfx/mdk/gcc_startup_nrf52840.S.obj
 .ARM.attributes
                0x00000543       0x22 c:/progra~2/gnutoo~1/72018-~1/bin/../lib/gcc/arm-none-eabi/7.3.1/thumb/v7e-m/fpv4-sp/hard\libgcc.a(_aeabi_uldivmod.o)
 .ARM.attributes
                0x00000565       0x34 c:/progra~2/gnutoo~1/72018-~1/bin/../lib/gcc/arm-none-eabi/7.3.1/thumb/v7e-m/fpv4-sp/hard\libgcc.a(_udivmoddi4.o)
 .ARM.attributes
                0x00000599       0x22 c:/progra~2/gnutoo~1/72018-~1/bin/../lib/gcc/arm-none-eabi/7.3.1/thumb/v7e-m/fpv4-sp/hard\libgcc.a(_dvmd_tls.o)
 .ARM.attributes
                0x000005bb       0x34 c:/progra~2/gnutoo~1/72018-~1/bin/../lib/gcc/arm-none-eabi/7.3.1/../../../../arm-none-eabi/lib/thumb/v7e-m/fpv4-sp/hard\libg_nano.a(lib_a-exit.o)
 .ARM.attributes
                0x000005ef       0x34 c:/progra~2/gnutoo~1/72018-~1/bin/../lib/gcc/arm-none-eabi/7.3.1/../../../../arm-none-eabi/lib/thumb/v7e-m/fpv4-sp/hard\libg_nano.a(lib_a-impure.o)
 .ARM.attributes
                0x00000623       0x34 c:/progra~2/gnutoo~1/72018-~1/bin/../lib/gcc/arm-none-eabi/7.3.1/../../../../arm-none-eabi/lib/thumb/v7e-m/fpv4-sp/hard\libg_nano.a(lib_a-init.o)
 .ARM.attributes
                0x00000657       0x34 c:/progra~2/gnutoo~1/72018-~1/bin/../lib/gcc/arm-none-eabi/7.3.1/../../../../arm-none-eabi/lib/thumb/v7e-m/fpv4-sp/hard\libg_nano.a(lib_a-memcmp.o)
 .ARM.attributes
                0x0000068b       0x34 c:/progra~2/gnutoo~1/72018-~1/bin/../lib/gcc/arm-none-eabi/7.3.1/../../../../arm-none-eabi/lib/thumb/v7e-m/fpv4-sp/hard\libg_nano.a(lib_a-memcpy-stub.o)
 .ARM.attributes
                0x000006bf       0x34 c:/progra~2/gnutoo~1/72018-~1/bin/../lib/gcc/arm-none-eabi/7.3.1/../../../../arm-none-eabi/lib/thumb/v7e-m/fpv4-sp/hard\libg_nano.a(lib_a-memset.o)
 .ARM.attributes
                0x000006f3       0x34 c:/progra~2/gnutoo~1/72018-~1/bin/../lib/gcc/arm-none-eabi/7.3.1/thumb/v7e-m/fpv4-sp/hard/crtend.o
 .ARM.attributes
                0x00000727       0x22 c:/progra~2/gnutoo~1/72018-~1/bin/../lib/gcc/arm-none-eabi/7.3.1/thumb/v7e-m/fpv4-sp/hard/crtn.o
 .ARM.attributes
                0x00000749       0x34 c:/progra~2/gnutoo~1/72018-~1/bin/../lib/gcc/arm-none-eabi/7.3.1/../../../../arm-none-eabi/lib/thumb/v7e-m/fpv4-sp/hard\libnosys.a(_exit.o)

.comment        0x00000000       0x7f
 .comment       0x00000000       0x7f mesh/bootloader/CMakeFiles/mesh_bootloader_serial_gccarmemb_nrf52840_xxAA.dir/src/bootloader.c.obj
                                 0x80 (size before relaxing)
 .comment       0x0000007f       0x80 mesh/bootloader/CMakeFiles/mesh_bootloader_serial_gccarmemb_nrf52840_xxAA.dir/src/bootloader_app_bridge.c.obj
 .comment       0x0000007f       0x80 mesh/bootloader/CMakeFiles/mesh_bootloader_serial_gccarmemb_nrf52840_xxAA.dir/src/bootloader_info.c.obj
 .comment       0x0000007f       0x80 mesh/bootloader/CMakeFiles/mesh_bootloader_serial_gccarmemb_nrf52840_xxAA.dir/src/bootloader_rtc.c.obj
 .comment       0x0000007f       0x80 mesh/bootloader/CMakeFiles/mesh_bootloader_serial_gccarmemb_nrf52840_xxAA.dir/src/bootloader_util.c.obj
 .comment       0x0000007f       0x80 mesh/bootloader/CMakeFiles/mesh_bootloader_serial_gccarmemb_nrf52840_xxAA.dir/src/dfu_bank.c.obj
 .comment       0x0000007f       0x80 mesh/bootloader/CMakeFiles/mesh_bootloader_serial_gccarmemb_nrf52840_xxAA.dir/src/dfu_mesh.c.obj
 .comment       0x0000007f       0x80 mesh/bootloader/CMakeFiles/mesh_bootloader_serial_gccarmemb_nrf52840_xxAA.dir/src/dfu_transfer_mesh.c.obj
 .comment       0x0000007f       0x80 mesh/bootloader/CMakeFiles/mesh_bootloader_serial_gccarmemb_nrf52840_xxAA.dir/src/dfu_util.c.obj
 .comment       0x0000007f       0x80 mesh/bootloader/CMakeFiles/mesh_bootloader_serial_gccarmemb_nrf52840_xxAA.dir/src/fifo.c.obj
 .comment       0x0000007f       0x80 mesh/bootloader/CMakeFiles/mesh_bootloader_serial_gccarmemb_nrf52840_xxAA.dir/src/main.c.obj
 .comment       0x0000007f       0x80 mesh/bootloader/CMakeFiles/mesh_bootloader_serial_gccarmemb_nrf52840_xxAA.dir/src/mesh_packet.c.obj
 .comment       0x0000007f       0x80 mesh/bootloader/CMakeFiles/mesh_bootloader_serial_gccarmemb_nrf52840_xxAA.dir/src/nrf_flash.c.obj
 .comment       0x0000007f       0x80 mesh/bootloader/CMakeFiles/mesh_bootloader_serial_gccarmemb_nrf52840_xxAA.dir/src/radio_control.c.obj
 .comment       0x0000007f       0x80 mesh/bootloader/CMakeFiles/mesh_bootloader_serial_gccarmemb_nrf52840_xxAA.dir/src/rand.c.obj
 .comment       0x0000007f       0x80 mesh/bootloader/CMakeFiles/mesh_bootloader_serial_gccarmemb_nrf52840_xxAA.dir/src/transport.c.obj
 .comment       0x0000007f       0x80 mesh/bootloader/CMakeFiles/mesh_bootloader_serial_gccarmemb_nrf52840_xxAA.dir/src/uECC.c.obj
 .comment       0x0000007f       0x80 mesh/bootloader/CMakeFiles/mesh_bootloader_serial_gccarmemb_nrf52840_xxAA.dir/C_/dev/mesh_dep/nRF5_SDK_16.0.0_98a08e2/components/libraries/sha256/sha256.c.obj
 .comment       0x0000007f       0x80 mesh/bootloader/CMakeFiles/mesh_bootloader_serial_gccarmemb_nrf52840_xxAA.dir/src/serial_handler_uart.c.obj
 .comment       0x0000007f       0x80 mesh/bootloader/CMakeFiles/mesh_bootloader_serial_gccarmemb_nrf52840_xxAA.dir/src/mesh_aci.c.obj
 .comment       0x0000007f       0x80 mesh/bootloader/CMakeFiles/mesh_bootloader_serial_gccarmemb_nrf52840_xxAA.dir/C_/dev/mesh_dep/nRF5_SDK_16.0.0_98a08e2/modules/nrfx/mdk/system_nrf52840.c.obj

.debug_info     0x00000000    0x2191d
 .debug_info    0x00000000     0x3a4c mesh/bootloader/CMakeFiles/mesh_bootloader_serial_gccarmemb_nrf52840_xxAA.dir/src/bootloader.c.obj
 .debug_info    0x00003a4c     0x2440 mesh/bootloader/CMakeFiles/mesh_bootloader_serial_gccarmemb_nrf52840_xxAA.dir/src/bootloader_app_bridge.c.obj
 .debug_info    0x00005e8c     0x1c2c mesh/bootloader/CMakeFiles/mesh_bootloader_serial_gccarmemb_nrf52840_xxAA.dir/src/bootloader_info.c.obj
 .debug_info    0x00007ab8      0x7a1 mesh/bootloader/CMakeFiles/mesh_bootloader_serial_gccarmemb_nrf52840_xxAA.dir/src/bootloader_rtc.c.obj
 .debug_info    0x00008259      0x8f6 mesh/bootloader/CMakeFiles/mesh_bootloader_serial_gccarmemb_nrf52840_xxAA.dir/src/bootloader_util.c.obj
 .debug_info    0x00008b4f     0x230e mesh/bootloader/CMakeFiles/mesh_bootloader_serial_gccarmemb_nrf52840_xxAA.dir/src/dfu_bank.c.obj
 .debug_info    0x0000ae5d     0x3701 mesh/bootloader/CMakeFiles/mesh_bootloader_serial_gccarmemb_nrf52840_xxAA.dir/src/dfu_mesh.c.obj
 .debug_info    0x0000e55e      0xeca mesh/bootloader/CMakeFiles/mesh_bootloader_serial_gccarmemb_nrf52840_xxAA.dir/src/dfu_transfer_mesh.c.obj
 .debug_info    0x0000f428     0x171b mesh/bootloader/CMakeFiles/mesh_bootloader_serial_gccarmemb_nrf52840_xxAA.dir/src/dfu_util.c.obj
 .debug_info    0x00010b43      0xc70 mesh/bootloader/CMakeFiles/mesh_bootloader_serial_gccarmemb_nrf52840_xxAA.dir/src/fifo.c.obj
 .debug_info    0x000117b3     0x161c mesh/bootloader/CMakeFiles/mesh_bootloader_serial_gccarmemb_nrf52840_xxAA.dir/src/main.c.obj
 .debug_info    0x00012dcf     0x1441 mesh/bootloader/CMakeFiles/mesh_bootloader_serial_gccarmemb_nrf52840_xxAA.dir/src/mesh_packet.c.obj
 .debug_info    0x00014210      0x77b mesh/bootloader/CMakeFiles/mesh_bootloader_serial_gccarmemb_nrf52840_xxAA.dir/src/nrf_flash.c.obj
 .debug_info    0x0001498b     0x181b mesh/bootloader/CMakeFiles/mesh_bootloader_serial_gccarmemb_nrf52840_xxAA.dir/src/radio_control.c.obj
 .debug_info    0x000161a6      0x344 mesh/bootloader/CMakeFiles/mesh_bootloader_serial_gccarmemb_nrf52840_xxAA.dir/src/rand.c.obj
 .debug_info    0x000164ea     0x2415 mesh/bootloader/CMakeFiles/mesh_bootloader_serial_gccarmemb_nrf52840_xxAA.dir/src/transport.c.obj
 .debug_info    0x000188ff     0x1ea7 mesh/bootloader/CMakeFiles/mesh_bootloader_serial_gccarmemb_nrf52840_xxAA.dir/src/uECC.c.obj
 .debug_info    0x0001a7a6      0xc18 mesh/bootloader/CMakeFiles/mesh_bootloader_serial_gccarmemb_nrf52840_xxAA.dir/C_/dev/mesh_dep/nRF5_SDK_16.0.0_98a08e2/components/libraries/sha256/sha256.c.obj
 .debug_info    0x0001b3be     0x21e2 mesh/bootloader/CMakeFiles/mesh_bootloader_serial_gccarmemb_nrf52840_xxAA.dir/src/serial_handler_uart.c.obj
 .debug_info    0x0001d5a0     0x2fe6 mesh/bootloader/CMakeFiles/mesh_bootloader_serial_gccarmemb_nrf52840_xxAA.dir/src/mesh_aci.c.obj
 .debug_info    0x00020586     0x1397 mesh/bootloader/CMakeFiles/mesh_bootloader_serial_gccarmemb_nrf52840_xxAA.dir/C_/dev/mesh_dep/nRF5_SDK_16.0.0_98a08e2/modules/nrfx/mdk/system_nrf52840.c.obj

.debug_abbrev   0x00000000     0x46d3
 .debug_abbrev  0x00000000      0x46b mesh/bootloader/CMakeFiles/mesh_bootloader_serial_gccarmemb_nrf52840_xxAA.dir/src/bootloader.c.obj
 .debug_abbrev  0x0000046b      0x39b mesh/bootloader/CMakeFiles/mesh_bootloader_serial_gccarmemb_nrf52840_xxAA.dir/src/bootloader_app_bridge.c.obj
 .debug_abbrev  0x00000806      0x50f mesh/bootloader/CMakeFiles/mesh_bootloader_serial_gccarmemb_nrf52840_xxAA.dir/src/bootloader_info.c.obj
 .debug_abbrev  0x00000d15      0x193 mesh/bootloader/CMakeFiles/mesh_bootloader_serial_gccarmemb_nrf52840_xxAA.dir/src/bootloader_rtc.c.obj
 .debug_abbrev  0x00000ea8      0x1db mesh/bootloader/CMakeFiles/mesh_bootloader_serial_gccarmemb_nrf52840_xxAA.dir/src/bootloader_util.c.obj
 .debug_abbrev  0x00001083      0x453 mesh/bootloader/CMakeFiles/mesh_bootloader_serial_gccarmemb_nrf52840_xxAA.dir/src/dfu_bank.c.obj
 .debug_abbrev  0x000014d6      0x4c8 mesh/bootloader/CMakeFiles/mesh_bootloader_serial_gccarmemb_nrf52840_xxAA.dir/src/dfu_mesh.c.obj
 .debug_abbrev  0x0000199e      0x379 mesh/bootloader/CMakeFiles/mesh_bootloader_serial_gccarmemb_nrf52840_xxAA.dir/src/dfu_transfer_mesh.c.obj
 .debug_abbrev  0x00001d17      0x420 mesh/bootloader/CMakeFiles/mesh_bootloader_serial_gccarmemb_nrf52840_xxAA.dir/src/dfu_util.c.obj
 .debug_abbrev  0x00002137      0x2d4 mesh/bootloader/CMakeFiles/mesh_bootloader_serial_gccarmemb_nrf52840_xxAA.dir/src/fifo.c.obj
 .debug_abbrev  0x0000240b      0x31d mesh/bootloader/CMakeFiles/mesh_bootloader_serial_gccarmemb_nrf52840_xxAA.dir/src/main.c.obj
 .debug_abbrev  0x00002728      0x387 mesh/bootloader/CMakeFiles/mesh_bootloader_serial_gccarmemb_nrf52840_xxAA.dir/src/mesh_packet.c.obj
 .debug_abbrev  0x00002aaf      0x1d2 mesh/bootloader/CMakeFiles/mesh_bootloader_serial_gccarmemb_nrf52840_xxAA.dir/src/nrf_flash.c.obj
 .debug_abbrev  0x00002c81      0x44d mesh/bootloader/CMakeFiles/mesh_bootloader_serial_gccarmemb_nrf52840_xxAA.dir/src/radio_control.c.obj
 .debug_abbrev  0x000030ce      0x188 mesh/bootloader/CMakeFiles/mesh_bootloader_serial_gccarmemb_nrf52840_xxAA.dir/src/rand.c.obj
 .debug_abbrev  0x00003256      0x4f5 mesh/bootloader/CMakeFiles/mesh_bootloader_serial_gccarmemb_nrf52840_xxAA.dir/src/transport.c.obj
 .debug_abbrev  0x0000374b      0x2b5 mesh/bootloader/CMakeFiles/mesh_bootloader_serial_gccarmemb_nrf52840_xxAA.dir/src/uECC.c.obj
 .debug_abbrev  0x00003a00      0x24c mesh/bootloader/CMakeFiles/mesh_bootloader_serial_gccarmemb_nrf52840_xxAA.dir/C_/dev/mesh_dep/nRF5_SDK_16.0.0_98a08e2/components/libraries/sha256/sha256.c.obj
 .debug_abbrev  0x00003c4c      0x45f mesh/bootloader/CMakeFiles/mesh_bootloader_serial_gccarmemb_nrf52840_xxAA.dir/src/serial_handler_uart.c.obj
 .debug_abbrev  0x000040ab      0x40c mesh/bootloader/CMakeFiles/mesh_bootloader_serial_gccarmemb_nrf52840_xxAA.dir/src/mesh_aci.c.obj
 .debug_abbrev  0x000044b7      0x21c mesh/bootloader/CMakeFiles/mesh_bootloader_serial_gccarmemb_nrf52840_xxAA.dir/C_/dev/mesh_dep/nRF5_SDK_16.0.0_98a08e2/modules/nrfx/mdk/system_nrf52840.c.obj

.debug_loc      0x00000000     0x5f52
 .debug_loc     0x00000000      0x539 mesh/bootloader/CMakeFiles/mesh_bootloader_serial_gccarmemb_nrf52840_xxAA.dir/src/bootloader.c.obj
 .debug_loc     0x00000539      0x36d mesh/bootloader/CMakeFiles/mesh_bootloader_serial_gccarmemb_nrf52840_xxAA.dir/src/bootloader_app_bridge.c.obj
 .debug_loc     0x000008a6      0xafb mesh/bootloader/CMakeFiles/mesh_bootloader_serial_gccarmemb_nrf52840_xxAA.dir/src/bootloader_info.c.obj
 .debug_loc     0x000013a1       0x3c mesh/bootloader/CMakeFiles/mesh_bootloader_serial_gccarmemb_nrf52840_xxAA.dir/src/bootloader_rtc.c.obj
 .debug_loc     0x000013dd       0x31 mesh/bootloader/CMakeFiles/mesh_bootloader_serial_gccarmemb_nrf52840_xxAA.dir/src/bootloader_util.c.obj
 .debug_loc     0x0000140e      0x307 mesh/bootloader/CMakeFiles/mesh_bootloader_serial_gccarmemb_nrf52840_xxAA.dir/src/dfu_bank.c.obj
 .debug_loc     0x00001715      0xf62 mesh/bootloader/CMakeFiles/mesh_bootloader_serial_gccarmemb_nrf52840_xxAA.dir/src/dfu_mesh.c.obj
 .debug_loc     0x00002677      0x473 mesh/bootloader/CMakeFiles/mesh_bootloader_serial_gccarmemb_nrf52840_xxAA.dir/src/dfu_transfer_mesh.c.obj
 .debug_loc     0x00002aea      0x602 mesh/bootloader/CMakeFiles/mesh_bootloader_serial_gccarmemb_nrf52840_xxAA.dir/src/dfu_util.c.obj
 .debug_loc     0x000030ec      0x377 mesh/bootloader/CMakeFiles/mesh_bootloader_serial_gccarmemb_nrf52840_xxAA.dir/src/fifo.c.obj
 .debug_loc     0x00003463       0x3c mesh/bootloader/CMakeFiles/mesh_bootloader_serial_gccarmemb_nrf52840_xxAA.dir/src/main.c.obj
 .debug_loc     0x0000349f      0x5c4 mesh/bootloader/CMakeFiles/mesh_bootloader_serial_gccarmemb_nrf52840_xxAA.dir/src/mesh_packet.c.obj
 .debug_loc     0x00003a63      0x178 mesh/bootloader/CMakeFiles/mesh_bootloader_serial_gccarmemb_nrf52840_xxAA.dir/src/nrf_flash.c.obj
 .debug_loc     0x00003bdb      0x259 mesh/bootloader/CMakeFiles/mesh_bootloader_serial_gccarmemb_nrf52840_xxAA.dir/src/radio_control.c.obj
 .debug_loc     0x00003e34      0x101 mesh/bootloader/CMakeFiles/mesh_bootloader_serial_gccarmemb_nrf52840_xxAA.dir/src/rand.c.obj
 .debug_loc     0x00003f35      0x5b4 mesh/bootloader/CMakeFiles/mesh_bootloader_serial_gccarmemb_nrf52840_xxAA.dir/src/transport.c.obj
 .debug_loc     0x000044e9     0x12e2 mesh/bootloader/CMakeFiles/mesh_bootloader_serial_gccarmemb_nrf52840_xxAA.dir/src/uECC.c.obj
 .debug_loc     0x000057cb      0x550 mesh/bootloader/CMakeFiles/mesh_bootloader_serial_gccarmemb_nrf52840_xxAA.dir/C_/dev/mesh_dep/nRF5_SDK_16.0.0_98a08e2/components/libraries/sha256/sha256.c.obj
 .debug_loc     0x00005d1b      0x13c mesh/bootloader/CMakeFiles/mesh_bootloader_serial_gccarmemb_nrf52840_xxAA.dir/src/serial_handler_uart.c.obj
 .debug_loc     0x00005e57       0xfb mesh/bootloader/CMakeFiles/mesh_bootloader_serial_gccarmemb_nrf52840_xxAA.dir/src/mesh_aci.c.obj

.debug_aranges  0x00000000      0x800
 .debug_aranges
                0x00000000       0x78 mesh/bootloader/CMakeFiles/mesh_bootloader_serial_gccarmemb_nrf52840_xxAA.dir/src/bootloader.c.obj
 .debug_aranges
                0x00000078       0x70 mesh/bootloader/CMakeFiles/mesh_bootloader_serial_gccarmemb_nrf52840_xxAA.dir/src/bootloader_app_bridge.c.obj
 .debug_aranges
                0x000000e8       0xc0 mesh/bootloader/CMakeFiles/mesh_bootloader_serial_gccarmemb_nrf52840_xxAA.dir/src/bootloader_info.c.obj
 .debug_aranges
                0x000001a8       0x28 mesh/bootloader/CMakeFiles/mesh_bootloader_serial_gccarmemb_nrf52840_xxAA.dir/src/bootloader_rtc.c.obj
 .debug_aranges
                0x000001d0       0x20 mesh/bootloader/CMakeFiles/mesh_bootloader_serial_gccarmemb_nrf52840_xxAA.dir/src/bootloader_util.c.obj
 .debug_aranges
                0x000001f0       0x50 mesh/bootloader/CMakeFiles/mesh_bootloader_serial_gccarmemb_nrf52840_xxAA.dir/src/dfu_bank.c.obj
 .debug_aranges
                0x00000240       0xb8 mesh/bootloader/CMakeFiles/mesh_bootloader_serial_gccarmemb_nrf52840_xxAA.dir/src/dfu_mesh.c.obj
 .debug_aranges
                0x000002f8       0x60 mesh/bootloader/CMakeFiles/mesh_bootloader_serial_gccarmemb_nrf52840_xxAA.dir/src/dfu_transfer_mesh.c.obj
 .debug_aranges
                0x00000358       0xa0 mesh/bootloader/CMakeFiles/mesh_bootloader_serial_gccarmemb_nrf52840_xxAA.dir/src/dfu_util.c.obj
 .debug_aranges
                0x000003f8       0x60 mesh/bootloader/CMakeFiles/mesh_bootloader_serial_gccarmemb_nrf52840_xxAA.dir/src/fifo.c.obj
 .debug_aranges
                0x00000458       0x38 mesh/bootloader/CMakeFiles/mesh_bootloader_serial_gccarmemb_nrf52840_xxAA.dir/src/main.c.obj
 .debug_aranges
                0x00000490       0x80 mesh/bootloader/CMakeFiles/mesh_bootloader_serial_gccarmemb_nrf52840_xxAA.dir/src/mesh_packet.c.obj
 .debug_aranges
                0x00000510       0x28 mesh/bootloader/CMakeFiles/mesh_bootloader_serial_gccarmemb_nrf52840_xxAA.dir/src/nrf_flash.c.obj
 .debug_aranges
                0x00000538       0x40 mesh/bootloader/CMakeFiles/mesh_bootloader_serial_gccarmemb_nrf52840_xxAA.dir/src/radio_control.c.obj
 .debug_aranges
                0x00000578       0x30 mesh/bootloader/CMakeFiles/mesh_bootloader_serial_gccarmemb_nrf52840_xxAA.dir/src/rand.c.obj
 .debug_aranges
                0x000005a8       0xa8 mesh/bootloader/CMakeFiles/mesh_bootloader_serial_gccarmemb_nrf52840_xxAA.dir/src/transport.c.obj
 .debug_aranges
                0x00000650       0xb0 mesh/bootloader/CMakeFiles/mesh_bootloader_serial_gccarmemb_nrf52840_xxAA.dir/src/uECC.c.obj
 .debug_aranges
                0x00000700       0x38 mesh/bootloader/CMakeFiles/mesh_bootloader_serial_gccarmemb_nrf52840_xxAA.dir/C_/dev/mesh_dep/nRF5_SDK_16.0.0_98a08e2/components/libraries/sha256/sha256.c.obj
 .debug_aranges
                0x00000738       0x60 mesh/bootloader/CMakeFiles/mesh_bootloader_serial_gccarmemb_nrf52840_xxAA.dir/src/serial_handler_uart.c.obj
 .debug_aranges
                0x00000798       0x38 mesh/bootloader/CMakeFiles/mesh_bootloader_serial_gccarmemb_nrf52840_xxAA.dir/src/mesh_aci.c.obj
 .debug_aranges
                0x000007d0       0x30 mesh/bootloader/CMakeFiles/mesh_bootloader_serial_gccarmemb_nrf52840_xxAA.dir/C_/dev/mesh_dep/nRF5_SDK_16.0.0_98a08e2/modules/nrfx/mdk/system_nrf52840.c.obj

.debug_ranges   0x00000000      0xef8
 .debug_ranges  0x00000000       0xe0 mesh/bootloader/CMakeFiles/mesh_bootloader_serial_gccarmemb_nrf52840_xxAA.dir/src/bootloader.c.obj
 .debug_ranges  0x000000e0       0x60 mesh/bootloader/CMakeFiles/mesh_bootloader_serial_gccarmemb_nrf52840_xxAA.dir/src/bootloader_app_bridge.c.obj
 .debug_ranges  0x00000140      0x1a8 mesh/bootloader/CMakeFiles/mesh_bootloader_serial_gccarmemb_nrf52840_xxAA.dir/src/bootloader_info.c.obj
 .debug_ranges  0x000002e8       0x18 mesh/bootloader/CMakeFiles/mesh_bootloader_serial_gccarmemb_nrf52840_xxAA.dir/src/bootloader_rtc.c.obj
 .debug_ranges  0x00000300       0x10 mesh/bootloader/CMakeFiles/mesh_bootloader_serial_gccarmemb_nrf52840_xxAA.dir/src/bootloader_util.c.obj
 .debug_ranges  0x00000310       0xc0 mesh/bootloader/CMakeFiles/mesh_bootloader_serial_gccarmemb_nrf52840_xxAA.dir/src/dfu_bank.c.obj
 .debug_ranges  0x000003d0      0x318 mesh/bootloader/CMakeFiles/mesh_bootloader_serial_gccarmemb_nrf52840_xxAA.dir/src/dfu_mesh.c.obj
 .debug_ranges  0x000006e8       0xa0 mesh/bootloader/CMakeFiles/mesh_bootloader_serial_gccarmemb_nrf52840_xxAA.dir/src/dfu_transfer_mesh.c.obj
 .debug_ranges  0x00000788       0xc0 mesh/bootloader/CMakeFiles/mesh_bootloader_serial_gccarmemb_nrf52840_xxAA.dir/src/dfu_util.c.obj
 .debug_ranges  0x00000848       0x68 mesh/bootloader/CMakeFiles/mesh_bootloader_serial_gccarmemb_nrf52840_xxAA.dir/src/fifo.c.obj
 .debug_ranges  0x000008b0       0x28 mesh/bootloader/CMakeFiles/mesh_bootloader_serial_gccarmemb_nrf52840_xxAA.dir/src/main.c.obj
 .debug_ranges  0x000008d8       0xe8 mesh/bootloader/CMakeFiles/mesh_bootloader_serial_gccarmemb_nrf52840_xxAA.dir/src/mesh_packet.c.obj
 .debug_ranges  0x000009c0       0x68 mesh/bootloader/CMakeFiles/mesh_bootloader_serial_gccarmemb_nrf52840_xxAA.dir/src/nrf_flash.c.obj
 .debug_ranges  0x00000a28       0xe8 mesh/bootloader/CMakeFiles/mesh_bootloader_serial_gccarmemb_nrf52840_xxAA.dir/src/radio_control.c.obj
 .debug_ranges  0x00000b10       0x20 mesh/bootloader/CMakeFiles/mesh_bootloader_serial_gccarmemb_nrf52840_xxAA.dir/src/rand.c.obj
 .debug_ranges  0x00000b30      0x148 mesh/bootloader/CMakeFiles/mesh_bootloader_serial_gccarmemb_nrf52840_xxAA.dir/src/transport.c.obj
 .debug_ranges  0x00000c78      0x160 mesh/bootloader/CMakeFiles/mesh_bootloader_serial_gccarmemb_nrf52840_xxAA.dir/src/uECC.c.obj
 .debug_ranges  0x00000dd8       0x28 mesh/bootloader/CMakeFiles/mesh_bootloader_serial_gccarmemb_nrf52840_xxAA.dir/C_/dev/mesh_dep/nRF5_SDK_16.0.0_98a08e2/components/libraries/sha256/sha256.c.obj
 .debug_ranges  0x00000e00       0x78 mesh/bootloader/CMakeFiles/mesh_bootloader_serial_gccarmemb_nrf52840_xxAA.dir/src/serial_handler_uart.c.obj
 .debug_ranges  0x00000e78       0x60 mesh/bootloader/CMakeFiles/mesh_bootloader_serial_gccarmemb_nrf52840_xxAA.dir/src/mesh_aci.c.obj
 .debug_ranges  0x00000ed8       0x20 mesh/bootloader/CMakeFiles/mesh_bootloader_serial_gccarmemb_nrf52840_xxAA.dir/C_/dev/mesh_dep/nRF5_SDK_16.0.0_98a08e2/modules/nrfx/mdk/system_nrf52840.c.obj

.debug_line     0x00000000     0x5b7d
 .debug_line    0x00000000      0x780 mesh/bootloader/CMakeFiles/mesh_bootloader_serial_gccarmemb_nrf52840_xxAA.dir/src/bootloader.c.obj
 .debug_line    0x00000780      0x4a5 mesh/bootloader/CMakeFiles/mesh_bootloader_serial_gccarmemb_nrf52840_xxAA.dir/src/bootloader_app_bridge.c.obj
 .debug_line    0x00000c25      0x650 mesh/bootloader/CMakeFiles/mesh_bootloader_serial_gccarmemb_nrf52840_xxAA.dir/src/bootloader_info.c.obj
 .debug_line    0x00001275      0x216 mesh/bootloader/CMakeFiles/mesh_bootloader_serial_gccarmemb_nrf52840_xxAA.dir/src/bootloader_rtc.c.obj
 .debug_line    0x0000148b      0x167 mesh/bootloader/CMakeFiles/mesh_bootloader_serial_gccarmemb_nrf52840_xxAA.dir/src/bootloader_util.c.obj
 .debug_line    0x000015f2      0x571 mesh/bootloader/CMakeFiles/mesh_bootloader_serial_gccarmemb_nrf52840_xxAA.dir/src/dfu_bank.c.obj
 .debug_line    0x00001b63      0x922 mesh/bootloader/CMakeFiles/mesh_bootloader_serial_gccarmemb_nrf52840_xxAA.dir/src/dfu_mesh.c.obj
 .debug_line    0x00002485      0x42e mesh/bootloader/CMakeFiles/mesh_bootloader_serial_gccarmemb_nrf52840_xxAA.dir/src/dfu_transfer_mesh.c.obj
 .debug_line    0x000028b3      0x49f mesh/bootloader/CMakeFiles/mesh_bootloader_serial_gccarmemb_nrf52840_xxAA.dir/src/dfu_util.c.obj
 .debug_line    0x00002d52      0x371 mesh/bootloader/CMakeFiles/mesh_bootloader_serial_gccarmemb_nrf52840_xxAA.dir/src/fifo.c.obj
 .debug_line    0x000030c3      0x330 mesh/bootloader/CMakeFiles/mesh_bootloader_serial_gccarmemb_nrf52840_xxAA.dir/src/main.c.obj
 .debug_line    0x000033f3      0x4aa mesh/bootloader/CMakeFiles/mesh_bootloader_serial_gccarmemb_nrf52840_xxAA.dir/src/mesh_packet.c.obj
 .debug_line    0x0000389d      0x216 mesh/bootloader/CMakeFiles/mesh_bootloader_serial_gccarmemb_nrf52840_xxAA.dir/src/nrf_flash.c.obj
 .debug_line    0x00003ab3      0x3f5 mesh/bootloader/CMakeFiles/mesh_bootloader_serial_gccarmemb_nrf52840_xxAA.dir/src/radio_control.c.obj
 .debug_line    0x00003ea8      0x20d mesh/bootloader/CMakeFiles/mesh_bootloader_serial_gccarmemb_nrf52840_xxAA.dir/src/rand.c.obj
 .debug_line    0x000040b5      0x63a mesh/bootloader/CMakeFiles/mesh_bootloader_serial_gccarmemb_nrf52840_xxAA.dir/src/transport.c.obj
 .debug_line    0x000046ef      0x4f0 mesh/bootloader/CMakeFiles/mesh_bootloader_serial_gccarmemb_nrf52840_xxAA.dir/src/uECC.c.obj
 .debug_line    0x00004bdf      0x470 mesh/bootloader/CMakeFiles/mesh_bootloader_serial_gccarmemb_nrf52840_xxAA.dir/C_/dev/mesh_dep/nRF5_SDK_16.0.0_98a08e2/components/libraries/sha256/sha256.c.obj
 .debug_line    0x0000504f      0x4a7 mesh/bootloader/CMakeFiles/mesh_bootloader_serial_gccarmemb_nrf52840_xxAA.dir/src/serial_handler_uart.c.obj
 .debug_line    0x000054f6      0x456 mesh/bootloader/CMakeFiles/mesh_bootloader_serial_gccarmemb_nrf52840_xxAA.dir/src/mesh_aci.c.obj
 .debug_line    0x0000594c      0x231 mesh/bootloader/CMakeFiles/mesh_bootloader_serial_gccarmemb_nrf52840_xxAA.dir/C_/dev/mesh_dep/nRF5_SDK_16.0.0_98a08e2/modules/nrfx/mdk/system_nrf52840.c.obj

.debug_str      0x00000000     0x575c
 .debug_str     0x00000000     0x28ff mesh/bootloader/CMakeFiles/mesh_bootloader_serial_gccarmemb_nrf52840_xxAA.dir/src/bootloader.c.obj
                               0x2b88 (size before relaxing)
 .debug_str     0x000028ff      0x33e mesh/bootloader/CMakeFiles/mesh_bootloader_serial_gccarmemb_nrf52840_xxAA.dir/src/bootloader_app_bridge.c.obj
                               0x19d0 (size before relaxing)
 .debug_str     0x00002c3d      0x51d mesh/bootloader/CMakeFiles/mesh_bootloader_serial_gccarmemb_nrf52840_xxAA.dir/src/bootloader_info.c.obj
                               0x1082 (size before relaxing)
 .debug_str     0x0000315a       0x52 mesh/bootloader/CMakeFiles/mesh_bootloader_serial_gccarmemb_nrf52840_xxAA.dir/src/bootloader_rtc.c.obj
                                0x6df (size before relaxing)
 .debug_str     0x000031ac       0x3f mesh/bootloader/CMakeFiles/mesh_bootloader_serial_gccarmemb_nrf52840_xxAA.dir/src/bootloader_util.c.obj
                                0x5ee (size before relaxing)
 .debug_str     0x000031eb      0x182 mesh/bootloader/CMakeFiles/mesh_bootloader_serial_gccarmemb_nrf52840_xxAA.dir/src/dfu_bank.c.obj
                               0x17f1 (size before relaxing)
 .debug_str     0x0000336d      0x7ee mesh/bootloader/CMakeFiles/mesh_bootloader_serial_gccarmemb_nrf52840_xxAA.dir/src/dfu_mesh.c.obj
                               0x1b8c (size before relaxing)
 .debug_str     0x00003b5b      0x114 mesh/bootloader/CMakeFiles/mesh_bootloader_serial_gccarmemb_nrf52840_xxAA.dir/src/dfu_transfer_mesh.c.obj
                                0xa1e (size before relaxing)
 .debug_str     0x00003c6f      0x140 mesh/bootloader/CMakeFiles/mesh_bootloader_serial_gccarmemb_nrf52840_xxAA.dir/src/dfu_util.c.obj
                               0x1136 (size before relaxing)
 .debug_str     0x00003daf       0x68 mesh/bootloader/CMakeFiles/mesh_bootloader_serial_gccarmemb_nrf52840_xxAA.dir/src/fifo.c.obj
                                0x6dd (size before relaxing)
 .debug_str     0x00003e17      0x1f5 mesh/bootloader/CMakeFiles/mesh_bootloader_serial_gccarmemb_nrf52840_xxAA.dir/src/main.c.obj
                                0xf5c (size before relaxing)
 .debug_str     0x0000400c      0x17a mesh/bootloader/CMakeFiles/mesh_bootloader_serial_gccarmemb_nrf52840_xxAA.dir/src/mesh_packet.c.obj
                                0xb1c (size before relaxing)
 .debug_str     0x00004186       0xc9 mesh/bootloader/CMakeFiles/mesh_bootloader_serial_gccarmemb_nrf52840_xxAA.dir/src/nrf_flash.c.obj
                                0x482 (size before relaxing)
 .debug_str     0x0000424f      0x56e mesh/bootloader/CMakeFiles/mesh_bootloader_serial_gccarmemb_nrf52840_xxAA.dir/src/radio_control.c.obj
                               0x104b (size before relaxing)
 .debug_str     0x000047bd       0x7d mesh/bootloader/CMakeFiles/mesh_bootloader_serial_gccarmemb_nrf52840_xxAA.dir/src/rand.c.obj
                                0x2ef (size before relaxing)
 .debug_str     0x0000483a      0x1a6 mesh/bootloader/CMakeFiles/mesh_bootloader_serial_gccarmemb_nrf52840_xxAA.dir/src/transport.c.obj
                               0x17aa (size before relaxing)
 .debug_str     0x000049e0      0x2a3 mesh/bootloader/CMakeFiles/mesh_bootloader_serial_gccarmemb_nrf52840_xxAA.dir/src/uECC.c.obj
                                0x4b3 (size before relaxing)
 .debug_str     0x00004c83       0x7a mesh/bootloader/CMakeFiles/mesh_bootloader_serial_gccarmemb_nrf52840_xxAA.dir/C_/dev/mesh_dep/nRF5_SDK_16.0.0_98a08e2/components/libraries/sha256/sha256.c.obj
                                0x6e4 (size before relaxing)
 .debug_str     0x00004cfd      0x60e mesh/bootloader/CMakeFiles/mesh_bootloader_serial_gccarmemb_nrf52840_xxAA.dir/src/serial_handler_uart.c.obj
                               0x18d1 (size before relaxing)
 .debug_str     0x0000530b      0x2e9 mesh/bootloader/CMakeFiles/mesh_bootloader_serial_gccarmemb_nrf52840_xxAA.dir/src/mesh_aci.c.obj
                               0x27b6 (size before relaxing)
 .debug_str     0x000055f4      0x168 mesh/bootloader/CMakeFiles/mesh_bootloader_serial_gccarmemb_nrf52840_xxAA.dir/C_/dev/mesh_dep/nRF5_SDK_16.0.0_98a08e2/modules/nrfx/mdk/system_nrf52840.c.obj
                                0x90f (size before relaxing)

.debug_frame    0x00000000     0x1670
 .debug_frame   0x00000000      0x14c mesh/bootloader/CMakeFiles/mesh_bootloader_serial_gccarmemb_nrf52840_xxAA.dir/src/bootloader.c.obj
 .debug_frame   0x0000014c      0x130 mesh/bootloader/CMakeFiles/mesh_bootloader_serial_gccarmemb_nrf52840_xxAA.dir/src/bootloader_app_bridge.c.obj
 .debug_frame   0x0000027c      0x22c mesh/bootloader/CMakeFiles/mesh_bootloader_serial_gccarmemb_nrf52840_xxAA.dir/src/bootloader_info.c.obj
 .debug_frame   0x000004a8       0x40 mesh/bootloader/CMakeFiles/mesh_bootloader_serial_gccarmemb_nrf52840_xxAA.dir/src/bootloader_rtc.c.obj
 .debug_frame   0x000004e8       0x30 mesh/bootloader/CMakeFiles/mesh_bootloader_serial_gccarmemb_nrf52840_xxAA.dir/src/bootloader_util.c.obj
 .debug_frame   0x00000518       0xbc mesh/bootloader/CMakeFiles/mesh_bootloader_serial_gccarmemb_nrf52840_xxAA.dir/src/dfu_bank.c.obj
 .debug_frame   0x000005d4      0x284 mesh/bootloader/CMakeFiles/mesh_bootloader_serial_gccarmemb_nrf52840_xxAA.dir/src/dfu_mesh.c.obj
 .debug_frame   0x00000858      0x10c mesh/bootloader/CMakeFiles/mesh_bootloader_serial_gccarmemb_nrf52840_xxAA.dir/src/dfu_transfer_mesh.c.obj
 .debug_frame   0x00000964      0x19c mesh/bootloader/CMakeFiles/mesh_bootloader_serial_gccarmemb_nrf52840_xxAA.dir/src/dfu_util.c.obj
 .debug_frame   0x00000b00       0xc8 mesh/bootloader/CMakeFiles/mesh_bootloader_serial_gccarmemb_nrf52840_xxAA.dir/src/fifo.c.obj
 .debug_frame   0x00000bc8       0x58 mesh/bootloader/CMakeFiles/mesh_bootloader_serial_gccarmemb_nrf52840_xxAA.dir/src/main.c.obj
 .debug_frame   0x00000c20      0x150 mesh/bootloader/CMakeFiles/mesh_bootloader_serial_gccarmemb_nrf52840_xxAA.dir/src/mesh_packet.c.obj
 .debug_frame   0x00000d70       0x50 mesh/bootloader/CMakeFiles/mesh_bootloader_serial_gccarmemb_nrf52840_xxAA.dir/src/nrf_flash.c.obj
 .debug_frame   0x00000dc0       0xac mesh/bootloader/CMakeFiles/mesh_bootloader_serial_gccarmemb_nrf52840_xxAA.dir/src/radio_control.c.obj
 .debug_frame   0x00000e6c       0x60 mesh/bootloader/CMakeFiles/mesh_bootloader_serial_gccarmemb_nrf52840_xxAA.dir/src/rand.c.obj
 .debug_frame   0x00000ecc      0x1dc mesh/bootloader/CMakeFiles/mesh_bootloader_serial_gccarmemb_nrf52840_xxAA.dir/src/transport.c.obj
 .debug_frame   0x000010a8      0x224 mesh/bootloader/CMakeFiles/mesh_bootloader_serial_gccarmemb_nrf52840_xxAA.dir/src/uECC.c.obj
 .debug_frame   0x000012cc       0x9c mesh/bootloader/CMakeFiles/mesh_bootloader_serial_gccarmemb_nrf52840_xxAA.dir/C_/dev/mesh_dep/nRF5_SDK_16.0.0_98a08e2/components/libraries/sha256/sha256.c.obj
 .debug_frame   0x00001368       0xf8 mesh/bootloader/CMakeFiles/mesh_bootloader_serial_gccarmemb_nrf52840_xxAA.dir/src/serial_handler_uart.c.obj
 .debug_frame   0x00001460       0x80 mesh/bootloader/CMakeFiles/mesh_bootloader_serial_gccarmemb_nrf52840_xxAA.dir/src/mesh_aci.c.obj
 .debug_frame   0x000014e0       0x48 mesh/bootloader/CMakeFiles/mesh_bootloader_serial_gccarmemb_nrf52840_xxAA.dir/C_/dev/mesh_dep/nRF5_SDK_16.0.0_98a08e2/modules/nrfx/mdk/system_nrf52840.c.obj
 .debug_frame   0x00001528       0x2c c:/progra~2/gnutoo~1/72018-~1/bin/../lib/gcc/arm-none-eabi/7.3.1/thumb/v7e-m/fpv4-sp/hard\libgcc.a(_aeabi_uldivmod.o)
 .debug_frame   0x00001554       0x34 c:/progra~2/gnutoo~1/72018-~1/bin/../lib/gcc/arm-none-eabi/7.3.1/thumb/v7e-m/fpv4-sp/hard\libgcc.a(_udivmoddi4.o)
 .debug_frame   0x00001588       0x28 c:/progra~2/gnutoo~1/72018-~1/bin/../lib/gcc/arm-none-eabi/7.3.1/../../../../arm-none-eabi/lib/thumb/v7e-m/fpv4-sp/hard\libg_nano.a(lib_a-exit.o)
 .debug_frame   0x000015b0       0x2c c:/progra~2/gnutoo~1/72018-~1/bin/../lib/gcc/arm-none-eabi/7.3.1/../../../../arm-none-eabi/lib/thumb/v7e-m/fpv4-sp/hard\libg_nano.a(lib_a-init.o)
 .debug_frame   0x000015dc       0x2c c:/progra~2/gnutoo~1/72018-~1/bin/../lib/gcc/arm-none-eabi/7.3.1/../../../../arm-none-eabi/lib/thumb/v7e-m/fpv4-sp/hard\libg_nano.a(lib_a-memcmp.o)
 .debug_frame   0x00001608       0x28 c:/progra~2/gnutoo~1/72018-~1/bin/../lib/gcc/arm-none-eabi/7.3.1/../../../../arm-none-eabi/lib/thumb/v7e-m/fpv4-sp/hard\libg_nano.a(lib_a-memcpy-stub.o)
 .debug_frame   0x00001630       0x20 c:/progra~2/gnutoo~1/72018-~1/bin/../lib/gcc/arm-none-eabi/7.3.1/../../../../arm-none-eabi/lib/thumb/v7e-m/fpv4-sp/hard\libg_nano.a(lib_a-memset.o)
 .debug_frame   0x00001650       0x20 c:/progra~2/gnutoo~1/72018-~1/bin/../lib/gcc/arm-none-eabi/7.3.1/../../../../arm-none-eabi/lib/thumb/v7e-m/fpv4-sp/hard\libnosys.a(_exit.o)
